:020000021000EC
:10000000E03F082095010100FB000100E100010034
:10001000090101001901010029010100000000008F
:10002000000000000000000000000000319201000C
:100030003901010000000000919201005901010006
:10004000559A0100559A0100559A0100559A0100F0
:10005000559A0100559A0100559A0100559A0100E0
:10006000559A0100559A0100559A0100559A0100D0
:10007000559A0100559A0100559A0100559A0100C0
:10008000559A0100559A0100559A0100559A0100B0
:10009000559A0100559A0100559A0100559A0100A0
:1000A000559A0100559A0100559A0100559A010090
:1000B000559A0100559A0100559A0100559A010080
:1000C000559A0100559A0100559A0100D0920200FC
:1000D00000C007200003000000C30720F404000054
:1000E00004207146084203D0EFF3098009F0D0BC28
:1000F000EFF3088009F0CCBC704708B5014802F066
:10010000A3F9FEE71C6F020008B5024802F09CF953
:10011000FEE700BF276F020008B5024802F094F91D
:10012000FEE700BF326F020008B5024802F08CF90A
:10013000FEE700BF3D6F020008B5024802F084F9F7
:10014000FEE700BF4A6F020008B5024802F07CF9E2
:10015000FEE700BF586F020008B508F0F3FC09F095
:10016000B9F8BDE8084008F001BD0B4610B5401ACB
:100170005C1AA24203D9C45843F8044BF8E710BDF7
:100180000346002210B51C1AA14202D943F8042BE1
:10019000F9E710BD154809F053FC144809F053FC69
:1001A000134C144DAC4209D3134DAC420ED254F84B
:1001B000080B54F8041CFFF7E3FFF6E794E803008C
:1001C0000C3454F8042CFFF7D0FFEBE70FF0DAFB08
:1001D00009F050FA09F0D6FE09F082FD4FF41640FE
:1001E00009F0A4F9054802F02FF9FEE7E03F0820E6
:1001F000CC000100D8000100E00001006C6F02009B
:1002000010B50446024B036001F0BCF8204610BD57
:10021000F460020010B50446FFF7F2FF204603F039
:10022000F7F8204610BDFFFF10B50446034900F063
:10023000F3FD034B2046236010BD00BF0080094042
:10024000685F020038B5074C236833B92C2003F0EF
:10025000DBF80546FFF7E8FF25602068BDE8384079
:1002600000F07ABD00C30720F0B587B06C460F4D93
:10027000074695E807008DE8070003AE95E80700FC
:1002800086E807000C22314620460FF03BFD38B9C6
:1002900003CC386020687960B860384607B0F0BD9C
:1002A00095E8070084E80700E8E700BF1440024033
:1002B0000022184B1A720278C2F3050283F820203C
:1002C0004278C2F3050283F824208278C2F3040244
:1002D00083F82820C278C2F3020283F83020027922
:1002E000C2F3040283F82C204279C2F3030283F89C
:1002F0003820C179827901F00F0142EA0122417A66
:100300009A87027A01F00F0142EA01229A860122BD
:100310001A727047004002401FB50121092009F000
:100320005BF901222F4B01A81A72FFF79DFFBDF860
:100330000A3003F62603C3F30B030F2B1ED89DF8D8
:10034000053003F03F033B2B18DC9DF8043003F02D
:100350003F033B2B12DC9DF8063003F01F03172BE5
:100360000CDCBDF80C30C3F30B03B3F5B77F05DA33
:100370009DF8093003F00F030C2B2FDD01229DF8AF
:10038000083001A862F304038DF808309DF80930A5
:1003900062F3030340F2DA728DF80930BDF80A30D7
:1003A00062F30B03ADF80A309DF807306FF30203D8
:1003B0008DF807309DF806306FF304038DF8063092
:1003C0009DF805306FF305038DF805309DF8043076
:1003D0006FF305038DF80430FFF76AFF05B05DF891
:1003E00004FB00BF0040024007B501A812F0C8F9A5
:1003F00001A80EF0DDFE03B05DF804FB10B50A4C59
:1004000023681BB9012008F03FFD206008F0CAFAFC
:10041000022808D1002320684FF0FF32BDE81040C9
:10042000194608F0B7BD10BD04C3072010B508F089
:10043000B9FA022808D1BDE81040002303481A4643
:100440001946006808F09EBC10BD00BF04C3072019
:1004500008B5044B1B689847034A137A43F001031D
:10046000137208BD08C3072000000B4008B5012126
:100470001D2009F0B1F80122024B1A631A6BD20752
:10048000FCD508BD004000504FF0FF3337B5B1F543
:10049000805F01934AD2274B1C69E50748D4264C5C
:1004A0002469E40744D4254CE5686D0735D4032559
:1004B000234CA5602561234D1D60002A2FD001AC7F
:1004C0005C6041F00044DC6000249C6041F2060462
:1004D0001C61194C3AB3206041F080610022E16058
:1004E0006560A2604FF4086222611A6942F001025D
:1004F0001A61226942F001022261104A516A41F0F8
:1005000003015162D868C0F30B000028FAD1536A86
:1005100023F00303536203B030BDA568C4E75860FD
:1005200041F00844CFE701AA2260D7E70120F2E7B3
:100530000220F0E72041005000410050000003403D
:100540000040005008000340026830B5D36913F042
:10055000040310D002F1300301F1100451F8045BE0
:10056000A14243F8045BF9D1438A0133438221233A
:100570000120536030BD184630BDFFFF2DE9FF411B
:10058000264C450154F805806719D8F80C60D8F856
:1005900008303343D90716D5786808F0D2FDFB89B7
:1005A00008F1200198424FF0000388BFF8816719D5
:1005B0001A46786808F07AFC58B3BB8A0133BB82CC
:1005C0000423C8F8043040F202631E4212D06719B7
:1005D000B86808F0B6FD3B8A0022984288BF38828E
:1005E00067196946B86808F06FFD18B16946384662
:1005F000FFF7AAFFB20603D563199B6930469847F7
:10060000330703D52C44E3693046984704B0BDE86E
:10061000F081BB890133BB81D2E700BF00C0072056
:10062000084B10B5D3F8C440A20402D50020FFF750
:10063000A5FF630404D5BDE810400120FFF79EBF6D
:1006400010BD00BF00C00F40074A136823F0E063ED
:1006500023F0FF0313600123116803FA00F041F057
:10066000807108431060704700400340002307B5C5
:100670000D4A019352680D48C2F30B12ADF80220E7
:100680000DF1020101AA006808F010FC019B3BB1CA
:100690004FF08052064B1A60BFF34F8FBFF36F8F3E
:1006A00003B05DF804FB00BF0040034010C3072007
:1006B00004ED00E010B508F0E5FE0121C4080C20AF
:1006C00008F08AFF03210C2008F0A0FF4FF400136C
:1006D000104A114913600223B4FBF3F0884214D886
:1006E000116841EA03231360012008F0CDFB0B4B96
:1006F000002218600221012008F022FB4FF4800242
:10070000074B1860074B1A6010BD0233B3F5807FAA
:10071000E2D1E9E7004003403F5DC6000CC307207B
:1007200010C3072000E100E0F7B5002407280546C4
:10073000ADF806401DD808F035F90228154E1CD139
:10074000154F23464FF0FF322146386808F022FC4F
:100750002846FFF779FF23464FF0FF320DF10601DF
:10076000306808F017FC234622462146386808F016
:1007700009FBBDF8060003B0F0BD2846FFF764FF93
:1007800000230DF106011A46306808F003FC00282A
:10079000F6D0EEE710C307200CC3072010B50446BF
:1007A000024B036000F0EEFD204610BDF460020035
:1007B00010B50446FFF7F2FF204602F029FE20465E
:1007C00010BDFFFFF7B50D460D49044608681646F3
:1007D00020F0F000086008681F4640F050000860F4
:1007E0000121032008F012FF08F04CFE009701469B
:1007F00033462A46204600F023FB03B0F0BD00BF7D
:1008000000C0024010B50446034900F005FB034B4D
:100810002046236010BD00BF00C00040D05F020032
:1008200038B5074C236833B92C2002F0EDFD05469E
:10083000FFF7E8FF25602068BDE8384000F08CBA7B
:1008400014C3072010B50446024B036000F09AFD64
:10085000204610BDF460020010B50446FFF7F2FF19
:10086000204602F0D5FD204610BDFFFF10B504461E
:10087000034900F0D1FA034B2046236010BD00BFAE
:1008800000C009403860020038B5074C236833B90E
:100890002C2002F0B9FD0546FFF7E8FF256020682F
:1008A000BDE8384000F058BA18C3072070B590F87A
:1008B00053508AB0044605B9457C284603F0D6FF5C
:1008C000002294F8523084F8522094F854200646BE
:1008D0000092012104F13A02284603F0F5FD044696
:1008E00070B1314602A804F009F948B19DF80C3006
:1008F00003F0C003C02B03D19DF80830AB4200D0F9
:10090000002420460AB070BD10B50446024B0360B7
:1009100000F038FD204610BDB060020010B504465E
:10092000FFF7F2FF204602F073FD204610BD10B520
:1009300090F85240621CD2B20444172A80F8522028
:1009400084F83A1002D903689B689847012010BDCB
:1009500070B50E46037E90F8311004469942B4BF3C
:10096000012500250BDB1146113004F0BFF830B132
:100970000023257E84F83130ED1A18BF01253DB1E2
:1009800094F831305A1C84F831201C44637E337053
:10099000284670BD70B5044600F0E4FC0C4B002501
:1009A000236021260323324684F85430294684F8F4
:1009B000535004F111000FF0D9F93246294604F1E1
:1009C00032000FF0D3F9072003F04EFC204670BD33
:1009D000B06002001FB50446054B0DF1100E0FCBA1
:1009E0000EE90F000EEB840454F8100C04B010BD97
:1009F000C4600200F7B50F460646FFF7EBFF17236A
:100A00000124162202218DF803308DF8073002AB45
:100A10001E448DF802208DF801108DF80040054627
:100A20008DF8051016F8080C21468DF806208DF873
:100A3000044008F0D1FD214616F8040C08F0E6FD4C
:100A40000023AB606C602B6708F01CFD034BB0FB10
:100A5000F3F04743EF6003B0F0BD00BF40420F002A
:100A600070B505460E4614460CB12B6803B970BD2F
:100A70002268134208D06368984722682B6823EAEB
:100A800002032B6023683360A468EDE7F8B5012406
:100A900084400F4616461D4610D079B10C200FF049
:100AA00001F958B14FF40012336880E89000836078
:100AB0002B6830601C43024B2C601A60F8BD00BFED
:100AC00000E100E01FB5184C1849636868460093C0
:100AD000A3680193636A0293A36A0393144B1A6891
:100AE000FFF7BEFF134B11491A6801A8FFF7B8FFC3
:100AF000114B12491A6802A8FFF7B2FF104B0F49B9
:100B00001A6803A8FFF7ACFF009B0BB9019B13B158
:100B10004FF0FF33E360029B0BB9039B13B14FF01F
:100B2000FF33E36204B010BD808002408C8002403D
:100B300020C307201CC3072028C30720AC80024025
:100B400024C3072010B414460029064A0649074B5F
:100B500018BF1346064A18BF0A46214610BCFFF7C5
:100B600095BF00BF948002401CC3072090800240C4
:100B700020C3072070B5174B0E465C69164B05461F
:100B80001A6C1A2022F470021A641A6C04F440647D
:100B900042F420021A64996E41F440619966196822
:100BA00021F470011960196841F4200119600321D2
:100BB00008F02CFD08F066FCB4F5406F06D1324613
:100BC000C1082846BDE8704000F050BA012300205B
:100BD0006B7170BD00C0092000C0024010B5044612
:100BE000024900F01BFA204610BD00BF00000A4079
:100BF00038B5074C236833B91C2002F005FC0546C4
:100C0000FFF7ECFF25602068BDE8384000F008BB26
:100C10002CC3072037B5044615468DF8071007F09A
:100C2000C1FE022809D063699DF807201A701A7D59
:100C30005206FCD5012003B030BD00232A460DF139
:100C40000701E06908F09EF80028F4D063691B7D75
:100C50005B06EFD500230DF107011A46E06908F0A5
:100C600099F90028E6D063699DF807201A70E1E73A
:100C700010B50446024B036000F084FB204610BD13
:100C8000F460020010B50446FFF7F2FF204602F0C0
:100C9000BFFB204610BD10B5044607F083FE0228B6
:100CA00007D1E06908F044FA18B1012007F064FCAC
:100CB000F7E7012010BDF8B5064614460F4609B9FE
:100CC0000020F8BD8369002BFAD007F06BFE0228E4
:100CD00009D1002322463946B06908F05BF900309B
:100CE00018BF0120F8BD08F00FFE4FF47A72002300
:100CF0000EF0C2F800250444002339461A46B069B4
:100D000008F048F958B908F0FFFD4FF47A72002353
:100D10000EF0B2F88D4208BF8442EDD2D0E7012038
:100D2000F8BDFFFF802310B5446909012373006AF1
:100D3000B0FBF1F00DF054FA064B00220DF014F95F
:100D40000DF086FD80B2030A23710323C0B2207028
:100D5000237310BD0000E03F002373B54269019387
:100D60008DF803309368044603F00E03042B21D062
:100D70000C2B1FD0022B3FD1C06908F0E2F9E38CA5
:100D8000984203D9E06908F0DCF9E08410260025D8
:100D900001AA0DF10301E06908F096F900282ED1AF
:100DA0005DB34FF080521B4B1A60BFF34F8FBFF300
:100DB0006F8F22E007F0B6FA0025A06263691A7D02
:100DC000D2070ED51B7801AA8DF803300DF103016F
:100DD0000023A06908F06AF8019B002B18BF0125C9
:100DE000ECE7A06908F0ADF9A38C9842D8D9A069C6
:100DF00008F0A7F9A084D3E7137D02B070BD636942
:100E00009DF803201A70019B002B18BF0125013E9D
:100E1000C6D0BDE704ED00E038B504460D4600F04D
:100E2000A1FA064B6561236000232046A361E361BC
:100E30002362A384E384A36238BD00BFF460020090
:100E400070B516461D46254A436904469342016221
:100E50002FD10121032008F0BFFB2022204B314677
:100E60001A604122636920461A721A7A42F0060219
:100E70001A72FFF757FFA26942B9082D28464FF0B2
:100E80000101B8BF082007F05BFFA061E2693AB931
:100E9000049801210828B8BF082007F051FFE0613D
:100EA000072263695A60A3690BB1E369A3B9002003
:100EB00070BD0C4A934205D10121182008F08CFB2B
:100EC0008022CBE7084A9342F1D10121192008F092
:100ED00083FB4FF48072C1E7012070BD00C0004069
:100EE00000E100E00080094000C009402DE9F8431E
:100EF00044790546894690461E46089F1CB1002449
:100F00002046BDE8F883002BF9D007F04BFD0228FE
:100F10002CD020222B682F61AE61AC7585F814901F
:100F200085F815801A6008F0EFFC4FF47A72002300
:100F30000DF0A2FF10F57A7641F100070023E86872
:100F40001A46194608F026F820B1AC7DB4FA84F4AC
:100F50006409D5E708F0D8FC4FF47A7200230DF04D
:100F60008BFF8F4208BF8642E8D2EEE723464FF45C
:100F70007A722146A86808F00DF80028BFD02346F1
:100F800022462146E86808F005F820222B68AC7557
:100F900085F8149085F815802F61AE6121461A609E
:100FA000E86823464FF47A7207F0F4FF18B1AC7D7D
:100FB000B4FA84F464090023A8681A46194607F0B5
:100FC000E1FE9DE741F00101FFF790BF1FB500244E
:100FD00004AB03F8014D01240094FFF7F3FF9DF8E3
:100FE0000F0004B010BD01F0FE01FFF77FBF1FB579
:100FF00004AC04F8013D012300932346FFF7F3FFFF
:1010000004B010BD1FB5002204AB03F8012D0092FF
:10101000FFF7D8FF05B05DF804FBFFFF38B50025EA
:10102000044601604571012007F02EFF0322A060F5
:101030002946012007F084FE2368094AE0609342B4
:1010400003D10A232371204638BD064A934201D1B9
:101050000B23F7E7044A93420CBF0C236323F1E709
:1010600000C0014000C0054000000A4090F9043073
:1010700070B50B2B05460C46164634D00C2B35D0DC
:101080000A2B36D10121072008F0A6FAB6F57A7F9F
:1010900098BF4FF47A714FF06C0294BF71431649B8
:1010A0002B68B4FBF1F19A612822642049084A4375
:1010B000B2FBF0F21A613C2251430022B1FBF0F185
:1010C0005961DA601A625A629A62402201201A60FB
:1010D00095F90430094A590903F01F0300FA03F394
:1010E00042F8213070BD01211320CDE701211A20E3
:1010F000CAE7002070BD00BFA086010000E100E04B
:10110000036830B55968024628294AD00BD81029FF
:101110002CD0182932D008290AD1027D02F0FE0213
:101120009A60996128E0402959D00DD838296DD0AE
:1011300059689175202199611021196008219961E0
:101140001968C906FCD425E0502951D05829EFD19F
:1011500081699B680B7020210368996110211960D7
:10116000082199611968C806FCD413E0027D42F099
:1011700001029A6008229A61002030BD2020146983
:10118000986108215CB9986110201860996119680C
:10119000C906FCD4137DDD0715D5012030BD527D75
:1011A000BEE7007D10F0010002D020221A60E1E7C6
:1011B000116951B920229A6110221A6008229A619D
:1011C0001A68D406FCD4022030BD9469013914F8A1
:1011D000015B9D609461116108229A6130BD2021FC
:1011E00002699961012A4FF00402DFD89A61C1E7D0
:1011F0009B68816904220B708369013383610369F1
:10120000013B012B03610368D0D1EFE7017D5B68EF
:1012100011F0010F937514BF0120022030BDFFFFB4
:1012200013B50446FFF76CFF80B1002302A941F813
:10123000043DE06807F07AFE019B3BB14FF080521D
:10124000034B1A60BFF34F8FBFF36F8F02B010BD17
:1012500004ED00E00120704770B50546164609B957
:10126000002070BD4C1E14F8011F39B12B683246A6
:101270005B68284698470028F5D1F1E7012070BD4A
:1012800038B504461546FFF7E7FF2A462046BDE875
:1012900038400149FFF7E0BF086102002DE9F7433C
:1012A000002407460D469046994602AE06F8014DC9
:1012B0003B684A461B6831463846984778B19DF8E6
:1012C00007200D2A03D00A2A1CBF2A7001350134D9
:1012D000444509DA0A2AEBD100232B7001E0002CE7
:1012E000FAD103B0BDE8F0830020F5E70EB433B5C2
:1012F000044607F057FB022806D100234FF0FF32C7
:101300001946E06807F046FE06AB0093009B059A7D
:1013100021896068019311F0BFFC2389054698423A
:101320000ADB20F00F01103189B2218160680FF0D3
:10133000A7FF60600028E9D14FF0FF3261682046C6
:10134000FFF78AFF07F02EFB022805D10023E06893
:101350001A46194607F016FD284602B0BDE830408F
:1013600003B07047064B10B503600023044643608A
:1013700003810374012007F087FDE060204610BD63
:1013800028610200044B10B504460360406808B1B0
:101390000EF090FC204610BD286102002DE9F043BC
:1013A0000646C1B0154698460C46002950D0114655
:1013B00047680068A04729462648A047B2682649E2
:1013C000684610F079F929466846A047F268224934
:1013D000684610F071F929466846A0471F49327CDB
:1013E000684610F069F929466846A047B8F1000F31
:1013F0000FD069464FF48072304600F063FB2946F7
:101400006846A04716482946A047012041B0BDE8DC
:10141000F0833A781349684610F04EF92946684639
:10142000A047B368F668DFF840905E4307F1010813
:101430000136A6EB08033B44012BE3D9494618F8D3
:10144000012B684610F038F929466846A047F0E7B6
:101450000846DBE7E18302003C61020041610200D3
:10146000C5850200466102004561020070B50D4667
:10147000044610F001FA2B46024601212046BDE841
:1014800070400EF071BAFFFFF0B50C4687B01746FA
:101490001D46064648B341B31022002102A80EF0B3
:1014A00065FC706801F081FE1149024602A810F047
:1014B00003F929460F48A04729463068A047294626
:1014C0000D48A047294602A8A04700972B46224670
:1014D0000A49706801F0B4FE29460948A047294628
:1014E0003068A04729460748A04707B0F0BD00BFB5
:1014F000CF7D02004B610200E18302009D130100D9
:1015000052610200C58502004B688A680968FFF7CE
:10151000BBBFFFFF1FB501900291039201A90022FA
:10152000024800F043F905B05DF804FB091501001D
:101530000B4619B100220249FFF7A6BF704700BF52
:101540006D1401002DE9F04FC9B008AE05468022A8
:10155000002130460EF00AFC0024DFF89CA12A4648
:101560007F2130460DF0E6FF18B9204649B0BDE8AE
:10157000F08F6049304610F0E8F98642EFD13A2109
:1015800010F05AF900F101083A21404610F054F9E0
:1015900007460028E3D000230370404600F0BEF861
:1015A00001900028DBD0781C0DF0F5FD80460DF190
:1015B000A009B8F1000F01D10124D0E70024802256
:1015C000002148460EF0D2FB274628460DF048FF82
:1015D000431C19D03A2819D10137032F16DD0024F6
:1015E00007AA51464846079411F01FF807AA51462A
:1015F0000746204611F019F807AA834651462046AF
:1016000011F013F804463FB90024AEE709F80400CE
:1016100001347F2CD9D1E2E7BBF1000FF4D00028D0
:10162000F2D058460DF0B7FD834620460DF0B3FDCD
:10163000394600FB0BFB019800F022F980B182686B
:10164000C36853439B450BD1476807EB0B034FF02F
:10165000FF3B0393039B9F4205D1BBF10A0FD3D1FC
:1016600008F1FF38A5E728460DF0FAFE04462846A3
:101670000DF0F6FE029028460DF0F2FEB0F1FF3FAD
:101680008346C1D00EF09CFAE3B25A1C815C480735
:1016900012D5303C0EF094FA9DF80830E4B25A1C92
:1016A000815C24014907E4B215D5029B303B1C4400
:1016B000E4B207F8014BCDE7059304920EF080FAEF
:1016C000049A059B825C02F00302012A08BF2033C2
:1016D000A3F15704DEE7049202930EF071FA049A24
:1016E000029B825C02F00302012A08BF2033573BB1
:1016F000DDE700BF4B610200E183020010B50C463C
:1017000011461A46A047012010BD08B5006810F028
:10171000A1F8003018BF012008BDFFFF07B5002366
:1017200030B10246044800930449006801F072FD9C
:1017300003B05DF804FB00BF30C307200B170100A6
:10174000F8B5064610B900242046F8BD0378002BF2
:10175000F9D0154D2B6813B901F01DFD28603046F6
:10176000FFF7DCFF07460028EDD108200EF09AFABB
:1017700004460028E7D080E8C00001F00CFD60605E
:1017800018B920460EF096FADDE72868214601F0E8
:101790000FFD05460028D7D160680EF08BFA204671
:1017A0000EF088FA2C46CFE730C3072007B50B466A
:1017B00030B10092024604480449006801F040FD3F
:1017C00003B05DF804FB00BF30C30720FD16010025
:1017D00008B542684B689A4207D00968006810F063
:1017E00039F8003018BF012008BD002008BD08B539
:1017F0000B460168184610F02DF8003018BF012084
:1018000008BDFFFF2DE9F743894690461F46BDF806
:101810002850064620B90025284603B0BDE8F083CD
:101820000029F8D0002AF6D0002BF4D014200EF0B6
:1018300039FA04460028EED09DF82C30002D0374B0
:1018400008BF01250023C560C0F80090C0F80480DF
:101850008760009302460949706801F0F1FC054673
:1018600018B920460EF026FAD6E72146706801F036
:101870009FFC05460028CFD1F3E700BFD117010038
:1018800013B50A4640B149B10C78002344B1009326
:101890000449406801F0BEFC02B010BD0846FBE7F9
:1018A0002046F9E7EF17010037B50D46FFF736FF81
:1018B00048B155B12C7800234CB100932A46054914
:1018C000406801F0A7FC03B030BD2846FBE7204686
:1018D000F9E700BFEF1701002DE9F3471446FFF7C2
:1018E000E3FF8046002800F0DF8098F810300430D5
:1018F000013B85C807FB0207072B00F2D580DFE814
:1019000003F0224B70ABD395D30405464FF000098A
:10191000674EBD4228D22146304610F016F8221AF2
:10192000D8F8043050425041187023461A781C46AB
:10193000013312B12C2AF9D11C46D8F808304FF0E7
:1019400001091D44E5E700230646994602ADDFF88C
:1019500064A145F8043DBE4206D22A4651462046BF
:101960000FF0CEFE012803D0484602B0BDE8F08754
:10197000D8F80820294630460EF0D3F923461A78C5
:101980001C46013312B12C2AF9D11C46D8F8083074
:101990004FF001091E44DEE700230546994602AEDA
:1019A000DFF814A146F8043DBD42DDD2324651466F
:1019B00020460FF0A5FE0128D6D1D8F808203146E0
:1019C00028460EF0AEF923461A781C46013312B1B0
:1019D0002C2AF9D11C46D8F808304FF001091D44D3
:1019E000E2E74FF00009054602AEDFF8D0A006F8A6
:1019F000049DBD42B8D23246514620460FF080FECB
:101A00000128B1D1D8F80820314628460EF089F9CE
:101A100023461A781C46013312B12C2AF9D11C46F0
:101A2000D8F808304FF001091D44E2E700210EF01C
:101A30009DF920460FF020FFD8F80830D8F8045060
:101A400098420246214628BF03F1FF3228460EF095
:101A500068F94FF0010987E7002305464FF00009B8
:101A600002AEDFF85CA046F8043DBD42BFF47CAF97
:101A70003246514620460FF043FE01287FF474AFF2
:101A8000D8F80820314628460EF04BF923461A783C
:101A90001C46013312B12C2AF9D11C46D8F8083063
:101AA0004FF001091D44E0E74FF000095CE700BF7B
:101AB0000E6202007D610200B5610200D461020085
:101AC00001620200037C2DE9F74F013B05460C46FD
:101AD0001646072B00F2F781DFE813F008008B00B1
:101AE0000D017801D40147012A014E018368012BC1
:101AF00020D14768CA4A97F90030314620460FF096
:101B0000A7FDDFF85493C7F1010807EB0803EA6863
:101B10009BB2934203D3012003B0BDE8F08F20466F
:101B20000FF0AAFE17F9013F311A4A4620440FF080
:101B30008FFDEAE7022B1BD1D0F80480B94AB8F92F
:101B40000030314620460FF083FD0127DFF808936F
:101B5000EB689F42DFD220460FF08EFE0137311A2C
:101B600038F9023F4A4620440FF072FDBFB2EFE75A
:101B7000042B1BD1D0F80480AB4AD8F80030314692
:101B800020460FF065FD0127DFF8D092EB689F42F9
:101B9000C1D220460FF070FE0137311A58F8043FC9
:101BA0004A4620440FF054FDBFB2EFE7082B40F047
:101BB0008A81D0F804803146D8E900232046CDE957
:101BC00000239A4A0FF044FD0127DFF89492EB6856
:101BD0009F42A0D220460FF04FFEF8E90223311AAF
:101BE000CDE9002320444A4601370FF031FDBFB252
:101BF000EDE78368012B1CD147688D4A3B7831465D
:101C000020460FF025FDDFF85C92C7F1010807EBD5
:101C10000803EA689BB29342BFF47DAF20460FF001
:101C20002BFE17F8013F311A4A4620440FF010FDF1
:101C3000EDE7022B1CD1D0F804807E4AB8F80030C2
:101C4000314620460FF004FD0127DFF81892EB68BB
:101C50009F42BFF460AF20460FF00EFE0137311AED
:101C600038F8023F4A4620440FF0F2FCBFB2EEE7DC
:101C7000042B1CD1D0F804806F4AD8F800303146CC
:101C800020460FF0E5FC0127DFF8DC91EB689F426E
:101C9000BFF441AF20460FF0EFFD0137311A58F87D
:101CA000043F4A4620440FF0D3FCBFB2EEE7082BB6
:101CB00040F00981D0F804803146D8E9002320465D
:101CC000CDE900235D4A0FF0C3FC0127DFF89C91AA
:101CD000EB689F42BFF41FAF20460FF0CDFDF8E93F
:101CE0000223311ACDE9002320444A4601370FF080
:101CF000AFFCBFB2ECE74768514A3B78314620461B
:101D00000FF0A6FCDFF86891C7F1010807EB0803A4
:101D1000EA689BB29342BFF4FEAE20460FF0ACFDE2
:101D200017F8013F311A4A4620440FF091FCEDE7C5
:101D30004768444A3B78314620460FF089FCDFF87B
:101D40003491C7F1010807EB0803EA689BB293429C
:101D5000BFF4E1AE20460FF08FFD17F8013F311AB6
:101D60004A4620440FF074FCEDE74368364A31469A
:101D700020460FF06DFCCEE6D0F804A0334F9AF861
:101D80000030DFF8F480324A002B14BF3B46434654
:101D9000314620460FF05CFCD146DFF8E0B0CAF1D6
:101DA00001034B44EA689BB29342BFF4B4AE2046B1
:101DB0000FF062FD19F8013F311A002B14BF3B46AA
:101DC00043465A4620440FF043FCE8E7D0F804901D
:101DD0000127D9F800000CF025FA1E4ACDE90001D0
:101DE000314620460FF034FCDFF894A0EB689F42A8
:101DF000BFF491AE20460FF03FFDA6EB000B04EBC5
:101E0000000859F8040F0CF00DFA0137CDE9000174
:101E10005246594640460FF01BFCBFB2E6E700BFF2
:101E20005D6102006961020072610200816102006D
:101E3000926102009F610200A9610200B961020083
:101E4000CB610200D7610200E16102000E62020074
:101E5000EB610200F7610200656102007C61020033
:101E60008C6102009B610200B4610200C561020046
:101E7000D3610200D461020057610200F3610200E5
:101E800000620200D0F804803146D8E900232046E1
:101E9000CDE900230D4A0FF0DBFB0127DFF830907E
:101EA000EB689F42BFF437AE20460FF0E5FCF8E93F
:101EB0000223311ACDE9002320444A4601370FF0AE
:101EC000C7FBBFB2ECE7002026E600BF04620200B9
:101ED0000062020038B514461D46FFF7E5FC28B144
:101EE0002A462146BDE83840FFF7ECBD38BD2DE954
:101EF000F34100240746904601940D4629B120B1D4
:101F0000786801F052F9844202D302B0BDE8F08152
:101F100001AA2146786801F067F978B1C36886683C
:101F20005E43B8F1000F06D02B684168324608EBDB
:101F300003000DF0F6FE2B681E442E600134DFE72F
:101F40002DE9F74300248846174601940646C0B1A0
:101F5000706801F02AF9844213D201AA2146706800
:101F600001F042F990B1C3688568D7F800905D43ED
:101F700041682A4608EB09000DF0C4FE20B1002399
:101F80003B6003B0BDE8F0834D443D600134DFE7C2
:101F900007B5002202A941F8042DFFF7A8FF019818
:101FA00003B05DF804FB07B5002202AB43F8042D33
:101FB0000A461946FFF79BFF019803B05DF804FB42
:101FC000002307B502AA42F8043DFFF7B9FF0198C4
:101FD000003018BF012003B05DF804FB01207047FA
:101FE0000120704701207047936810B4013B002B1B
:101FF000936008DA9469A34202DBCBB20A2B02D1C8
:1020000010BC10F085BE1368581C10601970C8B25F
:1020100010BC70470A4B70B51B780D467BB1094E5A
:10202000441E14F8011F21B130688268FFF7DCFFFD
:10203000F7E725B12846BDE870400FF0B7B870BD8E
:1020400038C30720E4C0072070B50C460B4E451E70
:1020500015F8011F21B130688268FFF7C5FFF7E767
:1020600024B12046BDE870400FF0A0B8034B0A2110
:10207000BDE8704018688268FFF7B6BFE4C007206B
:102080003F4B2DE9F7431A68036904469A4236D15B
:1020900000273D4600213B48FFF7BCFF3A49606AF4
:1020A000FFF7B8FF00213948FFF7B4FF384BDFF8DE
:1020B000EC901E688EB1D6F800800137D8F8003059
:1020C00040461B69766898470028F3D14946D8F8FE
:1020D0002400FFF7B9FF0125ECE755B92D4EAF42BB
:1020E0000DD0002330681A46194606F04BFE013524
:1020F000F5E731462848FFF7A7FF06F0F5F800237B
:1021000024484FF0FF321946006806F043FF06F0FE
:1021100003F902AE46F8040D06F0FEF80546DFF8B6
:102120008080606818B1E16807F00DF8A06023684E
:10213000A16A5B6920469847074630B9606A414604
:10214000FFF782FF384606F08BFAA3690133A361DB
:10215000236A1BB106F0E0F8854206D3E169002945
:10216000DFD0304606F0DCF9DBE706F0D5F8256A6B
:102170000544206906F006FC80006061EEE700BFC0
:1021800048C30720EE630200F26302001F640200EE
:1021900034C3072044C30720656402004C64020076
:1021A0008D6402002DE9F74F594D8046296839B9F1
:1021B0005848FFF749FF0124204603B0BDE8F08FDF
:1021C0004FF000094C4600215348FFF723FFDFF88A
:1021D00078B12E68DFF874A1CEB13768766807F160
:1021E0001003FA6A019397F83030C2F38F0200931C
:1021F000796A3B46584609F1010905F047FF002876
:10220000EAD15146786AFFF71FFF0124E4E731461F
:10221000484606F0AEFD414B186020B931464048B3
:10222000FFF712FF012400213E48FFF7F3FEDFF81D
:1022300020912E686EB1376876683B6838469B6897
:1022400098470028F6D14946786AFFF7FDFE012439
:10225000F0E731463448FFF7DDFE2F6887B3C0CF83
:1022600033683046DB68984700284CD0B8F1000F3F
:1022700023D04FF001094FF0020A706AFFF760FAAD
:10228000042306F1140229498DE800068346FFF76E
:10229000B9FA8DE8000600284FF0040306F1180291
:1022A0002349584608BF4C46FFF7ACFA28B92149E4
:1022B000706AFFF7C9FE0124D0E7002CCED0F6E704
:1022C00039461D48FFF7A6FE1C491D480DF02AFAA5
:1022D000064620B1FFF736F930460CF0C9FF002161
:1022E0002A680D46174B186842B117685268FE6A93
:1022F000B542F9D2386935460121F5E700293FF4A6
:102300005BAF186058E7B8F1000FD0D04446B0E793
:1023100034C30720C1620200EF62020044C30720F9
:1023200021630200446302007363020098630200A9
:10233000A3630200AD630200D163020027720200B2
:10234000E782020048C307208120010006630200E3
:102350005F63020010B5044638B1082001F054F85C
:10236000024B04601A681860426010BD34C3072035
:102370000B4B10B518700846FFF714FF044658B908
:1023800001460848FFF746FE05F07CFF2146064857
:10239000BDE81040FFF758BE00210448F8E700BF31
:1023A00038C307204C620200676202008B620200A1
:1023B00070B50B4D4FF47A76056000254560856059
:1023C000056145618561C5614EF6602541620499EC
:1023D000C66005628162C26280F8303070BD00BFA5
:1023E00034620200044B1A6890423ABF5B6853F8AB
:1023F00020000020704700BF3CC3072070B5064690
:1024000007F082FA841941F1000507F07DFAA9422C
:1024100008BFA042F9D370BD08B506F0C3FA831E09
:102420005842584108BD10B50446FFF7F5FF20B1EA
:102430002046BDE8104006F09FB84FF47A70604324
:10244000BDE81040FFF7DABF10B5044606F004FF00
:10245000013C14F8010F18B9BDE8104006F00CBF9C
:1024600007F0A0F8F5E70FB470B54FF48075C2B06F
:1024700046AC54F8046B2A46002102A80DF076FC05
:1024800023463246294602A8019410F005FC044672
:1024900002A8FFF7D9FF204642B0BDE8704004B063
:1024A0007047FFFF2DE9F84F1C4F04468846002B6C
:1024B00018BF1F46914672B369B3436882689A4257
:1024C0001CD305685D1919D2A900C0680EF0D8FEAA
:1024D000A668E0604FEA860AB5420ED9102000F0E7
:1024E00093FF8346102200210DF040FCE368013683
:1024F00043F80AB00AF1040AEEE76560A368E268EF
:10250000591C52F823300A9AA160C3F800905F600A
:10251000C3F80880DA60BDE8F88F00BFC685020006
:102520002DE9F04F0C4693B080464FF0FF321F4923
:102530002046FEF791FE0025DFF87890DFF878A0BE
:10254000DFF878B0D8F808309D4226D2D8F80C30A1
:1025500053F825707B68184601930FF08DF92028F9
:10256000019B14D902AE3A68514630460FF0A4F8E8
:102570000A2130460FF0D6F9864202D259460FF0B2
:1025800073F931462046FEF7B1FE0135DAE73A68C5
:1025900049462046FEF7AAFEF7E74FF0FF3204490E
:1025A0002046FEF76DFE13B0BDE8F08F35650200E2
:1025B000686502005C65020049650200BB6D0200AF
:1025C0002DE9F041054608460F46164600F096FBF9
:1025D000002823DD0024AB689C421BD2EB68384600
:1025E00053F82480D8F8001000F0CFFB80B1D8F861
:1025F00004305BB11A780C49002A18BF19464FF015
:10260000FF323046BDE8F041FEF73ABE0649F6E734
:102610000134E0E74FF0FF320449F2E73146284643
:10262000BDE8F041FFF77CBFBD640200E164020039
:1026300038B50D460024284600F060FB844208DAD5
:102640002146284600F0F1FC0378202B01D001340C
:10265000F1E72146284600F03CFC2846BDE838401A
:10266000014900F09EBC00BFFE7402002DE9F04F4E
:102670000C4691B0514906462046154600F0B1FC83
:1026800020224F49204600F008FC074600284CD184
:102690008146B368994556D34FF00009DFF82CB155
:1026A000B368994580F082802022F3680DEB020127
:1026B00053F8298003A800F0FBFAD8F8001003A80B
:1026C00000F067FD002301AA5946204601930293BA
:1026D00000F01DFB01A80FF0CFF8012860D901A977
:1026E00003A800F0C3FB8246002859D0D8F8002088
:1026F00021463046FFF79CFFD8F80830D8F80C2068
:1027000029462046984760B94FF0FF322D492846A8
:10271000FEF7B6FD4FF0FF32D8F804102846FEF75A
:10272000AFFD03A800F0D8FA35E0254A214630462F
:10273000FFF77EFF2A4621463046FFF741FF384625
:1027400011B0BDE8F08FF368202253F829802046AD
:10275000D8F8001000F0A1FB8246F0B1D8F80020B4
:1027600021463046FFF764FFD8F80830D8F80C202F
:1027700029462046984707460028E0D14FF0FF320F
:1027800010492846FEF77CFD4FF0FF32D8F80410C0
:102790002846FEF775FD5746D1E709F1010978E7AC
:1027A00003A800F099FA09F1010979E74FF0FF3227
:1027B00005492846FEF764FDC1E700BF0861020035
:1027C000066502000B650200E1640200306502004C
:1027D000002337B502AC44F8043D0D4D40B9034623
:1027E00002462146286806F0D5FB019803B030BDAB
:1027F0000A222146286806F0CDFB03460028F4D1C2
:1028000004490A8801320A804FF0FF32E9E700BF2D
:1028100050C307204CC30720F0B50024ADF50D7D53
:102820000D460746029407F06FF84FF47A720023C2
:102830000CF022FB4FF409720646214603A80DF066
:1028400095FA002D38D012221C4903A804F020FB71
:10285000044668BB069903A804F096FD044630B907
:1028600002AB2A46394603A804F061FC044603A8DB
:1028700004F078FD07F048F84FF47A7200230CF06A
:10288000FBFA0F4B801B1A889042029A88BF18806F
:1028900095420CBF0126002606D0059B21460093D9
:1028A00008482B460EF00EFC30460DF50D7DF0BDB0
:1028B00005480EF007FCDDE72C46DBE7F765020074
:1028C00054C3072015660200016602002F4B2DE954
:1028D000F74F1D68DFF8BC902E46DFF8BCA005F569
:1028E0008068002302AF47F8043D4EF66022394667
:1028F000D9F8000006F04EFB08B1019B2BB9711B03
:102900002846FFF789FF2E46EBE7D9F8000006F0CE
:102910000FFCBAF80030019C0130984288BFAAF839
:10292000000020460EF0A8FF0A230021235400F1E6
:10293000010B019A06EB0B0402F80B10A04501995C
:102940001FD8A8EB060230460DF0EBF9A4EB080403
:102950004FF480612846FFF75FFF3CB10199ABEB74
:10296000040B2246594428460DF0DBF92C44084854
:1029700000234FF0FF323946006806F003FA26467E
:10298000AFE75A4630460DF0CCF9F0E76CC30720AC
:1029900050C3072068C307204EC3072073B502AC9D
:1029A00044F8040D0D4649B100234FF0FF32214693
:1029B0000A48006806F0E6F902B070BD06460EF05F
:1029C0005BFF0A233354019B411C5D540198FFF7C0
:1029D00023FF2B462A4621460148EAE768C3072021
:1029E00050C3072007B505F0DDFF02280CD1084BC6
:1029F0001B684BB10023074802A941F8043D4FF082
:102A0000FF32006806F0BEF903B05DF804FB00BFBA
:102A10006CC3072068C3072003289ABF024B53F8F2
:102A200020000020704700BF58C30720014B1888C2
:102A3000704700BF4CC30720014B1888704700BF88
:102A400054C30720014B1888704700BF4EC30720AE
:102A50002DE9FF412B4C80462568002D4AD14FF4CB
:102A6000806003950DF01EF9274E2060A8B92068FC
:102A7000002842D1336863B10A24002303A91A460F
:102A8000306806F087FA10B103980DF013F9013C95
:102A9000F3D11E480EF08AFB2CE02A4604210A20BE
:102AA00006F04EF91A4F2A46386004210A2006F033
:102AB00047F93B683060002BD9D00028D7D00A25D1
:102AC00096200DF0EFF803900028D0D0002303A942
:102AD0001A46306806F056F9013DF1D10195CDF85E
:102AE00000802B464FF4C0720A490B4805F0CEFA1D
:102AF0000028BCD004B0BDE8F0810DF0DBF8002365
:102B00002360B7E76CC3072050C30720AB65020002
:102B100068C30720A4650200CD280100012303FA41
:102B200000F0044B1A7811B110431870704722EA74
:102B30000000FAE740C007202DE9F04F9A46454BC8
:102B400097B01B6806460C461546002B7CD00FA894
:102B5000FDF78AFB06F0D8FE4FF47A7200230CF0E2
:102B60008BF9814605F01EFF3B4B821ED2F1000817
:102B700016AF48EB02080FCB07E90F00002C66D018
:102B80002F2120460EF0CEFE20B95C2120460EF00B
:102B9000C9FE00B1441CDFF8D4B04046002D08BF88
:102BA0005D46FFF715FE9DF83E1095F800C001F058
:102BB0001F0E9DF83D109DF8412001F03F010B9143
:102BC0009DF83C109DF8403001F03F010C9116A992
:102BD00001EB860151F8101C03F01F030D911F49F2
:102BE000CDF800E0BCF1000F08BF594607910D99E0
:102BF00002F00F0204910C99CDF820A002910B99DC
:102C00000695019105941649CDF80C9007460EF0F3
:102C100053FD21ABC0F19501209A38440E9310F07A
:102C20003BF8104A414652F826303846013342F804
:102C30002630FFF7B3FE0C4B1B7843FA06F6F3077A
:102C400002D538460EF0B2FA17B0BDE8F08F074C47
:102C5000A1E700BF6CC30720946502001E63020059
:102C6000D065020058C3072040C00720C685020077
:102C70000FB40E4B37B51B6893B105F093FE831E5E
:102C80005C425C412046FFF7A3FD054607AB95215A
:102C9000069A019310F000F821462846FFF77EFEC1
:102CA00003B0BDE8304004B0704700BF6CC30720DC
:102CB00010B50123044623700023002AD4BF1A460E
:102CC00002F1FF32A1600846E360236162600021E7
:102CD0000DF04CF8204610BD38B50446806818B198
:102CE00023780BB90CF0E6FFE5682DB12846FFF715
:102CF000F3FF284600F08CFB204638BD80680EF0BC
:102D0000BBBD40687047002283681A7070470EB4DC
:102D100003B503AA52F8041B806801920FF0EEFF7E
:102D200002B05DF804EB03B070470CB4F7B50024B3
:102D300008AB02AD53F8047B45F8044D2A46806881
:102D40000E4600930FF071FC78B13B1B002B0CDD9D
:102D5000009B1A1D1B68009203B118602A46314679
:102D600000200FF062FC0134EEE7204603B0BDE81E
:102D7000F04002B0704708B50B46816818460EF067
:102D800069FDB0FA80F0400908BD08B580680EF012
:102D900026FDB0FA80F0400908BD2DE9F74F0F7805
:102DA0008A46A7B34FF0FF35866833788BB3337804
:102DB0007BB338460FF0F8FC014630460EF03CFD80
:102DC00038B938460FF0FDFC014630460EF034FDB0
:102DD000E8B10446851B0AF10108461C14F8010FEE
:102DE000C14688B198F800B008F10108BBF1000FA6
:102DF0000AD00FF0D9FC019058460FF0D5FC019B8A
:102E00008342EBD04FF0FF3599F80030CEE74FF01A
:102E1000FF35284603B0BDE8F08F08B5FFF7BDFFCA
:102E2000013018BF012008BD10B5846820460EF09F
:102E30008CFD08B1001B10BD4FF0FF3010BD70B508
:102E4000044608460D460EF017FD06462046FFF7DD
:102E500055FF864208DC32462946A0680EF03BFD4D
:102E6000B0FA80F0400970BD002070BD70B5054615
:102E700008460C460EF000FD06462846FFF73EFFCA
:102E8000864208DC3246A96820460EF0FDFCB0FA06
:102E900080F0400970BD002070BDF8B504460846BA
:102EA0000E4617460EF0E8FC05462046FFF726FFC3
:102EB00085420CDCA368314620465D5DFFF7D6FFF6
:102EC00030B1BD4204D0B5FA85F04009F8BD00200C
:102ED000F8BD38B50C460546FFF710FF002C02463A
:102EE00009DDA04207DBA868121B013201190CF0B2
:102EF00023FF012038BD002038BD38B50C460546FB
:102F0000FFF7FCFE0023A042A1BFAA68001B1354D8
:102F10000120B8BF184638BD70B50D4606461446A8
:102F2000FFF7ECFE002D11DBA8420FDD002C0DDDBC
:102F3000421B9442A8BF1446B068121B2C440119CE
:102F4000013228440CF0F8FE012070BD002070BD55
:102F500070B505460E46FFF767FF431C044609D0CF
:102F600030460EF089FC214602462846BDE87040F6
:102F7000FFF7D2BF002070BDF8B585680F462B461D
:102F80000024591B13F8016B3EB1BC4203D096429A
:102F9000F7D10134F5E7FFF79CFF201C18BF012093
:102FA000F8BDF8B506460D46FFF7A8FE0024074613
:102FB000BC420EDA28460EF05FFC2B465A1B9042AC
:102FC00007DDB16813F8012B095D9142F6D1013498
:102FD000EEE72CB121463046BDE8F840FFF779BF57
:102FE000F8BDF8B5054608460C460EF045FC074608
:102FF0002846FFF783FE0026013800280DDB234614
:103000001A1B974209DDAA6813F801EB1118125C2C
:103010007245F5D10E700138EFE7F8BDFFF7ABBE92
:103020008068704780680CF0B6B838B50C46054625
:10303000FFF764FEA042A868C8BF001938BD037836
:1030400070B50546FBB9B1B10131102491FBF4F420
:10305000AE68013424016C607EB920460CF022FE7B
:10306000A86018B1224631460CF080FEA8680030F6
:1030700018BF012070BD0421E7E7611C30460EF047
:10308000FFF8A860F2E7002070BD002202704260E5
:103090008260C2600261FFF7D2BF10B50446FFF73D
:1030A000F4FF204610BD43688B4201DAFFF7C7BF2B
:1030B000012070470EB4F3B50646002407AB53F861
:1030C000047B0093B06880B17568009B01353A4677
:1030D000294601930FF0E0FD8542044605DC411CC2
:1030E0003046FFF7E0FF0028ECD1204602B0BDE8F3
:1030F000F04003B0704738B505460C46FFF7FEFDBB
:103100006B682118994205DD2846BDE8384020311A
:10311000FFF795BF012038BD70B5054608460E463D
:103120000EF0AAFB01462846FFF7E5FF044618B15A
:103130003146A8680EF071FB204670BD002307B52C
:10314000ADF8043002AB03F8041D1946FFF7E4FFA5
:1031500003B05DF804FB70B5044608460D460EF05A
:103160008BFB6368014698420DDD2046FFF767FF41
:10317000064640B962682946A0680EF0BEFBA26808
:103180006368D65470BD2946A068BDE870400EF053
:103190006BBBFFF7E0BF08B50C200CF083FD18B146
:1031A000002303604360836008BD00B180687047FE
:1031B00038B50D46044608B9002038BD08200CF08B
:1031C00071FD0028F8D0002343602368056033B9FF
:1031D0002060A36860600133A360012038BD63688C
:1031E000002BF6D05860F4E798B12AB121B11068ED
:1031F00078B14368136008E0006841B100B97047D6
:1032000040680139F9E7002AF3D1006870470028C7
:10321000F9D17047F8B50D4616461F4608B900208B
:10322000F8BD0029FBD00468002CF8D0069B3A4674
:1032300031462068A84708B92068F8BD6468F3E7FC
:10324000F8B50D4616461F4608B90120F8BD0029FD
:10325000FBD00468002CF8D0069B3A463146206823
:10326000A84708B16468F5E7F8BD002313B50C461C
:1032700002A941F8043D006805F058FE019B1BB10E
:10328000236843F001032360012002B010BD30B574
:10329000044685B001A80D46FCF7E6FF9DF8063010
:1032A000227903F01F039A421BD19DF80530627901
:1032B00003F03F039A4214D19DF80430A27903F041
:1032C0003F039A420DD1002304A941F8103D236821
:1032D000186805F02BFE009B1BB12B6843F001031F
:1032E0002B60012005B030BD30B50025234A87B0E2
:1032F0001378234C43F00103137003A80295FCF7E5
:10330000B3FF2B46009502AA1E492068FFF798FFDD
:103310009DF80C3013F03F031BD1009302AA19490A
:103320006068FFF78DFF9DF80D3013F03F0310D15B
:10333000009302AA1349A068FFF782FF9DF80E30A0
:1033400013F01F0305D1009302AA0E49E068FFF7AE
:1033500077FF00230C48009302AA0C490068FFF78E
:103360006FFF029B3BB14FF08052094B1A60BFF3D5
:103370004F8FBFF36F8F07B030BD00BF00400240DA
:1033800070C307206B32010080C307208F32010019
:1033900004ED00E005F060BF05F06EBF124B30B5E4
:1033A0001A68014612B94FF080521A6018680F4A25
:1033B00044180F4D2244AA4297BF0E4A1C60881839
:1033C00018601C6898BF10460B4A944282BF0132B5
:1033D0001A60002039B1094A136801331360084BA1
:1033E0001860084B196030BD8CC30720FF7FFFEFCA
:1033F000FE3F0710F4C70720FF3F082084C30720C3
:1034000088C3072090C307200CF04CBC0CF04ABCCA
:103410000CF050BC0CF04EBC30B504468BB0684686
:103420000CF008FF214B224D2360089B214AA3602A
:10343000079B636053B913681F498B428ABF03F12E
:10344000604303F17043A3F5E823636000236168E0
:10345000E360B1F5803F82BF01F17041A1F5E82141
:1034600061601168144A914213D8C5F10053521A91
:1034700003F504231A44E2602046104BE1611B6807
:10348000A3610F4B1B6863610E4B1B6823610BB07C
:1034900030BD0D4B9942EFD8C1F1804303F5801345
:1034A0005B1B002BC8BFE360E6E700BFF40700002A
:1034B000F4C707208CC307200080001088C30720B2
:1034C00090C3072084C30720FF3F082030B504467F
:1034D0008DB0A8B300256846FCF7C6FE9DF8003005
:1034E00003A803F03F0303939DF801300B9503F00D
:1034F0003F0304939DF8023003F01F0305939DF8EA
:10350000043003F01F0306939DF8053003F00F030A
:10351000013B0793BDF80630C3F30B03A3F26C73B2
:1035200008939DF8033003F007030993BDF80830B2
:10353000C3F30B03013B0A930CF000FD84E8210068
:1035400000200DB030BD033808B50A2822D8DFE8C6
:1035500000F02106060D19151D19112121000BF08F
:103560002FFE022303604FF0FF3008BD0BF028FE52
:103570001623F7E70BF024FE1323F3E70BF020FEEE
:103580001123EFE70BF01CFE0D23EBE70BF018FE09
:103590000923E7E70BF014FE0523E3E7431C70B5AE
:1035A0000E4906D00E4B1B68984202D10A6810469D
:1035B00070BD00231C460B4D0B60062B1A4606D02F
:1035C000531C05EB031656F8106CB04204D104B13D
:1035D0000A60034B1860EAE70124EEE700C4072005
:1035E00044C00720A0C30720084B10B50446186844
:1035F00018B1836B0BB90BF0E7FF24B1012C02D09B
:10360000022C18BF203C204610BD00BFE4C007209C
:10361000014B1860704700BF98C30720014B18602A
:10362000704700BF94C3072008B502480DF0BEFDE7
:10363000FEE700BF7366020008B502480DF0B6FD54
:10364000FEE700BF59660200002070470120704766
:1036500070B50A4B1D7885B90126094C60222946B0
:1036600020461E700CF082FB4FF0FF33236323646F
:103670002365022325602661236270BD9CC3072059
:10368000A0C307202DE9F74389461446FFF7ACFF96
:103690000546FFF783FF062806D10BF091FD0923AD
:1036A00003604FF0FF3016E01B4E0701F3199B68D3
:1036B000DB07F2D4002D11D001DB052DF1DDF3196C
:1036C000D8680028EDD001AB2246494603F077FCCC
:1036D000F8B1FFF738FF03B0BDE8F0830F4B1A686D
:1036E000984632B14D46A5EB09039C420ADC24EA18
:1036F000E475601B0028D4DB3E447368201A034441
:103700007360E8E7D8F800300020984705F8010B0F
:10371000E9E70198201AEDE7A0C3072094C307202A
:10372000F8B50E461746FFF75FFFFFF737FF06288D
:1037300004D0124C05016219D06830B90BF040FD7D
:10374000092303604FF0FF30F8BD3FB9314603F065
:103750001BFE70B1BDE8F840FFF7F5BE012F02D1A6
:1037600081683144F3E7022F01D1C168F9E70920EC
:10377000F0E76319DA6890685860F8BDA0C30720C5
:103780002DE9F3410F461446FFF72EFF0646FFF7DB
:1037900005FF0628054604D10BF012FD092303603E
:1037A00006E0052E26D80120B04010F0390F02D0D7
:1037B0004FF0FF302CE010F0060F1BD0174E306892
:1037C00030B1B846A8EB07039C420EDC24EAE47053
:1037D000201A431CECD0A042EAD0114B201A03EB74
:1037E00005135A6802445A6012E0336818F8010B56
:1037F0009847E7E70A4B03EB0513D8680028CBD0BE
:1038000001AB2246394603F092FC20B1FFF79BFE44
:1038100002B0BDE8F0810198DAE700BF98C3072045
:10382000A0C307200EB42DE9F84107464FF0FF3042
:10383000079DFFF7B3FE0628064609D10BF0C0FC32
:10384000172303604FF0FF30BDE8F84103B0704725
:1038500028074349384648BF25F480650DF0FAFF34
:10386000002876D03F4938460DF0F4FF002872D08A
:103870003D4938460DF0EEFF00286ED005F4C063D8
:10388000B3F5C06F01D1A9070DD105F42063B3F5DD
:10389000206F39D015F4007238D1022D04D90BF005
:1038A0008FFC1623CDE7082215F0030330D142F038
:1038B00001040BF085FC052303602C4B03EB061879
:1038C000D8F80C00C0B94FF4097101200BF068FC66
:1038D000C8F80C000028B5D0E2B2394603F0D8FA97
:1038E00010B9B41D621C1DD1FFF72DFE1F4B03EB59
:1038F0000613D8680028A5D00CF0DCF91B4B03EBAD
:1039000006160023F3609DE70022CDE71022CBE7E7
:10391000012B02D142F00204CBE7022BBFD142F0CF
:103920000304C6E7002CE1DB104A3301D718D4505A
:1039300000237B602B07BD6008D5F868C16803F0E1
:1039400023FD0028D2D1FB689B687B6004F1200036
:103950007AE70324E8E70424E6E70524E4E700BF68
:103960008D66020098660200A3660200A0C30720CD
:1039700038B5FFF739FEFFF711FE062806D10BF028
:103980001FFC092303604FF0FF3038BD4FF0FF32BA
:103990000B4B00011C181A50E06808B9002038BD14
:1039A00003F0E0FC0546E0680CF084F90023E360D6
:1039B000002DF3D02846BDE83840FFF7C4BD00BF56
:1039C000A0C3072008B50BF0FBFB582303604FF0A2
:1039D000FF3008BD074B1B689A68824207D05A68BF
:1039E000824204D0DB681B1A5842584170470120BC
:1039F000704700BFE4C0072030B54FF48035364C27
:103A0000E561364CA0602046C468E406FCD48068BA
:103A1000C0B263B90B46314C5D1A954209DA13F80E
:103A2000015BA560E568ED06FCD4A568F4E72B4BC7
:103A300022B94FF48032284B9A6130BD072A0C78A6
:103A400029DD9C604C78083A9C608C789C60CC782E
:103A50009C600C799C604C799C608C799C60CD79E1
:103A600001F108049D609D696D07FCD59D680D708E
:103A70009D684D709D688D709D68CD70DD68ED0608
:103A8000FCD49D680D719D684D719D688D719D6818
:103A9000CD712146CCE7032A14DD9C604C78043AB2
:103AA0009C608C789C60CD780C1D9D60DD68ED0677
:103AB000FCD49D680D709D684D709D688D709D68EB
:103AC000CD70E6E74D1C9C60013ADC68E406FCD44E
:103AD0009C680C702946ABE700C0092000800840B4
:103AE000002307B502A901F8013D012300F01F00E2
:103AF0001A46FFF781FF9DF8070003B05DF804FB4D
:103B000013B502AC04F8011D00F01F0000230122D0
:103B1000214640F02000FFF76FFF02B010BD08B54E
:103B20001720FFF7DDFFC0F3001008BD702107204C
:103B3000FFF7E6BF0A4600230146A020FFF75CBF5F
:103B400008B50020FFF7CCFFBDE8084000F0FE01FB
:103B50000020FFF7D5BFFFFF4FF08072014BDA6105
:103B6000704700BF20C0092008B50020FFF7B8FF4C
:103B700040F00101C9B20020FFF7C2FF4FF0807290
:103B8000014B9A6108BD00BF20C0092020210720F9
:103B9000FFF7B6BF0023E1201A461946FFF72CBFF6
:103BA00037B504460D46FFF7F5FF20462946FFF7D7
:103BB000C1FF4FF080720C4CA2610022ADF80620CC
:103BC000BDF8063001339BB2ADF8063033B94FF083
:103BD0008073E361FFF7DEFF03B030BDFFF79FFFA7
:103BE0000028EDD0F3E700BF20C0092008B517205A
:103BF000FFF776FFC04300F0010008BD4021072019
:103C0000FFF77EBF08B50A46012301466120FFF792
:103C1000F3FEC0F3420008BD0023E2201A46194615
:103C2000FFF7EABE70B5064600200D461446FFF7C2
:103C300057FF66B100F0BF006DB100F0DF016CB15D
:103C400001F0EF010020BDE87040FFF759BF40F0E0
:103C50004000C0B2F0E740F02001F0E741F0100171
:103C6000F0E710B504460020FFF73AFF34B900F042
:103C7000F7010020BDE81040FFF742BF012C04D13E
:103C800000F0FB0141F00801F3E7022C14BF40F003
:103C9000080140F00C01C9B2EBE708B50020FFF7BE
:103CA0001FFFBDE8084040F00201C9B20020FFF745
:103CB00027BF08B50020FFF713FFBDE8084000F05C
:103CC000FD010020FFF71CBF40F6DD1398420BD822
:103CD00040F66213B0F5166F38BF1846A0F51661AE
:103CE000C9B20520FFF70CBF1846F7E710B5044628
:103CF0000620FFF7F5FEFA2C00F0D70106D141F0BF
:103D000020010620BDE81040FFF7FABEB4F5FA6FB7
:103D100008BF41F00801F4E710B504460620FFF79C
:103D2000DFFE032C28BF032420F0060141EA4401F2
:103D3000C9B20620BDE81040FFF7E2BEB0F57A6FC9
:103D400028BF4FF47A60FA2838BFFA20FA23B0FB74
:103D5000F3F30F2928BF0F21013BDBB241EA031126
:103D6000C9B20420FFF7CCBE1130C0B2162804D867
:103D7000202928BF2021FFF7C3BE7047032806D0A3
:103D8000042814BF032102210320FFF7B9BE01213B
:103D9000FAE70A46002301463020FFF72DBE0A4607
:103DA000002301462A20FFF727BEFFFF73B5044614
:103DB0000E461546FFF730FFFFF7ECFE4FF080721E
:103DC0002A4BDA61FFF775FF002201201146FFF749
:103DD00029FFFFF7ABFE0220FFF743FF3046FFF756
:103DE00073FF2846FFF782FF0320FFF795FF0321AB
:103DF0000220FFF785FE00210120FFF781FE03214D
:103E00004FF4FA70FFF79AFF21460020FFF7ACFF4E
:103E100000211220FFF774FE00211320FFF770FE2F
:103E200000211420FFF76CFE00211520FFF768FE2B
:103E300000211620FFF764FE0D4B18681B790090D7
:103E400005208DF80430FFF799FF68460521FFF73C
:103E5000A0FF05216846FFF7A2FFFFF71EFF4FF402
:103E6000FA60FEF7CBFA02B070BD00BF20C0092097
:103E7000AC660200242310B54FF6FF7403FB01016A
:103E8000884200D110BD43782BB1038C1344A34268
:103E900028BF234603842430F2E7FFFF002337B511
:103EA00002A840F8043D0C4B04215B689847054686
:103EB0000A4B019A1C680421141B1A600848224608
:103EC000FFF7D8FF224602210648FFF7D3FF281C40
:103ED00018BF012003B030BD04C4072034C507203B
:103EE0001AC40720CEC4072008B50B4B19780378F5
:103EF0008B420A4B0BBF1A889A880132013214BFD9
:103F00009A801A80064B8170DB6820219847003028
:103F100018BF012008BD00BF48C00720AAC4072061
:103F200004C407200A4B02781B789A42094B0BBF46
:103F3000DA881A89013201320CBFDA801A810379DA
:103F4000C3F3C202073262F3C5030371FFF7CCBFAC
:103F500048C00720AAC40720002210B5064B13F85A
:103F600022409100844201D1581810BD0132042A28
:103F7000F5D1002010BD00BF23C5072070B1C37864
:103F80000133DBB2FF2BC37008D100230448C118F2
:103F9000CA7804335208102BCA70F8D1704700BF9A
:103FA00023C507202422034602FB0101024630B547
:103FB00091420FD1044600259A4211D01979C1F3DC
:103FC000C200198C41EA0041A94284BF1C460D463B
:103FD0002433F1E71446243212F8235C002DE7D194
:103FE000204630BD38B50446C90001F10805FFF789
:103FF00055FF1C4B22781B789A4224D102211A4883
:10400000FFF7D0FF0023024680F8203080F82130EF
:10401000234690F8231080F8225021F07F01C5F349
:1040200006250D4380F8235004F1200153F8044B7A
:104030008B4242F8044BF9D10C4A0379127862F3AF
:10404000C503037138BD04210948FFF7ABFFE378CE
:10405000002BD7D190F82330042543F0800380F85B
:104060002330CFE748C00720CEC4072050C0072028
:104070001AC4072008B5FFF76FFF0346D8B9FFF74A
:104080006BFF0346B8B90D4AD378D179D07A8B4209
:1040900096BF1946131D1346814294BF0846084B2C
:1040A000D17B084A814238BF1346002206491A6074
:1040B000CA7A0132CA72184608BD00BF23C507205C
:1040C0002BC507202FC50720AAC407202DE9F047DC
:1040D0004FF0240805460C46002708FB0218DFF8BD
:1040E0005C91DFF85CA1A04501D1BDE8F08794F9AF
:1040F0002330002B29DACDB12B786278934209D195
:1041000068782178884205D12422002120460BF0CE
:104110002DFE69E0E97849B16978914206D12278AB
:104120009A4203D1AA79A3799A42EDD094F8232038
:1041300094F82230218C02F07F0243EA0223994254
:1041400052DB2046FFF7D0FEDEE76378002B4BD032
:10415000002D32D02A7902F0C002C02A2BD1227859
:1041600069788A4202D128789842CDD0E678A8783A
:10417000864208D1994206D129788A4203D1A17991
:10418000AA799142C0D0A978E278914215D16A7893
:104190009A4212D121782A7891420ED1A179AA7936
:1041A00091420AD1237984F8207067F3C50384F81B
:1041B0002170237118E0002AE5D194F8231094F8B7
:1041C0002220208C01F07F0142EA012290420BDB89
:1041D000227984F82070C2F3C201CEB284F8217033
:1041E00026B12046FFF79EFE24347CE702F0C00291
:1041F000C02A20D0207899F8002090421BD1E27884
:10420000934218D0BAB103226379E17062F30713C5
:1042100063712046FFF786FE23799AF8002062F347
:10422000C50323716078FFF797FE00B10760002E89
:104230007FF46AAFD8E70126F4E700BF48C0072043
:1042400050C00720431EDBB2FD2B9DBF024B1870F0
:1042500001200020704700BF48C00720014B18789C
:10426000704700BF48C0072007289CBF014B18704B
:10427000704700BF50C007202DE9F7430446914620
:104280001E469DF828500F46002965D0344B93F800
:104290000080414560D00F2E5ED800285ED02022DD
:1042A00000210BF063FDFF2F08BF4FF00009032230
:1042B0002379677069F3871362F30203294A84F84C
:1042C0000080127884F8028062F3C503264A2371C5
:1042D00013780133DBB21370A3710BAB0193C5B933
:1042E00001250123DFF88480384688F80030FFF785
:1042F00033FE0746FFF742FE002388F8003063795B
:104300001FBB66F307136371E770284603B0BDE86F
:10431000F08304F10809019AE0791346526853F8D2
:10432000081B00EB02085FFA88F8013DB8F1180F8E
:104330000193EDB207D848440BF0F3FC84F80780F2
:10434000002DE8D1CCE70025CBE7BA7862F307135C
:1043500063717B78E370D8E70025D6E70546D4E79C
:1043600048C0072050C0072033C5072019C40720C4
:10437000012270B5134E0446327020B90025002387
:104380002846337070BDFFF7AFFD05460028F5D015
:10439000237903F0C003402B10D0A3F180014A42DF
:1043A0004A41C02B0BD1E3784BB16178994206D0DA
:1043B000617920460909FFF715FEE0E70246002A69
:1043C000F6D1DCE719C4072082B02DE9F04391460D
:1043D000421ED2B28DB0FD2A05460E4615939DF8B9
:1043E000688005D900200DB0BDE8F04302B07047E9
:1043F000002BF7D0179F002FF4D0199B002BF1D082
:10440000189B002BEED0169B002BEBD000244822EB
:10441000002123480BF0AAFC9022002121480BF038
:10442000A5FC1022002120480BF0A0FC1F4B1C60B3
:104430005C609C601E4B1C605C609C601D4B1D7032
:104440001D4B1E4D1E7015AE0FCE0FC533681822C2
:1044500021461B482B600BF089FC4946172218485F
:104460000DF04BFA21462046B8470028BAD0B8F1E3
:10447000000F02D1FFF712FDB5E706230293114B9F
:10448000224601930123FF21009304A8FFF7F4FEC5
:104490000028A7D004A8FFF76BFF0028A2D0E9E707
:1044A000CEC407201AC4072023C5072016C507203D
:1044B000AAC4072048C0072022C5072004C407203B
:1044C000B6C40720B166020030B5182B8DB007D8EE
:1044D0001D1CB2FA82F418BF01256409AC4201D157
:1044E00000200EE00293019200950A469DF84030AC
:1044F000014604A8FFF7C0FE0028F1D004A8FFF78A
:1045000037FF0DB030BD13B5537914781B090093F4
:1045100002460B4620460321FFF7D6FF02B010BD2E
:104520000023194630B5084A12F823509C002DB1DB
:10453000884201D1101930BD0131C9B20133042BB9
:10454000F2D1002030BD00BF23C50720002318464C
:10455000044A12F8231009B10130C0B20133042B10
:10456000F7D1704723C507202DE9F04788B02022F6
:10457000002168460BF0FAFBA34B1B7803F0FF0405
:104580002BBBA24F20213B696846984708B90024FD
:1045900011E09F4D6B8801336B80FFF7D7FF9DF8CB
:1045A0000420A87202F00703032B13D0994A137852
:1045B00043F001031370FFF771FC04229649204673
:1045C000FFF784FD022295492046FFF77FFD08B0E2
:1045D000BDE8F087924B9DF802E01E78B64504D105
:1045E0008C4A137843F00203E4E78E4D2146A84637
:1045F000C2F3C2029DF800009DF806C05FFA82F97E
:1046000001EB410313F805A0824523D12B4493F815
:1046100001A0E2451ED19D789A70B5EB090518BF3F
:1046200001254FF001099DF80200FFF723FD9DF8D9
:1046300002200270427000228270FFF79FFCB9F1E5
:10464000000F01D0002DA2D09DF80030B34233D12D
:104650006C46B0E701310429D2D173490B689A70D6
:10466000724A1870934283F801C006D1C1F80080E5
:10467000864505D10025A946D5E703330B60F7E74A
:104680008642F7D0FFF7F6FC0546FFF777FC2B785C
:1046900033B19DF80530AA7803F00F039342E9DCAB
:1046A0009DF800302B709DF802306B709DF805303E
:1046B000C3F30303AB70DDE79DF80180B8F1FF0F92
:1046C0001BD13B6820216846984720B9514A13788E
:1046D00043F0040313709DF8053003F00F02511CE2
:1046E00061F303038DF80530C3F303139A42BFF659
:1046F0004EAF6846FFF7F8FB49E746452ED1B9F1C2
:10470000000F0CD19DF807304BB13B682021684663
:10471000984720B93F4A137843F0040313709DF87B
:10472000043003F0C003402B12D19DF807306A46D5
:1047300023B918213E48FFF7E6FE89E70C213448EB
:10474000FFF7E1FE002883D100216A460846F2E720
:104750009DF80330002B7FF47BAFF5E7354B1F78D6
:10476000002F3FF414AF9DF8055005F00F094FEAF4
:10477000151AD145BFF60BAF4046FFF7EDFB9DF88C
:10478000033009F1010969F303059E428DF80550D4
:1047900024D19DF8043003F0C003402B03D0A3F1D3
:1047A00080025742574150B3C02B447820D1A045D6
:1047B00012D0003418BF01243C4304F00104D0B1EE
:1047C00043788DF8033085786846FFF78DFB002C21
:1047D0003FF43EAF294607E00024EDE7002B7FF4CD
:1047E00037AF0028ECD151466846FFF7FBFB2FE7B7
:1047F0003C46E5E73C4600258DF80350E4E7C02B36
:10480000F8D10446D8E700BF19C4072004C4072024
:10481000AAC4072018C407201AC40720CEC4072042
:1048200048C0072016C507204CC007201FC5072019
:10483000B6C4072022C5072000231846094AD1180C
:10484000497809B10130C0B22433902BF7D1064B1F
:104850005A780AB10130C0B293F825300BB101305B
:10486000C0B270471AC40720CEC4072008B5FFF7AE
:1048700073FB064B28B18278187802FB0000C00059
:1048800008BD18201B78584308BD00BF50C0072042
:1048900003490B6803604B6843608B688360704713
:1048A000AAC4072070B5174E326822B92021032010
:1048B00004F046FA3060144D2A6822B92021012004
:1048C00004F03EFA2860114C216821B9032201202E
:1048D00004F036FA20604FF4FA6240F6C31120204B
:1048E000FFF764FAFFF740F91620094A0121FCF7A7
:1048F00029F9306828B1286818B12068003018BF3D
:10490000012070BD40C5072038C507203CC50720E1
:10491000BD490100037970B503F0C003C02B0CBF83
:104920000E4B0F4B01461D68002388B006461A4601
:10493000284604F027FA044660B903460246694651
:10494000284604F027FB234622463146284604F039
:1049500019FA0446204608B070BD00BF38C50720CC
:1049600040C5072038B504460D46FFF777FC23788D
:1049700083420AD0E37843B90CF048FCBD2300F031
:10498000030000FB0330FDF739FDFFF7E5F8FFF703
:10499000D7F8A9B22046FFF703F9FFF7F7F8FFF7BA
:1049A000E3F803F0FFFF022804D1034B002118684D
:1049B00004F0BCFA012038BD3CC50720002307B530
:1049C00002A941F8043D084B186804F0AFFA019BB6
:1049D0003BB14FF08052054B1A60BFF34F8FBFF3CE
:1049E0006F8F03B05DF804FB3CC5072004ED00E0C9
:1049F00038B504460D46FFF7F9F848B1A9B220468C
:104A0000FFF700F9FFF7F2F808B9FFF7F7F8012010
:104A100038BD2DE9704305460E46144603F0C2FF2B
:104A2000022809D1224600233146284604F0B2FA72
:104A3000C4B22046BDE8708304F066FF4FF47A727A
:104A400000230AF019FA10EB040841F100090023D1
:104A500031461A46284604F09DFAC4B2002CE8D12B
:104A600004F052FF4FF47A7200230AF005FA8945E8
:104A700008BF8045EBD2DCE7042938B505460DD1E7
:104A8000041C18BF012404F03FFF2CB14FF47A72CC
:104A900000230AF0F1F92860204638BD0024F2E72F
:104AA00000B50C4B8DB009930B4B0C4A0B930C4B80
:104AB0000A930CAB43F8102D002204920FCB8DE823
:104AC0000F00084B084A01216A20FFF77DFC0DB05A
:104AD0005DF804FBA5480100F1490100794A010095
:104AE0006549010015490100B8660200024B0A46FB
:104AF00001461868FFF78DBF40C50720024B0A46E4
:104B000001461868FFF785BF38C5072008B503F0D0
:104B100049FF0F4B02285B6912D15A020CD5FFF7EF
:104B20008BFE002300280B4814BF01224FF0FF32F8
:104B30001946006804F02EFABDE80840FFF714BDDE
:104B40005B02F9D5FFF778FE0028F5D108BD00BF5C
:104B500000C009203CC5072013460A4601790068B9
:104B6000FCF745BA1FB5002204AB23F8042D02223E
:104B70000479009200680A462146FCF723FA9DF862
:104B80000C009DF80D3043EA002004B010BD10B5B4
:104B9000044619222A21FFF7DFFF0D222179206820
:104BA000FCF714FAA0F12A035842584110BD08B589
:104BB0000121FFF7D7FF102300B290FBF3F008BDEF
:104BC00008B50321FFF7CEFF102300B290FBF3F0EE
:104BD00008BD08B50521FFF7C5FF102300B290FB03
:104BE000F3F008BD044A13881F2BDFBF581C108048
:104BF000024A42F823107047C4C5072044C5072065
:104C0000F0B5154E3388012B23DD144A00201546DC
:104C1000013B984208DA52F8041F013052F8044C64
:104C2000091B42F8041CF4E700214FF0010E0C466A
:104C3000686800EB50008AB2934208DD55F8227094
:104C40000131B8423CBF0EFA02F21443F3E7044BC1
:104C50001C6000233380F0BDC4C5072044C5072075
:104C6000C8C5072008B50121022004F0B5FC084B97
:104C700001209A6A22F007029A629A6A42F00602BA
:104C80009A62044AD36843F03003D36008BD00BF82
:104C90000080004000C0024008B5044B417101F0A3
:104CA0007F015A5C0321FFF757FF08BDBD66020074
:104CB00008B5044B817101F07F015A5C0221FFF7B6
:104CC0004BFF08BDBD66020038B504460179006897
:104CD000FCF798F9054688B1002206212046FFF727
:104CE0003BFF002207212046FFF736FF2E212046FA
:104CF000FFF7D2FF2E212046FFF7DAFF284638BD06
:104D000070B56424B1FBF4F303FB14140A21E4B27C
:104D1000B4FBF1F501FB15413031C9B20646FFF78E
:104D2000C7FF092C88BF05F130013046BDE870404F
:104D300094BF2021C9B2FFF7AFBF01207047FFFF2A
:104D400038B50C46054604F087FA012204F00F033B
:104D50002B700E4B14F0010F14BFDA619A6102221E
:104D600014F0020F14BFDA619A61102214F0040FDC
:104D700014BFDA619A614FF4807214F0080F14BF07
:104D8000DA619A61BDE8384004F076BA20C00920A3
:104D9000012070470220FBF7C7BC01207047FFFFCE
:104DA000044B5B69180B00F00C00C3F3412318435C
:104DB000704700BF20C0092010B5044681220121A0
:104DC000FFF7CAFE012221792068FCF7FFF810F0F6
:104DD000600F14BF0120002010BD38B5002104462B
:104DE000FFF7C0FE812205B201212046FFF7B4FE85
:104DF000102095FBF0F009F055FE4FF0765109F0C8
:104E0000A5FEA16809F09AFD38BDFFFF08B5FFF7C0
:104E1000E4FF054909F09AFE044909F04BFF4FF001
:104E2000844109F08BFD08BD000010410000A04046
:104E30002DE9F04FADF2546D0C469046014601222B
:104E400082A8994602F024F8824650B90A222146E7
:104E50000DF22C4002F01CF8824638B182A802F014
:104E600081FA50460DF2546DBDE8F08F6C46054650
:104E7000064607462060019004F046FD4FF47A7222
:104E8000002309F0F9FF234683464FF4007202A97C
:104E900082A802F094F8824608B922689AB9B8F15B
:104EA000000F01D0C8F80070B9F1000F01D0C9F8A7
:104EB0000060DDF8783603B11D6082A802F052FA76
:104EC0000DF22C40CBE704F01FFD4FF47A72002363
:104ED00009F0D2FFB0EB0B00074404F015FD4FF4CE
:104EE0007A72002309F0C8FF01AB8346226802A949
:104EF0000DF22C4002F01BF982460028CFD1019917
:104F000022689142CBD104F0FFFC00234FF47A7267
:104F100009F0B2FF2368B0EB0B0006441D44ABE779
:104F2000F0B51D460023ADF50B7D0E461746014634
:104F3000012201A8009301F0ABFF044670B91DB136
:104F4000294601A802F020FA6B463A46314601A8EC
:104F500002F035F8044601A802F004FA20460DF5E7
:104F60000B7DF0BDF0B51D460023ADF50B7D0E4663
:104F7000174601460A2201A8009301F089FF044662
:104F800070B91DB1294601A802F0FEF96B463A46F8
:104F9000314601A802F0CBF8044601A802F0E2F97C
:104FA00020460DF50B7DF0BDF0B51D460023ADF597
:104FB0000B7D0E4617460146122201A8009301F010
:104FC00067FF044670B98DB1294601A802F0DCF9EB
:104FD0006B463A46314601A802F0A9F8044601A8FA
:104FE00002F0C0F920460DF50B7DF0BD0499ECE709
:104FF00008B504F089FC4FF47A72002309F03CFFF5
:1050000008BDFFFF10B5044604F03CFA074BB0FBA7
:10501000F3F00223B0FBF3F2944202D3044A13618B
:1050200010BDB3F5807FF9D00233F3E740420F00A3
:1050300000000340034B9860DA68D206FCD49868FD
:10504000C0B270470000034070B5FFF7D1FF00F514
:10505000FA74FF20FFF7EEFF0025FF20FFF7EAFFBD
:10506000FF28064605D0FFF7C3FFA94208BFA042AC
:10507000F3D3304670BDFFFF38B54FF00075054CD7
:10508000E561FFF7E1FF044AA561137843F00103EE
:10509000137038BD20C0092051C007202DE970438E
:1050A00006460D46FFF7A4FF643080464FF0000926
:1050B000FF20FFF7BFFFFF2808D1FFF799FF494501
:1050C00008BF4045F4D30020BDE87083FE28FAD124
:1050D000102D0ED900224FF400713046FBF7D4F9A1
:1050E000FF20FFF7A7FFFF20FFF7A4FF0120BDE887
:1050F0007083341D0435FF20FFF79CFF04F8040C77
:10510000FF20FFF797FF04F8030CFF20FFF792FF43
:1051100004F8020CFF20FFF78DFF043404F8050C9F
:105120002B1BDE42E7D1DBE770B506460D46FFF7E5
:105130008BFFFF28044619D12846FFF77BFFFD2D82
:1051400016D022464FF400713046FBF79DF92046F9
:10515000FFF770FF2046FFF76DFF2046FFF76AFF5D
:1051600000F01F00431F5842584170BD002070BD21
:10517000012070BD020638B504460D4607D5002152
:105180007720FFF7F7FF012836D804F07F044FF0AF
:1051900000721A4B9A61DA61FFF756FFFF282AD195
:1051A0002046FFF747FF280EFFF744FFC5F30740EF
:1051B000FFF740FFC5F30720FFF73CFFE8B2FFF71A
:1051C00039FF402C15D0482C14BF01208720FFF751
:1051D00031FF4C2C02D1FF20FFF72CFF0A21FF20CA
:1051E000FFF728FF030607D5013911F0FF01F6D1BB
:1051F00038BD9520EBE7FF2038BD00BF20C0092057
:10520000064A074913784969DBB2490154BF03F0E4
:10521000FD0343F003031370704700BF51C0072024
:1052200020C009202DE9F743FFF7EAFF554B1A7814
:105230001E4612F0020F04D01878C0B203B0BDE8C9
:10524000F0830120FFF7DEFE0A24FF20013CFFF778
:10525000F1FE14F0FF04F8D14FF000734A4F2146DD
:10526000FB614020FFF786FF0128804613D04FF0F6
:105270000008464B83F800804FF00073BB61B8F123
:10528000000F7BD03378182003F0FE033370FFF754
:10529000B9FE3078D1E7FFF7ABFE4FF4D57100F5DA
:1052A0007A754820FFF766FF012840D10DF1040808
:1052B000FF20FFF7BFFE08F804000134042CF7D1EB
:1052C0009DF80630012BD2D19DF80730AA2BCED104
:1052D0002C460025FFF78CFEA94208BFA0421ED332
:1052E000FFF786FEA94208BFA042C0D200217A2063
:1052F000FFF740FF0028BAD10146FF20FFF79AFED2
:1053000008F8010001310429F7D19DF8043013F0A9
:10531000400F14BF4FF00C084FF00408A9E74FF0FE
:105320008041E920FFF726FF0028D3D1D8E72146A6
:10533000E920FFF71FFF02282C4636BF4FF0E9098E
:105340004FF041094FF002080025FFF751FEA94236
:1053500008BFA0420BD3FFF74BFEA94208BFA042F3
:1053600087D34FF400715020FFF704FF81E700213D
:105370004846FFF7FFFE0028E7D1ECE7FFF77CFE89
:1053800087E700BF51C0072020C00920CCC50720F7
:1053900008B5FFF735FF014B187808BD51C007204D
:1053A00070B5144606460846FFF72AFF002C38D091
:1053B0001E4B1B78DA0736D44FF000721C4DEA61A1
:1053C0001C4A1278130758BF4002012C014612D123
:1053D0005120FFF7CFFE38B94FF400713046FFF788
:1053E0005DFEB0FA80F464094FF00073201CAB61DD
:1053F00018BF012070BD5220FFF7BCFE0028F3D17A
:105400004FF400713046FFF749FE28B1013C14F01B
:10541000FF0406F50076F3D100214C20FFF7AAFE29
:10542000E2E7042070BD032070BD00BF51C007201B
:1054300020C00920CCC50720F8B5144606460F4603
:10544000FFF7DEFE002C44D0254B1A78D10742D45A
:105450001B785A0741D44FF00072224DEA61224A6C
:105460001278130758BF7F02012C12D139465820F9
:10547000FFF780FE58BBFE213046FFF755FEB0FA1D
:1054800080F464094FF00073201CAB6118BF012049
:10549000F8BD12F0060F03D02146D720FFF76AFEB1
:1054A00039465920FFF766FE0028EBD1FC21304633
:1054B000FFF73AFE28B1013C14F0FF0406F5007630
:1054C000F4D1FD210020FFF72FFE0028DAD10124BE
:1054D000D8E70420F8BD0320F8BD0220F8BD00BFC6
:1054E00051C0072020C00920CCC507207FB50D463C
:1054F000FFF786FE05281AD12B78012B15D005D38E
:10550000022B0BD00424204604B070BD7B4B5C6999
:1055100014F0806409D1FFF7AFFDF4E7774B5B69C6
:1055200083F08063C3F380636B700024EBE7744BFC
:105530001B78DB0700F1E0800E2800F2DB80DFE85B
:1055400000F00817555AD9D9D9D9D9D9A7ABBABDBE
:10555000CD004FF00072694BDA61FFF775FDB0F1D5
:10556000FF0418BF01244FF00072644B9A61CAE730
:1055700000214920FFF7FEFD044608B10124F2E7AF
:1055800010216846FFF78AFD0028F7D09DF800300B
:105590009DF808109B09012B9DF8093006D15A1C73
:1055A00002EB012292B292022A60DCE79DF807200A
:1055B0009DF80A00920002EB91129DF8061001324C
:1055C000890201F440610A449DF805105B0001F076
:1055D0000F0101EBD011023103F006030B44DBB2E3
:1055E00092B2093B02FA03F32B60BCE74FF400735D
:1055F0002B800024B7E7434E317811F004011CD012
:105600000021CD20FFF7B6FD0028B7D1FF20FFF71E
:1056100011FD10216846FFF741FD0028AED030246F
:10562000FF20FFF707FD601E10F0FF04F8D19DF882
:105630000A301A0910239340D6E74920FFF79AFD54
:10564000044600289AD110216846FFF727FD00285C
:1056500094D030789DF80A3010F002009DF80B10BD
:105660000AD05B009DF80D2003F07E0303EBD113FD
:1056700092090133013ADEE7CA0002F01802C3F3CF
:10568000840302EB5112013302FB03332B60B0E7BA
:105690001C4B1B782B70ACE700214920FFF76AFDFB
:1056A00000287FF46BAF10212846FFF7F7FCB0FA13
:1056B00080F4640957E700214A20EFE700217A20AF
:1056C000FFF758FD00287FF459AF291DFF20FFF791
:1056D000B1FC05F8010B8D42F8D18AE70021CD20FD
:1056E000FFF748FD00287FF449AFFF20FFF7A2FC39
:1056F0004021D9E7042436E7032404E720C0092029
:1057000051C00720CCC50720054B1B78253BDBB2D9
:10571000032B9ABF034A52F823000020704700BFB2
:10572000D4C50720446702001B4B2DE9F0411D88BA
:105730000646B5F5007F0F46144603D12A4621469A
:1057400038460BE0B5F5807F0CD12A462146384615
:10575000B0472A4604F5807107F580703346BDE8EE
:10576000F0411847B5F5047F04D1510A89024FF47E
:105770000072E5E7B5F5847F0BD1140A61024FF49E
:1057800080723846B0474FF4807201346102B81815
:10579000E4E7BDE8F08100BFD6C5072010B5294B6E
:1057A00000294DDD0729027829DD9A604278083901
:1057B0009A6082789A60C2789A6002799A60427997
:1057C0009A6082799A60C47900F108029C609C69B1
:1057D0006407FCD59C6804709C6844709C68847065
:1057E0009C68C470DC68E406FCD49C6804719C6806
:1057F00044719C6884719C68C4711046D0E7032989
:1058000014DD9A60427804399A6082789A60C4788C
:10581000021D9C60DC68E406FCD49C6804709C68F3
:1058200044709C6884709C68C470E6E7441C9A606D
:105830000139DA68D206FCD49A6802702046AFE7D4
:1058400010BD00BF0000034007B50B0C8DF80530FC
:105850008DF807100B0A04218DF804000DEB0100F0
:105860008DF80630FFF79AFF03B05DF804FBFFFFE9
:10587000F7B5032340250E4C1746E5618DF804303B
:105880000B0C8DF805308DF807100B0A0421064625
:105890000DEB01008DF80630FFF780FF002239463E
:1058A0003046FAF7F1FDA561A561A56103B0F0BD31
:1058B00000C0092040220D4BDA61D7220C4B9A60C0
:1058C000DA68D206FCD40A4A9B68FF21134691602D
:1058D000D868C006FCD4986810F0800FF7D040223A
:1058E000024BC0B29A619A619A61704700C0092068
:1058F00000000340F7B5FFF7DDFF002340271E4CF3
:105900001E4E23801E4BF7611A889B7805460321A3
:1059100001A8ADF804208DF80630FFF73FFF9DF891
:1059200005209DF806301F2AB761B761B76115D110
:10593000A3F12502032A11D8124A252B137005F072
:10594000010011D1002814BF4FF480734FF4847309
:105950002380FFF7D9FE0C4B400A18602088B0FA6C
:1059600080F0400903B0F0BD002814BF4FF400736D
:105970004FF40473ECE700BFD6C5072000C0092030
:105980003D670200D4C50720D0C507202DE9F041AE
:105990008B1817460F4A013B12680446934212D8EF
:1059A0004D020026FFF786FFDFF82C802D1BBE423C
:1059B00004EB05020ADA21464046FFF7B5FE04F57E
:1059C00000740136F3E70120BDE8F0810020BDE856
:1059D000F08100BFD0C50720715801008B182DE958
:1059E000F04117460E4A013B1268934211D8044613
:1059F0000026DFF83080C0EB4125BE4204EB0502F3
:105A00000ADA21464046FFF78FFE04F5007401369E
:105A1000F3E70120BDE8F0810020BDE8F08100BF80
:105A2000D0C50720095B010008B5072805D8DFE8C5
:105A300000F0060A0F1308080808042008BDFFF745
:105A400039FF002008BDFFF75FFE400A0860F8E755
:105A50004FF400730B80F4E701230B60F1E7FFFFC5
:105A600070B590B003466A466E4600F14005144694
:105A700018685968083303C4AB422246F7D1402462
:105A8000074D0021EC619B20FFF7DEFE21463046EA
:105A9000FFF784FEAC61AC61AC6110B070BD00BFBB
:105AA00000C0092070B540240646074D002177202C
:105AB000EC61FFF7C9FE21463046FFF76FFEAC618F
:105AC000AC61AC6170BD00BF00C0092008B5064BD9
:105AD000198831F01F0104D0FFF716FEB0FBF1F07A
