:020000021000EC
:10000000E03F082095010100FB000100E100010034
:10001000090101001901010029010100000000008F
:10002000000000000000000000000000E16D010081
:100030003901010000000000416E0100590101007A
:10004000AD7F0100AD7F0100AD7F0100AD7F0100FC
:10005000AD7F0100AD7F0100AD7F0100AD7F0100EC
:10006000AD7F0100AD7F0100AD7F0100AD7F0100DC
:10007000AD7F0100AD7F0100AD7F0100AD7F0100CC
:10008000AD7F0100AD7F0100AD7F0100AD7F0100BC
:10009000AD7F0100AD7F0100AD7F0100AD7F0100AC
:1000A000AD7F0100AD7F0100AD7F0100AD7F01009C
:1000B000AD7F0100AD7F0100AD7F0100AD7F01008C
:1000C000AD7F0100AD7F0100AD7F0100E05D02006A
:1000D00000C00720C4010000C8C1072014050000AB
:1000E00004207146084203D0EFF3098007F07CBF7B
:1000F000EFF3088007F078BF704708B5014806F0B5
:100100008FFBFEE7EC3B020008B5024806F088FBD7
:10011000FEE700BFF73B020008B5024806F080FB8F
:10012000FEE700BF023C020008B5024806F078FB7B
:10013000FEE700BF0D3C020008B5024806F070FB68
:10014000FEE700BF1A3C020008B5024806F068FB53
:10015000FEE700BF283C020008B507F0CFFB06F021
:1001600091FEBDE8084007F0DDBB0B4610B5401A14
:100170005C1AA24203D9C45843F8044BF8E710BDF7
:10018000034610B500221C1AA14202D943F8042BE1
:10019000F9E710BD164807F000FF154807F000FF0B
:1001A000144C154DAC4201D3144D07E094E8030004
:1001B0000C3454F8042CFFF7D8FFF3E7AC4206D216
:1001C00054F8080B54F8041CFFF7DAFFF6E70CF0BC
:1001D0007DF908F037F80AF063FA0AF077FE4FF479
:1001E000164008F011FA064806F01AFBFEE700BFB9
:1001F000E03F0820CC000100D8000100E000010031
:100200003C3C02000120704770B50546164609B90E
:10021000002070BD4C1E14F8011F39B12B68324606
:100220005B68284698470028F5D1F1E7012070BDAA
:1002300038B504461546FFF7E7FF2A462046BDE8D5
:1002400038400149FFF7E0BFAC2E02002DE9F7432B
:1002500007460D4690469946002402AE06F8014D29
:100260003B684A461B6831463846984778B19DF846
:1002700007200D2A03D00A2A1CBF2A700135013439
:10028000444503DA0A2AEBD1012000E00020002CCB
:10029000C4BF00232B7003B0BDE8F0830EB433B5A8
:1002A000044607F08DFA022806D100234FF0FF32F2
:1002B0001946E06807F08EFD06AB0093009B059A97
:1002C0002189606801930FF059F923890546984206
:1002D0000ADB20F00F01103189B2218160680DF036
:1002E000CFFC60600028E9D14FF0FF326168204602
:1002F000FFF78AFF07F064FA022805D100231A46A7
:100300001946E06807F060FC284602B0BDE83040BE
:1003100003B07047064B10B50360002304464360EA
:1003200003810374012007F0D3FCE060204610BD78
:10033000982E0200044B10B504460360406808B1D3
:100340000CF0EAF9204610BD982E020010B50446C4
:10035000024B0360FFF7EEFF204610BDD42E0200D3
:1003600010B50446FFF7F2FF204601F0F7F82046EB
:1003700010BD10B5044607F023FA022807D1E06942
:1003800007F0F4FD18B1012007F0BCF8F7E70120F1
:1003900010BD37B5044615468DF8071007F010FA62
:1003A000022808D09DF8072063691A706269137DDE
:1003B0005906FCD517E000232A460DF10701E06934
:1003C00007F002FC80B163691B7D5B060BD500233F
:1003D0001A460DF10701E06907F0FCFC18B16369EA
:1003E0009DF807201A70012003B030BDF8B506460D
:1003F00014460F4609B90020F8BD8369002BFAD0D6
:1004000007F0DEF9022809D1002322463946B069F7
:1004100007F0E0FC003018BF0120F8BD08F058F8E4
:100420004FF47A7200230BF0C9FD204404460025E6
:1004300000231A463946B06907F0CCFC58B908F0D9
:1004400047F84FF47A7200230BF0B8FD8D4208BFD5
:100450008442EDD2CFE70120F8BDFFFF436980223F
:1004600010B51A730446006A0901B0FBF1F00BF0F5
:100470001BFA0022074B0BF0DBF80BF08BFA6369D9
:1004800080B2020A1A716369C0B2187063690322EC
:100490001A7310BD0000E03F73B542690023019359
:1004A0008DF803309368044603F00E03042B17D035
:1004B0000C2B15D0022B35D1C06907F060FDE38C01
:1004C000984203D9E06907F05AFDE0841026002520
:1004D00001AA0DF10301E06907F016FD20BB2DE034
:1004E00006F0E4FE0025A06263691A7DD2070ED5EE
:1004F0001B7801AA8DF803300DF103010023A069D8
:1005000007F0F8FB019B002B18BF0125ECE7A06961
:1005100007F035FDA38C984210D9A06907F02FFD94
:10052000A0840BE0137D12E063699DF803201A702C
:10053000019B002B18BF0125013EC9D13DB1054BE0
:100540004FF080521A60BFF34F8FBFF36F8F02B02E
:1005500070BD00BF04ED00E038B504460D46FFF75E
:10056000D9FE064B656123600023A361E36123622A
:10057000A384E384A362204638BD00BFD42E0200CA
:1005800070B516461D46264A4369044693420162E9
:1005900005D10121032008F08DF8202211E0214A25
:1005A000934205D10121182008F084F8802208E048
:1005B0001D4A93422FD10121192008F07BF84FF4F6
:1005C00080721A4B31461A60636941221A7262695D
:1005D0002046137A43F006031372FFF73FFFA26928
:1005E00042B9082D28464FF00101B8BF082007F096
:1005F000C9FAA061E2693AB9049801210828B8BF94
:10060000082007F0BFFAE061636907225A60A36916
:100610000BB1E3690BB9002070BD012070BD00BFB4
:1006200000C000400080094000C0094000E100E037
:100630002DE9F84345790446894690461E46089FB1
:100640000DB100255FE0002BFBD007F0B9F80228C0
:100650002CD0236820222761A661A57584F8149008
:1006600084F815801A6007F033FF4FF47A72002384
:100670000BF0A4FC10F57A7641F1000700231A462E
:100680001946E06807F0A6FB20B1A57DB5FA85F50F
:100690006D0938E007F01CFF4FF47A7200230BF06D
:1006A0008DFC8F4208BF8642E8D2EEE72B464FF41E
:1006B0007A722946A06807F08DFB0028C1D02B462E
:1006C0002A462946E06807F085FB23682022A575A5
:1006D00084F8149084F815802761A66129461A6071
:1006E000E0682B464FF47A7207F074FB20B1A57DC9
:1006F000B5FA85F56D0900E0054600231A4619464E
:10070000A06807F061FA2846BDE8F88341F00101CE
:10071000FFF78EBF1FB5002404AB03F8014D012481
:100720000094FFF7F3FF9DF80F0004B010BD01F037
:10073000FE01FFF77DBF1FB504AC04F8013D0123A6
:1007400000932346FFF7F3FF04B010BD1FB500224E
:1007500004AB03F8012D0092FFF7D8FF05B05DF858
:1007600004FBFFFF38B500250446016045710120F8
:1007700007F0AEFA0322A0602946012007F002FA32
:100780002368094AE060934201D10A2309E0074A3D
:10079000934201D10B2304E0054A93420CBF0C2382
:1007A00063232371204638BD00C0014000C00540CE
:1007B00000000A4090F9043070B50B2B05460C463A
:1007C000164606D00C2B07D00A2B34D10121072066
:1007D00004E00121132001E001211A2007F06AFF43
:1007E000B6F57A7F9ABF4FF47A71714313492B683B
:1007F000B4FBF1F16C229A61490828224A43642033
:10080000B2FBF0F21A613C225143B1FBF0F100223D
:100810005961DA601A625A629A6240221A6095F946
:10082000043001205909064A03F01F0300FA03F3BC
:1008300042F8213070BD002070BD00BFA0860100CD
:1008400000E100E0036830B559680246282945D028
:1008500009D8102924D018292AD0082977D1027D57
:1008600002F0FE0237E0402954D00AD838296ED170
:10087000017D5B6811F0010F937514BF0120022008
:1008800030BD50294ED0582961D181699B680B70C9
:10089000036820219961102119600821996152E0B3
:1008A000027D42F001029A6008229A61002030BD68
:1008B000146920209861082164B99861102018609B
:1008C00099611968C906FCD4137DDD074CBF01206E
:1008D000022030BD527D9A609961E7E7007D10F0FB
:1008E000010001D020222CE0116949B92021996131
:1008F00010211960082199611968CC06FCD4E3E73E
:100900009469013914F8015B9D60946111610822BA
:100910009A6130BD02692021012A99614FF00402D9
:100920000FD80CE09B68816904220B708369013346
:1009300083610369013B012B0361036801D19A6163
:10094000B2E71A60B0E71968C806FCD4BCE759687A
:100950009175202199611021196008219961196808
:10096000C906FCD4B0E7FFFF13B50446FFF76AFFE2
:1009700080B1002302A941F8043DE06807F0F8F9CE
:10098000019B3BB1044B4FF080521A60BFF34F8F75
:10099000BFF36F8F02B010BD04ED00E070B5174BD0
:1009A0000E465C69164B05461A6C1A2022F470023A
:1009B0001A641A6C04F4406442F420021A64996EBA
:1009C00041F440619966196821F470011960196851
:1009D00041F420011960032107F084FE07F0D0FBE9
:1009E000B4F5406F06D13246C1082846BDE87040D4
:1009F000FFF7E0BE01236B71002070BD00C009202D
:100A000000C0024010B504460249FFF7ABFE204685
:100A100010BD00BF00000A4038B5074C236833B949
:100A20001C2000F099FD0546FFF7ECFF25602068CB
:100A3000BDE83840FFF798BFC8C1072010B504468D
:100A4000024B0360FFF776FC204610BDD42E020057
:100A500010B50446FFF7F2FF204600F07FFD204668
:100A600010BDFFFFF7B50D460D4904460868164650
:100A700020F0F000086008681F4640F05000086051
:100A80000121032007F02EFE07F07AFB00970146B4
:100A900033462A462046FFF773FD03B0F0BD00BF82
:100AA00000C0024010B504460349FFF755FD034B53
:100AB0002046236010BD00BF00C00040482F020048
:100AC00038B5074C236833B92C2000F045FD0546A6
:100AD000FFF7E8FF25602068BDE83840FFF7DCBC81
:100AE000CCC10720F0B5124B87B06C461D460746B7
:100AF00093E807008DE8070003AE93E8070086E857
:100B000007000C22314620460BF01CFE40B195E850
:100B1000070084E8070095E8070086E80700F0E78B
:100B200003CC386020687960B860384607B0F0BD03
:100B300014400240184B00221A720278C2F30502D8
:100B400083F820204278C2F3050283F824208278BB
:100B5000C2F3040283F82820C278C2F3020283F8A9
:100B600030200279C2F3040283F82C204279C2F3C8
:100B7000030283F83820C279817902F00F0241EA3A
:100B800002229A87427A017A02F00F0241EA022297
:100B90009A8601221A727047004002401FB5012157
:100BA000092007F087FD304B01221A7201A8FFF7D8
:100BB00099FFBDF80A3003F62603C3F30B030F2B8E
:100BC0001ED89DF8053003F03F033B2B18DC9DF841
:100BD000043003F03F033B2B12DC9DF8063003F09A
:100BE0001F03172B0CDCBDF80C30C3F30B03B3F55C
:100BF000B77F05DA9DF8093003F00F030C2B2FDDCA
:100C00009DF80830012262F304038DF808309DF846
:100C1000093001A862F3030340F2DA728DF809305B
:100C2000BDF80A3062F30B03ADF80A309DF80730C7
:100C30006FF302038DF807309DF806306FF304035D
:100C40008DF806309DF805306FF305038DF80530FB
:100C50009DF804306FF305038DF80430FFF76AFF49
:100C600005B05DF804FB00BF0040024007B501A8D5
:100C70000EF0FCF901A80BF03CFB03B05DF804FB9F
:100C800008B5044B1B689847034A137A43F00103E5
:100C9000137208BDD0C1072000000B401FB50446E9
:100CA000054B0DF1100E0FCB0EE90F000EEB840477
:100CB00054F8100C04B010BD5C2F020073B50E4642
:100CC0000546FFF7EBFF04460E4B0121186802AB07
:100CD0001D440090019015F8080C07F0EBFC012171
:100CE00015F8040C07F0FEFC00230122A3606260EB
:100CF000236707F045FA044BB0FBF3F04643E66088
:100D000002B070BD6C2F020040420F0010B50446C7
:100D1000024B0360FFF70EFB204610BDD42E0200ED
:100D200010B50446FFF7F2FF204600F017FC2046FE
:100D300010BDFFFF10B504460349FFF70DFC034B40
:100D40002046236010BD00BF00800940C42F020070
:100D500038B5074C236833B92C2000F0FDFB05465D
:100D6000FFF7E8FF25602068BDE83840FFF794BB37
:100D7000D4C10720026830B5D36913F0040310D042
:100D800002F1300301F1100451F8045BA14243F871
:100D9000045BF9D1438A013343822123536001204C
:100DA00030BD184630BDFFFF2DE9FF41254D440100
:100DB00055F804802F19D8F80C60D8F80830334360
:100DC000D90719D5786807F0DAF8FB8908F120010E
:100DD000984288BFF88100232F191A46786806F0D8
:100DE00089FF18B1BB8A0133BB8202E0BB890133A2
:100DF000BB810423C8F8043040F20263334093B14E
:100E00002F19B86807F0BBF83B8A0022984288BFC8
:100E100038822F196946B86807F076F818B1694624
:100E20003846FFF7A7FFB20603D52B199B6930465A
:100E30009847330703D52C44E3693046984704B0FC
:100E4000BDE8F08100C00720084B10B5D3F8C440BE
:100E5000A20402D50020FFF7A7FF630404D5BDE874
:100E600010400120FFF7A0BF10BD00BF00C00F4021
:100E700008B501211D2007F01DFC034B01221A6358
:100E80001A6BD207FCD508BD0040005073B54FF077
:100E9000FF33B1F5805F01934AD2284B1C69E40708
:100EA00048D4274C2469E60744D4264CE5686D07EE
:100EB00001D5A568FAE7244C0325A5602561234CDC
:100EC0001E4E1C60254622B101AC746041F0004406
:100ED00002E0706041F00844F46000249C6041F23C
:100EE00006041C61164C1AB1206041F0806101E0DB
:100EF00001AA22600022E1606560A2604FF40862EE
:100F000022611A6942F001021A61226942F001026B
:100F100022610C4A516A41F003015162D868C0F362
:100F20000B000028FAD1536A23F00303536202E056
:100F3000012000E0022002B070BD00BF204100503F
:100F400000410050000003400040005008000340F2
:100F500070B505460E4614467CB12B686BB122680D
:100F6000134208D06368984722682B6823EA02037B
:100F70002B6023683360A468EEE770BDF8B50124E8
:100F800084400F4616461D4610D079B10C200BF058
:100F9000BBFB58B133682A688360054B80E890003A
:100FA00014434FF4001230602C601A60F8BD00BF8B
:100FB00000E100E01FB5184C1849636868460093CB
:100FC000A3680193636A0293A36A0393144B1A689C
:100FD000FFF7BEFF134B11491A6801A8FFF7B8FFCE
:100FE000114B12491A6802A8FFF7B2FF104B0F49C4
:100FF0001A6803A8FFF7ACFF009B0BB9019B13B164
:101000004FF0FF33E360029B0BB9039B13B14FF02A
:10101000FF33E36204B010BD808002408C80024048
:10102000E0C10720E4C10720D8C10720AC800240FE
:10103000DCC1072010B414460029064A0649074BB4
:1010400018BF1346064A18BF0A46214610BCFFF7D0
:1010500095BF00BF94800240E4C107209080024009
:10106000E0C10720074A0121136801FA00F023F0CC
:10107000E06323F0FF031360136843F080730343BE
:10108000136070470040034007B500230D4A0193E9
:1010900052680D48C2F30B12ADF802200DF10201A7
:1010A00001AA006806F026FE019B3BB1074B4FF0FA
:1010B00080521A60BFF34F8FBFF36F8F03B05DF89C
:1010C00004FB00BF00400340E8C1072004ED00E03E
:1010D00010B507F055F80121C4080C2007F0EAFA12
:1010E00003210C2007F0FEFA114A4FF400131149B6
:1010F00013600223B4FBF3F0884204D8116841EA7C
:101100000323136003E00233B3F5807FF2D10120A3
:1011100006F0DEFD084B002218600221012006F0D7
:1011200031FD064B4FF480021860054B1A6010BD6C
:10113000004003403F5DC600ECC10720E8C1072026
:1011400000E100E0F7B507284FF000040546ADF8D0
:1011500006402AD806F034FB0228164E19D1164F45
:10116000234621464FF0FF32386806F033FE28460A
:10117000FFF778FF23460DF106014FF0FF3230688C
:1011800006F028FE234622462146386806F01CFD5C
:101190000BE02846FFF766FF00231A460DF1060113
:1011A000306806F017FE0028F6D0BDF8060003B040
:1011B000F0BD00BFE8C10720ECC1072010B5044610
:1011C000024B0360FFF7B6F8204610BDD42E020094
:1011D00010B50446FFF7F2FF204600F0BFF92046A5
:1011E00010BDFFFF10B504460349FFF7B5F9034BE7
:1011F0002046236010BD00BF00C009402C30020013
:1012000038B5074C236833B92C2000F0A5F9054602
:10121000FFF7E8FF25602068BDE83840FFF73CB9DC
:10122000F0C1072070B590F853508AB0044605B954
:10123000457C284601F0B0FA002294F8523084F838
:10124000522094F8542006460092012104F13A02FB
:10125000284601F0D5F8044670B1314602A800F0E6
:101260001DFB48B19DF80C3003F0C003C02B03D127
:101270009DF80830AB4200D0002420460AB070BD73
:1012800010B50446024B0360FFF754F8204610BD2A
:101290008430020010B50446FFF7F2FF204600F04C
:1012A0005DF9204610BD70B50E46037E90F83110F2
:1012B0000446994234BF012500250BD31146113055
:1012C00000F0E4FA30B1257E0023ED1A84F83130C5
:1012D00018BF01253DB194F831305A1C84F83120F3
:1012E0001C44637E3370284670BD10B590F85240A0
:1012F000621CD2B20444172A80F8522084F83A10B3
:1013000002D903689B689847012010BD70B5044658
:10131000FFF700F80C4B002523602126032384F8F7
:1013200054303246294684F8535004F111000BF032
:101330003EFA3246294604F132000BF038FA072013
:1013400000F02CFF204670BD8430020010B50A4C1E
:1013500023681BB9012006F0BBFC206006F030FAC0
:10136000022808D1002320684FF0FF321946BDE85B
:10137000104006F02FBD10BDF4C1072010B506F0D7
:101380001FFA022808D1BDE81040044800231A467D
:101390001946006806F018BC10BD00BFF4C1072054
:1013A00030B504468DB0A8B36846FFF79BFB9DF8A7
:1013B0000030002503F03F0303939DF8013003A89C
:1013C00003F03F0304939DF802300B9503F01F03D5
:1013D00005939DF8043003F01F0306939DF8053034
:1013E00003F00F03013B0793BDF80630C3F30B0373
:1013F000A3F26C7308939DF8033003F0070309937D
:10140000BDF80830C3F30B03013B0A930BF0B4FAA9
:1014100084E8210000200DB030BDFFFF014B1860B3
:10142000704700BFFCC10720014B1860704700BF28
:10143000F8C1072008B502480CF0B8FBFEE700BF72
:10144000B830020008B502480CF0B0FBFEE700BF60
:10145000D23002000020704701207047F8B5084BD9
:1014600016461A680F461C4642B10D46EB1B9E42BB
:1014700004DD236815F8010B9847F7E73046F8BDFF
:10148000FCC10720F8B5094B0F46186816461C46E4
:1014900058B10D46EB1B9E4205DD2368002098479E
:1014A00005F8010BF6E726EAE670F8BDF8C107205B
:1014B000704700207047FFFF074B1B689A68824205
:1014C00007D05A68824204D0DB681B1A5842584140
:1014D00070470120704700BF3CC1072000207047C3
:1014E00000207047144B10B51A68014612B94FF02E
:1014F00080521A60114C18682468421894421A608D
:1015000007D20F4CA24204D80E4A0B488C18046034
:1015100010460D4A1B681268934222BF064B0020FA
:101520001A6039B1094A136801331360084B186017
:10153000084B196010BD00BF04C207200CC2072071
:10154000FFBF0720DCC6072010C2072014C20720F7
:1015500000C2072008C207200BF0D6B80BF0DCB899
:101560000BF0DAB830B504468BB068460BF076FB6A
:10157000224B079A2360089B214DA360626021499A
:10158000214B52B90A68186882428ABF02F1604250
:1015900002F17042A2F5E822626062681B68B2F54F
:1015A000803F82BF02F17042A2F5E8226260002211
:1015B000E2600A68934206D3991AC5F1005303F515
:1015C00004230B440BE0114B1B68934208D9991A72
:1015D000C5F1005303F5F8230B44002B00DDE36055
:1015E00020460B4BE2611B68A3610A4B1B686361D9
:1015F000094B1B6823610BB030BD00BFDC06000047
:10160000DCC6072004C207200CC2072010C2072036
:1016100000C2072008C2072014C20720034A044B57
:101620001A60044A044B1A60704700BF0080001023
:101630000CC207200040082010C2072005F0E4BBC0
:1016400005F0F2BB70B5174E326822B92021032095
:1016500006F098FA3060144D2A6822B92021012042
:1016600006F090FA2860114C216821B9032201206C
:1016700006F088FA20604FF4FA6240F6C311202089
:1016800000F026FB00F0FEF91620094A0121FFF7C1
:10169000D1FC306828B1286818B12068003018BF24
:1016A000012070BD1CC2072018C2072020C20720DD
:1016B0005D17010070B50379014603F0C003C02B2C
:1016C0000CBF0E4B0E4B88B01D68002306461A4611
:1016D000284606F079FA044660B903460246694690
:1016E000284606F077FB234622463146284606F078
:1016F0006BFA0446204608B070BD00BF18C2072030
:101700001CC2072038B504460D4600F041FD237881
:1017100083420AD0E37843B90CF078FABD2300F095
:10172000030000FB033004F003FA00F0A3F900F01B
:1017300095F9A9B2204600F0C1F900F0B5F900F022
:10174000A1F906F03DF8022804D1034B00211868E6
:1017500006F00EFB012038BD20C2072007B500238C
:1017600002A941F8043D084B186806F001FB019BF3
:101770003BB1064B4FF080521A60BFF34F8FBFF35F
:101780006F8F03B05DF804FB20C2072004ED00E07A
:1017900038B504460D4600F0B7F948B1A9B2204665
:1017A00000F0BFF900F0B0F908B900F0B6F9012077
:1017B00038BD2DE9704305460E46144606F000F884
:1017C000022807D1224600233146284606F002FBB4
:1017D000C4B21DE006F07CFE4FF47A7200230AF0DA
:1017E000EDFB10EB040841F1000900231A463146D5
:1017F000284606F0EFFAC4B254B906F069FE4FF479
:101800007A7200230AF0DAFB894508BF8045ECD2E2
:101810002046BDE87083042938B5054603D1041C71
:1018200018BF012400E0002406F052FE2CB14FF452
:101830007A7200230AF0C2FB2860204638BDFFFF01
:1018400000B50C4B8DB009930B4B0C4A0B930C4B12
:101850000A930CAB43F8102D002204920FCB8DE8B5
:101860000F00084B084A01216A2000F047FD0DB027
:101870005DF804FB451601009117010017180100DF
:1018800005170100B5160100EC300200024B0A46B4
:1018900001461868FFF78DBF1CC20720024B0A469D
:1018A00001461868FFF785BF18C2072008B505F084
:1018B00087FF0F4B02285B6913D15A020DD500F048
:1018C00051FF00280B484FF0000314BF01224FF0D6
:1018D000FF321946006806F07DFABDE8084000F0C6
:1018E000DFBD5B02F9D500F03DFF0028F5D108BD52
:1018F00000C0092020C2072070B53E4C4FF480354F
:10190000E5613D4CA0602046C5683B4CED06FBD42C
:10191000A0680D46C0B20BB923465FE02346002AFB
:1019200063D0072A0E782DDD9E604E78083A9E60BF
:101930008E789E60CE789E600E799E604E799E6015
:101940008E799E6001F10806C97999609969490705
:10195000FCD5A1682970A1686970A168A970A16807
:10196000E970D968C906FCD4A168083505F8041CDB
:10197000A16805F8031CA16805F8021CA16805F818
:10198000011C1AE0032A1ADD9E604E78043A9E601C
:101990008E789E600E1DC9789960D968C906FCD4FE
:1019A000A168043505F8041CA16805F8031CA168AA
:1019B00005F8021CA16805F8011C3146AFE70131AA
:1019C0009E60013ADE68F606FCD4A668013505F88B
:1019D000016CA4E7E668F606FCD4A6686E1AB2426B
:1019E00003DD15F8016B9E60F4E7024B4FF4803283
:1019F0009A6170BD00C009200080084007B500232F
:101A000002A901F8013D01231A4600F01F00FFF76B
:101A100073FF9DF8070003B05DF804FB13B502AC3B
:101A200004F8011D00F01F0000230122214640F0B0
:101A30002000FFF761FF02B010BD08B51720FFF7C7
:101A4000DDFFC0F3001008BD70210720FFF7E6BFDF
:101A50000A4600230146A020FFF74EBF08B500202C
:101A6000FFF7CCFFBDE8084000F0FE010020FFF7C3
:101A7000D5BFFFFF024B4FF08072DA61704700BFA5
:101A800020C0092008B50020FFF7B8FF40F0010191
:101A9000C9B20020FFF7C2FF024B4FF080729A617B
:101AA00008BD00BF20C0092020210720FFF7B6BFD6
:101AB00000231A461946E120FFF71EBF37B504463A
:101AC0000D46FFF7F5FF20462946FFF7C1FF0D4BF6
:101AD0004FF080721C469A610022ADF80620BDF8D6
:101AE000063001339BB2ADF8063033B94FF0807346
:101AF000E361FFF7DDFF03B030BDFFF79EFF002875
:101B0000EDD0F3E720C0092008B51720FFF776FFD6
:101B100000F0010080F0010008BD40210720FFF720
:101B20007DBF08B50A46012301466120FFF7E4FEA8
:101B3000C0F3420008BD00231A461946E220FFF711
:101B4000DBBE70B5064600200D461446FFF756FF73
:101B500016B100F0BF0002E040F04000C0B215B185
:101B600000F0DF0101E040F0200114B101F0EF01CD
:101B700001E041F010010020BDE87040FFF74EBFCA
:101B800010B504460020FFF739FF14B900F0F70143
:101B90000DE0012C04D100F0FB0141F0080106E04A
:101BA000022C14BF40F0080140F00C01C9B2002023
:101BB000BDE81040FFF732BF08B50020FFF71EFF59
:101BC000BDE8084040F00201C9B20020FFF726BF7F
:101BD00008B50020FFF712FFBDE8084000F0FD0146
:101BE0000020FFF71BBF40F6DD13984206D840F6F1
:101BF0006213B0F5166F38BF184600E01846A0F51E
:101C00001661C9B20520FFF709BF10B504460620CA
:101C1000FFF7F4FEFA2C00F0D70102D141F02001C9
:101C200004E0B4F5FA6F08BF41F008010620BDE8F2
:101C30001040FFF7F3BE10B504460620FFF7DEFEA6
:101C4000032C28BF032420F0060040EA4401C9B257
:101C50000620BDE81040FFF7E1BEF9284FF0FA0377
:101C600005D9B0F57A6F88BF4FF47A6000E0184666
:101C7000B0FBF3F00F2900F1FF30C0B228BF0F21F5
:101C800041EA0011C9B20420FFF7C8BE1130C0B24A
:101C9000162804D8202928BF2021FFF7BFBE70478F
:101CA000032804D0042814BF0321022100E00121ED
:101CB0000320FFF7B3BE0A46002301463020FFF79A
:101CC0001BBE0A46002301462A20FFF715BEFFFF70
:101CD00073B50E4615460446FFF72DFFFFF7E8FEE5
:101CE0002B4B4FF08072DA61FFF772FF0022114632
:101CF0000120FFF726FFFFF7A7FE0220FFF740FFB6
:101D00003046FFF770FF2846FFF77FFF0320FFF7FD
:101D100092FF03210220FFF781FE00210120FFF73F
:101D20007DFE03214FF4FA70FFF797FF2146002054
:101D3000FFF7ACFF00211220FFF770FE00211320F7
:101D4000FFF76CFE00211420FFF768FE002115202C
:101D5000FFF764FE00211620FFF760FE0D4B1868A8
:101D60001B79009005208DF80430FFF799FF684635
:101D70000521FFF7A0FF05216846FFF7A2FFFFF747
:101D80001BFF4FF4FA6003F0D3FE02B070BD00BF3A
:101D900020C00920F130020010B54FF6FF74242353
:101DA00003FB0101884209D043782BB1038C134413
:101DB000A34228BF234603842430F3E710BDFFFF6E
:101DC00037B5002302A840F8043D0C4B04215B68A2
:101DD00098470B4B019A1C680546141B1A60042196
:101DE00022460848FFF7D8FF224602210648FFF79F
:101DF000D3FF281C18BF012003B030BD28C2072024
:101E0000F4C207203CC2072015C3072008B50B4BBE
:101E1000197803788B420A4B0BBF1A889A880132D3
:101E2000013214BF9A801A80064B8170DB68202132
:101E30009847003018BF012008BD00BF45C00720EB
:101E4000E4C2072028C207200A4B02781B789A4276
:101E5000094B0BBFDA881A89013201320CBFDA80D4
:101E60001A810379C3F3C202073262F3C503037117
:101E7000FFF7CCBF45C00720E4C2072010B50749D3
:101E8000002311F823409A00844202D103481044F1
:101E900010BD0133042BF4D1002010BDF8C207207F
:101EA00070B1C3780133DBB2FF2BC37008D1054892
:101EB0000023C118CA7804335208102BCA70F8D115
:101EC000704700BFF8C20720242202FB010103462D
:101ED000024630B5914206D01446243212F8235CF3
:101EE000002DF7D10FE00446002599420BD01A7956
:101EF000C2F3C2001A8C42EA0042AA4284BF1C46C6
:101F000015462433F1E7204630BDFFFF38B50546BE
:101F1000C90001F10804FFF753FF1C4B2A781B7816
:101F20009A4204D102211A48FFF7CEFF0CE00421A7
:101F30001848FFF7C9FFEB7833B990F82330042431
:101F400043F0800380F82330002380F8203080F8AD
:101F5000213002462B4690F8231080F8224021F0D1
:101F60007F01C4F306240C4380F8234005F12001CF
:101F700053F8044B8B4242F8044BF9D1064A0379DB
:101F8000127862F3C503037138BD00BF45C0072056
:101F900015C307203CC2072044C0072008B5FFF73F
:101FA0006DFF0346D8B9FFF769FF0346B8B90D4A7C
:101FB000D378D179D07A8B4296BF1946131D134638
:101FC000814294BF0846084BD17B084A814238BF02
:101FD0001346074900221A60CA7A0132CA721846AB
:101FE00008BD00BFF8C2072000C3072004C30720B4
:101FF000E4C207202DE9F84F05460C464FF02409AE
:1020000009FB0219DFF868A1DFF868B14E1C4FF038
:1020100000084C4500F09A8094F823301A0624D525
:10202000B5B12A7861788A4205D16F7816F8010C2B
:10203000874200F08D80E87850B16878884207D1F7
:1020400016F8011C914203D1A979A27991427FD05F
:1020500094F82220218C03F07F0342EA0323994263
:1020600071DB2046FFF7D2FE72E06278002A6AD068
:102070006DB3297901F0C001C02917D116F8010C00
:102080006978884202D12878904261D0E778A878B0
:1020900087420CD191420AD116F8010C2978884266
:1020A00005D1A079A979884201D151E079B1A87808
:1020B000E17888420BD16978914208D116F8010C79
:1020C0002978884203D1A079A979884246D094F82A
:1020D0002210208C03F07F0341EA0323984232DB75
:1020E000237984F82080C3F3C201CFB284F8218021
:1020F0001FB12046FFF7A8FE25E003F0C003C02B68
:1021000019D016F8010C9AF80030984213D1E378F0
:102110009A4210D07BB16379032262F30713637193
:10212000E1702046FFF790FE23799BF8002062F3D0
:10213000C503237100E001276078FFF79FFE08B117
:10214000C0F8008027B92434243662E7BDE8F88F50
:102150002422002120460AF02AFBF4E7237984F8A0
:1021600020806FF3C50384F821802371EBE700BF63
:1021700045C0072044C00720431EDBB2FD2B9DBF96
:10218000024B187001200020704700BF45C0072097
:10219000014B1878704700BF45C0072007289CBF37
:1021A000014B1870704700BF44C007202DE9F7436A
:1021B000044691461E469DF828500F46002966D0D9
:1021C000364B93F80080414563D00F2E61D800282C
:1021D00061D0202200210AF0EAFAFF2F237914BFF0
:1021E00009F00302002262F38713032262F3020361
:1021F0002B4A6770127884F8008062F3C503294A7D
:102200002371137884F802800133DBB21370A37159
:102210000BAB019315B94FF001081BE004F108095D
:10222000019AE0791346526853F8081B00EB020844
:102230005FFA88F8013DB8F1180F0193EDB207D8A5
:1022400048440AF08EFA84F80780002DE8D1E2E7CE
:102250004FF00008DFF850900123384689F800302D
:10226000FFF70CFE0546FFF71BFE002389F8003040
:10227000637925B966F307136371E57005E0AA7801
:1022800062F3071363716B78E370404603E008461E
:1022900001E00020FFE703B0BDE8F08345C0072060
:1022A00044C0072024C20720F0C20720124B01229D
:1022B00070B51A7004461E4608B9002518E0FFF7ED
:1022C000A5FD05460028F8D0237903F0C003402B74
:1022D00006D0C02B0AD1E37853B162789A4207D076
:1022E000617920460909FFF711FE01E0802BF7D044
:1022F00000233370284670BDF0C2072082B02DE95C
:10230000F0439146421ED2B28DB0FD2A05460E46DC
:1023100015939DF8688001D9002057E0002BFBD071
:10232000179F002FF8D0199B002BF5D0189B002B7E
:10233000F2D0169B002BEFD04822002126480AF04D
:1023400036FA9022002125480AF031FA10220021A5
:1023500023480AF02CFA234B00241C605C609C602C
:10236000214B1C605C609C60204B1D70204B214DFC
:102370001E7015AE0FCE0FC53368182221461E48B9
:102380002B600AF014FA494617221B480BF04FFF46
:1023900021462046B8470028BED0B8F1000F02D130
:1023A000FFF70EFD12E006230293144B2246019321
:1023B00001230093FF2104A8FFF7F8FE0028ABD00B
:1023C00004A8FFF773FF0028A6D0E9E70DB0BDE829
:1023D000F04302B0704700BF15C307203CC207207E
:1023E000F8C2072008C30720E4C2072045C0072021
:1023F000F1C2072028C20720CCC20720F630020015
:1024000030B5182B8DB016D8B2FA82F41D1C18BF47
:1024100001256409AC420ED00293019200950A4650
:102420009DF84030014604A8FFF7C0FE18B104A88B
:10243000FFF73CFF00E000200DB030BD13B553792D
:1024400014781B09009302460B4620460321FFF730
:10245000D7FF02B010BDFFFF00231A4630B5084C6D
:1024600014F82350990035B1904202D10448084431
:1024700030BD0132D2B20133042BF1D1002030BD86
:10248000F8C2072000231846044A12F8231009B1A5
:102490000130C0B20133042BF7D17047F8C20720D6
:1024A0002DE9F04188B02022002168460AF07FF92A
:1024B000A14B1B7803F0FF04002B40F039819F4FA4
:1024C00020213B6968469847002800F084809C4D95
:1024D0006B8801336B80FFF7D5FF9DF80420A8724D
:1024E00002F00703032B04D0964A137843F001034C
:1024F00009E0954B1D789DF80230AB4205D1914A19
:10250000137843F002031370E4E0C2F3C2029DF8B3
:1025100000E09DF806008D49D6B204EB440313F8A1
:1025200001C0F4450BD10B4493F801C0844506D19A
:10253000997801248E1B18BF01269A7018E0013487
:10254000042CEAD182490B689A70804A587002F1D3
:102550000900834283F800E040F0C9800A609DF8DA
:1025600000009DF80230834240F0C48000242646DB
:102570009DF80200FFF712FD9DF8022002709DF801
:102580000220427000228270FFF78AFC04B116B369
:102590009DF80030AB4200F09C809DF80160FF2E5A
:1025A0001BD13B6820216846984720B9654A1378BB
:1025B00043F0040313709DF8053003F00F02511C23
:1025C00061F303038DF80530C3F303139A4202DA73
:1025D0006846FFF71BFC00247CE0B5422BD164B9B0
:1025E0009DF807304BB13B6820216846984720B9D9
:1025F000544A137843F0040313709DF8043003F039
:10260000C003402B12D19DF807306A4613B9182138
:10261000504808E00C214A48FFF710FF002858D125
:1026200000216A460846FFF709FF52E09DF8033093
:10263000002B4ED1F4E7484B1B78002BCBD09DF8F4
:10264000054004F00F074FEA14184745C3DA013775
:1026500067F303043046FFF711FC8DF805409DF841
:102660000340A54221D19DF8041001F0C00140298A
:1026700006D0A1F180035A425A41144610B90CE029
:10268000012260B1C029437805D19E4203D00033B6
:1026900018BF012304E0002302E0C0290ED1034645
:1026A000134303F0010420B908E094B908B9414686
:1026B0000CE043788DF80330857802E000258DF832
:1026C00003506846FFF7A2FB1CB129466846FFF796
:1026D0001DFC6C46FFF774FB204604221F49FFF7E0
:1026E00089FC02221E492046FFF784FC20E00333C8
:1026F0000B6034E785423FF439AFFFF74FFC0446E7
:10270000FFF7CEFB23783BB19DF80530A27803F0AC
:102710000F0393423FF72AAF9DF8003023709DF8D6
:10272000023063709DF80530C3F30303A3701DE707
:1027300008B0BDE8F08100BFF0C2072028C2072022
:10274000E4C2072014C3072045C0072008C30720A0
:1027500040C00720CCC20720F1C207203CC207209E
:1027600015C3072000231846094AD118497809B132
:102770000130C0B22433902BF7D1064B5A780AB1FE
:102780000130C0B293F825300BB10130C0B27047B0
:102790003CC2072015C3072008B5FFF76FFB064BA7
:1027A00028B18278187802FB0000C00008BD1878B4
:1027B0001823584308BD00BF44C0072003490B68D5
:1027C00003604B6843608B6883607047E4C20720F6
:1027D0001FB501A8FEF786F99DF808309DF809207D
:1027E00003F01F0302F00F021B0443EA42519DF85D
:1027F00006309DF8040003F01F0341EAC3229DF850
:102800000530C0F3440003F03F0342EA4313BDF830
:102810000A201843520602F10842104305B05DF841
:1028200004FB30B504460D1F131B0344032B04D9CE
:1028300055F8043F44F8043BF6E79408A300194414
:10284000A2EB8402013B18440A44914204D011F8DF
:10285000013B00F8013FF8E730BD0244904202D04E
:1028600000F8011BFAE7704700F10B010023DA01C1
:1028700042EA530310F8012B1344884203F0FF038C
:10288000F5D118467047036810B50446B3B1194630
:102890000A4611F8010B1F2802D93A28F8D101E0A5
:1028A000002010BD591C8A4208D11B78303BD9B298
:1028B000012903D801321846226010BD4FF0FF30C5
:1028C00010BD03692DE9F04101F109020D4663B322
:1028D000416900244E1E2E2716F8013F0134202B9B
:1028E00019D0052B48D0092C01D117700132A3F162
:1028F000410EBEF1190F0CD8082C91F80CE08CBFDA
:102900004FF0100C4FF0080C1CEA0E0F1CBF2033C8
:10291000DBB2137001320B2CDED1CB7A2B72CB6978
:102920002B600B8BAB80CB8AEB8000241470AE69DC
:102930003EB303690BB900241AE0EB69002BFAD00F
:102940004FF6FF73028C9A42F5D0D0F81C80771EA8
:1029500038F8140060B1002101F0E6FF0028EAD049
:10296000EB69013B9C42E6D2013407F8010FEFE727
:1029700000233355BDE8F081092C4FF0E503C8D1A1
:10298000B3E7BDE8F081F8B5056B00F13407044604
:1029900001232A463946407802F053FEA0B9636A03
:1029A000E269EB1A9342207101D30020F8BDE6786A
:1029B000012EFAD9E36939461D442A46012360787D
:1029C00002F03FFE013EF3E70120F8BD03790BB1B1
:1029D000FFF7D9BF1846704770B50446FFF7F6FFFA
:1029E000054680BB2378032B25D16379012B22D1A7
:1029F00004F1340601464FF400723046FFF72DFF14
:102A00004AF65522A4F832220F4A3146626302F197
:102A1000FF5202F500522032C4F818226269607831
:102A2000C4F81C222269C4F82022226A01322263DF
:102A300002F007FE657100221146607802F01DFE6B
:102A4000003018BF012070BD52526141036B70B558
:102A50008B4205460E4610D0FFF7B8FF044608B17A
:102A600001240BE00123324605F13401687802F0BD
:102A7000CCFD0028F4D12E6300E00024204670BD78
:102A8000002310B503714FF0FF3303630446FFF7D3
:102A9000DDFFA0B94AF65523B4F832229A4210D18C
:102AA000D4F86A30084A23F07F4393420AD0D4F81E
:102AB000860020F07F40801A18BF012010BD03203F
:102AC00010BD022010BD00BF464154002DE9FF415A
:102AD00000230360074608461546FFF7D4FE061E8E
:102AE000C0F2FA80854B53F82640002C00F0F680A7
:102AF000E06801F0F7FE002800F0F2803C602378E7
:102B000083B1607802F079FDC1070BD4002D00F08D
:102B1000E98000F0040303F0FF00002B00F0EB80DD
:102B20000A20E8E00023F0B22370607002F052FD4A
:102B3000C20700F1D9800DB14307F1D4002120462E
:102B4000FFF79EFF01281CD12146002291F8F631A3
:102B50000BB1D1F8FA314DF822300132042A01F1DB
:102B60001001F3D100265DF826502DB129462046EC
:102B7000FFF786FF08B90BE002200136042EF2D1E0
:102B800000E00025032800F0B18008B10D20B2E07C
:102B9000B4F83F30B3F5007FF8D1B4F84A6006B915
:102BA000A66D94F844E0E6610EF1FF33012B84F842
:102BB00003E0EBD894F84130A370002BE6D05A1E06
:102BC0001A42E3D1B4F845C01CF00F0FA4F808C0B6
:102BD000DCD1B4F8472002B9626DB4F84210002984
:102BE000D4D006FB0EFE01EB1C177744BA42CDD3BE
:102BF000D21BB2FBF3F3002BC8D040F6F572934220
:102C000003F1020005EB01022F4410D94FF6F571D4
:102C10008B426DD9A06125626262E762BCF1000F50
:102C2000B4D1236E4FF00308A362830018E04FF085
:102C30000108A06125626262E762BCF1000FA5D0C5
:102C4000B8F1020F4FEA400318BF1B18724418BFB7
:102C500000F00100A2621CBF00EB53034FF001081B
:102C600003F2FF13B6EB532F90D34FF0FF336361A2
:102C70002361B8F1030F4FF08003637122D1B4F8E0
:102C80006430012B1ED1691C2046FFF7DFFEC8B956
:102C90004AF65523B4F8322260719A4212D1626B1F
:102CA000174B9A420ED103F1FF53D4F8182203F5C3
:102CB000005320339A4201BFD4F81C326361D4F828
:102CC000203223610F4A84F80080138800200133EA
:102CD0009BB21380E3800EE00B200CE00C200AE096
:102CE0000F2008E0284606E0032004E0012002E06F
:102CF0004FF002089DE704B0BDE8F08160C30720F3
:102D0000525261415EC3072010B50446A8B1036862
:102D10009BB11A788AB1D988828891420DD1D8683E
:102D200001F0E0FD58B12368587802F066FC10F01D
:102D3000010F14BF0320002010BD092010BD0F207B
:102D400010BD50B10F2905D84FF41A4323FA01F1F1
:102D5000CB0702D4C06801F0D8BD7047836902393F
:102D6000023B99423DBF8378C06A01FB030000200B
:102D700070470129F8B507460C464BD9836999423B
:102D800048D20378022B29D0032B34D0012B41D118
:102D900001EB5106416A01EB5621FFF757FE10B1D6
:102DA0004FF0FF30F8BD796AC6F3080301363B44A3
:102DB00001EB5621384693F83450FFF747FE0028C0
:102DC000EED1C6F308063E4496F83400E30745EA20
:102DD00000204CBF0009C0F30B00F8BD416A01EBB5
:102DE0001421FFF733FE0028DAD1630003F4FF73E8
:102DF000FE18B08EF8BD416A01EBD411FFF726FE34
:102E00000028CDD1A40004F4FE743C44606B20F093
:102E10007040F8BD0120F8BD70B5044682680D46CB
:102E2000012AE18001D1022070BD036899698A42BC
:102E3000F9D252B91978032901D1996A21B91989AE
:102E40008D42F0D2986A15E00A469E783601B54266
:102E5000114620680CD3FFF78CFF431C024618D0A4
:102E60000128E0D923689B699842DCD2AD1BEEE7CC
:102E7000FFF774FFE2600028D5D0236800EB15103F
:102E8000343305F00F0503EB451520616561002023
:102E900070BD012070BD0129F8B505460C461646E7
:102EA0005FD9836999425CD20378022B38D0032B17
:102EB00042D0012B51D101EB5107416A01EB57215F
:102EC000FFF7C4FD002849D1C7F3080214F001043C
:102ED0002A4417BF92F83430F3B203F00F0343EAE9
:102EE000061318BFDBB282F83430696A0137012358
:102EF0002B7101EB57212846FFF7A8FD70BBC7F3E4
:102F000008072F4414B1C6F3071606E097F83430CB
:102F1000C6F3032623F00F031E4387F834601DE039
:102F2000416A01EB1421FFF791FDB8B9640004F484
:102F3000FF742C44A68611E0416A01EBD411FFF71F
:102F400085FD58B9A40004F4FE7430342C44636841
:102F500003F070431E43666000E0022001232B71E2
:102F6000F8BD0220F8BDF8B505460F4631B906692F
:102F700096B183699E4228BF01260EE0FFF7F9FE55
:102F800001283FD9441C02D14FF0FF30F8BDAB6996
:102F9000984238D33E4600E001263446AB690134FE
:102FA0009C4204D3012E01D80020F8BD0224214602
:102FB0002846FFF7DEFE30B1411CE5D0012821D0C4
:102FC000B442EBD1F0E76FF0704221462846FFF79C
:102FD00062FFA8B957B96B692C615A1C0ED0013B2E
:102FE0006B616B7943F001036B7107E02246394650
:102FF0002846FFF750FF0028EDD001E02046F8BD3D
:103000000128C1D00120F8BD2DE9F843C688044647
:103010000136B3B20F4613B90420BDE8F883036943
:10302000002BF9D016F00F0859D1C16801330361A4
:10303000006819B903899E42EED250E08378013BC3
:1030400013EA16134BD1FFF794FE0128054602D868
:103050000220BDE8F883421C02D10120BDE8F883BC
:10306000206883699D4234D3002FD5D0E168FFF7F3
:103070007AFF054600283BD00128E9D0431CECD05C
:103080002068FFF7A3FC07460028E6D120684FF42C
:10309000007239463430FFF7E0FB226829461046BB
:1030A000FFF75CFE4FF00109106323689A7897429E
:1030B0000CD283F804902068FFF788FC0028CCD15C
:1030C00022680137136B01331363EEE71A6BD71BCA
:1030D0001F63E56029462068FFF740FE20612368F2
:1030E000E680343303EB481363610020BDE8F883C6
:1030F0000720BDE8F883FFFF2DE9F74F4FF6FF7972
:103100004FF0FF0806464446A0F820903169306829
:10311000FFF79CFC00287BD175692B78002B6ED0C3
:10312000E52B60D0E97A0F0701F03F0202D50F2AA4
:1031300059D101E00F2A42D1D6F81CB0BBF1000FE3
:1031400056D0580605D503F0BF04F3886A7B338454
:1031500002E0A3424BD1424695F80D80904545D1FF
:103160002F78012027F040077B1E0D275F434FF08B
:10317000000A294B1AF80320AA5A88B1104601F018
:10318000F1FB7F2F019032D87A1C3BF81700009298
:1031900001F0E8FB0199814229D1009A174601E02C
:1031A0004A4524D10AF1010ABAF10D0FE1D12B7879
:1031B00059062AD548B33BF8173033B317E024B982
:1031C0002846FFF751FB40451BD0B369DA7AD20796
:1031D00009D405F10B00854215D015F8011B13F831
:1031E000012B9142F7D0A6F8209000E09046FF24F2
:1031F00000213046FFF708FF002887D008E00420B0
:1032000006E0204604E0002002E0013CE4B2EFE7E3
:1032100003B0BDE8F08F00BFD83102002DE9F74FB1
:103220000B7807462F2B884601D05C2B01D108F183
:1032300001080024BC6098F800301F2B62D821469A
:103240003846FFF7E9FD7C6113E101313BF81120BD
:10325000202AFAD02E2AF8D009B144F003044A46B5
:1032600032F8020D2E2801D0013EF9D14FF0000AAC
:1032700055464FF008093BF811004A1C002840F061
:103280008F80BB691A78E52A04BF05221A70B9F14C
:10329000080F04BFAD00EDB205F00C030C2B00F0DD
:1032A000CC8005F00302032A00F0C780A10709D4EF
:1032B00005F00305012D08BF44F01004042B08BFDE
:1032C00044F00804BB690021DC723846FFF7A4FD16
:1032D00010B93846FFF710FFBB69DB7A002840F0D1
:1032E000AF805A0700F1C5807A69D37ADB0640F1D6
:1032F000AE803968538B0978032904BF928A43EA68
:103300000243BB6098F8003044462F2B08F10108B7
:10331000F8D05C2BF6D0D7F81CB004F1FF39ABF134
:103320000205002619F8010F06F101081F281AD915
:103330002F2818D05C2816D0B8F1810F00F09380A8
:10334000012101F0F1FA002800F08D807F2806D8D5
:10335000494911F8012F12B19042FAD183E025F8C2
:10336000020F4646DEE72028A0440BEB460234BF9E
:1033700004240024002E76D032F8021D202901D02A
:103380002E2901D1013EF5E7002520212BF816500A
:103390000B22B869FFF761FA0BEB4609294655E79E
:1033A000202803D02E2805D1B24208D044F00304CF
:1033B000114660E7CA4504D2B24218D155E0CA4569
:1033C00053D3B9F10B0F04D144F003044FF00B09B0
:1033D00057E7B24203D044F003043FF652AFAD00CA
:1033E000EDB232464FF00B094FF0080AE0E77F28B4
:1033F0000CD90021019201F097FA019A18B11F4BE4
:10340000184410F8800C44F0020428B11C4B13F847
:10341000011F29B18842FAD144F003045F2006E07D
:10342000A0F1410189B2192913D845F00205B96903
:1034300001F80A000AF1010ABAE744F0020435E78C
:10344000042816D113F0040F08BF052011E0052051
:103450000FE0A0F1610189B219299EBF203845F023
:10346000010580B2E3E7062003E0B9F10B0FB6D106
:10347000AAE703B0BDE8F08F133102005831020013
:103480001C3102002DE9F047846986B00C22C66920
:10349000054621460DEB0200FFF7C3F99DF81730F2
:1034A000DB0762D50023E3720127EB610B2203A93E
:1034B0002046FFF7B6F9052F01D83B4615E03B46FD
:1034C000B01E30F8022F82B1102102F0010E0EEB77
:1034D000430313F4803F1CBF83F4883383F021033C
:1034E00001394FEA5202F0D1EBE7072203F00F0057
:1034F00000F13001392988BF00F13701013A01A8F4
:1035000010441B094170F1D106A97E20114401F835
:10351000140C9A4204D0E15C202901D00133F8E771
:103520002344072A9DBF06A9891811F8141C2021DD
:1035300003F8011BA3EB040198BF01320729F0D95E
:1035400000212846FFF768FC40B92846FFF7D4FD64
:1035500020B90137642FA9D107209FE0042840F04B
:103560009D809DF81730E372EE619DF817309B0740
:103570000AD5002436F814300BB10134FAE71934B7
:103580000D23B4FBF3F400E0012400212846FFF7EB
:1035900043FC00287FD1064629692868FFF756FAC0
:1035A000002878D16B691B78E52B00D02BB9013648
:1035B000B44203D1013C53D007E00646012128461E
:1035C000FFF722FD0028E7D065E0E9882846091BBF
:1035D000FFF722FC002861D1A869FFF745F90646EC
:1035E000DFF8C0800F2729692868FFF72FFA034604
:1035F000002853D16A695FFA84FED5F81CC00EF129
:10360000FF31107350830D2041434FF6FF79184668
:103610005673D772484518BF3CF8110013F808A03C
:1036200003F1010318BF013122F80A00002808BF86
:1036300048460D2BEED14FF6FF73984202D03CF86E
:1036400011300BB94EF0400E82F800E02B680122D9
:103650001A7100212846FFF7D7FCF8B9013CC2D106
:1036600029692868FFF7F2F9044690B9202221461B
:103670006869FFF7F2F80B22A9696869FFF7D1F8CA
:10368000AB696A69DB7A03F0180313732B680122B4
:103690001A71204602E0042808BF072006B0BDE8E2
:1036A000F08700BFD83102004FF6FF7370B5018C70
:1036B000C5880446994208BF2946FFF7ADFB03467B
:1036C000E8B9E52621692068FFF7C0F9034698B9F3
:1036D000014620226069FFF7C0F862690121167077
:1036E00022681171E288954209D919462046FFF7F0
:1036F0008BFC03460028E5D0042B08BF02231846A4
:1037000070BDFFFF2DE9F041FF263446364F0546D8
:103710000420296900295AD02868FFF797F9002862
:1037200056D168690378002B59D0E52B47D02E2B52
:1037300045D0C27A02F03F02082A40D00F2A34D185
:10374000590605D503F0BF04EB88427B2B8402E0C9
:10375000A34234D13246467B96422FD14FF6FF78B2
:103760000378D5F81CE003F03F035A1E0D235343A2
:103770004FF0010C0022D15D415ABCF1000F06D080
:103780007F2B1CD82EF813108C46013301E04145E5
:1037900015D101320D2AEED1027852061CD57F2BAD
:1037A0000DD800222EF8132016E01CB9FFF75CF8A4
:1037B000B04216D04FF6FF732B8412E01646FF245A
:1037C00000212846FFF720FC0028A2D000E040B1ED
:1037D00000232B61BDE8F081013CE4B2F0E7042056
:1037E000F6E70020BDE8F081D8310200012970B56C
:1037F00004460D4601D8022070BD83699942FAD271
:10380000A3699D4205D229462046FFF7B2FA064633
:1038100008B9002070BD0128EDD0411C10D0002255
:1038200029462046FFF737FB58B963695A1C05D073
:1038300001336361637943F0010363713546DFE768
:10384000012070BDF0B585B0019004A840F8041DBA
:1038500000911646FFF717F8041E2ADB174B53F8A2
:1038600024501F463DB1E86801F03AF808B902203B
:1038700022E000232B70019921B9019847F8240018
:1038800048B919E0002301F80C3BE0B201F01EF842
:103890000028ECD0F1E7012E0DD10022694601A8E5
:1038A000FFF714F9044601460198FFF74AFA20464B
:1038B00002E00B2000E0002005B0F0BD60C307204F
:1038C0002DE9F043D1B0019190460546002800F063
:1038D00085800023036002F01E0201A906A8FFF7FD
:1038E000F5F80646002873D103AB0C9301990FAB92
:1038F00006A80D93FFF792FC0B9C10B9002C08BF93
:10390000062018F01C0F08F01F073CD050B1042807
:1039100002D106A8FFF7B6FD47F00807002864D1DA
:103920000B9C06E0E37A13F0110F5DD118F0040F41
:1039300056D1380735D5FEF74BFF0023C4F80E00EB
:103940000698E372E3610278B4F81A80032A08BF8C
:10395000A28A6383A38208BF48EA02480123037155
:10396000B8F1000F1BD04146D0F83090FFF73EFF72
:1039700000283AD1069808F1FF3303614946FFF762
:1039800065F850B131E000282FD1E37AD90629D467
:1039900018F0020F01D0DA0726D43B0701D547F013
:1039A0002007069B1A6BAF71EA610022EA712C6254
:1039B0001978628B032904BFA18A42EA01422A6175
:1039C000E2692B60DB88EA600022AA60AA61AB8012
:1039D00006983146FFF7B5F9304608E0092006E0C1
:1039E000082002E0042000E007200646F0E751B07E
:1039F000BDE8F0832DE9F74F9A460023CAF800305E
:103A0000054688461446FFF77FF9064628B1014669
:103A10002868FFF796F93046A1E0E97921B12868D6
:103A2000FFF78FF9E8799AE0AB79D80705D42868D1
:103A30000721FFF786F9072091E0EB68A86805F1F8
:103A4000240B181A844228BF0446002C00F0828000
:103A5000AA68C2F30803002B63D128688378013B6E
:103A600003EA522313F0FF030ED10AB9286904E0D8
:103A700069690193FFF77DF9019B012801D80224B0
:103A80004CE0411C49D06861D5F80090696948460E
:103A90000193FFF763F9019B20B90224EC712146E1
:103AA000484659E0660A00EB03071DD099F802204A
:103AB0009919914288BFD61AF3B23A46414699F80D
:103AC000010001F0A2FD40BBAB795A060AD5A869F6
:103AD000C01B864206D94FF40072594608EB4020BD
:103AE000FEF79FFE76022AE0AA69974218D0AB79CA
:103AF0005B060AD50123594699F8010001F0A1FDA2
:103B000058B9AB7923F04003AB71286801233A46DA
:103B10005946407801F079FD10B10124EC7119E0AB
:103B2000AF61A9684046C1F30801C1F50076A6421D
:103B300028BF2646294432462431FEF772FEAB6880
:103B4000B0443344AB60DAF80030A41B3344CAF805
:103B500000307AE721462868FFF7F3F8204603B0E3
:103B6000BDE8F08F2DE9F74F9B460023CBF80030DE
:103B7000044689469046FFF7C7F80546002867D1F6
:103B8000E17921B12068FFF7DCF8E079B8E0A379AA
:103B9000990705D420680721FFF7D3F80720AFE085
:103BA000A36813EB080F49D204F1240301932EE01C
:103BB0005FEA582500EB060774D09AF802307219B4
:103BC0009A4288BF9D1BEBB23A4649469AF80100DB
:103BD00001F037FD002874D1A169C91B8D420AD9B3
:103BE0004FF4007209EB41210198FEF71AFEA37908
:103BF00023F04003A3716D02A368A9442B44A36082
:103C0000DBF80030C5EB08082B44CBF80030B8F1E6
:103C1000000F13D0A368C3F30802002A54D1206810
:103C20008678013E06EA532616F0FF061ED1ABB990
:103C3000216949B9FFF797F9014628B9A368E268F5
:103C4000934254D9E36052E0012909D10225E5717C
:103C500029462068FFF775F8284651E06169E9E7D1
:103C60004A1C2ED02369616103B92161A3795B06E7
:103C70000BD520680123A2690199407801F0E1FC8D
:103C8000F8B9A37923F04003A371D4F800A06169C7
:103C90005046FFF763F800288AD10225E5712946CE
:103CA0005046D7E7A3699F420DD0A268E3689A42C5
:103CB00009D201233A4601999AF8010001F0A5FCC6
:103CC00008B10125C3E7A761A0684946C0F3080011
:103CD000C0F50075454528BF454620442A46243096
:103CE000FEF79FFDA37943F04003A37184E7A37916
:103CF000206843F02003A3710021FFF722F8002081
:103D000003B0BDE8F08F70B50446FEF7FDFF054631
:103D1000002838D1A3799A0635D55B0612D52068DC
:103D20000123A26904F12401407801F08AFC28B142
:103D300020680121FFF705F8012070BDA37923F069
:103D40004003A371E1692068FEF780FE0546D0B903
:103D5000266AF37A43F02003F372E368F361236980
:103D600073831B0CB382FEF733FD7582C6F8160011
:103D7000A379012223F02003A37123681A7120681C
:103D8000FEF72AFE054620682946FEF7DAFF284698
:103D900070BD38B50546FFF7B6FF044648B928465A
:103DA000FEF7B2FF044620B9286821462C60FEF7D2
:103DB000C8FF204638BD70B504460E46FEF7A4FF86
:103DC000054670BBE17921B12068FEF7BAFFE079C2
:103DD00070BDE368B34204D2A27912F0020F08BFAB
:103DE0001E460022A368A260002E7AD02068857843
:103DF0006D026BB1013B721EB2FBF5F2B3FBF5F144
:103E00008A4205D36A421340A360F61A616912E040
:103E1000216979B9FFF7A7F80128014607D10225E2
:103E2000E57129462068FEF78CFF284670BD0130F9
:103E300054D021616161B1B900262FE0A3792068D7
:103E40009A0713D5FFF78FF8014698B14B1C45D060
:103E50000129E4D923689B699942E0D2A368616192
:103E60002B44A360761BAE42E8D804E0FEF781FF46
:103E70000146EBE72E46A3683344A360C6F308036C
:103E8000002BD9D022681046FEF768FF20B9022522
:103E9000E57129461046C6E700EB5626A368C3F332
:103EA0000803F3B1A26996421BD0A37904F124055B
:103EB00013F0400F0AD0206801232946407801F012
:103EC000C0FB58B9A37923F04003A37120680123F4
:103ED00032462946407801F098FB08B101259FE75A
:103EE000A661A368E2682068934284BFE360A37977
:103EF0004FF0000184BF43F02003A371FEF721FFC0
:103F0000002070BD30B5C9B001910546002833D0FE
:103F1000002201A903A8FEF7D9FD044620BB039B9C
:103F200001992B6004ABAB6107ABEB612846FFF74F
:103F300075F9044628BB6B695BB1DA7AD20612D5F3
:103F400003995A8B0978032904BF9B8A42EA0342EA
:103F5000AA60039B0021DB882846AB80FEF75CFF4C
:103F6000042804460AD1052400232B600398214627
:103F7000FEF7E7FE204607E0092005E0002CF5D01B
:103F8000F2E70428EFD0EFE749B030BD70B5C4B018
:103F900004460E46FEF7B8FE0546F8B926B90146B6
:103FA0002046FEF739FF18E003ABC4F818D0E361F0
:103FB0002046FFF7A7FB042801D1256100E060B986
:103FC00031462046FEF77DFC00212046FFF71CF815
:103FD000042802D10023236100E005462068294619
:103FE000FEF7AFFE284644B070BD2DE9F3471446F6
:103FF00002AB43F8040D8846204600221946FEF71E
:1040000065FD2468054600284CD1A7696369BA1E7E
:10401000934202D8C8F8003044E094F80090B9F117
:10402000010F10D10646022739462046FEF7A1FEB1
:10403000431C2BD001282BD000B90136A3690137CE
:104040009F42F1D327E0034602460646616A52B911
:10405000204601F1010AFEF7F9FCD8B9514604F1F6
:1040600034034FF40072B9F1020F05D1188800B97A
:1040700001360233023A06E0186820F0704000B9B9
:1040800001360433043A013FE1D104E0012502E0A6
:10409000022500E005466379666143F00103637120
:1040A000C8F8006020462946FEF74BFE284602B0BD
:1040B000BDE8F08730B5D9B00190012201A905A86B
:1040C000FEF704FD044600284AD102AB0B93019988
:1040D00017AB05A80C93FFF7A1F8044600283FD1C1
:1040E0000A9B33B1DA7A12F0010F0CBF00240724C7
:1040F00000E00624059A5D8B1278032A04BF9A8A91
:1041000045EA024564BBDB7ADB0614D5012D24D9D0
:10411000242205A90EA8FEF784FB02210EA8109503
:10412000FEF77AFE0446D8B90EA8FFF7EBFA04466C
:10413000A8B1042814D105A8FFF7B6FA044678B947
:1041400025B90598FEF748FC044609E0294605987C
:10415000FFF74CFB044618B9F3E7022400E00724FC
:1041600005982146FEF7EDFD204659B030BD2DE9FA
:10417000F04FD1B00190FEF72BFB0122804601A940
:1041800006A8FEF7A3FC04460546002840F09080F0
:1041900003AB0C9301990FAB06A80D93FFF73EF804
:1041A000044680B1042840F0838029460698FEF733
:1041B000DAFE054648B1012809D1022429460698AD
:1041C000FFF714FB74E0082472E00724F6E7431CB1
:1041D00057D00698FEF7FAFB04460028EED1069E5B
:1041E00029463046FEF7BAFD06F134072146009015
:1041F0004FF400723846FEF730FB0B222021384680
:10420000FEF72BFB10222E2425FA02FA1FFA85F95D
:1042100086F83F203946202206F1540086F83440C3
:10422000C6F84A80A6F84E90A6F848A0FEF7F9FA1C
:10423000069986F855400878089A0328009B03D110
:10424000886A824208BF0022A6F86E20120CA6F8E7
:1042500068208E78BEB1069803F1010B03634FF01E
:1042600001030371FEF78FFB04460028A6D1014627
:104270004FF400723846013EFEF7EFFAF6B25B46A5
:10428000E8E701249AE706A8FFF7FCF804460028AF
:1042900094D10B9B10220698DA72C3F81680A3F80B
:1042A0001A90A3F814A001230371FEF795FB0446AE
:1042B00006982146FEF745FD204651B0BDE8F08F37
:1042C00010B5DEB001900091012201A90BA8FEF704
:1042D000FDFB044600287CD10B9B0199149302AB93
:1042E00011930BA81DAB1293FEF798FF044600280C
:1042F0006FD1109900295BD015220B3105A8FEF76C
:1043000090FA24220BA914A8FEF78BFA6846FEF750
:10431000BAFA00284EDB009914A8FEF77FFF044686
:10432000002849D0042854D114A8FFF7ABF804465C
:1043300000284ED1199C13220DF1160104F10D0035
:10434000FEF76FFA9DF814300B9A43F02003E372E6
:10435000012313710D99169B99422FD0E37ADB0646
:104360002CD51378618B032B08BFA38A104608BF96
:1043700041EA0341FEF7F2FC014648B31046FEF75E
:1043800065FB044628BB0B9B93F855202E2A15D1BC
:104390001A78032A03D116999A6A914200D0169C82
:1043A000A3F86E400122240CA3F868401A7105E0BE
:1043B00004240EE00B240CE008240AE00BA8FFF70D
:1043C00073F9044628B90B98FEF706FB044600E093
:1043D00002240B982146FEF7B4FC20465EB010BDC7
:1043E0002DE9F04F89B008AB43F80C0D18460E4686
:1043F0001546FEF748FA0028C0F20882012E00F2A6
:1044000007826B1E2B4040F00382BF4A52F82040C7
:10441000002C00F0FF81C7B22370384601F0DAF8B3
:10442000C20700F1F981430700F1F88107AA0121D1
:10443000384601F022F908B1012040E207997F29AE
:10444000FAD9002E14BF4FF0000A4FF03F0ACAEB12
:10445000010107916DB94FF4FA63B1FBF3F3AB4877
:1044600030F81520934201D20135F9E7A84B33F813
:1044700015506D0A03D0812D28BF802500E001254D
:10448000B1FBF5F340F6F572934240F203824FF62A
:10449000F572934240F20E829B0003F207235B0AFF
:1044A000019300234FF0030803934FF0200B0BEB15
:1044B0000A030293039A019B03EB0209029B9944AE
:1044C000CAEB05034B44994201D20E20F7E106AA3C
:1044D0000321384601F0D1F820B9069B013BB3F522
:1044E000004F01D301230693069AB8F1030F02F19E
:1044F000FF334B44C2F1000203EA0203C9EB03039A
:10450000069304D1029A9B441A44029202E0019A53
:104510001A440192079A0199CBEB02035B1A0399A3
:10452000B8F1020FA3EB0103B3FBF5F3049305D13C
:1045300040F6F57304999942C7D916E0B8F1030F14
:1045400005D14FF6F573049A9A42BED982E1B8F1CB
:10455000010F0AD1B2F5803F34BF4FF001094FF08F
:104560000609002E40F05C8107E0B2F5803F34BFC1
:104570004FF004094FF00609BEBB04F134064FF4B6
:10458000007200213046FEF768F943F6C160DDF89D
:104590001CE0FE2184F8F7110AEB0E01B1FBF0F1EB
:1045A0008808069184F8F9113F21C4F8FA114AF6F7
:1045B0005521012340F03F00002284F8F801A4F8BF
:1045C000321284F8F33184F8F43184F8F52184F858
:1045D000F691C4F8FEE13146384601F032F8002881
:1045E0007FF42AAF4FF0F80901E04FF0F00904F131
:1045F00034064FF4007200213046FEF72EF90B22EC
:1046000044493046FEF70DF94FF40073B8F1030F3B
:10461000A4F83F304FF0010384F8443084F841504F
:10462000A4F842B00CBF00234FF40073A4F8453047
:10463000079B84F84990B3F5803F34BFA4F8473016
:1046400063653F23A4F84C30FF23A4F84E30C4F830
:1046500050A0FEF7BDF8B8F1030F069016D1019BEC
:10466000C4F87700A365022323660123A4F864300D
:104670000623A4F86630802384F87430292384F854
:1046800076301322244904F17B000FE0BDF804309A
:104690002249A4F84A30802384F858302923C4F8EA
:1046A0005B0084F85A30132204F15F00FEF7B9F87A
:1046B0004AF655235246A4F8323231460123384691
:1046C00000F0BFFF00287FF4B7AEB8F1030F06D1AA
:1046D00001230AF106023146384600F0B2FF4FF4DA
:1046E000007200213046FEF7B8F8B8F1030F19D078
:1046F0000B4BB8F1010F18BF6FF0FF0343EA09033A
:104700000693636318E000BF60C30720E631020030
:10471000FE30020024310200303102004431020038
:1047200000FFFF0069F0FF03069363634FF0FF3360
:10473000A3636FF07043E363029B314603F1010909
:10474000029A0123384600F07CFF014600287FF4DE
:1047500073AE4FF400723046FEF77FF801230693E4
:10476000069B019A9A420FD901234A4631463846A0
:1047700009F1010B00F065FF00287FF45DAE069B98
:10478000D94601330693EBE7039B4A46B8F1030F82
:1047900018BF1D464D4401233146384602F1010B36
:1047A00000F04FFF00287FF447AEAB455A46F2D1E8
:1047B000B8F1030F21D1434B3146636303F1FF533B
:1047C00003F500532033C4F81832049B3846013BEC
:1047D000C4F81C320223C4F820324AF65523A4F848
:1047E000323201230AEB030200F02BFF01230AF10E
:1047F00007023146384600F024FF002211463846B1
:1048000000F03BFF003018BF012058E00B2056E0BD
:10481000132054E00C2052E0032050E00A204EE028
:1048200004F134064FF4007200213046FEF715F80B
:104830000B2225493046FDF7F4FF4FF40073A4F82E
:104840003F3084F84150A4F842B084F844804FF0DF
:10485000F009EBE6DEB104F134064FF400720021FA
:104860003046FDF7FAFF0B2217493046FDF7D9FF16
:104870004FF40073A4F83F30012384F8443084F8E7
:104880004150A4F842B04FF0F0090023CEE64FF0BB
:104890000C0972E603EB430301335B0803334FF06B
:1048A000010803F2FF135B0A0193202303934FF0E7
:1048B000010BFCE502335B004FF00208F1E709B0A1
:1048C000BDE8F08F525261412431020010B5012041
:1048D0000C4603F0FDF92060003018BF012010BD28
:1048E0000120704710B5044602F06AFF02280AD181
:1048F000002319464FF0FF32204603F06BFA431EA7
:104900005842584110BD012010BD10B5044602F0B8
:1049100057FF022807D100232046BDE810401A4661
:10492000194603F051B910BD7F2810B516D931B121
:10493000FF2812D80A4B803833F8100010BD084AFF
:1049400032F811408BB2844203D001318029F7D173
:104950000B4603F18000C0B210BD002010BD00BFA7
:10496000FC3102000649002331F8132032B18242A3
:1049700001D00133F8E7034A32F81300704700BF53
:10498000FC320200DC340200054B1B78253BDBB215
:10499000032B9ABF034A52F823000020704700BF40
:1049A0006AC30720C43602001B4B2DE9F0411D8865
:1049B0000646B5F5007F0F46144602D12A46214629
:1049C00013E0B5F5807F09D12A4621463846B04725
:1049D0002A4604F5807107F5807016E0B5F5047F6E
:1049E00005D1510A89024FF4007238460DE0B5F541
:1049F000847F0ED1140A61024FF480723846B047AA
:104A0000611C4FF480724902B8183346BDE8F0418A
:104A10001847BDE8F08100BF68C3072030B52F4CB0
:104A200003462546002958DD07291A782DDDA260A6
:104A30005A780839A2609A78A260DA78A2601A7966
:104A4000A2605A79A2609A79A26003F10802DB7928
:104A5000A360A3695B07FCD5AB680370AB684370C8
:104A6000AB688370AB68C370E368DB06FCD4AB68EB
:104A7000083000F8043CAB6800F8033CAB6800F871
:104A8000023CAB6800F8013C1AE003291ADDA26081
:104A90005A780439A2609A78A2601A1DDB78A36064
:104AA000E368DB06FCD4AB68043000F8043CAB6878
:104AB00000F8033CAB6800F8023CAB6800F8013C2E
:104AC0001346AFE70133A2600139E268D206FCD495
:104AD000AA68013000F8012CA4E730BD00000340B3
:104AE00007B50B0C8DF805308DF807100B0A042163
:104AF0008DF804000DEB01008DF80630FFF78EFFF6
:104B000003B05DF804FBFFFFF7B5174606460E4CF1
:104B100040250323E5618DF804300B0C8DF805303A
:104B20008DF807100B0A04210DEB01008DF80630FB
:104B3000FFF774FF002239463046FCF7A7F9A5615C
:104B4000A561A56103B0F0BD00C009200E4B402255
:104B5000DA610E4BD7229A601A46D1680B4BC90610
:104B6000FBD49A681A46FF219960D068C006FCD42D
:104B7000906810F0800FF7D0034B40229A61C0B2CA
:104B80009A619A61704700BF00C00920000003408D
:104B9000F7B5FFF7DBFF1F4C002323801E4B1F4E92
:104BA00040271A889B78F7610321054601A8ADF8D4
:104BB00004208DF80630FFF731FF9DF805209DF8A1
:104BC00006301F2AB7612146B761B7611CD1A3F136
:104BD0002502032A18D8124A252B137005F001006C
:104BE00006D1002814BF4FF480734FF4847305E09E
:104BF000002814BF4FF400734FF404730B80FFF7C9
:104C0000C3FE084B400A18600888B0FA80F04009DB
:104C100003B0F0BD68C30720BC36020000C0092005
:104C20006AC307206CC30720F8B58B1817460D4AD6
:104C3000013B12680446934210D84D02FFF786FFED
:104C400000262D1BBE4204EB050209DA2146064868
:104C5000FFF7AAFE04F500740136F3E70120F8BD62
:104C60000020F8BD6CC30720094B0100F8B58B1874
:104C700017460C4A013B126893420FD8044600269F
:104C8000C0EB4125BE4204EB050209DA2146064885
:104C9000FFF78AFE04F500740136F3E70120F8BD42
:104CA0000020F8BD6CC307208D4D010008B5072812
:104CB00005D8DFE800F006090E12141414140420BD
:104CC00008BDFFF743FF0AE0FFF75EFE400A0860F9
:104CD00005E04FF400730B8001E001230B6000201E
:104CE00008BDFFFF70B590B003466A466E4600F1FE
:104CF0004005144618685968083303C4AB4222467D
:104D0000F7D1084D4024EC6100219B20FFF7E8FE1D
:104D100021463046FFF782FEAC61AC61AC6110B059
:104D200070BD00BF00C0092070B50646074D402485
:104D300000217720EC61FFF7D3FE21463046FFF7D4
:104D40006DFEAC61AC61AC6170BD00BF00C00920FC
:104D500008B5064B198831F01F0104D0FFF714FE87
:104D6000B0FBF1F008BD084608BD00BF68C30720CE
:104D7000014B1888704700BF68C30720024B1878A2
:104D8000003018BF0120704768C307202DE9F743A2
:104D90004FF0FF330F46914601938046FFF7D6FE52
:104DA000FFF7ECFF0646B8B1194C4025194BE561F9
:104DB0001B880320B3F5847F0CBF4FF480714FF440
:104DC00000713943FFF78CFE04210DEB0100FFF762
:104DD00025FEA561A561A5610D4C402339468220C1
:104DE000E361FFF77DFE012249464046FCF74EF89D
:104DF0003EB1019B02A8013340F8043D0421FFF7B6
:104E00000DFE4023A361A361A36103B0BDE8F0835D
:104E100000C0092068C30720124B37B51B88B3F5C3
:104E2000847F0CBF4FF480714FF400714FF0FF335B
:104E300041EA40210193FFF7A1FF68B10A4C4025E8
:104E40000320E561FFF74CFE04210DEB0100FFF7A5
:104E5000E5FDA561A561A5610198431C08BF00207F
:104E600003B030BD68C3072000C0092037B5084B28
:104E7000084C1868402504210190E5610DEB010004
:104E8000FFF7CCFDA561A561A56103B030BD00BFF2
:104E9000BF36020000C0092008B503F019FB4FF42B
:104EA0007A72002307F08AF808BDFFFF10B50446A8
:104EB00003F066F9074BB0FBF3F00223B0FBF3F20B
:104EC000944202D3044A136110BDB3F5807FF9D038
:104ED0000233F3E740420F0000000340044B9860A8
:104EE000DA68D206FCD4024B9868C0B2704700BFA3
:104EF0000000034070B5FFF7CFFF00F5FA74FF2004
:104F0000FFF7ECFF0025FF20FFF7E8FFFF2806462C
:104F100005D0FFF7C1FFA94208BFA042F3D3304636
:104F200070BDFFFF38B5064C4FF00075E561FFF727
:104F3000E1FF044AA561137843F00103137038BD03
:104F400020C0092046C007202DE9704306460D46C3
:104F5000FFF7A2FF643080464FF00009FF20FFF703
:104F6000BDFFFF2808D1FFF797FF494508BF40451F
:104F7000F4D30020BDE87083FE28FAD1102D06D9A5
:104F800000224FF400713046FBF780FF19E0341D1A
:104F90000435FF20FFF7A2FF04F8040CFF20FFF701
:104FA0009DFF04F8030CFF20FFF798FF04F8020CA4
:104FB000FF20FFF793FF043404F8050C2B1BDE429F
:104FC000E7D1FF20FFF78AFFFF20FFF787FF0120CF
:104FD000BDE8708370B506460D46FFF78BFFFF28CE
:104FE000044619D12846FFF779FFFD2D16D0224639
:104FF0004FF400713046FBF749FF2046FFF76EFF84
:105000002046FFF76BFF2046FFF768FF00F01F0008
:10501000431F5842584170BD002070BD012070BD33
:10502000020638B504460D4607D500217720FFF764
:10503000F7FF012838D804F07F041C4B4FF00072B2
:105040009A61DA61FFF756FFFF28014628D1204612
:10505000FFF744FF280EFFF741FFC5F30740FFF7B6
:105060003DFFC5F30720FFF739FFE8B2FFF736FF32
:10507000402C17D0482C14BF01208720FFF72EFFAB
:105080004C2C02D10846FFF729FF0A21FF20FFF729
:1050900025FF030608D5013911F0FF01F6D138BD0F
:1050A000FF2038BD9520EEE738BD00BF20C00920A5
:1050B000064A074913784969DBB2490154BF03F036
:1050C000FD0343F003031370704700BF46C0072081
:1050D00020C009202DE9F743FFF7EAFF564B1A7865
:1050E0001E4612F0020F01D01878A1E00120FFF750
:1050F000DDFE0A24FF20013CFFF7F0FE14F0FF0460
:10510000F8D14E4F4FF00073FB6121464020FFF76E
:1051100087FF012802D04FF0000875E0FFF7BCFEC2
:105120004FF4D57100F57A754820FFF779FF012813
:1051300041D10DF10408FF20FFF7D0FE08F804006C
:105140000134042CF7D19DF80630012BE3D19DF8F2
:105150000730AA2BDFD12C460025FFF79DFEA94280
:1051600008BFA04206D3FFF797FEA94208BFA0429E
:10517000D1D207E04FF08041E920FFF751FF00282E
:10518000EBD1F0E700217A20FFF74AFF0028C2D1D7
:105190000146FF20FFF7A2FE08F8010001310429B3
:1051A000F7D19DF8043013F0400F14BF4FF00C08F6
:1051B0004FF0040828E02146E920FFF731FF0228DC
:1051C0002C4635BF4FF002084FF001084FF0E909B7
:1051D0004FF041090025FFF75FFEA94208BFA0423A
:1051E0000BD3FFF759FEA94208BFA0420CD34FF4DE
:1051F00000715020FFF714FF06E000214846FFF73A
:105200000FFF0028E7D1ECE70D4B83F800804FF04B
:105210000073BB61B8F1000F07D03378182003F09A
:10522000FE033370FFF742FE01E0FFF77BFE3078AC
:10523000C0B203B0BDE8F08346C0072020C00920FB
:1052400070C3072008B5FFF733FF014B187808BD7E
:1052500046C0072070B5144606460846FFF728FFEB
:10526000002C39D01E4B1B78DB0737D41D4B4FF079
:105270000072DA611C4A1D46127812F0080F08BF4E
:105280004002012C01460CD15120FFF7C9FEE0B9C4
:105290004FF400713046FFF757FEB0FA80F464090E
:1052A00013E05220FFF7BCFE78B94FF4007130468E
:1052B000FFF74AFE28B1013C14F0FF0406F5007622
:1052C000F3D100214C20FFF7ABFE4FF00073201C00
:1052D000AB6118BF012070BD042070BD032070BDFC
:1052E00046C0072020C0092070C30720F8B5144627
:1052F00006460F46FFF7DCFE002C44D0254B1A78FB
:10530000D20742D41B785B0741D4234B4FF0007285
:10531000DA61224A1D46127812F0080F08BF7F0298
:10532000012C0CD139465820FFF77AFE18BBFE211C
:105330003046FFF74FFEB0FA80F464091CE012F02B
:10534000060F03D02146D720FFF76AFE39465920C1
:10535000FFF766FE80B9FC213046FFF73BFE28B11F
:10536000013C14F0FF0406F50076F4D1FD21002085
:10537000FFF730FE00B901244FF00073201CAB6131
:1053800018BF0120F8BD0420F8BD0320F8BD02209D
:10539000F8BD00BF46C0072020C0092070C3072009
:1053A0007FB50D46FFF784FE05281AD12B78012B17
:1053B00000F0048103D3022B0BD0042001E1824BC7
:1053C000586910F0806440F0F980FFF7ABFD20468B
:1053D000F7E07D4B5B6983F08063C3F380636B70A0
:1053E000ECE07A4B1B78DB0700F1EA800E2800F234
:1053F000DF80DFE800F008124F53DDDDDDDDDDDDAD
:10540000AAAFB2BBCB00704B4FF00072DA61FFF76E
:1054100071FDFF3818BF0120CBE000214920FFF7C4
:10542000FFFD044608B10120C3E010216846FFF7E4
:105430008BFD0028F7D09DF800309DF808109B09DF
:10544000012B9DF8093006D1013303EB012189B20C
:10545000890229606BE09DF807209DF80500920005
:1054600002EB91119DF806200131920202F4406294
:1054700011449DF80A2000F00F0000EBD2105A00F2
:10548000023002F006028318DBB289B2093B01FA4E
:1054900003F34BE04FF400732B8059E04C4E33780C
:1054A00003F0040303F0FF01F3B10021CD20FFF767
:1054B000B7FD0028B7D1FF20FFF710FD1021684687
:1054C000FFF742FD0028AED03021FF20FFF706FD98
:1054D000481E10F0FF01F8D19DF80A3008461A095D
:1054E000102393402B6064E04920FFF799FD0446A8
:1054F000002898D110216846FFF726FD002892D099
:1055000036789DF80A2006F0020606F0FF009DF8A6
:105510000B3076B1520002F07E0202EBD3135A1C1C
:105520009DF80D309B09013B02FA03F32B602046E6
:105530003FE0D90001F01801C2F3840201EB5311DE
:10554000531C01FB03332B6033E0214B1B782B7082
:1055500000202EE00021492001E000214A20FFF731
:105560005FFD00287FF45FAF10211AE000217A2050
:10557000FFF756FD00287FF456AF291DFF20FFF7E7
:10558000ADFC05F8010B8D42F8D1E1E70021CD20FB
:10559000FFF746FD00287FF446AFFF20FFF79EFC93
:1055A00040212846FFF7D0FCB0FA80F0400900E027
:1055B0000420054B4FF000729A6102E0002000E0E9
:1055C000032004B070BD00BF20C0092046C00720E2
:1055D00070C3072010B50446FBF7B8FE24B1012CB8
:1055E00006D1FFF777FD01E0FFF7D2FA044600E0AD
:1055F0000424FBF7C3FE204610BD28B1012801D0CA
:1056000004207047FFF71EBE7047F8B507460C46EA
:1056100015461E46FBF79AFE3FB1012F0CD13246CC
:1056200029462046FFF716FE04E03246294620466A
:10563000FFF7FAFA044600E00424FBF79FFE204639
:10564000F8BDF8B507460C4615461E46FBF77EFE2C
:105650003FB1012F0CD1324629462046FFF746FEC6
:1056600004E0324629462046FFF700FB044600E0EE
:105670000424FBF783FE2046F8BD70B506460C46B1
:105680001546FBF763FE36B1012E0AD129462046A6
:10569000FFF786FE03E029462046FFF707FB044696
:1056A00000E00424FBF76AFE204670BD2DE9F04FB0
:1056B000ADF2546D0C4690460146012282A89946EF
:1056C000FEF7FEF8002867D121460A220DF22C4091
:1056D000FEF7F6F8044620B182A8FEF75AFB2046F2
:1056E0005AE06D46064607462860019002F0F0FE3B
:1056F0004FF47A72002306F061FC2B4683464FF488
:10570000007202A982A8FEF775F98246E0B92A68FC
:10571000D2B102F0DDFE4FF47A72002306F04EFCA7
:10572000B0EB0B00074402F0D3FE4FF47A72002373
:1057300006F044FC01AB83462A6802A90DF22C4016
:10574000FEF710FA8246B0B1B8F1000F01D0C8F8E8
:105750000070B9F1000F01D0C9F80060DDF87836AB
:1057600003B11C6082A8FEF714FB0DF22C40FEF77B
:1057700010FB504610E001992A689142E4D102F0F2
:10578000A7FE00234FF47A7206F018FC2B68B0EBEA
:105790000B0006441C44A9E70DF2546DBDE8F08FE0
:1057A000F0B5ADF50B7D0E46174601461D460122AC
:1057B000002301A80093FEF783F8044670B91DB1D9
:1057C000294601A8FEF7F7FA6B463A46314601A88A
:1057D000FEF710F9044601A8FEF7DBFA20460DF5A6
:1057E0000B7DF0BDF0B5ADF50B7D0E4617460146BD
:1057F0001D460A22002301A80093FEF761F8044623
:1058000070B91DB1294601A8FEF7D5FA6B463A4694
:10581000314601A8FEF7A6F9044601A8FEF7B9FA39
:1058200020460DF50B7DF0BDF0B5ADF50B7D0E46B8
:10583000174601461D461222002301A80093FEF7D9
:105840003FF8044680B90DB1294600E0049901A84B
:10585000FEF7B1FA6B463A46314601A8FEF782F9E7
:10586000044601A8FEF795FA20460DF50B7DF0BD24
:1058700013460A4601790068FAF75DBF1FB500229A
:1058800004AB047923F8042D0222009200680A4632
:105890002146FAF73BFF9DF80C009DF80D3043EAD6
:1058A000002004B010BD10B5044619222A21FFF7CC
:1058B000DFFF0D2221792068FAF72CFFA0F12A03DF
:1058C0005842584110BDFFFF044A13881F2B9FBF49
:1058D000581C1080024A42F82310704778C30720F2
:1058E0007CC30720154AF0B513881646012B21D931
:1058F000134A00201546013B984206DA51681468A5
:105900000130091B42F8041BF6E700210C466A68C7
:105910004FF0010E02EB52008AB2934208DD55F8B7
:1059200022700131B8423CBF0EFA02F21443F3E791
:10593000044B1C6000233380F0BD00BF78C30720F8
:105940007CC3072074C3072008B50121022002F0A0
:10595000B1FE084B01209A6A22F007029A629A6A05
:1059600042F006029A62044AD36843F03003D360DF
:1059700008BD00BF0080004000C0024008B5044BD5
:10598000417101F07F015A5C0321FFF771FF08BDEF
:10599000D436020008B5044B817101F07F015A5CD6
:1059A0000221FFF765FF08BDD436020038B5044672
:1059B00001790068FAF7CAFE054688B1002206217F
:1059C0002046FFF755FF002207212046FFF750FF32
:1059D0002E212046FFF7D2FF2E212046FFF7DAFFC7
:1059E000284638BD642370B5B1FBF3F404FB1311F2
:1059F000CCB20A21B4FBF1F501FB15413031C9B23B
:105A00000646FFF7C7FF092C88BF05F13001304675
:105A1000BDE8704094BF2021C9B2FFF7AFBF01209D
:105A20007047FFFF38B50D46044601F0EDF905F06B
:105A30000F032370114B15F0010F4FF0010214BF3B
:105A4000DA619A61227812F0020F4FF0020214BF5D
:105A5000DA619A61227812F0040F4FF0100214BF3D
:105A6000DA619A61227812F0080F4FF4807214BF45
:105A7000DA619A61BDE8384001F0D6B920C009204A
:105A8000012070470220FBF75DBB08B50220FBF741
:105A900059FB64235843C0F3073008BD0120704709
:105AA000044B5B69180B00F00C00C3F3412318434F
:105AB000704700BF20C0092010B504468122012193
:105AC000FFF7D6FE012221792068FAF723FE10F0B5
:105AD000600F14BF0120002010BD38B5002104461E
