:020000021000EC
:10000000E03F082095010100FB000100E100010034
:10001000090101001901010029010100000000008F
:1000200000000000000000000000000071650100F9
:100030003901010000000000D165010059010100F3
:100040003D6D01003D6D01003D6D01003D6D010004
:100050003D6D01003D6D01003D6D01003D6D0100F4
:100060003D6D01003D6D01003D6D01003D6D0100E4
:100070003D6D01003D6D01003D6D01003D6D0100D4
:100080003D6D01003D6D01003D6D01003D6D0100C4
:100090003D6D01003D6D01003D6D01003D6D0100B4
:1000A0003D6D01003D6D01003D6D01003D6D0100A4
:1000B0003D6D01003D6D01003D6D01003D6D010094
:1000C0003D6D01003D6D01003D6D01001006020017
:1000D00000C00720FC02000000C30720BC04000091
:1000E00004207146084203D0EFF3098006F044BEB5
:1000F000EFF3088006F040BE704708B5014801F0F4
:100100000FF8FEE78FFB010008B5024801F008F880
:10011000FEE700BF9AFB010008B5024801F000F8B5
:10012000FEE700BFA5FB010008B5024800F0F8FF9C
:10013000FEE700BFB0FB010008B5024800F0F0FF89
:10014000FEE700BFBDFB010008B5024800F0E8FF74
:10015000FEE700BFCBFB010008B505F0C7FE06F0C7
:1001600059FABDE8084005F0D5BE0B4610B5401A57
:100170005C1AA24203D9C45843F8044BF8E710BDF7
:100180000346002210B51C1AA14202D943F8042BE1
:10019000F9E710BD154806F0C7FD144806F0C7FD85
:1001A000134C144DAC4209D3134DAC420ED254F84B
:1001B000080B54F8041CFFF7E3FFF6E794E803008C
:1001C0000C3454F8042CFFF7D0FFEBE708F06EFD79
:1001D00006F0C4FB06F04EFF06F05CFE4FF416403E
:1001E00006F022FB054800F09BFFFEE7E03F0820F9
:1001F000CC000100D8000100E0000100DFFB01009D
:1002000010B50446024B036000F008FF204610BD05
:100210002CF2010010B50446FFF7F2FF204601F072
:10022000F7F9204610BDFFFF10B50446034900F062
:100230001BFD034B2046236010BD00BF008009401A
:1002400018F1010038B5074C236833B92C2001F0B0
:10025000DDF90546FFF7E8FF25602068BDE8384076
:1002600000F0A2BC00C30720F0B587B06C460F4D6C
:10027000074695E807008DE8070003AE95E80700FC
:1002800086E807000C223146204608F0D9FD38B92F
:1002900003CC386020687960B860384607B0F0BD9C
:1002A00095E8070084E80700E8E700BF1440024033
:1002B0000022184B1A720278C2F3050283F820203C
:1002C0004278C2F3050283F824208278C2F3040244
:1002D00083F82820C278C2F3020283F83020027922
:1002E000C2F3040283F82C204279C2F3030283F89C
:1002F0003820C179827901F00F0142EA0122417A66
:100300009A87027A01F00F0142EA01229A860122BD
:100310001A727047004002401FB50121092006F003
:10032000D9FA01222F4B01A81A72FFF79DFFBDF8E1
:100330000A3003F62603C3F30B030F2B1ED89DF8D8
:10034000053003F03F033B2B18DC9DF8043003F02D
:100350003F033B2B12DC9DF8063003F01F03172BE5
:100360000CDCBDF80C30C3F30B03B3F5B77F05DA33
:100370009DF8093003F00F030C2B2FDD01229DF8AF
:10038000083001A862F304038DF808309DF80930A5
:1003900062F3030340F2DA728DF80930BDF80A30D7
:1003A00062F30B03ADF80A309DF807306FF30203D8
:1003B0008DF807309DF806306FF304038DF8063092
:1003C0009DF805306FF305038DF805309DF8043076
:1003D0006FF305038DF80430FFF76AFF05B05DF891
:1003E00004FB00BF0040024010B50A4C23681BB953
:1003F000012005F015FF206005F0DCFC022808D183
:10040000002320684FF0FF32BDE81040194605F088
:100410008DBF10BD04C3072010B505F0CBFC02282A
:1004200008D1BDE81040002303481A461946006869
:1004300005F074BE10BD00BF04C3072008B5044B0F
:100440001B689847034A137A43F00103137208BDEF
:1004500008C3072000000B4008B501211D2006F04D
:1004600039FA0122024B1A631A6BD207FCD508BD78
:10047000004000504FF0FF3337B5B1F5805F019376
:100480004AD2274B1C69E50748D4264C2469E40767
:1004900044D4254CE5686D0735D40325234CA5606D
:1004A0002561234D1D60002A2FD001AC5C6041F016
:1004B0000044DC6000249C6041F206041C61194C7D
:1004C0003AB3206041F080610022E1606560A26083
:1004D0004FF4086222611A6942F001021A6122692E
:1004E00042F001022261104A516A41F00301516257
:1004F000D868C0F30B000028FAD1536A23F0030335
:10050000536203B030BDA568C4E7586041F00844A9
:10051000CFE701AA2260D7E70120F2E70220F0E747
:1005200020410050004100500000034000400050B6
:1005300008000340026830B5D36913F0040310D0FB
:1005400002F1300301F1100451F8045BA14243F8B9
:10055000045BF9D1438A0133438221230120536094
:1005600030BD184630BDFFFF2DE9FF41264C450147
:1005700054F805806719D8F80C60D8F80830334370
:10058000D90716D5786805F0A8FFFB8908F1200186
:1005900098424FF0000388BFF88167191A467868BF
:1005A00005F050FE58B3BB8A0133BB820423C8F860
:1005B000043040F202631E4212D06719B86805F099
:1005C0008CFF3B8A0022984288BF388267196946AF
:1005D000B86805F045FF18B169463846FFF7AAFF2D
:1005E000B20603D563199B6930469847330703D594
:1005F0002C44E3693046984704B0BDE8F081BB89DC
:100600000133BB81D2E700BF00C00720084B10B503
:10061000D3F8C440A20402D50020FFF7A5FF63046D
:1006200004D5BDE810400120FFF79EBF10BD00BFFC
:1006300000C00F40074A136823F0E06323F0FF0374
:1006400013600123116803FA00F041F08071084340
:100650001060704700400340002307B50D4A019326
:1006600052680D48C2F30B12ADF802200DF10201E1
:1006700001AA006805F0E6FD019B3BB14FF08052F6
:10068000064B1A60BFF34F8FBFF36F8F03B05DF857
:1006900004FB00BF0040034010C3072004ED00E04E
:1006A00010B506F06DF80121C4080C2006F012F90F
:1006B00003210C2006F028F94FF40013104A1149C9
:1006C00013600223B4FBF3F0884214D8116841EAA6
:1006D00003231360012005F0A3FD0B4B00221860DB
:1006E0000221012005F000FD4FF48002074B186045
:1006F000074B1A6010BD0233B3F5807FE2D1E9E702
:10070000004003403F5DC6000CC3072010C3072014
:1007100000E100E0F7B5002407280546ADF80640E3
:100720001DD805F047FB0228154E1CD1154F234656
:100730004FF0FF322146386805F0F8FD2846FFF7F4
:1007400079FF23464FF0FF320DF10601306805F0C6
:10075000EDFD234622462146386805F0DFFCBDF852
:10076000060003B0F0BD2846FFF764FF00230DF13B
:1007700006011A46306805F0D9FD0028F6D0EEE7EC
:1007800010C307200CC3072010B50446024B0360BA
:1007900000F044FC204610BD2CF2010010B50446C8
:1007A000FFF7F2FF204600F033FF204610BDFFFFA9
:1007B00010B50446034900F057FA034B2046236066
:1007C00010BD00BF00C0004080F1010038B5074CEB
:1007D000236833B92C2000F019FF0546FFF7E8FF26
:1007E00025602068BDE8384000F0DEB914C307205A
:1007F00010B50446024B036000F010FC204610BD0B
:100800002CF2010010B50446FFF7F2FF204600F07D
:10081000FFFE204610BDFFFF10B50446034900F05F
:1008200023FA034B2046236010BD00BF00C00940DF
:10083000E8F1010038B5074C236833B92C2000F0EB
:10084000E5FE0546FFF7E8FF25602068BDE8384073
:1008500000F0AAB918C307201FB50446054B0DF1D7
:10086000100E0FCB0EE90F000EEB840454F8100CA1
:1008700004B010BDFCF10100F7B50F460646FFF7C6
:10088000EBFF17230124162202218DF803308DF887
:10089000073002AB1E448DF802208DF801108DF850
:1008A000004005468DF8051016F8080C21468DF815
:1008B00006208DF8044006F00DF8214616F8040CC9
:1008C00006F022F80023AB606C602B6705F058FF40
:1008D000034BB0FBF3F04743EF6003B0F0BD00BF44
:1008E00040420F0070B505460E4614460CB12B6809
:1008F00003B970BD2268134208D063689847226824
:100900002B6823EA02032B6023683360A468EDE7B9
:10091000F8B5012484400F4616461D4610D079B123
:100920000C2008F05DFA58B14FF40012336880E8EB
:10093000900083602B6830601C43024B2C601A606F
:10094000F8BD00BF00E100E01FB5184C184963680E
:1009500068460093A3680193636A0293A36A0393B2
:10096000144B1A68FFF7BEFF134B11491A6801A810
:10097000FFF7B8FF114B12491A6802A8FFF7B2FF40
:10098000104B0F491A6803A8FFF7ACFF009B0BB987
:10099000019B13B14FF0FF33E360029B0BB9039B44
:1009A00013B14FF0FF33E36204B010BD808002400A
:1009B0008C80024020C307201CC3072028C30720C7
:1009C000AC80024024C3072010B414460029064A14
:1009D0000649074B18BF1346064A18BF0A46214668
:1009E00010BCFFF795BF00BF948002401CC30720D6
:1009F0009080024020C3072070B5174B0E465C69FB
:100A0000164B05461A6C1A2022F470021A641A6CEE
:100A100004F4406442F420021A64996E41F4406187
:100A20009966196821F470011960196841F4200170
:100A30001960032105F068FF05F0A2FEB4F5406FD0
:100A400006D13246C1082846BDE8704000F0E0B942
:100A5000012300206B7170BD00C0092000C002405E
:100A600010B50446024900F0ABF9204610BD00BFA6
:100A700000000A4038B5074C236833B91C2000F049
:100A8000C5FD0546FFF7ECFF25602068BDE838404E
:100A900000F098BA2CC3072037B5044615468DF8E8
:100AA000071005F087F9022809D063699DF807202F
:100AB0001A701A7D5206FCD5012003B030BD002308
:100AC0002A460DF10701E06905F028FB0028F4D063
:100AD00063691B7D5B06EFD500230DF107011A4604
:100AE000E06905F023FC0028E6D063699DF8072043
:100AF0001A70E1E710B50446024B036000F08EFA6D
:100B0000204610BD2CF2010010B50446FFF7F2FF9D
:100B1000204600F07DFD204610BD10B5044605F0CE
:100B200049F9022807D1E06905F0CEFC18B101208F
:100B300005F04CF8F7E7012010BDF8B5064614465D
:100B40000F4609B90020F8BD8369002BFAD005F0E3
:100B500031F9022809D1002322463946B06905F04F
:100B6000E5FB003018BF0120F8BD06F041F84FF456
:100B70007A72002307F056FD00250444002339460D
:100B80001A46B06905F0D2FB58B906F031F84FF4B7
:100B90007A72002307F046FD8D4208BF8442EDD2F1
:100BA000D0E70120F8BDFFFF002373B54269019330
:100BB0008DF803309368044603F00E03042B21D014
:100BC0000C2B1FD0022B3FD1C06905F086FCE38CB3
:100BD000984203D9E06905F080FCE08410260025E6
:100BE00001AA0DF10301E06905F03AFC00282ED1BD
:100BF0005DB34FF080521B4B1A60BFF34F8FBFF3B2
:100C00006F8F22E004F0EAFE0025A06263691A7D7E
:100C1000D2070ED51B7801AA8DF803300DF1030120
:100C20000023A06905F00EFB019B002B18BF0125D6
:100C3000ECE7A06905F051FCA38C9842D8D9A069D3
:100C400005F04BFCA084D3E7137D02B070BD63694F
:100C50009DF803201A70019B002B18BF0125013E4F
:100C6000C6D0BDE704ED00E038B504460D4600F0FF
:100C7000C5F9064B6561236000232046A361E3614B
:100C80002362A384E384A36238BD00BF2CF2010079
:100C90002DE9F84344790546894690461E46089F4B
:100CA0001CB100242046BDE8F883002BF9D005F0E4
:100CB00081F802282CD020222B682F61AE61AC7500
:100CC00085F8149085F815801A6005F091FF4FF4AF
:100CD0007A72002307F0A6FC10F57A7641F100073E
:100CE0000023E8681A46194605F020FB20B1AC7DC8
:100CF000B4FA84F46409D5E705F07AFF4FF47A7208
:100D0000002307F08FFC8F4208BF8642E8D2EEE74F
:100D100023464FF47A722146A86805F007FB0028A5
:100D2000BFD0234622462146E86805F0FFFA20227C
:100D30002B68AC7585F8149085F815802F61AE612D
:100D400021461A60E86823464FF47A7205F0EEFAFD
:100D500018B1AC7DB4FA84F464090023A8681A467B
:100D6000194605F0DBF99DE741F00101FFF790BF5F
:100D70001FB5002404AB03F8014D01240094FFF7D4
:100D8000F3FF9DF80F0004B010BD01F0FE01FFF766
:100D90007FBF1FB504AC04F8013D01230093234637
:100DA000FFF7F3FF04B010BD1FB5002204AB03F83A
:100DB000012D0092FFF7D8FF05B05DF804FBFFFF9F
:100DC00038B50025044601604571012005F028FA78
:100DD0000322A0602946012005F086F92368094A0C
:100DE000E060934203D10A232371204638BD064AAE
:100DF000934201D10B23F7E7044A93420CBF0C2323
:100E00006323F1E700C0014000C0054000000A4034
:100E100090F9043070B50B2B05460C46164634D0BD
:100E20000C2B35D00A2B36D10121072005F052FDBD
:100E3000B6F57A7F98BF4FF47A714FF06C0294BF89
:100E4000714316492B68B4FBF1F19A6128226420A2
:100E500049084A43B2FBF0F21A613C225143002296
:100E6000B1FBF0F15961DA601A625A629A6240226B
:100E700001201A6095F90430094A590903F01F034B
:100E800000FA03F342F8213070BD01211320CDE7B1
:100E900001211A20CAE7002070BD00BFA086010012
:100EA00000E100E0036830B55968024628294AD0BD
:100EB0000BD810292CD0182932D008290AD1027D4C
:100EC00002F0FE029A60996128E0402959D00DD8BD
:100ED00038296DD0596891752021996110211960C8
:100EE000082199611968C906FCD425E0502951D020
:100EF0005829EFD181699B680B70202103689961A3
:100F000010211960082199611968C806FCD413E002
:100F1000027D42F001029A6008229A61002030BDF1
:100F200020201469986108215CB99861102018602C
:100F300099611968C906FCD4137DDD0715D5012018
:100F400030BD527DBEE7007D10F0010002D02022AE
:100F50001A60E1E7116951B920229A6110221A60E2
:100F600008229A611A68D406FCD4022030BD946924
:100F7000013914F8015B9D609461116108229A6146
:100F800030BD202102699961012A4FF00402DFD8A7
:100F90009A61C1E79B68816904220B708369013300
:100FA00083610369013B012B03610368D0D1EFE743
:100FB000017D5B6811F0010F937514BF01200220C1
:100FC00030BDFFFF13B50446FFF76CFF80B100236F
:100FD00002A941F8043DE06805F074F9019B3BB1BA
:100FE0004FF08052034B1A60BFF34F8FBFF36F8FE8
:100FF00002B010BD04ED00E001207047064B10B5B3
:10100000036000230446436003810374012005F05C
:1010100007F9E060204610BD5CF20100044B10B5FA
:1010200004460360406808B107F0E2FE204610BDA8
:101030005CF2010008B5006809F0F5FB003018BF4C
:10104000012008BD07B5002330B1024604480093D3
:101050000449006800F0E0F903B05DF804FB00BF4C
:1010600030C3072035100100F8B5064610B900243A
:101070002046F8BD0378002BF9D0154D2B6813B925
:1010800000F0A4F928603046FFF7DCFF074600288F
:10109000EDD1082007F0A4FE04460028E7D080E840
:1010A000C00000F093F9606018B9204607F0A0FE78
:1010B000DDE72868214600F093F905460028D7D1DE
:1010C000606807F095FE204607F092FE2C46CFE7B9
:1010D00030C3072070B5064605F08AFD841941F13A
:1010E000000505F085FDA94208BFA042F9D370BDF7
:1010F00008B504F05FFE831E5842584108BD10B584
:101100000446FFF7F5FF20B12046BDE8104004F08B
:101110005DBD4FF47A706043BDE81040FFF7DABF61
:1011200010B5044605F036FA013C14F8010F18B961
:10113000BDE8104005F03EBA05F0B2FBF5E70FB48C
:1011400070B54FF48075C2B046AC54F8046B2A46B3
:10115000002102A807F0A8FE23463246294602A82D
:1011600001940AF0E7FC044602A8FFF7D9FF2046E5
:1011700042B0BDE8704004B07047FFFFF0B50024F6
:10118000ADF50D7D0D460746029405F031FD4FF497
:101190007A72002307F046FA4FF409720646214698
:1011A00003A807F081FE002D38D012221C4903A8A5
:1011B00003F070FC044668BB069903A803F0E6FE42
:1011C000044630B902AB2A46394603A803F0B1FD04
:1011D000044603A803F0C8FE05F00AFD4FF47A7236
:1011E000002307F01FFA0F4B801B1A889042029AC7
:1011F00088BF188095420CBF0126002606D0059BAB
:101200002146009308482B4608F0E8FF30460DF5CC
:101210000D7DF0BD054808F0E1FFDDE72C46DBE77A
:101220009CF201003CC30720BAF20100A6F20100C3
:101230002F4B2DE9F74F1D68DFF8BC902E46DFF8E5
:10124000BCA005F58068002302AF47F8043D4EF6C8
:1012500060223946D9F8000005F068F808B1019B12
:101260002BB9711B2846FFF789FF2E46EBE7D9F80B
:10127000000005F029F9BAF80030019C01309842CD
:1012800088BFAAF80000204609F0DFFA0A230021EF
:10129000235400F1010B019A06EB0B0402F80B102A
:1012A000A04501991FD8A8EB0602304607F0D7FDEC
:1012B000A4EB08044FF480612846FFF75FFF3CB1C0
:1012C0000199ABEB040B22465944284607F0C7FDB1
:1012D0002C44084800234FF0FF323946006804F0E0
:1012E0001DFF2646AFE75A46304607F0B8FDF0E747
:1012F00044C3072038C3072040C3072034C3072056
:101300002DE9FF412B4C80462568002D4AD14FF432
:101310008060039507F064FD274E2060A8B920681F
:10132000002842D1336863B10A24002303A91A4676
:10133000306804F0FBFF10B1039807F059FD013C41
:10134000F3D11E4808F0BEFF2CE02A4604210A20F3
:1013500004F0CAFE1A4F2A46386004210A2004F01D
:10136000C3FE3B683060002BD9D00028D7D00A25B7
:10137000962007F035FD03900028D0D0002303A964
:101380001A46306804F0CAFE013DF1D10195CDF84E
:1013900000802B464FF4C0720A490B4804F044FA0F
:1013A0000028BCD004B0BDE8F08107F021FD002387
:1013B0002360B7E744C3072038C3072077F2010052
:1013C00040C3072070F201003112010008B50C2063
:1013D00007F006FD18B1002303604360836008BD79
:1013E00038B50D46044608B9002038BD082007F07E
:1013F000F7FC0028F8D0002343602368056033B968
:101400002060A36860600133A360012038BD636879
:10141000002BF6D05860F4E7F8B50D4616461F4687
:1014200008B90020F8BD0029FBD00468002CF8D0D2
:10143000069B3A4631462068A84708B92068F8BD9F
:101440006468F3E7F8B50D4616461F4608B9012053
:10145000F8BD0029FBD00468002CF8D0069B3A4662
:1014600031462068A84708B16468F5E7F8BD002355
:1014700013B50C4602A941F8043D006804F022FFB0
:10148000019B1BB1236843F001032360012002B0DC
:1014900010BD30B5044685B001A80D46FEF7E4FE48
:1014A0009DF80630227903F01F039A421BD19DF864
:1014B0000530627903F03F039A4214D19DF804305D
:1014C000A27903F03F039A420DD1002304A941F809
:1014D000103D2368186804F0F5FE009B1BB12B68D3
:1014E00043F001032B60012005B030BD30B500256D
:1014F000234A87B01378234C43F00103137003A8E9
:101500000295FEF7B1FE2B46009502AA1E492068FF
:10151000FFF798FF9DF80C3013F03F031BD10093A9
:1015200002AA19496068FFF78DFF9DF80D3013F08E
:101530003F0310D1009302AA1349A068FFF782FF6E
:101540009DF80E3013F01F0305D1009302AA0E4937
:10155000E068FFF777FF00230C48009302AA0C49CC
:101560000068FFF76FFF029B3BB14FF08052094BC1
:101570001A60BFF34F8FBFF36F8F07B030BD00BF4E
:101580000040024048C307206F14010058C30720E1
:101590009314010004ED00E004F0FCBF05F00AB86C
:1015A000124B30B51A68014612B94FF080521A60DA
:1015B00018680F4A44180F4D2244AA4297BF0E4A9A
:1015C0001C60881818601C6898BF10460B4A94422B
:1015D00082BF01321A60002039B1094A1368013311
:1015E0001360084B1860084B196030BD64C30720B6
:1015F000FF7FFFEFFE3F0710BCC70720FF3F08201B
:101600005CC3072060C3072068C3072007F0E8BB5E
:1016100007F0EEBB30B504468BB0684607F0A8FE75
:10162000214B224D2360089B214AA360079B6360E6
:1016300053B913681F498B428ABF03F1604303F11A
:101640007043A3F5E823636000236168E360B1F5AC
:10165000803F82BF01F17041A1F5E821616011680E
:10166000144A914213D8C5F10053521A03F50423CA
:101670001A44E2602046104BE1611B68A3610F4BE6
:101680001B6863610E4B1B6823610BB030BD0D4BB3
:101690009942EFD8C1F1804303F580135B1B002B07
:1016A000C8BFE360E6E700BFBC070000BCC7072077
:1016B00064C307200080001060C3072068C30720B0
:1016C0005CC30720FF3F082030B504468DB0A8B3A7
:1016D00000256846FEF7C8FD9DF8003003A803F01A
:1016E0003F0303939DF801300B9503F03F030493F0
:1016F0009DF8023003F01F0305939DF8043003F0BA
:101700001F0306939DF8053003F00F03013B079379
:10171000BDF80630C3F30B03A3F26C7308939DF876
:10172000033003F007030993BDF80830C3F30B033C
:10173000013B0A9307F0A0FC84E8210000200DB0D3
:1017400030BD033808B50A2822D8DFE800F02106AA
:10175000060D19151D191121210007F0F7F80223B4
:1017600003604FF0FF3008BD07F0F0F81623F7E7ED
:1017700007F0ECF81323F3E707F0E8F81123EFE79D
:1017800007F0E4F80D23EBE707F0E0F80923E7E7BB
:1017900007F0DCF80523E3E7431C70B50E4906D0DB
:1017A0000E4B1B68984202D10A68104670BD002398
:1017B0001C460B4D0B60062B1A4606D0531C05EB3E
:1017C000031656F8106CB04204D104B10A60034B02
:1017D0001860EAE70124EEE7D8C3072040C00720DD
:1017E00078C30720084B10B50446186818B1836BFE
:1017F0000BB907F0B5F924B1012C02D0022C18BFA7
:10180000203C204610BD00BFE0C00720014B1860FF
:10181000704700BF70C30720014B1860704700BFBE
:101820006CC3072008B5024808F04CFDFEE700BF76
:1018300007F3010008B5024808F044FDFEE700BFC9
:10184000EDF20100002070470120704770B50A4B8F
:101850001D7885B90126094C6022294620461E7054
:1018600007F022FB4FF0FF33236323642365022339
:1018700025602661236270BD74C3072078C30720EA
:101880002DE9F74389461446FFF7ACFF0546FFF7FD
:1018900083FF062806D107F059F8092303604FF0AB
:1018A000FF3016E01B4E0701F3199B68DB07F2D4EB
:1018B000002D11D001DB052DF1DDF319D8680028CA
:1018C000EDD001AB2246494603F07BF9F8B1FFF7B2
:1018D00038FF03B0BDE8F0830F4B1A68984632B169
:1018E0004D46A5EB09039C420ADC24EAE475601B23
:1018F0000028D4DB3E447368201A03447360E8E791
:10190000D8F800300020984705F8010BE9E7019866
:10191000201AEDE778C307206CC30720F8B50E4600
:101920001746FFF75FFFFFF737FF062804D0124C7A
:1019300005016219D06830B907F008F8092303607F
:101940004FF0FF30F8BD3FB9314603F01FFB70B1D7
:10195000BDE8F840FFF7F5BE012F02D181683144A0
:10196000F3E7022F01D1C168F9E70920F0E7631915
:10197000DA6890685860F8BD78C307202DE9F34114
:101980000F461446FFF72EFF0646FFF705FF062811
:10199000054604D106F0DAFF0923036006E0052EB0
:1019A00026D80120B04010F0390F02D04FF0FF30A0
:1019B0002CE010F0060F1BD0174E306830B1B8463F
:1019C000A8EB07039C420EDC24EAE470201A431CB7
:1019D000ECD0A042EAD0114B201A03EB05135A6851
:1019E00002445A6012E0336818F8010B9847E7E7A1
:1019F0000A4B03EB0513D8680028CBD001AB224675
:101A0000394603F096F920B1FFF79BFE02B0BDE81E
:101A1000F0810198DAE700BF70C3072078C3072080
:101A200038B5FFF7DFFEFFF7B7FE062806D106F050
:101A30008DFF092303604FF0FF3038BD4FF0FF32B8
:101A40000B4B00011C181A50E06808B9002038BD83
:101A500003F08AFA0546E06807F0CAF90023E3605C
:101A6000002DF3D02846BDE83840FFF76ABE00BF1E
:101A700078C3072008B506F069FF582303604FF0CC
:101A8000FF3008BD074B1B689A68824207D05A682E
:101A9000824204D0DB681B1A58425841704701202B
:101AA000704700BFE0C0072030B54FF48035364C9A
:101AB000E561364CA0602046C468E406FCD480682A
:101AC000C0B263B90B46314C5D1A954209DA13F87E
:101AD000015BA560E568ED06FCD4A568F4E72B4B37
:101AE00022B94FF48032284B9A6130BD072A0C7816
:101AF00029DD9C604C78083A9C608C789C60CC789E
:101B00009C600C799C604C799C608C799C60CD7950
:101B100001F108049D609D696D07FCD59D680D70FD
:101B20009D684D709D688D709D68CD70DD68ED0677
:101B3000FCD49D680D719D684D719D688D719D6887
:101B4000CD712146CCE7032A14DD9C604C78043A21
:101B50009C608C789C60CD780C1D9D60DD68ED06E6
:101B6000FCD49D680D709D684D709D688D709D685A
:101B7000CD70E6E74D1C9C60013ADC68E406FCD4BD
:101B80009C680C702946ABE700C009200080084023
:101B9000002307B502A901F8013D012300F01F0051
:101BA0001A46FFF781FF9DF8070003B05DF804FBBC
:101BB00013B502AC04F8011D00F01F000023012240
:101BC000214640F02000FFF76FFF02B010BD08B5BE
:101BD0001720FFF7DDFFC0F3001008BD70210720BC
:101BE000FFF7E6BF0A4600230146A020FFF75CBFCF
:101BF00008B50020FFF7CCFFBDE8084000F0FE016B
:101C00000020FFF7D5BFFFFF4FF08072014BDA6174
:101C1000704700BF20C0092008B50020FFF7B8FFBB
:101C200040F00101C9B20020FFF7C2FF4FF08072FF
:101C3000014B9A6108BD00BF20C009202021072068
:101C4000FFF7B6BF0023E1201A461946FFF72CBF65
:101C500037B504460D46FFF7F5FF20462946FFF746
:101C6000C1FF4FF080720C4CA2610022ADF806203B
:101C7000BDF8063001339BB2ADF8063033B94FF0F2
:101C80008073E361FFF7DEFF03B030BDFFF79FFF16
:101C90000028EDD0F3E700BF20C0092008B51720C9
:101CA000FFF776FFC04300F0010008BD4021072088
:101CB000FFF77EBF08B50A46012301466120FFF702
:101CC000F3FEC0F3420008BD0023E2201A46194685
:101CD000FFF7EABE70B5064600200D461446FFF732
:101CE00057FF66B100F0BF006DB100F0DF016CB1CD
:101CF00001F0EF010020BDE87040FFF759BF40F050
:101D00004000C0B2F0E740F02001F0E741F01001E0
:101D1000F0E710B504460020FFF73AFF34B900F0B1
:101D2000F7010020BDE81040FFF742BF012C04D1AD
:101D300000F0FB0141F00801F3E7022C14BF40F072
:101D4000080140F00C01C9B2EBE708B50020FFF72D
:101D50001FFFBDE8084040F00201C9B20020FFF7B4
:101D600027BF08B50020FFF713FFBDE8084000F0CB
:101D7000FD010020FFF71CBF40F6DD1398420BD891
:101D800040F66213B0F5166F38BF1846A0F516611D
:101D9000C9B20520FFF70CBF1846F7E710B5044697
:101DA0000620FFF7F5FEFA2C00F0D70106D141F02E
:101DB00020010620BDE81040FFF7FABEB4F5FA6F27
:101DC00008BF41F00801F4E710B504460620FFF70C
:101DD000DFFE032C28BF032420F0060141EA440162
:101DE000C9B20620BDE81040FFF7E2BEB0F57A6F39
:101DF00028BF4FF47A60FA2838BFFA20FA23B0FBE4
:101E0000F3F30F2928BF0F21013BDBB241EA031195
:101E1000C9B20420FFF7CCBE1130C0B2162804D8D6
:101E2000202928BF2021FFF7C3BE7047032806D012
:101E3000042814BF032102210320FFF7B9BE0121AA
:101E4000FAE70A46002301463020FFF72DBE0A4676
:101E5000002301462A20FFF727BEFFFF73B5044683
:101E60000E461546FFF730FFFFF7ECFE4FF080728D
:101E70002A4BDA61FFF775FF002201201146FFF7B8
:101E800029FFFFF7ABFE0220FFF743FF3046FFF7C5
:101E900073FF2846FFF782FF0320FFF795FF03211A
:101EA0000220FFF785FE00210120FFF781FE0321BC
:101EB0004FF4FA70FFF79AFF21460020FFF7ACFFBE
:101EC00000211220FFF774FE00211320FFF770FE9F
:101ED00000211420FFF76CFE00211520FFF768FE9B
:101EE00000211620FFF764FE0D4B18681B79009047
:101EF00005208DF80430FFF799FF68460521FFF7AC
:101F0000A0FF05216846FFF7A2FFFFF71EFF4FF471
:101F1000FA60FFF7DFF802B070BD00BF20C00920F3
:101F200021F30100242310B54FF6FF7403FB0101D8
:101F3000884200D110BD43782BB1038C1344A342D7
:101F400028BF234603842430F2E7FFFF002337B580
:101F500002A840F8043D0C4B04215B6898470546F5
:101F60000A4B019A1C680421141B1A600848224677
:101F7000FFF7D8FF224602210648FFF7D3FF281CAF
:101F800018BF012003B030BDDCC307200CC50720FB
:101F9000F2C30720A6C4072008B50B4B19780378B5
:101FA0008B420A4B0BBF1A889A880132013214BF48
:101FB0009A801A80064B8170DB6820219847003098
:101FC00018BF012008BD00BF44C0072082C40720FD
:101FD000DCC307200A4B02781B789A42094B0BBFDF
:101FE000DA881A89013201320CBFDA801A8103794A
:101FF000C3F3C202073262F3C5030371FFF7CCBF1C
:1020000044C0072082C40720002210B5064B13F8F5
:1020100022409100844201D1581810BD0132042A97
:10202000F5D1002010BD00BFFBC4072070B1C378FC
:102030000133DBB2FF2BC37008D100230448C11861
:10204000CA7804335208102BCA70F8D1704700BF09
:10205000FBC407202422034602FB0101024630B5DF
:1020600091420FD1044600259A4211D01979C1F34B
:10207000C200198C41EA0041A94284BF1C460D46AA
:102080002433F1E71446243212F8235C002DE7D103
:10209000204630BD38B50446C90001F10805FFF7F8
:1020A00055FF1C4B22781B789A4224D102211A48F2
:1020B000FFF7D0FF0023024680F8203080F821305F
:1020C000234690F8231080F8225021F07F01C5F3B9
:1020D00006250D4380F8235004F1200153F8044BEA
:1020E0008B4242F8044BF9D10C4A0379127862F31F
:1020F000C503037138BD04210948FFF7ABFFE3783E
:10210000002BD7D190F82330042543F0800380F8CA
:102110002330CFE744C00720A6C407204CC00720C7
:10212000F2C3072008B5FFF76FFF0346D8B9FFF7E2
:102130006BFF0346B8B90D4AD378D179D07A8B4278
:1021400096BF1946131D1346814294BF0846084B9B
:10215000D17B084A814238BF1346002206491A60E3
:10216000CA7A0132CA72184608BD00BFFBC40720F4
:1021700003C5072007C5072082C407202DE9F047C3
:102180004FF0240805460C46002708FB0218DFF82C
:102190005C91DFF85CA1A04501D1BDE8F08794F91E
:1021A0002330002B29DACDB12B786278934209D104
:1021B00068782178884205D124220021204606F043
:1021C00073FE69E0E97849B16978914206D12278D5
:1021D0009A4203D1AA79A3799A42EDD094F82320A8
:1021E00094F82230218C02F07F0243EA02239942C4
:1021F00052DB2046FFF7D0FEDEE76378002B4BD0A2
:10220000002D32D02A7902F0C002C02A2BD12278C8
:1022100069788A4202D128789842CDD0E678A878A9
:10222000864208D1994206D129788A4203D1A17900
:10223000AA799142C0D0A978E278914215D16A7802
:102240009A4212D121782A7891420ED1A179AA79A5
:1022500091420AD1237984F8207067F3C50384F88A
:102260002170237118E0002AE5D194F8231094F826
:102270002220208C01F07F0142EA012290420BDBF8
:10228000227984F82070C2F3C201CEB284F82170A2
:1022900026B12046FFF79EFE24347CE702F0C00200
:1022A000C02A20D0207899F8002090421BD1E278F3
:1022B000934218D0BAB103226379E17062F3071335
:1022C00063712046FFF786FE23799AF8002062F3B7
:1022D000C50323716078FFF797FE00B10760002EF9
:1022E0007FF46AAFD8E70126F4E700BF44C00720B7
:1022F0004CC00720431EDBB2FD2B9DBF024B187064
:1023000001200020704700BF44C00720014B18780F
:10231000704700BF44C007202DE9F74304469146AB
:102320001E469DF828500F46002965D0344B93F87F
:102330000080414560D00F2E5ED800285ED020225C
:10234000002106F0B1FDFF2F08BF4FF00009032266
:102350002379677069F3871362F30203294A84F8CB
:102360000080127884F8028062F3C503264A237144
:1023700013780133DBB21370A3710BAB0193C5B9B2
:1023800001250123DFF88480384688F80030FFF704
:102390003BFE0746FFF74AFE002388F800306379CA
:1023A0001FBB66F307136371E770284603B0BDE8EF
:1023B000F08304F10809019AE0791346526853F852
:1023C000081B00EB02085FFA88F8013DB8F1180F0E
:1023D0000193EDB207D8484406F041FD84F8078028
:1023E000002DE8D1CCE70025CBE7BA7862F30713DC
:1023F00063717B78E370D8E70025D6E70546D4E71C
:1024000044C007204CC007200BC50720F1C307209C
:10241000012270B5134E0446327020B90025002306
:102420002846337070BDFFF7B7FD05460028F5D08C
:10243000237903F0C003402B10D0A3F180014A425E
:102440004A41C02B0BD1E3784BB16178994206D059
:10245000617920460909FFF71DFEE0E70246002AE0
:10246000F6D1DCE7F1C3072082B02DE9F0439146B5
:10247000421ED2B28DB0FD2A05460E4615939DF838
:10248000688005D900200DB0BDE8F04302B0704768
:10249000002BF7D0179F002FF4D0199B002BF1D001
:1024A000189B002BEED0169B002BEBD0002448226B
:1024B0000021234806F0F8FC90220021214806F074
:1024C000F3FC10220021204806F0EEFC1F4B1C609C
:1024D0005C609C601E4B1C605C609C601D4B1D70B2
:1024E0001D4B1E4D1E7015AE0FCE0FC53368182242
:1024F00021461B482B6006F0D7FC49461722184896
:1025000008F0BDF921462046B8470028BAD0B8F1F6
:10251000000F02D1FFF71AFDB5E706230293114B16
:10252000224601930123FF21009304A8FFF7F4FE44
:102530000028A7D004A8FFF76BFF0028A2D0E9E786
:10254000A6C40720F2C30720FBC40720EEC407205F
:1025500082C4072044C00720FAC40720DCC3072038
:102560008EC4072026F3010030B5182B8DB007D894
:102570001D1CB2FA82F418BF01256409AC4201D1D6
:1025800000200EE00293019200950A469DF840302B
:10259000014604A8FFF7C0FE0028F1D004A8FFF709
:1025A00037FF0DB030BD13B5537914781B09009374
:1025B00002460B4620460321FFF7D6FF02B010BDAE
:1025C00000231846044A12F8231009B10130C0B2A2
:1025D0000133042BF7D17047FBC407202DE9F047E6
:1025E00088B020220021684606F05EFCA34B1B78D1
:1025F00003F0FF042BBBA24F20213B69684698479C
:1026000008B9002411E09F4D6B8801336B80FFF700
:10261000D7FF9DF80420A87202F00703032B13D004
:10262000994A137843F001031370FFF78FFC0422DB
:1026300096492046FFF7A2FD022295492046FFF762
:102640009DFD08B0BDE8F087924B9DF802E01E7832
:10265000B64504D18C4A137843F00203E4E78E4D6B
:102660002146A846C2F3C2029DF800009DF806C0AC
:102670005FFA82F901EB410313F805A0824523D1EB
:102680002B4493F801A0E2451ED19D789A70B5EBDA
:10269000090518BF01254FF001099DF80200FFF759
:1026A00041FD9DF802200270427000228270FFF707
:1026B000BDFCB9F1000F01D0002DA2D09DF8003073
:1026C000B34233D16C46B0E701310429D2D173490A
:1026D0000B689A70724A1870934283F801C006D151
:1026E000C1F80080864505D10025A946D5E703330A
:1026F0000B60F7E78642F7D0FFF714FD0546FFF7BA
:1027000095FC2B7833B19DF80530AA7803F00F03C0
:102710009342E9DC9DF800302B709DF802306B701D
:102720009DF80530C3F30303AB70DDE79DF801802E
:10273000B8F1FF0F1BD13B6820216846984720B9AC
:10274000514A137843F0040313709DF8053003F0E9
:102750000F02511C61F303038DF80530C3F303131B
:102760009A42BFF64EAF6846FFF716FC49E746456A
:102770002ED1B9F1000F0CD19DF807304BB13B6859
:1027800020216846984720B93F4A137843F0040354
:1027900013709DF8043003F0C003402B12D19DF854
:1027A00007306A4623B918213E48FFF7FCFE89E747
:1027B0000C213448FFF7F7FE002883D100216A4638
:1027C0000846F2E79DF80330002B7FF47BAFF5E776
:1027D000354B1F78002F3FF414AF9DF8055005F0DE
:1027E0000F094FEA151AD145BFF60BAF4046FFF768
:1027F0000BFC9DF8033009F1010969F303059E42C2
:102800008DF8055024D19DF8043003F0C003402B0F
:1028100003D0A3F180025742574150B3C02B4478F4
:1028200020D1A04512D0003418BF01243C4304F04D
:102830000104D0B143788DF8033085786846FFF7FE
:10284000ABFB002C3FF43EAF294607E00024EDE748
:10285000002B7FF437AF0028ECD151466846FFF7D4
:1028600019FC2FE73C46E5E73C4600258DF8035070
:10287000E4E7C02BF8D10446D8E700BFF1C3072036
:10288000DCC3072082C40720F0C30720F2C307205F
:10289000A6C4072044C00720EEC4072048C0072074
:1028A000F7C407208EC40720FAC407200023184667
:1028B000094AD118497809B10130C0B22433902BAC
:1028C000F7D1064B5A780AB10130C0B293F82530DF
:1028D0000BB10130C0B27047F2C30720A6C4072075
:1028E00070B5174E326822B92021032003F0FCFB9B
:1028F0003060144D2A6822B92021012003F0F4FB36
:102900002860114C216821B90322012003F0ECFB5F
:1029100020604FF4FA6240F6C3112020FFF79EFAC0
:10292000FFF77AF91620094A0121FEF74DF83068C1
:1029300028B1286818B12068003018BF012070BD88
:1029400018C5072010C5072014C50720F929010064
:10295000037970B503F0C003C02B0CBF0E4B0F4BB7
:1029600001461D68002388B006461A46284603F033
:10297000D5FB044660B9034602466946284603F083
:10298000D5FC234622463146284603F0C7FB0446C1
:10299000204608B070BD00BF10C5072018C507202D
:1029A00038B504460D46FFF7B1FC237883420AD0C0
:1029B000E37843B907F0B6FCBD2300F0030000FB49
:1029C0000330FEF787FBFFF71FF9FFF711F9A9B2F4
:1029D0002046FFF73DF9FFF731F9FFF71DF903F046
:1029E000E9F9022804D1034B0021186803F06AFCBE
:1029F000012038BD14C50720002307B502A941F8FE
:102A0000043D084B186803F05DFC019B3BB14FF09F
:102A10008052054B1A60BFF34F8FBFF36F8F03B027
:102A20005DF804FB14C5072004ED00E038B504464A
:102A30000D46FFF733F948B1A9B22046FFF73AF93E
:102A4000FFF72CF908B9FFF731F9012038BD042947
:102A500038B505460DD1041C18BF012404F0C8F890
:102A60002CB14FF47A72002305F0DCFD286020467B
:102A700038BD0024F2E7FFFF00B50C4B8DB0099381
:102A80000B4B0C4A0B930C4B0A930CAB43F8102DD9
:102A9000002204920FCB8DE80F00084B084A012159
:102AA0006A20FFF7E1FC0DB05DF804FBE1280100AE
:102AB0002D2A01004F2A0100A129010051290100FE
:102AC0002DF3010008B503F075F90F4B02285B697F
:102AD00012D15A020CD5FFF7E9FE002300280B485B
:102AE00014BF01224FF0FF321946006803F01EFCAC
:102AF000BDE80840FFF772BD5B02F9D5FFF7D6FECF
:102B00000028F5D108BD00BF00C0092014C507206A
:102B100013460A4601790068FEF73BB91FB500224B
:102B200004AB23F8042D02220479009200680A46BF
:102B30002146FEF719F99DF80C009DF80D3043EA87
:102B4000002004B010BD10B5044619222A21FFF759
:102B5000DFFF0D2221792068FEF70AF9A0F12A0390
:102B60005842584110BDFFFF044A13881F2BDFBF96
:102B7000581C1080024A42F8231070479CC5072059
:102B80001CC50720F0B5154E3388012B23DD144AF0
:102B900000201546013B984208DA52F8041F013024
:102BA00052F8044C091B42F8041CF4E700214FF0D2
:102BB000010E0C46686800EB50008AB2934208DDB3
:102BC00055F822700131B8423CBF0EFA02F21443AC
:102BD000F3E7044B1C6000233380F0BD9CC5072045
:102BE0001CC50720A0C5072008B50121022003F05D
:102BF00071FE084B01209A6A22F007029A629A6AD3
:102C000042F006029A62044AD36843F03003D3606C
:102C100008BD00BF0080004000C0024008B5044B62
:102C2000417101F07F015A5C0321FFF771FF08BD7C
:102C300032F3010008B5044B817101F07F015A5C49
:102C40000221FFF765FF08BD32F3010038B50446E5
:102C500001790068FEF7A8F8054688B10022062130
:102C60002046FFF755FF002207212046FFF750FFBF
:102C70002E212046FFF7D2FF2E212046FFF7DAFF54
:102C8000284638BD70B56424B1FBF4F303FB14147B
:102C90000A21E4B2B4FBF1F501FB15413031C9B2B0
:102CA0000646FFF7C7FF092C88BF05F13001304603
:102CB000BDE8704094BF2021C9B2FFF7AFBF01202B
:102CC0007047FFFF38B50C46054603F063FC012250
:102CD00004F00F032B700E4B14F0010F14BFDA61D8
:102CE0009A61022214F0020F14BFDA619A61102275
:102CF00014F0040F14BFDA619A614FF4807214F07B
:102D0000080F14BFDA619A61BDE8384003F052BC85
:102D100020C0092038B504460D4603F03BFC0121D4
:102D20002378013DA9401943C9B221702046FFF71D
:102D3000C9FFBDE8384003F03DBC38B50D46044638
:102D400003F028FC01216B1E01FA03F321782046D1
:102D500021EA03012170FFF7B5FFBDE8384003F019
:102D600029BC0AB1FFF7D6BFFFF7E7BF01207047C4
:102D70000220FDF7CFBC01207047FFFF044B5B69C9
:102D8000180B00F00C00C3F341231843704700BF39
:102D900020C0092010B5044681220121FFF7B8FEAA
:102DA000012221792068FDF7E3FF10F0600F14BFC6
:102DB0000120002010BD38B500210446FFF7AEFE0B
:102DC000812205B201212046FFF7A2FE102095FBCB
:102DD000F0F005F063FA4FF0765105F0B3FAA16810
:102DE00005F0A8F938BDFFFF08B5FFF7E4FF054976
:102DF00005F0A8FA044905F059FB4FF0844105F0AD
:102E000099F908BD000010410000A040F0B51D4632
:102E10000023ADF50B7D0E4617460146012201A8A1
:102E2000009301F037FE044670B91DB1294601A890
:102E300002F0ACF86B463A46314601A801F0C1FEFB
:102E4000044601A802F090F820460DF50B7DF0BD78
:102E500008B503F0CDFE4FF47A72002305F0E2FBD3
:102E600008BDFFFF10B5044603F08AFC074BB0FB1A
:102E7000F3F00223B0FBF3F2944202D3044A13614D
:102E800010BDB3F5807FF9D00233F3E740420F0065
:102E900000000340034B9860DA68D206FCD49868BF
:102EA000C0B270470000034070B5FFF7D1FF00F5D6
:102EB000FA74FF20FFF7EEFF0025FF20FFF7EAFF7F
:102EC000FF28064605D0FFF7C3FFA94208BFA0426E
:102ED000F3D3304670BDFFFF38B54FF00075054C99
:102EE000E561FFF7E1FF044AA561137843F00103B0
:102EF000137038BD20C009204DC007202DE9704354
:102F000006460D46FFF7A4FF643080464FF00009E7
:102F1000FF20FFF7BFFFFF2808D1FFF799FF4945C2
:102F200008BF4045F4D30020BDE87083FE28FAD1E5
:102F3000102D0ED900224FF400713046FDF79AFA99
:102F4000FF20FFF7A7FFFF20FFF7A4FF0120BDE848
:102F50007083341D0435FF20FFF79CFF04F8040C38
:102F6000FF20FFF797FF04F8030CFF20FFF792FF05
:102F700004F8020CFF20FFF78DFF043404F8050C61
:102F80002B1BDE42E7D1DBE770B506460D46FFF7A7
:102F90008BFFFF28044619D12846FFF77BFFFD2D44
:102FA00016D022464FF400713046FDF763FA2046F2
:102FB000FFF770FF2046FFF76DFF2046FFF76AFF1F
:102FC00000F01F00431F5842584170BD002070BDE3
:102FD000012070BD020638B504460D4607D5002114
:102FE0007720FFF7F7FF012836D804F07F044FF071
:102FF00000721A4B9A61DA61FFF756FFFF282AD157
:103000002046FFF747FF280EFFF744FFC5F30740B0
:10301000FFF740FFC5F30720FFF73CFFE8B2FFF7DB
:1030200039FF402C15D0482C14BF01208720FFF712
:1030300031FF4C2C02D1FF20FFF72CFF0A21FF208B
:10304000FFF728FF030607D5013911F0FF01F6D17C
:1030500038BD9520EBE7FF2038BD00BF20C0092018
:10306000064A074913784969DBB2490154BF03F0A6
:10307000FD0343F003031370704700BF4DC00720EA
:1030800020C009202DE9F743FFF7EAFF554B1A78D6
:103090001E4612F0020F04D01878C0B203B0BDE88B
:1030A000F0830120FFF7DEFE0A24FF20013CFFF73A
:1030B000F1FE14F0FF04F8D14FF000734A4F21469F
:1030C000FB614020FFF786FF0128804613D04FF0B8
:1030D0000008464B83F800804FF00073BB61B8F1E5
:1030E000000F7BD03378182003F0FE033370FFF716
:1030F000B9FE3078D1E7FFF7ABFE4FF4D57100F59C
:103100007A754820FFF766FF012840D10DF10408C9
:10311000FF20FFF7BFFE08F804000134042CF7D1AC
:103120009DF80630012BD2D19DF80730AA2BCED1C5
:103130002C460025FFF78CFEA94208BFA0421ED3F3
:10314000FFF786FEA94208BFA042C0D200217A2024
:10315000FFF740FF0028BAD10146FF20FFF79AFE93
:1031600008F8010001310429F7D19DF8043013F06B
:10317000400F14BF4FF00C084FF00408A9E74FF0C0
:103180008041E920FFF726FF0028D3D1D8E7214668
:10319000E920FFF71FFF02282C4636BF4FF0E90950
:1031A0004FF041094FF002080025FFF751FEA942F8
:1031B00008BFA0420BD3FFF74BFEA94208BFA042B5
:1031C00087D34FF400715020FFF704FF81E70021FF
:1031D0004846FFF7FFFE0028E7D1ECE7FFF77CFE4B
:1031E00087E700BF4DC0072020C00920A4C50720E5
:1031F00008B5FFF735FF014B187808BD4DC0072013
:1032000070B5144606460846FFF72AFF002C38D052
:103210001E4B1B78DA0736D44FF000721C4DEA6162
:103220001C4A1278130758BF4002012C014612D1E4
:103230005120FFF7CFFE38B94FF400713046FFF749
:103240005DFEB0FA80F464094FF00073201CAB619E
:1032500018BF012070BD5220FFF7BCFE0028F3D13B
:103260004FF400713046FFF749FE28B1013C14F0DD
:10327000FF0406F50076F3D100214C20FFF7AAFEEB
:10328000E2E7042070BD032070BD00BF4DC00720E1
:1032900020C00920A4C50720F8B5144606460F46ED
:1032A000FFF7DEFE002C44D0254B1A78D10742D41C
:1032B0001B785A0741D44FF00072224DEA61224A2E
:1032C0001278130758BF7F02012C12D139465820BB
:1032D000FFF780FE58BBFE213046FFF755FEB0FADF
:1032E00080F464094FF00073201CAB6118BF01200B
:1032F000F8BD12F0060F03D02146D720FFF76AFE73
:1033000039465920FFF766FE0028EBD1FC213046F4
:10331000FFF73AFE28B1013C14F0FF0406F50076F1
:10332000F4D1FD210020FFF72FFE0028DAD101247F
:10333000D8E70420F8BD0320F8BD0220F8BD00BF87
:103340004DC0072020C00920A4C507207FB50D4629
:10335000FFF786FE05281AD12B78012B15D005D34F
:10336000022B0BD00424204604B070BD7B4B5C695B
:1033700014F0806409D1FFF7AFFDF4E7774B5B6988
:1033800083F08063C3F380636B700024EBE7744BBE
:103390001B78DB0700F1E0800E2800F2DB80DFE81D
:1033A00000F00817555AD9D9D9D9D9D9A7ABBABD80
:1033B000CD004FF00072694BDA61FFF775FDB0F197
:1033C000FF0418BF01244FF00072644B9A61CAE7F2
:1033D00000214920FFF7FEFD044608B10124F2E771
:1033E00010216846FFF78AFD0028F7D09DF80030CD
:1033F0009DF808109B09012B9DF8093006D15A1C35
:1034000002EB012292B292022A60DCE79DF80720CB
:103410009DF80A00920002EB91129DF8061001320D
:10342000890201F440610A449DF805105B0001F037
:103430000F0101EBD011023103F006030B44DBB2A4
:1034400092B2093B02FA03F32B60BCE74FF400731E
:103450002B800024B7E7434E317811F004011CD0D3
:103460000021CD20FFF7B6FD0028B7D1FF20FFF7E0
:1034700011FD10216846FFF741FD0028AED0302431
:10348000FF20FFF707FD601E10F0FF04F8D19DF844
:103490000A301A0910239340D6E74920FFF79AFD16
:1034A000044600289AD110216846FFF727FD00281E
:1034B00094D030789DF80A3010F002009DF80B107F
:1034C0000AD05B009DF80D2003F07E0303EBD113BF
:1034D00092090133013ADEE7CA0002F01802C3F391
:1034E000840302EB5112013302FB03332B60B0E77C
:1034F0001C4B1B782B70ACE700214920FFF76AFDBD
:1035000000287FF46BAF10212846FFF7F7FCB0FAD4
:1035100080F4640957E700214A20EFE700217A2070
:10352000FFF758FD00287FF459AF291DFF20FFF752
:10353000B1FC05F8010B8D42F8D18AE70021CD20BE
:10354000FFF748FD00287FF449AFFF20FFF7A2FCFA
:103550004021D9E7042436E7032404E720C00920EA
:103560004DC00720A4C50720054B1B78253BDBB2C7
:10357000032B9ABF034A52F823000020704700BF74
:10358000ACC50720BCF301001B4B2DE9F0411D88A1
:103590000646B5F5007F0F46144603D12A4621465C
:1035A00038460BE0B5F5807F0CD12A4621463846D7
:1035B000B0472A4604F5807107F580703346BDE8B0
:1035C000F0411847B5F5047F04D1510A89024FF440
:1035D0000072E5E7B5F5847F0BD1140A61024FF460
:1035E00080723846B0474FF4807201346102B818D7
:1035F000E4E7BDE8F08100BFAEC5072010B5294B58
:1036000000294DDD0729027829DD9A6042780839C2
:103610009A6082789A60C2789A6002799A60427958
:103620009A6082799A60C47900F108029C609C6972
:103630006407FCD59C6804709C6844709C68847026
:103640009C68C470DC68E406FCD49C6804719C68C7
:1036500044719C6884719C68C4711046D0E703294A
:1036600014DD9A60427804399A6082789A60C4784E
:10367000021D9C60DC68E406FCD49C6804709C68B5
:1036800044709C6884709C68C470E6E7441C9A602F
:103690000139DA68D206FCD49A6802702046AFE796
:1036A00010BD00BF0000034007B50B0C8DF80530BE
:1036B0008DF807100B0A04218DF804000DEB0100B2
:1036C0008DF80630FFF79AFF03B05DF804FBFFFFAB
:1036D000F7B5032340250E4C1746E5618DF80430FD
:1036E0000B0C8DF805308DF807100B0A04210646E7
:1036F0000DEB01008DF80630FFF780FF0022394600
:103700003046FCF7B7FEA561A561A56103B0F0BD29
:1037100000C0092040220D4BDA61D7220C4B9A6081
:10372000DA68D206FCD40A4A9B68FF2113469160EE
:10373000D868C006FCD4986810F0800FF7D04022FB
:10374000024BC0B29A619A619A61704700C0092029
:1037500000000340F7B5FFF7DDFF002340271E4CB4
:103760001E4E23801E4BF7611A889B780546032165
:1037700001A8ADF804208DF80630FFF73FFF9DF853
:1037800005209DF806301F2AB761B761B76115D1D2
:10379000A3F12502032A11D8124A252B137005F034
:1037A000010011D1002814BF4FF480734FF48473CB
:1037B0002380FFF7D9FE0C4B400A18602088B0FA2E
:1037C00080F0400903B0F0BD002814BF4FF400732F
:1037D0004FF40473ECE700BFAEC5072000C009201A
:1037E000B2F30100ACC50720A8C507202DE9F041C0
:1037F0008B1817460F4A013B12680446934212D8B1
:103800004D020026FFF786FFDFF82C802D1BBE42FD
:1038100004EB05020ADA21464046FFF7B5FE04F53F
:1038200000740136F3E70120BDE8F0810020BDE817
:10383000F08100BFA8C50720D13601008B182DE903
:10384000F04117460E4A013B1268934211D80446D4
:103850000026DFF83080C0EB4125BE4204EB0502B4
:103860000ADA21464046FFF78FFE04F50074013660
:10387000F3E70120BDE8F0810020BDE8F08100BF42
:10388000A8C507206939010008B5072805D8DFE871
:1038900000F0060A0F1308080808042008BDFFF707
:1038A00039FF002008BDFFF75FFE400A0860F8E717
:1038B0004FF400730B80F4E701230B60F1E7FFFF87
:1038C00070B590B003466A466E4600F14005144656
:1038D00018685968083303C4AB422246F7D1402424
:1038E000074D0021EC619B20FFF7DEFE21463046AC
:1038F000FFF784FEAC61AC61AC6110B070BD00BF7D
:1039000000C0092070B540240646074D00217720ED
:10391000EC61FFF7C9FE21463046FFF76FFEAC6150
:10392000AC61AC6170BD00BF00C0092008B5064B9A
:10393000198831F01F0104D0FFF716FEB0FBF1F03B
:1039400008BD084608BD00BFAEC50720014B18885A
:10395000704700BFAEC50720024B1878003018BF73
:1039600001207047AEC507204FF0FF332DE9F74324
:103970000F46914601938046FFF7CCFEFFF7ECFF20
:103980000646B8B14025194C194BE5611B88032048
:10399000B3F5847F0CBF4FF480714FF4007139434D
:1039A000FFF782FE04210DEB0100FFF727FEA56162
:1039B000A561A56140230D4C39468220E361FFF7E4
:1039C00073FE012249464046FCF754FD3EB1019B7F
:1039D00002A8013340F8043D0421FFF70FFE402305
:1039E000A361A361A36103B0BDE8F08300C0092017
:1039F000AEC5072037B540250421074B074C186892
:103A00000190E5610DEB0100FFF7F8FDA561A561EF
:103A1000A56103B030BD00BFB5F3010000C00920AF
:103A200010B50446FCF7E0FC1CB1012C08D00424BE
:103A300002E0FFF78FFE0446FCF7EEFC204610BDC7
:103A4000FFF720FBF7E728B1012801D004207047D9
:103A5000FFF7CEBB7047F8B507460C4615461E4625
:103A6000FCF7C2FC1FB1012F0BD0042405E0324645
:103A700029462046FFF7BAFE0446FCF7CDFC204657
:103A8000F8BD324629462046FFF7BAFBF4E7F8B501
:103A900007460C4615461E46FCF7A6FC1FB1012F33
:103AA0000BD0042405E0324629462046FFF7C6FE27
:103AB0000446FCF7B1FC2046F8BD324629462046B4
:103AC000FFF7EAFBF4E770B506460C461546FCF72F
:103AD0008BFC1EB1012E0AD0042404E029462046A6
:103AE000FFF7D2FE0446FCF797FC204670BD29463E
:103AF0002046FFF72BFCF5E77F2810B516D931B12A
:103B0000FF2812D80A4B803833F8100010BD084A3D
:103B100032F811408BB2844203D001318029F7D1B1
:103B20000B4603F18000C0B210BD002010BD00BFE5
:103B3000CCF301000023064931F8132022B1824260
:103B400003D1044A32F8130070470133F4E700BF91
:103B5000CCF40100ACF6010010B501200C4602F0D7
:103B60005FFB2060003018BF012010BD01207047AE
:103B700010B5044602F01EF902280AD100234FF0C6
:103B8000FF321946204602F0D1FB431E58425841ED
:103B900010BD012010BD10B5044602F00BF902283B
:103BA00007D100232046BDE810401A46194602F00E
:103BB000B5BA10BD1FB501A8FCF756FB9DF809303A
:103BC00003F00F009DF8083003F01F031B0443EAC5
:103BD00040539DF8060000F01F0043EAC0239DF803
:103BE000050000F03F0043EA40139DF80400C0F3D5
:103BF00044000343BDF80A00400600F108401843A2
:103C000005B05DF804FB30B504460D1F131B0344DB
:103C1000032B0AD822F00303194402F00302013BEC
:103C200018440A44914205D130BD55F8043F44F888
:103C3000043BEBE711F8013B00F8013FF2E70244D7
:103C4000904200D1704700F8011BF9E7024600F1ED
:103C50000B010020C30143EA500312F8010B034497
:103C60008A4203F0FF00F5D17047036810B504469F
:103C700053B119460A4611F8010B1F2810D93A28EA
:103C8000F8D1591C8A4202D04FF0FF3010BD1B788A
:103C9000303BD9B20129F7D801321846226010BD55
:103CA000002010BDF8B5056B00F134070446012370
:103CB0002A4639464078FFF7EAFEA0B9636AE2690E
:103CC000EB1A9342207101D30020F8BDE678012E53
:103CD000FAD9E36939461D442A4601236078FFF783
:103CE000D6FE013EF3E70120F8BD03790BB1FFF7E3
:103CF000D9BF18467047FFFF70B50446FFF7F5FFC0
:103D0000054680BB2378032B25D16379012B22D173
:103D100004F1340601464FF400723046FFF78FFF7E
:103D20004AF65522A4F832220F4A3146626302F164
:103D3000FF5202F500522032C4F8182262696078FE
:103D4000C4F81C222269C4F82022226A01322263AC
:103D5000FFF79DFE6571002260781146FFF7B3FE04
:103D6000003018BF012070BD52526141036B70B525
:103D70008B4205460E4611D0FFF7B7FF044610B13F
:103D80000124204670BD0123324605F134016878D4
:103D9000FFF761FE0028F3D12E63F2E70024F0E77D
:103DA000002310B503714FF0FF3303630446FFF7A0
:103DB000DDFFA0B94AF65523B4F832229A4210D159
:103DC000D4F86A30084A23F07F4393420AD0D4F8EB
:103DD000860020F07F40801A18BF012010BD03200C
:103DE00010BD022010BD00BF464154000023F0B5B5
:103DF000036085B0074608461546FFF736FF061EE6
:103E0000C0F2F1807D4B53F82640002C00F0ED808D
:103E1000E068FFF7ADFE002800F0E9803C60237801
:103E20006BB16078FFF70FFEC10708D4002D00F0DA
:103E3000B78010F0040000D00A2005B0F0BD0023C8
:103E4000F0B223706070FFF7EBFDC20700F1D18084
:103E50000DB14307F0D400212046FFF7A1FF012850
:103E600040F0AC802146002291F8F6310BB1D1F838
:103E7000FA314DF822300132042A01F11001F3D158
:103E800000265DF82650002D00F08C802946204643
:103E9000FFF786FF002840F08680B4F83F30B3F586
:103EA000007F40F08980B4F84A1001B9A16D94F800
:103EB0004420E161531E012BE2707DD894F84160EB
:103EC000A670002E78D0731E334275D1B4F845E049
:103ED0001EF00F0FA4F808E06ED1B4F8473003B914
:103EE000636DB4F84270002F66D04A4307EB1E1092
:103EF0001044834260D31B1AB3FBF6F3002B5BD054
:103F000040F6F576B3425BD94FF6F576B34294BFEF
:103F10000226032602332F442844032EA361256280
:103F20006762E0624ED1BEF1000F45D1226E9B0068
:103F3000A26203F2FF13B1EB532F3DD34FF0FF33D7
:103F4000636123618023032E637122D1B4F864304E
:103F5000012B1ED1691C2046FFF708FFC8B94AF69D
:103F60005523B4F8322260719A4212D1626B244B0D
:103F70009A420ED103F1FF53D4F8182203F50053EF
:103F800020339A4201BFD4F81C326361D4F8203246
:103F900023611C4A2670138801339BB21380E3808F
:103FA00000204AE702200136042E7FF46AAF03287E
:103FB00021D000283FF471AF0D203EE70025F6E741
:103FC0000126A7E7BEF1000FF6D0022E17444FEAF4
:103FD00043021CBFD21803F00103A7620CBF1346B3
:103FE00003EB5203A5E70B2027E70C2025E70F2062
:103FF00023E7032021E701201FE700BFB0C507200A
:1040000052526141B8C5072010B50446A8B10368F3
:104010009BB11A788AB1D988828891420DD1D8682B
:10402000FFF7A6FD58B123685878FFF70CFD10F094
:10403000010F14BF0320002010BD092010BD0F2068
:1040400010BD50B10F2905D84FF41A4323FA01F1DE
:10405000CB0702D4C068FFF79EBD70478369023961
:10406000023B99423DBF8378C06A01FB03000020F8
:1040700070470129F8B507460C464BD98369994228
:1040800048D20378022B29D0032B34D0012B41D105
:1040900001EB5106416A01EB5621FFF767FE10B1B3
:1040A0004FF0FF30F8BD796AC6F3080301363B4490
:1040B00001EB5621384693F83450FFF757FE00289D
:1040C000EED1C6F308063E4496F83400E30745EA0D
:1040D00000204CBF0009C0F30B00F8BD416A01EBA2
:1040E0001421FFF743FE0028DAD1660006F4FF76BC
:1040F0003E44B08EF8BD416A01EBD411FFF736FEA5
:104100000028CDD1A40004F4FE743C44606B20F080
:104110007040F8BD0120F8BD70B5044682680D46B8
:10412000012AE18001D1022070BD036899698A42A9
:10413000F9D2BAB91978032901D1996A99B91989BB
:104140008D42F0D2986AE2600028ECD0236800EB40
:104150001510343305F00F0503EB4515206165613B
:10416000002070BD11460A469E783601B5421146C0
:10417000206802D2FFF772FFE5E7FFF77AFF431CE2
:10418000024607D00128CED923689B699842CAD23B
:10419000AD1BEBE7012070BD0129F8B505460C46C3
:1041A000164660D9836999425DD20378022B3AD0D2
:1041B000032B45D0012B54D101EB5107416A01EB90
:1041C0005721FFF7D3FD18BBC7F3080314F0010410
:1041D0002B4417BF93F83420F2B202F00F013201E2
:1041E0001CBF02F0F0020A4383F834200123696AFD
:1041F00001372B7101EB57212846FFF7B7FD38B97E
:10420000C7F308072F4434B1C6F3071687F83460A4
:1042100001232B71F8BD97F83430C6F3032623F041
:104220000F031E43F2E7416A01EB1421FFF79EFDE5
:104230000028EDD1640004F4FF742C44A686E7E75F
:10424000416A01EBD411FFF791FD0028E0D1A400F1
:1042500004F4FE7434342B5903F070431E432E5182
:10426000D6E70220D4E70220F8BDF8B505460F4690
:1042700071B90669E6B183699E4228BF01263446BA
:10428000AB6901349C4216D3012E13D8002408E0F8
:10429000FFF7EFFE0128044635D9013003D14FF076
:1042A000FF342046F8BDAB699C42FAD33E46E6E7B0
:1042B0000126E4E7022421462846FFF7DAFE30B162
:1042C000411CECD001281ED0B442D9D1DEE76FF0FA
:1042D000704221462846FFF75FFF90B957B96B69D6
:1042E0002C615A1CDDD0013B6B616B7943F00103FB
:1042F0006B71D6E7224639462846FFF74DFF002866
:10430000EDD00128CBD00124CBE72DE9F843C688B6
:1043100004460136B3B2894613B90420BDE8F883D8
:104320000369002BF9D016F00F0807D1C1680133DB
:104330000361006859B903899E42EED22368E68082
:10434000343303EB481363610020BDE8F8838778BA
:10435000013F17EA1617F1D1FFF78BFE012805463A
:1043600002D80220BDE8F883421C02D10120BDE83A
:10437000F883206883699D4227D3B9F1000FCCD020
:10438000E168FFF772FF0546002831D00128E8D028
:10439000431CEBD02068FFF7A8FC01460028E5D1BC
:1043A00020684FF400723430FFF749FC2268294638
:1043B0001046FFF753FE4FF0010910632068837821
:1043C0009F4209D3036BDF1B0763E5602946206822
:1043D000FFF744FE2061B1E780F80490FFF762FC2C
:1043E0000028C3D122680137136B01331363E5E75B
:1043F0000720BDE8F883FFFF2DE9F74F4FF0FF08D6
:104400004FF6FF7706464446078431693068FFF768
:10441000ADFC824600285ED175692B78002B76D0E2
:10442000E52B06D0E97A01F03F02090703D50F2AF0
:1044300003D0378447E00F2A54D1D6F81CB0BBF123
:10444000000F41D058063CD503F0BF04F38895F81F
:104450000D8033846B7B434535D195F800A0012056
:104460002AF0400A0AF1FF334FF00D0A4FF000091D
:104470000AFB03FA274B19F80320AA5A78B310460F
:10448000FFF758FBBAF17F0F01901CD80AF1010227
:104490003BF81A000092FFF74DFB0199814212D1BF
:1044A000009A924609F10109B9F10D0FE2D12B787A
:1044B000590603D510B13BF81A3023B9013CE4B2D8
:1044C00002E0A342C6D0FF2400213046FFF71DFFC3
:1044D0008246002899D0504603B0BDE8F08FBA421A
:1044E000E0D0F0E724B92846FFF7B0FB4045F2D012
:1044F000B369DA7AD2079CD403F10B009842EAD070
:1045000015F8011B13F8012B9142F7D091E74FF0FA
:10451000040AE0E70CF901002DE9F74F0B78074694
:104520002F2B884601D05C2B01D108F10108002413
:10453000BC6098F800301F2B00F29080214638466E
:10454000FFF7EAFD7C6103B0BDE8F08F25F8020FAC
:10455000464693E02028A04434BF042400240BEBFB
:104560004602002E00F0A98032F8021D202902D058
:104570002E2940F0A680013EF3E701313BF81120DF
:10458000202AFAD02E2AF8D009B144F003044A4672
:1045900032F8020D2E2801D0013EF9D14FF0000A69
:1045A0004FF0080955463BF811004A1C002800F05E
:1045B0009F80202804D02E2806D1B24200F08D80A2
:1045C00044F003041146EEE7CA4580F08980B24208
:1045D00011D1B9F10B0F06D186E0B24203D044F0FD
:1045E000030400F28580AD00EDB232464FF00B09B6
:1045F0004FF0080AE6E77F280DD900210192FFF766
:104600007BFA019A18B15D4B184410F8800C80B207
:1046100044F0020438B15A4B13F8011F002900F08E
:104620009F808142F8D15F2044F00304B96901F80A
:104630000A000AF1010AC5E745F00205F6E75A0744
:1046400081D47A69D37ADB0639D53968538B0978F6
:10465000032904BF928A43EA0243BB6098F8003002
:1046600044462F2B08F10108F8D05C2BF6D0002629
:10467000D7F81CB004F1FF39ABF1020519F8010FAE
:1046800006F101081F287FF665AF2F283FF462AFBF
:104690005C283FF45FAFB8F1810F0ED00121FFF726
:1046A0002BFA50B17F283FF651AF364911F8012F50
:1046B000002A3FF44BAF8242F8D1062043E70520A1
:1046C00041E7002520212BF816500B22B869FFF78F
:1046D000B6FA0BEB4609294650E7CA45FFF479AF15
:1046E000B9F10B0F7FF479AF4FF00B0944F00304DD
:1046F000BB691A78E52A04BF05221A70B9F1080FC0
:1047000004BFAD00EDB205F00C030C2B03D005F097
:104710000302032A01D144F00204A10709D405F0E1
:104720000305012D08BF44F01004042B08BF44F01A
:104730000804BB690021DC723846FFF7EDFC10B9B4
:104740003846FFF759FEBB69DB7A00283FF477AFA4
:1047500004287FF4F8AE13F0040F08BF0520F2E63A
:10476000A0F1410119297FF667AFA0F16101192974
:104770009EBF203845F0010580B257E78CF8010054
:104780006CF9010063F901000C222DE9F043866900
:1047900087B0C769044631460DEB0200FFF733FAD4
:1047A0009DF81730DB0779D500234FF00109DFF8BA
:1047B0000882F372E3610B2203A93046FFF723FA64
:1047C000B9F1050F4FD84B46072203F00F0000F157
:1047D0003001392988BF00F13701013A01A810449E
:1047E0001B094170F1D17E2006A9114401F8140C77
:1047F0009A423DD0F15C202938D13344072A8FBF3B
:10480000202106A9891811F8141C98BF013203F859
:10481000011B991B0729F1D900212046FFF77CFCD9
:104820000546A8BB2046FFF7E7FD054680BB09F11A
:104830000109B9F1640FBED10725284607B0BDE8CC
:10484000F083102102F0010505EB4303DD0348BFAF
:1048500083EA080301394FEA5202F3D130F8022FFC
:10486000002AEED1B0E7B81E4B46F7E70133BFE7A9
:104870001346C2E7013616E001261CE00746012177
:104880002046FFF742FD0546E8B1042DD4D0D4E719
:10489000042DD2D19DF81730F372E7619DF81730DF
:1048A0009B07E9D5002637F81630002BE2D10D23FF
:1048B0001936B6FBF3F600212046FFF72DFC05461E
:1048C0000028E2D1074621692068FFF74FFA054624
:1048D0000028DAD163691B78E52B01D0002BCDD1FC
:1048E0000137BE42CBD1013E49D0E1882046891B29
:1048F000FFF712FC054600289FD1A069FFF7A6F933
:104900004FF6FF790746DFF8B48021692068FFF78A
:104910002DFA0546002890D10F226369D4F81CE0D7
:10492000DA720D22F1B24D1E6A4305465F731873A9
:104930005883484518BF3EF8120015F808C005F125
:10494000010518BF013223F80C00002808BF4846B3
:104950000D2DEED1484502D03EF812200AB941F0A3
:10496000400101221970236800211A712046FFF7C7
:10497000CCFC054600287FF460AF013EC5D121691B
:104980002068FFF7F3F9054600287FF456AF202290
:1049900029466069FFF753F90B22A1696069FFF7A7
:1049A00032F9A3696269DB7A03F0180313730122F9
:1049B00023681A7141E700BF211001000CF90100C2
:1049C000012970B504460D4601D8022070BD8369E7
:1049D0009942FAD2A3699D4205D229462046FFF7A3
:1049E00048FB064608B9002070BD0128EDD0411CE7
:1049F00010D0002229462046FFF7CEFB58B9636944
:104A00005A1C05D001336361637943F0010363717C
:104A10003546DFE7012070BDF0B585B0019004A8F0
:104A200040F8041D00911646FFF71FF9051E2ADB0A
:104A3000174F57F825404CB1E068FFF797F818B9C1
:104A40000224204605B0F0BD00232370019989B9E6
:104A5000019C47F82540002CF3D0012E15D1694662
:104A6000002201A8FFF7C2F9044601460198FFF7AA
:104A7000E8FAE6E70023E8B201F80C3BFFF76CF830
:104A80000028DDD0E4E70B24DBE70024D9E700BFF2
:104A9000B0C507202DE9F043D1B0019190460646FC
:104AA000002800F08C80002302F01E02036001A9A0
:104AB00006A8FFF79BF90546002874D103AB0C93B9
:104AC00001990FAB06A80D93FFF726FD0B9C10B9BB
:104AD000002C08BF062018F01C0F08F01F073DD05F
:104AE00098B3042802D106A8FFF74EFE47F0080746
:104AF00048BB0B9C38073BD5FFF75CF80023C4F894
:104B00000E000698E372E3610278B4F81A80032A73
:104B100008BFA28A6383A3824FF0010308BF48EA5B
:104B200002480371B8F1000F22D04146D0F830900E
:104B3000FFF746FF38B9069808F1FF33036149468D
:104B4000FFF714F9A0B105462DE0E37A13F0110F39
:104B500033D118F0040FCDD0082524E00028F2D17D
:104B6000E37AD90627D418F0020F01D0DA0724D44B
:104B70003B07069B48BF47F020071A6BB771F261ED
:104B800000223462F2711978628B032904BFA18A72
:104B900042EA01423261E2693360F2600022DB885E
:104BA000B260B261B38029460698FFF74AFA2846F8
:104BB00051B0BDE8F0830425F5E70725F3E70925A3
:104BC000F5E72DE9F74F9B460023CBF8003004466C
:104BD00089461646FFF718FA054610B1294620689F
:104BE0004AE0E17939B12068FFF72BFAE5792846E8
:104BF00003B0BDE8F08FA379D80705D4072120685A
:104C0000FFF71FFA0725F2E7E368A768DF1BB74243
:104C100028BF374604F1240300930FB93946DEE775
:104C2000A268C2F30803002B74D120688378013B8B
:104C300003EA522313F0FF0311D12AB92069012896
:104C400008D80225E571C9E761690193FFF711FAF8
:104C5000019BF4E7411C01D10125F3E76061D4F821
:104C600000A0616950460193FFF7F8F9019B30B944
:104C7000022550462946E571FFF7E3F9B7E77E0ABA
:104C800000EB030829D09AF802209919914288BFB5
:104C9000D61AF3B2424649469AF80100FEF7DBFE07
:104CA0000028D9D1A3795A060BD5A069A0EB08003A
:104CB000864206D94FF40072009909EB4020FEF7B6
:104CC000A2FF7602A368B1443344A360DBF800304E
:104CD000BF1B3344CBF800309FE7A269904517D043
:104CE000A3795B060BD5012300999AF80100FEF722
:104CF000CEFE0028B0D1A37923F04003A371206831
:104D00000123424600994078FEF7A5FE0028A3D172
:104D1000C4F81880A1684846C1F30801C1F50076BF
:104D2000BE4228BF3E46243132462144FEF76BFF87
:104D3000C8E72DE9F74F9B460023CBF80030044627
:104D400089469046FFF760F9054610B1294620686C
:104D500068E0E17939B12068FFF773F9E579284611
:104D600003B0BDE8F08FA379990705D40721206827
:104D7000FFF767F90725F2E7A36813EB080F05D2E1
:104D800004F124030193B8F1000F0AD1A368E2688B
:104D9000934200F2A280A379002143F02003A37183
:104DA000D5E7A268C2F30803002B40F08380206897
:104DB0008378013B03EA522313F0FF03009316D1DB
:104DC0005AB9216921B9FFF750FA01460028DDD010
:104DD000012904D10225E571B8E76169F3E74A1CAE
:104DE00001D10125F7E72369616103B92161A37945
:104DF0005B060CD520680123A26901994078FEF773
:104E000046FE0028EDD1A37923F04003A371D4F826
:104E100000A061695046FFF721F930B902255046DC
:104E20002946E571FFF70DF999E7009B5FEA5826DF
:104E300000EB03072DD0009A9AF8023032449A42D0
:104E400088BF009A494688BF9E1AF3B23A469AF83C
:104E50000100FEF71CFE0028C3D1A169C91B8E42C8
:104E60000AD94FF4007209EB41210198FEF7CBFEFD
:104E7000A37923F04003A3717602A368B1443344BD
:104E8000A360DBF80030A8EB06083344CBF8003011
:104E900079E7A3699F420CD0A268E3689A4208D2DE
:104EA00001233A4601999AF80100FEF7D4FD002843
:104EB00097D1A761A0684946C0F30800C0F5007605
:104EC000464528BF4646243032462044FEF79BFE26
:104ED000A37943F04003A371CFE7E3605BE770B5CC
:104EE0000446FFF791F80546002838D1A3799A06C1
:104EF00035D55B0613D520680123A26904F124018E
:104F00004078FEF7C4FD30B101212068FFF799F821
:104F10000125284670BDA37923F04003A371E16900
:104F20002068FEF723FF0546C8B9266AF37A43F0E6
:104F30002003F372E368F361236973831B0CB3826C
:104F4000FEF738FE7582C6F81600A379206823F0B4
:104F50002003A37101230371FEF7CEFE0546294607
:104F60002068FFF76EF8D4E738B50546FFF7B7FFBE
:104F7000044648B92846FFF747F8044620B9286890
:104F800021462C60FFF75DF8204638BDF8B5044691
:104F90000E46FFF739F8054610B1294620686AE049
:104FA000E17929B12068FFF74CF8E5792846F8BD8A
:104FB000E368B34204D2A27912F0020F08BF1E4682
:104FC0000022A368A260002E30D1A368E26800210D
:104FD000934281BFE360A37943F02003A371DDE72F
:104FE0000026A368C3F30803002BEED0A269964203
:104FF000EBD0A37904F1240713F0400F0BD0206805
:10500000012339464078FEF742FD002842D1A379BA
:1050100023F04003A37120680123324639464078CB
:10502000FEF719FD002835D1A661CEE72068877804
:105030007F021BB3013B721EB2FBF7F2B3FBF7F129
:105040008A421BD37A4213406169A360F61A002991
:10505000C6D0BE4223D8A3683344A360C6F3080376
:10506000002BBDD022681046FEF7F8FF90BB02254A
:1050700010462946E571FEF7E4FF97E7216961B91B
:10508000FFF7F3F80128014602D10225E57184E714
:10509000013001D10125F9E721616161D7E7A379E9
:1050A00020689A0705D5FFF7E0F8014620B93E468B
:1050B000D1E7FEF7DEFF01464B1CEBD00129E4D916
:1050C00023689B699942E0D2A36861613B44A36075
:1050D000F61BBEE700EB562683E72DE9F34714469F
:1050E00002AB43F8040D8846204600221946FEF71D
:1050F0007DFE2468054630B9A7696369BA1E9342EC
:1051000009D8C8F8003020462946FEF79AFF2846FD
:1051100002B0BDE8F08794F80090B9F1010F17D103
:105120000227064639462046FEF7A3FF431C32D02D
:10513000012832D000B90136A36901379F42F1D36B
:105140006379666143F001036371C8F80060DAE7D0
:10515000034602460646616A52B9204601F1010A39
:10516000FEF704FED8B951464FF4007204F134033F
:10517000B9F1020F07D1188800B901360233023A9B
:10518000013FE9D1DCE71868043A30F0704008BF0D
:1051900001360433F4E70125D2E70225D0E70546BE
:1051A000CEE7FFFF2DE9F04F89B008AB43F80C0DB7
:1051B00018460E461546FEF758FD0028C0F2F78146
:1051C000012E00F2F6816B1E2B40029340F0F1811C
:1051D000504B53F82040002C00F0ED819DF8083032
:1051E000C7B223703846FEF71BFCC20700F1E58109
:1051F000430700F1E48107AA01213846FEF763FC6A
:1052000018B1012009B0BDE8F08F07997F29F8D9BE
:10521000002E14BF4FF0000A4FF03F0AA1EB0A0125
:1052200007915DB94FF4FA63B1FBF3F33A4830F8F4
:105230001520934218D3394B33F815506D0A15D009
:10524000802D28BF8025B1FBF5F340F6F57293421F
:1052500040F2F8814FF6F572934200F2B2810233C8
:105260005B004FF00208F4E10135E0E70125EAE7D1
:1052700006AA03213846FEF726FC20B9069B013B0F
:10528000B3F5004F01D301230693069AB8F1030F3B
:1052900002F1FF334B44C2F1000203EA0203A3EB25
:1052A0000903069322D1019A9B441A440192079A5A
:1052B0000099A2EB0B035B1A0399B8F1020FA3EB61
:1052C0000103B3FBF5F3049314D140F6F57304998D
:1052D000994240F2D581B2F5803F34BF4FF00409C6
:1052E0004FF006094EB34FF0F0095DE0009A1A4402
:1052F0000092DCE7B8F1030F12D14FF6F573049A70
:105300009A4240F2BD81002E40F067814FF00C09B7
:1053100013E000BFB0C5072074F901001AF90100BD
:10532000B8F1010FD7D1B2F5803F34BF4FF001097A
:105330004FF00609002E40F06B8104F134064FF463
:10534000007200213046FEF77AFCFE2143F6C16070
:10535000DDF81CE084F8F7110AEB0E01B1FBF0F167
:105360008808069184F8F9113F2101230022C4F82E
:10537000FA114AF6552140F03F0084F8F801A4F8EC
:10538000321284F8F33184F8F43184F8F52184F88A
:10539000F691C4F8FEE131463846FEF778FB002866
:1053A0007FF42FAF4FF0F80904F134064FF4007288
:1053B00000213046FEF743FC0B22B2493046FEF78F
:1053C00022FC4FF40073A4F83F300123B8F1030F1F
:1053D00084F84430029B18BF4FF4007384F84150A6
:1053E000A4F842B00293BDF8083084F84990A4F8BC
:1053F0004530079BC4F850A0B3F5803F34BFA4F8F4
:10540000473063653F23A4F84C30FF23A4F84E30A7
:10541000FEF7D0FBB8F1030F069040F09C80009B94
:105420001322A365022323660123A4F86430062314
:10543000A4F86630802384F8743029239249C4F894
:10544000770084F8763004F17B00FEF7DCFB4AF647
:1054500055235246A4F83232314601233846FEF72E
:1054600016FB00287FF4CDAEB8F1030F06D101235F
:105470000AF1060231463846FEF709FB4FF4007286
:1054800000213046FEF7DBFBB8F1030F74D0B8F112
:10549000010F7E4B18BF6FF0FF0343EA0903069329
:1054A0006363019B314603F10109019A01233846E8
:1054B000FEF7EDFA014600287FF4A3AE4FF4007228
:1054C0003046FEF7BCFB01230693069B009A9A42E6
:1054D0005DD8039B4A46B8F1030F18BF1D464D44E3
:1054E00001233146384602F1010BFEF7D0FA0028BD
:1054F0007FF487AEAB455A46F2D1B8F1030F21D104
:10550000634B3146636303F1FF5303F500532033CC
:10551000C4F81832049B3846013BC4F81C320223FD
:10552000C4F820324AF65523A4F8323201230AEB9C
:105530000302FEF7ACFA01230AF1070231463846AE
:10554000FEF7A5FA002238461146FEF7BCFA0030F5
:1055500018BF012056E6BDF80030C4F85B00A4F87F
:105560004A30802384F858302923132284F85A3093
:10557000484904F15F0068E769F0FF03069363633D
:105580004FF0FF33A3636FF07043E36389E70123B8
:105590004A463146384609F1010BFEF778FA0028F1
:1055A0007FF42FAE069BD946013306938DE70B207F
:1055B00028E6132026E60C2024E6032022E60A2013
:1055C00020E69B0003F207235B0A009300234FF0C1
:1055D000030803934FF0200B43E004F134064FF42B
:1055E000007200213046FEF72AFB0B222549304687
:1055F000FEF709FB4FF40073A4F83F30012384F851
:105600004150A4F842B084F844304FF0F009EAE683
:1056100004F134064FF4007200213046FEF70FFB10
:105620000B2218493046FEF7EEFA4FF4007384F867
:105630004150A4F83F30A4F842B084F844804FF0C1
:10564000F009CFE64FF0010803EB430301335B0899
:10565000033303F2FF135B0A009320234FF0010B87
:1056600003930BEB0A030193039A009B03EB0209DC
:10567000019B9944A5EB0A034B449942BFF4F8AD52
:105680000E20BFE530F901003CF9010000FFFF00EA
:105690005252614150F9010010B50C460948FBF720
:1056A0003FFD2046FBF73CFD0748FBF739FD074867
:1056B000FBF710FD4FF08043AA221A7200221A70E5
:1056C00010BD00BFC0F90100E9F90100C0C62D00FE
:1056D00008B50648FBF724FD0548FBF7FBFC4FF037
:1056E0008043AA221A7200221A7008BD8AF90100AA
:1056F000C0C62D0000F1080343604FF0FF32C360C5
:1057000003610023826003607047002303617047D8
:1057100043689A684B608A609A6851609960036830
:1057200008610133036070470A6830B5531C0AD121
:1057300003695A684A6091608B6059600368086128
:105740000133036030BD00F108035C682568AA429C
:10575000EFD32346F9E74168826803698A6082686B
:1057600051605968884208BF5A6000220261186877
:10577000013818607047FFFF064A13681968064B26
:1057800019B94FF0FF321A6070471268D268D268B8
:105790005268F8E7C0C50720D0C60720F8B51B4BF4
:1057A0001B4E1D68044630680F460430FFF7D3FFD8
:1057B000334640B901203168164EC96A32688840C4
:1057C00022EA00023260621C07D137B11968124820
:1057D0000431BDE8F840FFF79BBF2C441A68A5428E
:1057E000546007D90D4A10681968BDE8F8400431C3
:1057F000FFF79ABF0A4A106819680431FFF794FF4F
:10580000084B1A68944238BF1C60F8BD04C70720D3
:10581000BCC50720A4C60720F0C60720C4C50720C2
:10582000C0C50720D0C607202DE9F84F4FEA820AED
:10583000804650460D4699460B9E00F050FE0746A6
:10584000002800F09B80582000F049FE0446002804
:1058500000F0918052460763A521384603F024FBEF
:10586000236BAAF1040A9A442AF0070A6B1E04F17A
:1058700034020735597802F8011B13F8011F09B1EA
:10588000AB42F7D10A9D4FF0000B092D28BF092527
:10589000271DE5626564384684F83BB0C4F848B01B
:1058A000FFF733FFC5F10A0504F11800FFF72DFFDC
:1058B000C4F850B02461A5616462C4F84CB084F8A7
:1058C00054B04A464146504600F03AFE206006B1C8
:1058D000346000F05FFE304B304E1A68DFF8E48031
:1058E00001321A603568002D4BD134601B68012BE2
:1058F0001AD108EB05001435FFF7FCFEC82DF8D1CE
:10590000DFF8C490264D4846FFF7F4FE2846FFF71F
:10591000F1FE2448FFF7EEFE2348FFF7EBFE234B92
:10592000C3F80090224B1D600125224A22491368CA
:10593000086801331360E26A05FA02F30343142096
:105940000B6000FB02803946FFF7E2FE00F032FEFA
:105950001A4B1B6863B13368DA6AE36A9A4207D26A
:105960004FF08052164B1A60BFF34F8FBFF36F8F0B
:105970002846BDE8F88F384600F0C0FD4FF0FF35EF
:10598000F6E70E4B1B68002BCED13368DA6AE36A68
:105990009A4298BF3460C7E794C60720BCC5072069
:1059A000BCC60720D8C60720F0C60720C0C5072000
:1059B000C4C50720A0C60720A4C60720ECC6072040
:1059C00004ED00E0C8C50720A8C60720024A1368F6
:1059D00001331360704700BF9CC60720014B186855
:1059E000704700BF04C707202DE9F84F364B1B68EE
:1059F000002B47D1354B1C6801341C605CB9344A1C
:105A0000344B116818681060334A19601368013309
:105A10001360FFF7B1FE314D4FF0000B2B68304F94
:105A20009C423ED3DFF8A880DFF8C490D8F800206D
:105A3000126872BB4FF0FF322A6032E006F1040AAE
:105A40005046FFF788FEB16A19B106F11800FFF75A
:105A500082FE01224FF0140EF06AD9F8003002FAEB
:105A600000F119431F4BC9F800100EFB00305146DE
:105A7000FFF74EFE3868F16AC26A914228BF4FF0C4
:105A8000010BD3E7184A4FF0000B13680133136082
:105A900011E0D8F80020D268D66871688C42CDD267
:105AA00029603A680F4BD16A14224A439A58022A55
:105AB00028BF4FF0010B0D4A1268002A18BF4FF0A3
:105AC000010B5846BDE8F88F9CC6072004C7072085
:105AD000C0C50720C4C50720D4C60720D0C60720EC
