:020000021000EC
:10000000E03F082095010100FB000100E100010034
:10001000090101001901010029010100000000008F
:10002000000000000000000000000000C1530100BB
:1000300039010100000000002154010059010100B4
:10004000396301003963010039630100396301003C
:10005000396301003963010039630100396301002C
:10006000396301003963010039630100396301001C
:10007000396301003963010039630100396301000C
:1000800039630100396301003963010039630100FC
:1000900039630100396301003963010039630100EC
:1000A00039630100396301003963010039630100DC
:1000B00039630100396301003963010039630100CC
:1000C00039630100396301003963010070010200E6
:1000D00000C00720C4010000C8C107205C04000064
:1000E00004207146084203D0EFF3098006F042B9BC
:1000F000EFF3088006F03EB9704708B5014804F0F8
:10010000DDFFFEE7B0F5010008B5024804F0D6FFB8
:10011000FEE700BFBBF5010008B5024804F0CEFFC2
:10012000FEE700BFC6F5010008B5024804F0C6FFAF
:10013000FEE700BFD1F5010008B5024804F0BEFF9C
:10014000FEE700BFDEF5010008B5024804F0B6FF87
:10015000FEE700BFECF5010008B505F0A9FD05F0CC
:1001600081F9BDE8084005F0B7BD0B4610B5401A4F
:100170005C1AA24203D9C45843F8044BF8E710BDF7
:10018000034610B500221C1AA14202D943F8042BE1
:10019000F9E710BD164806F0C6F8154806F0C6F88F
:1001A000144C154DAC4201D3144D07E094E8030004
:1001B0000C3454F8042CFFF7D8FFF3E7AC4206D216
:1001C00054F8080B54F8041CFFF7DAFFF6E708F0C0
:1001D000FDFA06F0F3F906F04BFD06F0FFFF4FF4D1
:1001E000164006F0CDFB064804F068FFFEE700BFAE
:1001F000E03F0820CC000100D8000100E000010031
:1002000000F6010001207047064B10B50360002383
:100210000446436003810374012005F02BFFE06076
:10022000204610BDF4EB0100044B10B504460360FA
:10023000406808B108F0F8FA204610BDF4EB010060
:1002400010B50446024B0360FFF7EEFF204610BDD9
:100250002CEC010010B50446FFF7F2FF204600F039
:10026000C3FF204610BD10B5044605F083FC0228EC
:1002700007D1E06906F04CF818B1012005F086FBC3
:10028000F7E7012010BD37B5044615468DF8071075
:1002900005F070FC022808D09DF8072063691A70E9
:1002A0006269137D5906FCD517E000232A460DF13B
:1002B0000701E06905F05AFE80B163691B7D5B06AA
:1002C0000BD500231A460DF10701E06905F054FF34
:1002D00018B163699DF807201A70012003B030BD82
:1002E000F8B5064614460F4609B90020F8BD8369E3
:1002F000002BFAD005F03EFC022809D1002322464B
:100300003946B06905F038FF003018BF0120F8BD4C
:1003100006F09AFA4FF47A72002307F0D5FF2044D2
:100320000446002500231A463946B06905F024FF2B
:1003300058B906F089FA4FF47A72002307F0C4FF27
:100340008D4208BF8442EDD2CFE70120F8BDFFFF08
:1003500073B54269002301938DF803309368044616
:1003600003F00E03042B17D00C2B15D0022B35D124
:10037000C06905F0D6FFE38C984203D9E06905F027
:10038000D0FFE0841026002501AA0DF10301E069E9
:1003900005F08CFF20BB2DE005F0F8F90025A062E8
:1003A00063691A7DD2070ED51B7801AA8DF8033038
:1003B0000DF103010023A06905F06EFE019B002BE7
:1003C00018BF0125ECE7A06905F0ABFFA38C9842AC
:1003D00010D9A06905F0A5FFA0840BE0137D12E001
:1003E00063699DF803201A70019B002B18BF01253B
:1003F000013EC9D13DB1054B4FF080521A60BFF3A9
:100400004F8FBFF36F8F02B070BD00BF04ED00E0EF
:1004100038B504460D46FFF7F7FE064B65612360CD
:100420000023A361E3612362A384E384A3622046E3
:1004300038BD00BF2CEC01002DE9F8434579044696
:10044000894690461E46089F0DB100255FE0002BAF
:10045000FBD005F08FFB02282CD0236820222761D7
:10046000A661A57584F8149084F815801A6006F0CA
:10047000EBF94FF47A72002307F026FF10F57A7635
:1004800041F1000700231A461946E06805F074FEA2
:1004900020B1A57DB5FA85F56D0938E006F0D4F9EF
:1004A0004FF47A72002307F00FFF8F4208BF864295
:1004B000E8D2EEE72B464FF47A722946A06805F0A1
:1004C0005BFE0028C1D02B462A462946E06805F08D
:1004D00053FE23682022A57584F8149084F81580B3
:1004E0002761A66129461A60E0682B464FF47A72AC
:1004F00005F042FE20B1A57DB5FA85F56D0900E055
:10050000054600231A461946A06805F02FFD284627
:10051000BDE8F88341F00101FFF78EBF1FB500244D
:1005200004AB03F8014D01240094FFF7F3FF9DF89D
:100530000F0004B010BD01F0FE01FFF77DBF1FB535
:1005400004AC04F8013D012300932346FFF7F3FFB9
:1005500004B010BD1FB5002204AB03F8012D0092BA
:10056000FFF7D8FF05B05DF804FBFFFF38B50025A5
:10057000044601604571012005F07CFD0322A06066
:100580002946012005F0D8FC2368094AE06093421F
:1005900001D10A2309E0074A934201D10B2304E069
:1005A000054A93420CBF0C2363232371204638BDB8
:1005B00000C0014000C0054000000A4090F904302E
:1005C00070B50B2B05460C46164606D00C2B07D0F3
:1005D0000A2B34D10121072004E00121132001E07E
:1005E00001211A2006F022FAB6F57A7F9ABF4FF45D
:1005F0007A71714313492B68B4FBF1F16C229A6153
:10060000490828224A436420B2FBF0F21A613C22D6
:100610005143B1FBF0F100225961DA601A625A626B
:100620009A6240221A6095F9043001205909064A5D
:1006300003F01F0300FA03F342F8213070BD0020DD
:1006400070BD00BFA086010000E100E0036830B586
:1006500059680246282945D009D8102924D01829DC
:100660002AD0082977D1027D02F0FE0237E0402926
:1006700054D00AD838296ED1017D5B6811F0010F82
:10068000937514BF0120022030BD50294ED0582947
:1006900061D181699B680B700368202199611021E9
:1006A00019600821996152E0027D42F001029A60CE
:1006B00008229A61002030BD146920209861082129
:1006C00064B998611020186099611968C906FCD452
:1006D000137DDD074CBF0120022030BD527D9A60A2
:1006E0009961E7E7007D10F0010001D020222CE0A5
:1006F000116949B920219961102119600821996176
:100700001968CC06FCD4E3E79469013914F8015B5D
:100710009D609461116108229A6130BD02692021B7
:10072000012A99614FF004020FD80CE09B6881699F
:1007300004220B708369013383610369013B012B40
:100740000361036801D19A61B2E71A60B0E71968E2
:10075000C806FCD4BCE75968917520219961102125
:100760001960082199611968C906FCD4B0E7FFFF38
:1007700013B50446FFF76AFF80B1002302A941F8D0
:10078000043DE06805F0C6FC019B3BB1044B4FF013
:1007900080521A60BFF34F8FBFF36F8F02B010BD4E
:1007A00004ED00E070B5174B0E465C69164B05462C
:1007B0001A6C1A2022F470021A641A6C04F4406451
:1007C00042F420021A64996E41F4406199661968F6
:1007D00021F470011960196841F4200119600321A6
:1007E00006F03CF905F092FEB4F5406F06D13246B2
:1007F000C1082846BDE87040FFF7E0BE01236B71D9
:10080000002070BD00C0092000C0024010B50446A1
:100810000249FFF7ABFE204610BD00BF00000A40B2
:1008200038B5074C236833B91C2000F0DBFC0546C3
:10083000FFF7ECFF25602068BDE83840FFF798BF60
:10084000C8C1072010B50446024B0360FFF7ECFC5B
:10085000204610BD2CEC010010B50446FFF7F2FF56
:10086000204600F0C1FC204610BDFFFF10B5044635
:100870000349FFF7CDFD034B2046236010BD00BFA9
:1008800000C00040A0EC010038B5074C236833B924
:100890002C2000F0A7FC0546FFF7E8FF2560206844
:1008A000BDE83840FFF754BDCCC10720F0B5124B6E
:1008B00087B06C461D46074693E807008DE80700A1
:1008C00003AE93E8070086E807000C223146204675
:1008D00007F0C0FF40B195E8070084E8070095E8FD
:1008E000070086E80700F0E703CC386020687960ED
:1008F000B860384607B0F0BD14400240184B0022E3
:100900001A720278C2F3050283F820204278C2F3FB
:10091000050283F824208278C2F3040283F8282099
:10092000C278C2F3020283F830200279C2F30402D3
:1009300083F82C204279C2F3030283F83820C2796D
:10094000817902F00F0241EA02229A87427A017A03
:1009500002F00F0241EA02229A8601221A727047BF
:10096000004002401FB50121092006F05FF8304B1E
:1009700001221A7201A8FFF799FFBDF80A3003F6A9
:100980002603C3F30B030F2B1ED89DF8053003F08D
:100990003F033B2B18DC9DF8043003F03F033B2B57
:1009A00012DC9DF8063003F01F03172B0CDCBDF89A
:1009B0000C30C3F30B03B3F5B77F05DA9DF80930AC
:1009C00003F00F030C2B2FDD9DF80830012262F39A
:1009D00004038DF808309DF8093001A862F3030381
:1009E00040F2DA728DF80930BDF80A3062F30B0379
:1009F000ADF80A309DF807306FF302038DF8073029
:100A00009DF806306FF304038DF806309DF805302D
:100A10006FF305038DF805309DF804306FF305037F
:100A20008DF80430FFF76AFF05B05DF804FB00BFE6
:100A30000040024008B5044B1B689847034A137AEC
:100A400043F00103137208BDD0C1072000000B4022
:100A50001FB50446054B0DF1100E0FCB0EE90F002C
:100A60000EEB840454F8100C04B010BDB4EC01007B
:100A700073B50E460546FFF7EBFF04460E4B01210A
:100A8000186802AB1D440090019015F8080C05F0A1
:100A9000CDFF012115F8040C05F0E0FF0023012231
:100AA000A3606260236705F031FD044BB0FBF3F0F7
:100AB0004643E66002B070BDC4EC010040420F0046
:100AC00010B50446024B0360FFF7AEFB204610BD95
:100AD0002CEC010010B50446FFF7F2FF204600F0B1
:100AE00083FB204610BDFFFF10B504460349FFF706
:100AF0008FFC034B2046236010BD00BF00800940DF
:100B00001CED010038B5074C236833B92C2000F0E8
:100B100069FB0546FFF7E8FF25602068BDE838401F
:100B2000FFF716BCD4C10720026830B5D36913F0B3
:100B3000040310D002F1300301F1100451F8045BFA
:100B4000A14243F8045BF9D1438A01334382212354
:100B50005360012030BD184630BDFFFF2DE9FF4135
:100B6000254D440155F804802F19D8F80C60D8F8A9
:100B700008303343D90719D5786805F0D2FBFB89D3
:100B800008F12001984288BFF88100232F191A46E6
:100B9000786805F081FA18B1BB8A0133BB8202E0A4
:100BA000BB890133BB810423C8F8043040F20263DF
:100BB000334093B12F19B86805F0B3FB3B8A00228C
:100BC000984288BF38822F196946B86805F06EFBD5
:100BD00018B169463846FFF7A7FFB20603D52B19AF
:100BE0009B6930469847330703D52C44E369304668
:100BF000984704B0BDE8F08100C00720084B10B54D
:100C0000D3F8C440A20402D50020FFF7A7FF630475
:100C100004D5BDE810400120FFF7A0BF10BD00BF04
:100C200000C00F4008B501211D2005F0FFFE034B59
:100C300001221A631A6BD207FCD508BD0040005090
:100C400073B54FF0FF33B1F5805F01934AD2284B63
:100C50001C69E40748D4274C2469E60744D4264C91
:100C6000E5686D0701D5A568FAE7244C0325A56062
:100C70002561234C1E4E1C60254622B101AC7460D8
:100C800041F0004402E0706041F00844F460002448
:100C90009C6041F206041C61164C1AB1206041F0C0
:100CA000806101E001AA22600022E1606560A2602B
:100CB0004FF4086222611A6942F001021A61226946
:100CC00042F0010222610C4A516A41F00301516273
:100CD000D868C0F30B000028FAD1536A23F003034D
:100CE000536202E0012000E0022002B070BD00BFAC
:100CF00020410050004100500000034000400050DF
:100D00000800034070B505460E4614467CB12B68BA
:100D10006BB12268134208D06368984722682B6839
:100D200023EA02032B6023683360A468EEE770BDFA
:100D3000F8B5012484400F4616461D4610D079B1FF
:100D40000C2007F069FD58B133682A688360054BB1
:100D500080E8900014434FF4001230602C601A6059
:100D6000F8BD00BF00E100E01FB5184C18496368EA
:100D700068460093A3680193636A0293A36A03938E
:100D8000144B1A68FFF7BEFF134B11491A6801A8EC
:100D9000FFF7B8FF114B12491A6802A8FFF7B2FF1C
:100DA000104B0F491A6803A8FFF7ACFF009B0BB963
:100DB000019B13B14FF0FF33E360029B0BB9039B20
:100DC00013B14FF0FF33E36204B010BD80800240E6
:100DD0008C800240E0C10720E4C10720D8C1072071
:100DE000AC800240DCC1072010B414460029064A3A
:100DF0000649074B18BF1346064A18BF0A46214644
:100E000010BCFFF795BF00BF94800240E4C10720EB
:100E100090800240E0C10720074A0121136801FACF
:100E200000F023F0E06323F0FF031360136843F046
:100E300080730343136070470040034007B50023ED
:100E40000D4A019352680D48C2F30B12ADF802200F
:100E50000DF1020101AA006805F01EF9019B3BB1EA
:100E6000074B4FF080521A60BFF34F8FBFF36F8F65
:100E700003B05DF804FB00BF00400340E8C1072059
:100E800004ED00E010B505F041FB0121C4080C2081
:100E900005F0CCFD03210C2005F0E0FD114A4FF4D4
:100EA0000013114913600223B4FBF3F0884204D805
:100EB000116841EA0323136003E00233B3F5807F36
:100EC000F2D1012005F0D6F8084B0022186002216B
:100ED000012005F031F8064B4FF480021860054BF5
:100EE0001A6010BD004003403F5DC600ECC1072002
:100EF000E8C1072000E100E0F7B507284FF0000443
:100F00000546ADF806402AD804F034FE0228164EF5
:100F100019D1164F234621464FF0FF32386805F0AD
:100F20002BF92846FFF778FF23460DF106014FF015
:100F3000FF32306805F020F9234622462146386802
:100F400005F014F80BE02846FFF766FF00231A4669
:100F50000DF10601306805F00FF90028F6D0BDF854
:100F6000060003B0F0BD00BFE8C10720ECC10720B8
:100F700010B50446024B0360FFF756F9204610BD3A
:100F80002CEC010010B50446FFF7F2FF204600F0FC
:100F90002BF9204610BDFFFF10B504460349FFF7AB
:100FA00037FA034B2046236010BD00BF00C0094044
:100FB00084ED010038B5074C236833B92C2000F0CC
:100FC00011F90546FFF7E8FF25602068BDE83840C5
:100FD000FFF7BEB9F0C1072010B50A4C23681BB952
:100FE000012005F047F8206004F0C4FD022808D174
:100FF000002320684FF0FF321946BDE8104005F08D
:10100000BBB810BDF4C1072010B504F0B3FD022831
:1010100008D1BDE81040044800231A46194600686C
:1010200004F0A4BF10BD00BFF4C1072030B50446D2
:101030008DB0A8B36846FFF739FC9DF80030002555
:1010400003F03F0303939DF8013003A803F03F032F
:1010500004939DF802300B9503F01F0305939DF850
:10106000043003F01F0306939DF8053003F00F03CF
:10107000013B0793BDF80630C3F30B03A3F26C7377
:1010800008939DF8033003F007030993BDF8083077
:10109000C3F30B03013B0A9307F0F6FC84E821003D
:1010A00000200DB030BDFFFF014B1860704700BF3E
:1010B000FCC10720014B1860704700BFF8C1072032
:1010C00008B5024808F0FAFDFEE700BF98ED010000
:1010D00008B5024808F0F2FDFEE700BFB2ED0100DE
:1010E0000020704701207047F8B5084B16461A6873
:1010F0000F461C4642B10D46EB1B9E4204DD2368A1
:1011000015F8010B9847F7E73046F8BDFCC10720FA
:10111000F8B5094B0F46186816461C4658B10D46DF
:10112000EB1B9E4205DD23680020984705F8010B64
:10113000F6E726EAE670F8BDF8C107207047002000
:101140007047FFFF074B1B689A68824207D05A68B6
:10115000824204D0DB681B1A584258417047012074
:10116000704700BF3CC10720002070470020704737
:10117000144B10B51A68014612B94FF080521A602C
:10118000114C18682468421894421A6007D20F4C18
:10119000A24204D80E4A0B488C18046010460D4A2F
:1011A0001B681268934222BF064B00201A6039B1B7
:1011B000094A136801331360084B1860084B196023
:1011C00010BD00BF04C207200CC20720FFBF0720CC
:1011D00024C6072010C2072014C2072000C207201F
:1011E00008C2072007F018BB07F01EBB30B5044645
:1011F0008BB0684607F0BAFD224B079A2360089B24
:10120000214DA36062602149214B52B90A681868D8
:1012100082428ABF02F1604202F17042A2F5E822E6
:10122000626062681B68B2F5803F82BF02F1704263
:10123000A2F5E82262600022E2600A68934206D3C7
:10124000991AC5F1005303F504230B440BE0114B2D
:101250001B68934208D9991AC5F1005303F5F82386
:101260000B44002B00DDE36020460B4BE2611B6862
:10127000A3610A4B1B686361094B1B6823610BB0B8
:1012800030BD00BF2406000024C6072004C207208A
:101290000CC2072010C2072000C2072008C2072086
:1012A00014C20720034A044B1A60044A044B1A6014
:1012B000704700BF008000100CC2072000400820CB
:1012C00010C2072004F08EB804F09CB870B5174E19
:1012D000326822B92021032004F02EFE3060144D24
:1012E0002A6822B92021012004F026FE2860114C32
:1012F000216821B90322012004F01EFE20604FF472
:10130000FA6240F6C311202000F0E4FA00F0BCF9C4
:101310001620094A0121FFF767FD306828B12868C7
:1013200018B12068003018BF012070BD1CC2072012
:1013300018C2072020C20720E513010070B5037909
:10134000014603F0C003C02B0CBF0E4B0E4B88B000
:101350001D68002306461A46284604F007FE044688
:1013600060B9034602466946284604F005FF234655
:1013700022463146284604F0F9FD0446204608B0CE
:1013800070BD00BF18C207201CC2072038B5044634
:101390000D4600F0FFFC237883420AD0E37843B97E
:1013A00008F0BCFCBD2300F0030000FB033003F099
:1013B000B5FD00F061F900F053F9A9B2204600F044
:1013C0007FF900F073F900F05FF904F0D3FB022815
:1013D00004D1034B0021186804F09CFE012038BDA5
:1013E00020C2072007B5002302A941F8043D084B9D
:1013F000186804F08FFE019B3BB1064B4FF0805202
:101400001A60BFF34F8FBFF36F8F03B05DF804FB1B
:1014100020C2072004ED00E038B504460D4600F078
:1014200075F948B1A9B2204600F07DF900F06EF9D7
:1014300008B900F074F9012038BD042938B5054613
:1014400003D1041C18BF012400E0002405F0FCF9BE
:101450002CB14FF47A72002306F036FF2860204644
:1014600038BDFFFF00B50C4B8DB009930B4B0C4AF8
:101470000B930C4B0A930CAB43F8102D00220492F3
:101480000FCB8DE80F00084B084A01216A2000F0BD
:101490002FFD0DB05DF804FBCD1201001914010001
:1014A0003B1401008D1301003D130100CCED010040
:1014B00008B504F05FFB0F4B02285B6913D15A0299
:1014C0000DD500F033FF00280B484FF0000314BF88
:1014D00001224FF0FF321946006804F04DFEBDE8CE
:1014E000084000F0C1BD5B02F9D500F01FFF0028E5
:1014F000F5D108BD00C0092020C2072070B53E4CC0
:101500004FF48035E5613D4CA0602046C5683B4CFA
:10151000ED06FBD4A0680D46C0B20BB923465FE0D0
:101520002346002A63D0072A0E782DDD9E604E7870
:10153000083A9E608E789E60CE789E600E799E609E
:101540004E799E608E799E6001F10806C979996096
:1015500099694907FCD5A1682970A1686970A168DB
:10156000A970A168E970D968C906FCD4A1680835DA
:1015700005F8041CA16805F8031CA16805F8021C05
:10158000A16805F8011C1AE0032A1ADD9E604E7856
:10159000043A9E608E789E600E1DC9789960D96865
:1015A000C906FCD4A168043505F8041CA16805F837
:1015B000031CA16805F8021CA16805F8011C31464E
:1015C000AFE701319E60013ADE68F606FCD4A668FA
:1015D000013505F8016CA4E7E668F606FCD4A668B8
:1015E0006E1AB24203DD15F8016B9E60F4E7024B00
:1015F0004FF480329A6170BD00C00920008008401D
:1016000007B5002302A901F8013D01231A4600F0A5
:101610001F00FFF773FF9DF8070003B05DF804FBA0
:1016200013B502AC04F8011D00F01F0000230122D5
:10163000214640F02000FFF761FF02B010BD08B561
:101640001720FFF7DDFFC0F3001008BD7021072051
:10165000FFF7E6BF0A4600230146A020FFF74EBF72
:1016600008B50020FFF7CCFFBDE8084000F0FE0100
:101670000020FFF7D5BFFFFF024B4FF08072DA6109
:10168000704700BF20C0092008B50020FFF7B8FF51
:1016900040F00101C9B20020FFF7C2FF024B4FF03A
:1016A00080729A6108BD00BF20C009202021072058
:1016B000FFF7B6BF00231A461946E120FFF71EBF09
:1016C00037B504460D46FFF7F5FF20462946FFF7DC
:1016D000C1FF0D4B4FF080721C469A610022ADF89D
:1016E0000620BDF8063001339BB2ADF8063033B9A1
:1016F0004FF08073E361FFF7DDFF03B030BDFFF70C
:101700009EFF0028EDD0F3E720C0092008B5172080
:10171000FFF776FF00F0010080F0010008BD4021D6
:101720000720FFF77DBF08B50A4601230146612067
:10173000FFF7E4FEC0F3420008BD00231A46194635
:10174000E220FFF7DBBE70B5064600200D461446CA
:10175000FFF756FF16B100F0BF0002E040F0400076
:10176000C0B215B100F0DF0101E040F0200114B17A
:1017700001F0EF0101E041F010010020BDE87040F0
:10178000FFF74EBF10B504460020FFF739FF14B92C
:1017900000F0F7010DE0012C04D100F0FB0141F055
:1017A000080106E0022C14BF40F0080140F00C01D3
:1017B000C9B20020BDE81040FFF732BF08B50020D5
:1017C000FFF71EFFBDE8084040F00201C9B200204B
:1017D000FFF726BF08B50020FFF712FFBDE808405D
:1017E00000F0FD010020FFF71BBF40F6DD1398421B
:1017F00006D840F66213B0F5166F38BF184600E001
:101800001846A0F51661C9B20520FFF709BF10B54B
:1018100004460620FFF7F4FEFA2C00F0D70102D1AF
:1018200041F0200104E0B4F5FA6F08BF41F008016F
:101830000620BDE81040FFF7F3BE10B504460620B1
:10184000FFF7DEFE032C28BF032420F0060040EA49
:101850004401C9B20620BDE81040FFF7E1BEF928F7
:101860004FF0FA0305D9B0F57A6F88BF4FF47A606C
:1018700000E01846B0FBF3F00F2900F1FF30C0B2D2
:1018800028BF0F2141EA0011C9B20420FFF7C8BEEA
:101890001130C0B2162804D8202928BF2021FFF714
:1018A000BFBE7047032804D0042814BF03210221BF
:1018B00000E001210320FFF7B3BE0A4600230146E2
:1018C0003020FFF71BBE0A46002301462A20FFF7FF
:1018D00015BEFFFF73B50E4615460446FFF72DFFF4
:1018E000FFF7E8FE2B4B4FF08072DA61FFF772FFD3
:1018F000002211460120FFF726FFFFF7A7FE022076
:10190000FFF740FF3046FFF770FF2846FFF77FFFE5
:101910000320FFF792FF03210220FFF781FE002141
:101920000120FFF77DFE03214FF4FA70FFF797FFC8
:1019300021460020FFF7ACFF00211220FFF770FEC8
:1019400000211320FFF76CFE00211420FFF768FE32
:1019500000211520FFF764FE00211620FFF760FE2E
:101960000D4B18681B79009005208DF80430FFF7A7
:1019700099FF68460521FFF7A0FF05216846FFF79C
:10198000A2FFFFF71BFF4FF4FA6003F0C7FA02B0A3
:1019900070BD00BF20C00920D1ED010010B54FF689
:1019A000FF74242303FB0101884209D043782BB143
:1019B000038C1344A34228BF234603842430F3E757
:1019C00010BDFFFF37B5002302A840F8043D0C4BC3
:1019D00004215B6898470B4B019A1C680546141B51
:1019E0001A60042122460848FFF7D8FF2246022148
:1019F0000648FFF7D3FF281C18BF012003B030BDF5
:101A000028C20720F4C207203CC2072015C30720C4
:101A100008B50B4B197803788B420A4B0BBF1A8819
:101A20009A880132013214BF9A801A80064B817065
:101A3000DB6820219847003018BF012008BD00BF97
:101A400045C00720E4C2072028C207200A4B0278BD
:101A50001B789A42094B0BBFDA881A89013201328E
:101A60000CBFDA801A810379C3F3C202073262F332
:101A7000C5030371FFF7CCBF45C00720E4C20720B0
:101A800010B50749002311F823409A00844202D17F
:101A90000348104410BD0133042BF4D1002010BDC5
:101AA000F8C2072070B1C3780133DBB2FF2BC370DB
:101AB00008D105480023C118CA7804335208102BF6
:101AC000CA70F8D1704700BFF8C20720242202FB79
:101AD00001010346024630B5914206D01446243235
:101AE00012F8235C002DF7D10FE00446002599423F
:101AF0000BD01A79C2F3C2001A8C42EA0042AA4201
:101B000084BF1C4615462433F1E7204630BDFFFF55
:101B100038B50546C90001F10804FFF753FF1C4B17
:101B20002A781B789A4204D102211A48FFF7CEFF87
:101B30000CE004211848FFF7C9FFEB7833B990F89F
:101B40002330042443F0800380F82330002380F8FE
:101B5000203080F8213002462B4690F8231080F880
:101B6000224021F07F01C4F306240C4380F8234077
:101B700005F1200153F8044B8B4242F8044BF9D194
:101B8000064A0379127862F3C503037138BD00BFBA
:101B900045C0072015C307203CC2072044C00720CA
:101BA00008B5FFF76DFF0346D8B9FFF769FF034695
:101BB000B8B90D4AD378D179D07A8B4296BF1946FD
:101BC000131D1346814294BF0846084BD17B084A37
:101BD000814238BF1346074900221A60CA7A01328F
:101BE000CA72184608BD00BFF8C2072000C307200C
:101BF00004C30720E4C207202DE9F84F05460C4630
:101C00004FF0240909FB0219DFF868A1DFF868B179
:101C10004E1C4FF000084C4500F09A8094F8233099
:101C20001A0624D5B5B12A7861788A4205D16F7831
:101C300016F8010C874200F08D80E87850B1687882
:101C4000884207D116F8011C914203D1A979A279E3
:101C500091427FD094F82220218C03F07F0342EA46
:101C60000323994271DB2046FFF7D2FE72E06278CF
:101C7000002A6AD06DB3297901F0C001C02917D1BB
:101C800016F8010C6978884202D12878904261D018
:101C9000E778A87887420CD191420AD116F8010C56
:101CA0002978884205D1A079A979884201D151E0EB
:101CB00079B1A878E17888420BD16978914208D14E
:101CC00016F8010C2978884203D1A079A9798842B5
:101CD00046D094F82210208C03F07F0341EA0323BE
:101CE000984232DB237984F82080C3F3C201CFB25B
:101CF00084F821801FB12046FFF7A8FE25E003F0FD
:101D0000C003C02B19D016F8010C9AF80030984285
:101D100013D1E3789A4210D07BB16379032262F346
:101D200007136371E1702046FFF790FE23799BF85B
:101D3000002062F3C503237100E001276078FFF7FC
:101D40009FFE08B1C0F8008027B92434243662E72A
:101D5000BDE8F88F24220021204606F0B0FDF4E70C
:101D6000237984F820806FF3C50384F821802371E0
:101D7000EBE700BF45C0072044C00720431EDBB28D
:101D8000FD2B9DBF024B187001200020704700BF43
:101D900045C00720014B1878704700BF45C0072099
:101DA0002DE9F743044691461E469DF828500F46FC
:101DB000002966D0364B93F80080414563D00F2E42
:101DC00061D8002861D02022002106F078FDFF2F85
:101DD000237914BF09F00302002262F38713032260
:101DE00062F302032B4A6770127884F8008062F372
:101DF000C503294A2371137884F802800133DBB2CA
:101E00001370A3710BAB019315B94FF001081BE0E0
:101E100004F10809019AE0791346526853F8081B47
:101E200000EB02085FFA88F8013DB8F1180F019342
:101E3000EDB207D8484406F01CFD84F80780002D59
:101E4000E8D1E2E74FF00008DFF850900123384670
:101E500089F80030FFF714FE0546FFF723FE002344
:101E600089F80030637925B966F307136371E5706B
:101E700005E0AA7862F3071363716B78E37040465C
:101E800003E0084601E00020FFE703B0BDE8F0836F
:101E900045C0072044C0072024C20720F0C2072005
:101EA000124B012270B51A7004461E4608B900256F
:101EB00018E0FFF7ADFD05460028F8D0237903F0C0
:101EC000C003402B06D0C02B0AD1E37853B162780F
:101ED0009A4207D0617920460909FFF719FE01E00F
:101EE000802BF7D000233370284670BDF0C2072046
:101EF00082B02DE9F0439146421ED2B28DB0FD2A48
:101F000005460E4615939DF8688001D9002057E0DC
:101F1000002BFBD0179F002FF8D0199B002BF5D07A
:101F2000189B002BF2D0169B002BEFD048220021EB
:101F3000264806F0C4FC90220021254806F0BFFC8C
:101F400010220021234806F0BAFC234B00241C6019
:101F50005C609C60214B1C605C609C60204B1D7031
:101F6000204B214D1E7015AE0FCE0FC533681822C1
:101F700021461E482B6006F0A2FC494617221B484A
:101F800008F076F921462046B8470028BED0B8F1BF
:101F9000000F02D1FFF716FD12E006230293144B47
:101FA0002246019301230093FF2104A8FFF7F8FEC6
:101FB0000028ABD004A8FFF773FF0028A6D0E9E7FC
:101FC0000DB0BDE8F04302B0704700BF15C3072055
:101FD0003CC20720F8C2072008C30720E4C207203C
:101FE00045C00720F1C2072028C20720CCC2072025
:101FF000D6ED010030B5182B8DB016D8B2FA82F4A8
:102000001D1C18BF01256409AC420ED00293019239
:1020100000950A469DF84030014604A8FFF7C0FE2F
:1020200018B104A8FFF73CFF00E000200DB030BD60
:1020300013B5537914781B09009302460B462046CA
:102040000321FFF7D7FF02B010BDFFFF00231846A2
:10205000044A12F8231009B10130C0B20133042B35
:10206000F7D17047F8C207202DE9F04188B020224F
:102070000021684606F023FCA14B1B7803F0FF0407
:10208000002B40F039819F4F20213B6968469847DB
:10209000002800F084809C4D6B8801336B80FFF733
:1020A000D5FF9DF80420A87202F00703032B04D08B
:1020B000964A137843F0010309E0954B1D789DF88B
:1020C0000230AB4205D1914A137843F002031370FA
:1020D000E4E0C2F3C2029DF800E09DF806008D49DD
:1020E000D6B204EB440313F801C0F4450BD10B4402
:1020F00093F801C0844506D1997801248E1B18BF3E
:1021000001269A7018E00134042CEAD182490B6848
:102110009A70804A587002F10900834283F800E007
:1021200040F0C9800A609DF800009DF802308342AB
:1021300040F0C480002426469DF80200FFF730FDE1
:102140009DF8022002709DF80220427000228270E9
:10215000FFF7A8FC04B116B39DF80030AB4200F0C5
:102160009C809DF80160FF2E1BD13B6820216846B2
:10217000984720B9654A137843F0040313709DF81B
:10218000053003F00F02511C61F303038DF8053095
:10219000C3F303139A4202DA6846FFF739FC0024BE
:1021A0007CE0B5422BD164B99DF807304BB13B6858
:1021B00020216846984720B9544A137843F0040315
:1021C00013709DF8043003F0C003402B12D19DF82A
:1021D00007306A4613B91821504808E00C214A48D4
:1021E000FFF726FF002858D100216A460846FFF76E
:1021F0001FFF52E09DF80330002B4ED1F4E7484B0F
:102200001B78002BCBD09DF8054004F00F074FEA58
:1022100014184745C3DA013767F303043046FFF764
:102220002FFC8DF805409DF80340A54221D19DF873
:10223000041001F0C001402906D0A1F180035A42E8
:102240005A41144610B90CE0012260B1C02943780C
:1022500005D19E4203D0003318BF012304E00023C0
:1022600002E0C0290ED10346134303F0010420B954
:1022700008E094B908B941460CE043788DF8033082
:10228000857802E000258DF803506846FFF7C0FB13
:102290001CB129466846FFF73BFC6C46FFF792FBF2
:1022A000204604221F49FFF7A7FC02221E492046B0
:1022B000FFF7A2FC20E003330B6034E785423FF4D4
:1022C00039AFFFF76DFC0446FFF7ECFB23783BB119
:1022D0009DF80530A27803F00F0393423FF72AAF31
:1022E0009DF8003023709DF8023063709DF8053032
:1022F000C3F30303A3701DE708B0BDE8F08100BF7E
:10230000F0C2072028C20720E4C2072014C3072018
:1023100045C0072008C3072040C00720CCC20720C3
:10232000F1C207203CC2072015C30720002318462E
:10233000094AD118497809B10130C0B22433902B31
:10234000F7D1064B5A780AB10130C0B293F8253064
:102350000BB10130C0B270473CC2072015C3072043
:102360001FB501A8FEF7A2FA9DF808309DF80920D4
:1023700003F01F0302F00F021B0443EA42519DF8D1
:1023800006309DF8040003F01F0341EAC3229DF8C4
:102390000530C0F3440003F03F0342EA4313BDF8A5
:1023A0000A201843520602F10842104305B05DF8B6
:1023B00004FB30B504460D1F131B0344032B04D943
:1023C00055F8043F44F8043BF6E79408A300194489
:1023D000A2EB8402013B18440A44914204D011F854
:1023E000013B00F8013FF8E730BD0244904202D0C3
:1023F00000F8011BFAE7704700F10B010023DA0136
:1024000042EA530310F8012B1344884203F0FF0300
:10241000F5D118467047036810B50446B3B11946A4
:102420000A4611F8010B1F2802D93A28F8D101E019
:10243000002010BD591C8A4208D11B78303BD9B20C
:10244000012903D801321846226010BD4FF0FF3039
:1024500010BDF8B5056B00F13407044601232A4688
:102460003946407802F07FFBA0B9636AE269EB1A53
:102470009342207101D30020F8BDE678012EFAD9ED
:10248000E36939461D442A460123607802F06BFB5C
:10249000013EF3E70120F8BD03790BB1FFF7D9BF87
:1024A0001846704770B50446FFF7F6FF054680BB37
:1024B0002378032B25D16379012B22D104F1340633
:1024C00001464FF400723046FFF78FFF4AF655225F
:1024D000A4F832220F4A3146626302F1FF5202F53C
:1024E00000522032C4F8182262696078C4F81C22B5
:1024F0002269C4F82022226A0132226302F033FBEF
:10250000657100221146607802F049FB003018BF67
:10251000012070BD52526141036B70B58B4205467C
:102520000E4610D0FFF7B8FF044608B101240BE0B7
:102530000123324605F13401687802F0F8FA0028E8
:10254000F4D12E6300E00024204670BD002310B5B6
:1025500003714FF0FF3303630446FFF7DDFFA0B9BB
:102560004AF65523B4F832229A4210D1D4F86A3090
:10257000084A23F07F4393420AD0D4F8860020F023
:102580007F40801A18BF012010BD032010BD02201B
:1025900010BD00BF464154002DE9FF4100230360F8
:1025A000074608461546FFF736FF061EC0F2FA80BA
:1025B000854B53F82640002C00F0F680E06801F0CF
:1025C0004DFC002800F0F2803C60237883B16078F5
:1025D00002F0A5FAC1070BD4002D00F0E98000F04D
:1025E000040303F0FF00002B00F0EB800A20E8E07A
:1025F0000023F0B22370607002F07EFAC20700F18F
:10260000D9800DB14307F1D400212046FFF79EFF8A
:1026100001281CD12146002291F8F6310BB1D1F8E6
:10262000FA314DF822300132042A01F11001F3D1C0
:1026300000265DF826502DB129462046FFF786FF7B
:1026400008B90BE002200136042EF2D100E000258B
:10265000032800F0B18008B10D20B2E0B4F83F309B
:10266000B3F5007FF8D1B4F84A6006B9A66D94F8C6
:1026700044E0E6610EF1FF33012B84F803E0EBD870
:1026800094F84130A370002BE6D05A1E1A42E3D1D1
:10269000B4F845C01CF00F0FA4F808C0DCD1B4F8A2
:1026A000472002B9626DB4F842100029D4D006FB6D
:1026B0000EFE01EB1C177744BA42CDD3D21BB2FBFE
:1026C000F3F3002BC8D040F6F572934203F10200F9
:1026D00005EB01022F4410D94FF6F5718B426DD9ED
:1026E000A06125626262E762BCF1000FB4D1236E83
:1026F0004FF00308A362830018E04FF00108A061C7
:1027000025626262E762BCF1000FA5D0B8F1020F4A
:102710004FEA400318BF1B18724418BF00F00100B5
:10272000A2621CBF00EB53034FF0010803F2FF133A
:10273000B6EB532F90D34FF0FF3363612361B8F1B1
:10274000030F4FF08003637122D1B4F86430012B82
:102750001ED1691C2046FFF7DFFEC8B94AF6552393
:10276000B4F8322260719A4212D1626B174B9A42CE
:102770000ED103F1FF53D4F8182203F50053203390
:102780009A4201BFD4F81C326361D4F8203223612D
:102790000F4A84F800801388002001339BB2138015
:1027A000E3800EE00B200CE00C200AE00F2008E094
:1027B000284606E0032004E0012002E04FF0020872
:1027C0009DE704B0BDE8F08160C30720525261412B
:1027D0005EC3072010B50446A8B103689BB11A7800
:1027E0008AB1D988828891420DD1D86801F036FB30
:1027F00058B12368587802F092F910F0010F14BF15
:102800000320002010BD092010BD0F2010BD50B1C5
:102810000F2905D84FF41A4323FA01F1CB0702D44C
:10282000C06801F02EBB704783690239023B9942B0
:102830003DBF8378C06A01FB030000207047012977
:10284000F8B507460C464BD98369994248D20378BC
:10285000022B29D0032B34D0012B41D101EB51069F
:10286000416A01EB5621FFF757FE10B14FF0FF30E0
:10287000F8BD796AC6F3080301363B4401EB5621E3
:10288000384693F83450FFF747FE0028EED1C6F3E0
:1028900008063E4496F83400E30745EA00204CBFA2
:1028A0000009C0F30B00F8BD416A01EB1421FFF7EA
:1028B00033FE0028DAD1630003F4FF73FE18B08EF4
:1028C000F8BD416A01EBD411FFF726FE0028CDD1F7
:1028D000A40004F4FE743C44606B20F07040F8BD2A
:1028E0000120F8BD70B5044682680D46012AE180DA
:1028F00001D1022070BD036899698A42F9D252B9A8
:102900001978032901D1996A21B919898D42F0D228
:10291000986A15E00A469E783601B542114620684D
:102920000CD3FFF78CFF431C024618D00128E0D9D6
:1029300023689B699842DCD2AD1BEEE7FFF774FF7A
:10294000E2600028D5D0236800EB1510343305F081
:102950000F0503EB451520616561002070BD012066
:1029600070BD0129F8B505460C4616465FD9836946
:1029700099425CD20378022B38D0032B42D0012B32
:1029800051D101EB5107416A01EB5721FFF7C4FD1B
:10299000002849D1C7F3080214F001042A4417BFE4
:1029A00092F83430F3B203F00F0343EA061318BF72
:1029B000DBB282F83430696A013701232B7101EBF5
:1029C00057212846FFF7A8FD70BBC7F308072F441F
:1029D00014B1C6F3071606E097F83430C6F30326A1
:1029E00023F00F031E4387F834601DE0416A01EBBA
:1029F0001421FFF791FDB8B9640004F4FF742C446E
:102A0000A68611E0416A01EBD411FFF785FD58B9A4
:102A1000A40004F4FE7430342C44636803F0704363
:102A20001E43666000E0022001232B71F8BD0220E6
:102A3000F8BDF8B505460F4631B9066996B1836908
:102A40009E4228BF01260EE0FFF7F9FE01283FD97C
:102A5000441C02D14FF0FF30F8BDAB69984238D327
:102A60003E4600E001263446AB6901349C4204D363
:102A7000012E01D80020F8BD022421462846FFF788
:102A8000DEFE30B1411CE5D0012821D0B442EBD1AB
:102A9000F0E76FF0704221462846FFF762FFA8B9C1
:102AA00057B96B692C615A1C0ED0013B6B616B7975
:102AB00043F001036B7107E0224639462846FFF7D1
:102AC00050FF0028EDD001E02046F8BD0128C1D01C
:102AD0000120F8BD2DE9F843C68804460136B3B29B
:102AE0000F4613B90420BDE8F8830369002BF9D021
:102AF00016F00F0859D1C16801330361006819B994
:102B000003899E42EED250E08378013B13EA16130C
:102B10004BD1FFF794FE0128054602D80220BDE8FC
:102B2000F883421C02D10120BDE8F8832068836944
:102B30009D4234D3002FD5D0E168FFF77AFF0546D8
:102B400000283BD00128E9D0431CECD02068FFF7D7
:102B5000A3FC07460028E6D120684FF400723946EE
:102B60003430FFF742FC226829461046FFF75CFE2E
:102B70004FF00109106323689A7897420CD283F8CA
:102B800004902068FFF788FC0028CCD12268013728
:102B9000136B01331363EEE71A6BD71B1F63E560FA
:102BA00029462068FFF740FE20612368E680343321
:102BB00003EB481363610020BDE8F8830720BDE8FC
:102BC000F883FFFF2DE9F74F4FF6FF794FF0FF082D
:102BD00006464446A0F8209031693068FFF79CFC17
:102BE00000287BD175692B78002B6ED0E52B60D047
:102BF000E97A0F0701F03F0202D50F2A59D101E00F
:102C00000F2A42D1D6F81CB0BBF1000F56D058069F
:102C100005D503F0BF04F3886A7B338402E0A34246
:102C20004BD1424695F80D80904545D12F78012033
:102C300027F040077B1E0D275F434FF0000A294B0A
:102C40001AF80320AA5A88B1104601F047F97F2FDD
:102C5000019032D87A1C3BF81700009201F03EF93F
:102C60000199814229D1009A174601E04A4524D1B1
:102C70000AF1010ABAF10D0FE1D12B7859062AD5D4
:102C800048B33BF8173033B317E024B92846FFF7B1
:102C9000B3FB40451BD0B369DA7AD20709D405F1FA
:102CA0000B00854215D015F8011B13F8012B91423A
:102CB000F7D0A6F8209000E09046FF24002130468F
:102CC000FFF708FF002887D008E0042006E0204630
:102CD00004E0002002E0013CE4B2EFE703B0BDE80D
:102CE000F08F00BFB8EE01002DE9F74F0B780746D3
:102CF0002F2B884601D05C2B01D108F1010800245C
:102D0000BC6098F800301F2B62D821463846FFF788
:102D1000E9FD7C6113E101313BF81120202AFAD052
:102D20002E2AF8D009B144F003044A4632F8020DC5
:102D30002E2801D0013EF9D14FF0000A55464FF040
:102D400008093BF811004A1C002840F08F80BB693D
:102D50001A78E52A04BF05221A70B9F1080F04BFDA
:102D6000AD00EDB205F00C030C2B00F0CC8005F0AB
:102D70000302032A00F0C780A10709D405F0030568
:102D8000012D08BF44F01004042B08BF44F00804D0
:102D9000BB690021DC723846FFF7A4FD10B9384644
:102DA000FFF710FFBB69DB7A002840F0AF805A07BD
:102DB00000F1C5807A69D37ADB0640F1AE803968CC
:102DC000538B0978032904BF928A43EA0243BB600C
:102DD00098F8003044462F2B08F10108F8D05C2BFE
:102DE000F6D0D7F81CB004F1FF39ABF1020500268C
:102DF00019F8010F06F101081F281AD92F2818D039
:102E00005C2816D0B8F1810F00F09380012101F009
:102E100047F8002800F08D807F2806D8494911F82E
:102E2000012F12B19042FAD183E025F8020F4646F5
:102E3000DEE72028A0440BEB460234BF0424002424
:102E4000002E76D032F8021D202901D02E2901D182
:102E5000013EF5E7002520212BF816500B22B8691A
:102E6000FFF7C3FA0BEB4609294655E7202803D0A4
:102E70002E2805D1B24208D044F00304114660E781
:102E8000CA4504D2B24218D155E0CA4553D3B9F16C
:102E90000B0F04D144F003044FF00B0957E7B24283
:102EA00003D044F003043FF652AFAD00EDB232461A
:102EB0004FF00B094FF0080AE0E77F280CD90021FA
:102EC000019200F0EDFF019A18B11F4B184410F861
:102ED000800C44F0020428B11C4B13F8011F29B1E7
:102EE0008842FAD144F003045F2006E0A0F14101DA
:102EF00089B2192913D845F00205B96901F80A0009
:102F00000AF1010ABAE744F0020435E7042816D1B1
:102F100013F0040F08BF052011E005200FE0A0F119
:102F2000610189B219299EBF203845F0010580B2A0
:102F3000E3E7062003E0B9F10B0FB6D1AAE703B02F
:102F4000BDE8F08FF3ED010038EE0100FCED01006B
:102F50002DE9F047846986B00C22C66905462146F2
:102F60000DEB0200FFF725FA9DF81730DB0762D55D
:102F70000023E3720127EB610B2203A92046FFF730
:102F800018FA052F01D83B4615E03B46B01E30F835
:102F9000022F82B1102102F0010E0EEB430313F455
:102FA000803F1CBF83F4883383F0210301394FEA4B
:102FB0005202F0D1EBE7072203F00F0000F13001DD
:102FC000392988BF00F13701013A01A810441B09D3
:102FD0004170F1D106A97E20114401F8140C9A42E7
:102FE00004D0E15C202901D00133F8E72344072A0B
:102FF0009DBF06A9891811F8141C202103F8011B94
:10300000A3EB040198BF01320729F0D9002128461B
:10301000FFF768FC40B92846FFF7D4FD20B9013717
:10302000642FA9D107209FE0042840F09D809DF8DF
:103030001730E372EE619DF817309B070AD5002424
:1030400036F814300BB10134FAE719340D23B4FB10
:10305000F3F400E0012400212846FFF743FC002898
:103060007FD1064629692868FFF756FA002878D1EB
:103070006B691B78E52B00D02BB90136B44203D124
:10308000013C53D007E0064601212846FFF722FD08
:103090000028E7D065E0E9882846091BFFF722FCF5
:1030A000002861D1A869FFF7A7F90646DFF8C080BC
:1030B0000F2729692868FFF72FFA0346002853D104
:1030C0006A695FFA84FED5F81CC00EF1FF311073F7
:1030D00050830D2041434FF6FF7918465673D7723F
:1030E000484518BF3CF8110013F808A003F101038C
:1030F00018BF013122F80A00002808BF48460D2BEE
:10310000EED14FF6FF73984202D03CF811300BB964
:103110004EF0400E82F800E02B6801221A71002167
:103120002846FFF7D7FCF8B9013CC2D129692868C5
:10313000FFF7F2F9044690B9202221466869FFF7AB
:1031400054F90B22A9696869FFF733F9AB696A6919
:10315000DB7A03F0180313732B6801221A712046DF
:1031600002E0042808BF072006B0BDE8F08700BFD2
:10317000B8EE0100012970B504460D4601D80220C1
:1031800070BD83699942FAD2A3699D4205D229464E
:103190002046FFF754FB064608B9002070BD012801
:1031A000EDD0411C10D0002229462046FFF7D9FB64
:1031B00058B963695A1C05D001336361637943F0E0
:1031C000010363713546DFE7012070BDF0B585B0BE
:1031D000019004A840F8041D00911646FFF71BF962
:1031E000041E2ADB174B53F824501F463DB1E868F4
:1031F00000F032FE08B9022022E000232B70019972
:1032000021B9019847F8240048B919E0002301F8D2
:103210000C3BE0B200F016FE0028ECD0F1E7012EE6
:103220000DD10022694601A8FFF7B6F90446014610
:103230000198FFF7ECFA204602E00B2000E00020A6
:1032400005B0F0BD60C307202DE9F043D1B0019176
:1032500090460546002800F085800023036002F0B8
:103260001E0201A906A8FFF797F90646002873D1A8
:1032700003AB0C9301990FAB06A80D93FFF734FD38
:103280000B9C10B9002C08BF062018F01C0F08F08A
:103290001F073CD050B1042802D106A8FFF758FE02
:1032A00047F00807002864D10B9C06E0E37A13F08E
:1032B000110F5DD118F0040F56D1380735D5FFF73F
:1032C0004FF80023C4F80E000698E372E361027819
:1032D000B4F81A80032A08BFA28A6383A38208BFB6
:1032E00048EA024801230371B8F1000F1BD04146A0
:1032F000D0F83090FFF73EFF00283AD1069808F149
:10330000FF3303614946FFF707F950B131E0002868
:103310002FD1E37AD90629D418F0020F01D0DA07A9
:1033200026D43B0701D547F02007069B1A6BAF71E7
:10333000EA610022EA712C621978628B032904BFCA
:10334000A18A42EA01422A61E2692B60DB88EA60D5
:103350000022AA60AA61AB8006983146FFF757FAAF
:10336000304608E0092006E0082002E0042000E0E2
:1033700007200646F0E751B0BDE8F0832DE9F74F8E
:103380009A460023CAF80030054688461446FFF7DF
:1033900021FA064628B101462868FFF738FA304678
:1033A000A1E0E97921B12868FFF731FAE8799AE0DC
:1033B000AB79D80705D428680721FFF728FA07203A
:1033C00091E0EB68A86805F1240B181A844228BF25
:1033D0000446002C00F08280AA68C2F30803002B88
:1033E00063D128688378013B03EA522313F0FF037B
:1033F0000ED10AB9286904E069690193FFF71FFA41
:10340000019B012801D802244CE0411C49D068618D
:10341000D5F80090696948460193FFF705FA019BCA
:1034200020B90224EC712146484659E0660A00EBB7
:1034300003071DD099F802209919914288BFD61A26
:10344000F3B23A46414699F8010001F070FB40BBE7
:10345000AB795A060AD5A869C01B864206D94FF433
:103460000072594608EB4020FEF7A3FF76022AE0DF
:10347000AA69974218D0AB795B060AD50123594651
:1034800099F8010001F06FFB58B9AB7923F04003C4
:10349000AB71286801233A465946407801F047FB52
:1034A00010B10124EC7119E0AF61A9684046C1F385
:1034B0000801C1F50076A64228BF264629443246B7
:1034C0002431FEF776FFAB68B0443344AB60DAF8E2
:1034D0000030A41B3344CAF800307AE7214628683C
:1034E000FFF795F9204603B0BDE8F08F2DE9F74FBF
:1034F0009B460023CBF80030044689469046FFF7F0
:1035000069F90546002867D1E17921B12068FFF704
:103510007EF9E079B8E0A379990705D420680721FE
:10352000FFF775F90720AFE0A36813EB080F49D246
:1035300004F1240301932EE05FEA582500EB06070F
:1035400074D09AF8023072199A4288BF9D1BEBB270
:103550003A4649469AF8010001F005FB002874D16B
:10356000A169C91B8D420AD94FF4007209EB4121B0
:103570000198FEF71EFFA37923F04003A3716D02AB
:10358000A368A9442B44A360DBF80030C5EB08080E
:103590002B44CBF80030B8F1000F13D0A368C3F36D
:1035A0000802002A54D120688678013E06EA532694
:1035B00016F0FF061ED1ABB9216949B9FFF739FAF8
:1035C000014628B9A368E268934254D9E36052E007
:1035D000012909D10225E57129462068FFF717F96D
:1035E000284651E06169E9E74A1C2ED023696161F0
:1035F00003B92161A3795B060BD520680123A26979
:103600000199407801F0AFFAF8B9A37923F04003AB
:10361000A371D4F800A061695046FFF705F90028AE
:103620008AD10225E57129465046D7E7A3699F4212
:103630000DD0A268E3689A4209D201233A46019963
:103640009AF8010001F073FA08B10125C3E7A761F8
:10365000A0684946C0F30800C0F50075454528BF7D
:10366000454620442A462430FEF7A3FEA37943F0C2
:103670004003A37184E7A379206843F02003A3717A
:103680000021FFF7C4F8002003B0BDE8F08F70B54B
:103690000446FFF79FF80546002838D1A3799A061B
:1036A00035D55B0612D520680123A26904F12401F7
:1036B000407801F058FA28B120680121FFF7A7F8F7
:1036C000012070BDA37923F04003A371E169206854
:1036D000FEF722FF0546D0B9266AF37A43F02003AD
:1036E000F372E368F361236973831B0CB382FEF703
:1036F00037FE7582C6F81600A379012223F0200355
:10370000A37123681A712068FEF7CCFE0546206875
:103710002946FFF77CF8284670BD38B50546FFF707
:10372000B6FF044648B92846FFF754F8044620B9C6
:10373000286821462C60FFF76AF8204638BD70B52E
:1037400004460E46FFF746F8054670BBE17921B105
:103750002068FFF75CF8E07970BDE368B34204D2FB
:10376000A27912F0020F08BF1E460022A368A260D1
:10377000002E7AD0206885786D026BB1013B721EF5
:10378000B2FBF5F2B3FBF5F18A4205D36A4213406E
:10379000A360F61A616912E0216979B9FFF749F966
:1037A0000128014607D10225E57129462068FFF767
:1037B0002EF8284670BD013054D021616161B1B945
:1037C00000262FE0A37920689A0713D5FFF731F977
:1037D000014698B14B1C45D00129E4D923689B6967
:1037E0009942E0D2A36861612B44A360761BAE428C
:1037F000E8D804E0FFF723F80146EBE72E46A3687C
:103800003344A360C6F30803002BD9D022681046C6
:10381000FFF70AF820B90225E57129461046C6E7E8
:1038200000EB5626A368C3F30803F3B1A2699642DE
:103830001BD0A37904F1240513F0400F0AD02068AF
:1038400001232946407801F08EF958B9A37923F075
:103850004003A3712068012332462946407801F0D5
:1038600066F908B101259FE7A661A368E2682068B0
:10387000934284BFE360A3794FF0000184BF43F01B
:103880002003A371FEF7C3FF002070BD2DE9F347AD
:10389000144602AB43F8040D884620460022194620
:1038A000FEF77AFE2468054600284CD1A7696369B3
:1038B000BA1E934202D8C8F8003044E094F8009051
:1038C000B9F1010F10D10646022739462046FEF70E
:1038D000B6FF431C2BD001282BD000B90136A369B9
:1038E00001379F42F1D327E0034602460646616A4C
:1038F00052B9204601F1010AFEF70EFED8B9514631
:1039000004F134034FF40072B9F1020F05D11888A5
:1039100000B901360233023A06E0186820F0704020
:1039200000B901360433043A013FE1D104E0012536
:1039300002E0022500E005466379666143F0010379
:103940006371C8F8006020462946FEF760FF2846EC
:1039500002B0BDE8F087FFFF2DE9F04F89B008AB5A
:1039600043F80C0D18460E461546FEF754FD002888
:10397000C0F20882012E00F207826B1E2B4040F03D
:103980000382BF4A52F82040002C00F0FF81C7B2EA
:103990002370384601F0B0F8C20700F1F9814307FF
:1039A00000F1F88107AA0121384601F0F8F808B1C2
:1039B000012040E207997F29FAD9002E14BF4FF069
:1039C000000A4FF03F0ACAEB010107916DB94FF4AD
:1039D000FA63B1FBF3F3AB4830F81520934201D200
:1039E0000135F9E7A84B33F815506D0A03D0812D46
:1039F00028BF802500E00125B1FBF5F340F6F57204
:103A0000934240F203824FF6F572934240F20E82E7
:103A10009B0003F207235B0A019300234FF0030886
:103A200003934FF0200B0BEB0A030293039A019BC5
:103A300003EB0209029B9944CAEB05034B449942EC
:103A400001D20E20F7E106AA0321384601F0A7F8BB
:103A500020B9069B013BB3F5004F01D30123069328
:103A6000069AB8F1030F02F1FF334B44C2F1000292
:103A700003EA0203C9EB0303069304D1029A9B44B1
:103A80001A44029202E0019A1A440192079A01999B
:103A9000CBEB02035B1A0399B8F1020FA3EB01030E
:103AA000B3FBF5F3049305D140F6F57304999942FD
:103AB000C7D916E0B8F1030F05D14FF6F573049A94
:103AC0009A42BED982E1B8F1010F0AD1B2F5803F26
:103AD00034BF4FF001094FF00609002E40F05C8121
:103AE00007E0B2F5803F34BF4FF004094FF00609FC
:103AF000BEBB04F134064FF4007200213046FEF7DD
:103B000074FC43F6C160DDF81CE0FE2184F8F71177
:103B10000AEB0E01B1FBF0F18808069184F8F91167
:103B20003F21C4F8FA114AF65521012340F03F0025
:103B3000002284F8F801A4F8321284F8F33184F8F2
:103B4000F43184F8F52184F8F691C4F8FEE13146A9
:103B5000384601F008F800287FF42AAF4FF0F80942
:103B600001E04FF0F00904F134064FF40072002137
:103B70003046FEF73AFC0B2244493046FEF719FC6A
:103B80004FF40073B8F1030FA4F83F304FF0010376
:103B900084F8443084F84150A4F842B00CBF0023AC
:103BA0004FF40073A4F84530079B84F84990B3F5AF
:103BB000803F34BFA4F8473063653F23A4F84C30FE
:103BC000FF23A4F84E30C4F850A0FEF7C9FBB8F1AB
:103BD000030F069016D1019BC4F87700A36502235A
:103BE00023660123A4F864300623A4F866308023FA
:103BF00084F87430292384F876301322244904F1A0
:103C00007B000FE0BDF804302249A4F84A3080233D
:103C100084F858302923C4F85B0084F85A30132202
:103C200004F15F00FEF7C5FB4AF655235246A4F89F
:103C3000323231460123384600F095FF00287FF4E8
:103C4000B7AEB8F1030F06D101230AF106023146DF
:103C5000384600F088FF4FF4007200213046FEF72E
:103C6000C4FBB8F1030F19D00B4BB8F1010F18BF0B
:103C70006FF0FF0343EA09030693636318E000BF94
:103C800060C30720C6EE0100DEED010004EE010076
:103C900010EE010024EE010000FFFF0069F0FF03B9
:103CA000069363634FF0FF33A3636FF07043E363E6
:103CB000029B314603F10109029A0123384600F0C4
:103CC00052FF014600287FF473AE4FF40072304675
:103CD000FEF78BFB01230693069B019A9A420FD9AC
:103CE00001234A463146384609F1010B00F03BFFFB
:103CF00000287FF45DAE069BD94601330693EBE7BF
:103D0000039B4A46B8F1030F18BF1D464D440123DB
:103D10003146384602F1010B00F025FF00287FF400
:103D200047AEAB455A46F2D1B8F1030F21D1434B10
:103D30003146636303F1FF5303F500532033C4F8A6
:103D40001832049B3846013BC4F81C320223C4F8E5
:103D500020324AF65523A4F8323201230AEB03023B
:103D600000F001FF01230AF107023146384600F056
:103D7000FAFE00221146384600F011FF003018BF4D
:103D8000012058E00B2056E0132054E00C2052E0B4
:103D9000032050E00A204EE004F134064FF4007294
:103DA00000213046FEF721FB0B2225493046FEF765
:103DB00000FB4FF40073A4F83F3084F84150A4F89E
:103DC00042B084F844804FF0F009EBE6DEB104F134
:103DD00034064FF4007200213046FEF706FB0B223A
:103DE00017493046FEF7E5FA4FF40073A4F83F3068
:103DF000012384F8443084F84150A4F842B04FF0D5
:103E0000F0090023CEE64FF00C0972E603EB430302
:103E100001335B0803334FF0010803F2FF135B0A21
:103E20000193202303934FF0010BFCE502335B0069
:103E30004FF00208F1E709B0BDE8F08F525261413E
:103E400004EE010010B501200C4602F013F92060C9
:103E5000003018BF012010BD0120704710B5044686
:103E600001F088FE02280AD1002319464FF0FF32E4
:103E7000204602F081F9431E5842584110BD0120EE
:103E800010BD10B5044601F075FE022807D10023CD
:103E90002046BDE810401A46194602F067B810BD2A
:103EA0007F2810B516D931B1FF2812D80A4B8038B7
:103EB00033F8100010BD084A32F811408BB284422A
:103EC00003D001318029F7D10B4603F18000C0B245
:103ED00010BD002010BD00BFDCEE0100064900232C
:103EE00031F8132032B1824201D00133F8E7034A9E
:103EF00032F81300704700BFDCEF0100BCF1010095
:103F0000054B1B78253BDBB2032B9ABF034A52F8C3
:103F100023000020704700BF6AC30720A4F30100FC
:103F20001B4B2DE9F0411D880646B5F5007F0F4675
:103F3000144602D12A46214613E0B5F5807F09D107
:103F40002A4621463846B0472A4604F5807107F5CF
:103F5000807016E0B5F5047F05D1510A89024FF44F
:103F6000007238460DE0B5F5847F0ED1140A610267
:103F70004FF480723846B047611C4FF4807249029A
:103F8000B8183346BDE8F0411847BDE8F08100BFDE
:103F900068C3072030B52F4C03462546002958DD5D
:103FA00007291A782DDDA2605A780839A2609A781C
:103FB000A260DA78A2601A79A2605A79A2609A792E
:103FC000A26003F10802DB79A360A3695B07FCD55B
:103FD000AB680370AB684370AB688370AB68C37049
:103FE000E368DB06FCD4AB68083000F8043CAB683F
:103FF00000F8033CAB6800F8023CAB6800F8013CF9
:104000001AE003291ADDA2605A780439A2609A786E
:10401000A2601A1DDB78A360E368DB06FCD4AB6802
:10402000043000F8043CAB6800F8033CAB6800F8CF
:10403000023CAB6800F8013C1346AFE70133A260D5
:104040000139E268D206FCD4AA68013000F8012CDC
:10405000A4E730BD0000034007B50B0C8DF8053018
:104060008DF807100B0A04218DF804000DEB0100F8
:104070008DF80630FFF78EFF03B05DF804FBFFFFFD
:10408000F7B5174606460E4C40250323E5618DF82B
:1040900004300B0C8DF805308DF807100B0A042145
:1040A0000DEB01008DF80630FFF774FF0022394652
:1040B0003046FCF7C5FDA561A561A56103B0F0BD63
:1040C00000C009200E4B4022DA610E4BD7229A60C5
:1040D0001A46D1680B4BC906FBD49A681A46FF21D1
:1040E0009960D068C006FCD4906810F0800FF7D0BB
:1040F000034B40229A61C0B29A619A61704700BF37
:1041000000C0092000000340F7B5FFF7DBFF1F4C9C
:10411000002323801E4B1F4E40271A889B78F7618F
:104120000321054601A8ADF804208DF80630FFF7FD
:1041300031FF9DF805209DF806301F2AB761214602
:10414000B761B7611CD1A3F12502032A18D8124A1E
:10415000252B137005F0010006D1002814BF4FF481
:1041600080734FF4847305E0002814BF4FF400738C
:104170004FF404730B80FFF7C3FE084B400A18602E
:104180000888B0FA80F0400903B0F0BD68C307208A
:104190009CF3010000C009206AC307206CC30720FC
:1041A000F8B58B1817460D4A013B12680446934236
:1041B00010D84D02FFF786FF00262D1BBE4204EBF0
:1041C000050209DA21460648FFF7AAFE04F5007445
:1041D0000136F3E70120F8BD0020F8BD6CC30720CD
:1041E00081400100F8B58B1817460C4A013B126854
:1041F00093420FD804460026C0EB4125BE4204EB93
:10420000050209DA21460648FFF78AFE04F5007424
:104210000136F3E70120F8BD0020F8BD6CC307208C
:104220000543010008B5072805D8DFE800F00609B6
:104230000E1214141414042008BDFFF743FF0AE003
:10424000FFF75EFE400A086005E04FF400730B8044
:1042500001E001230B60002008BDFFFF70B590B0A6
:1042600003466A466E4600F14005144618685968D0
:10427000083303C4AB422246F7D1084D4024EC6119
:1042800000219B20FFF7E8FE21463046FFF782FE23
:10429000AC61AC61AC6110B070BD00BF00C0092062
:1042A00070B50646074D402400217720EC61FFF7EA
:1042B000D3FE21463046FFF76DFEAC61AC61AC61C8
:1042C00070BD00BF00C0092008B5064B198831F049
:1042D0001F0104D0FFF714FEB0FBF1F008BD084643
:1042E00008BD00BF68C30720014B1888704700BF96
:1042F00068C30720024B1878003018BF01207047B0
:1043000068C307202DE9F7434FF0FF330F4691466E
:1043100001938046FFF7D6FEFFF7ECFF0646B8B1E3
:10432000194C4025194BE5611B880320B3F5847FA8
:104330000CBF4FF480714FF400713943FFF78CFECE
:1043400004210DEB0100FFF725FEA561A561A56124
:104350000D4C402339468220E361FFF77DFE0122A8
:1043600049464046FCF76CFC3EB1019B02A8013374
:1043700040F8043D0421FFF70DFE4023A361A36133
:10438000A36103B0BDE8F08300C0092068C3072023
:1043900037B5084B084C1868402504210190E561A9
:1043A0000DEB0100FFF7F6FDA561A561A56103B066
:1043B00030BD00BF9FF3010000C0092008B502F026
:1043C00043FA4FF47A72002303F07EFF08BDFFFF2B
:1043D00010B5044602F09AF8074BB0FBF3F0022345
:1043E000B0FBF3F2944202D3044A136110BDB3F55B
:1043F000807FF9D00233F3E740420F000000034012
:10440000044B9860DA68D206FCD4024B9868C0B2BC
:10441000704700BF0000034070B5FFF7CFFF00F505
:10442000FA74FF20FFF7ECFF0025FF20FFF7E8FFFD
:10443000FF28064605D0FFF7C1FFA94208BFA042EA
:10444000F3D3304670BDFFFF38B5064C4FF0007512
:10445000E561FFF7E1FF044AA561137843F001032A
:10446000137038BD20C0092046C007202DE97043D5
:1044700006460D46FFF7A2FF643080464FF0000964
:10448000FF20FFF7BDFFFF2808D1FFF797FF494541
:1044900008BF4045F4D30020BDE87083FE28FAD160
:1044A000102D06D900224FF400713046FCF7C8FBEE
:1044B00019E0341D0435FF20FFF7A2FF04F8040CB7
:1044C000FF20FFF79DFF04F8030CFF20FFF798FF84
:1044D00004F8020CFF20FFF793FF043404F8050CE6
:1044E0002B1BDE42E7D1FF20FFF78AFFFF20FFF7FB
:1044F00087FF0120BDE8708370B506460D46FFF7C3
:104500008BFFFF28044619D12846FFF779FFFD2DC0
:1045100016D022464FF400713046FCF791FB20463E
:10452000FFF76EFF2046FFF76BFF2046FFF768FF9F
:1045300000F01F00431F5842584170BD002070BD5D
:10454000012070BD020638B504460D4607D500218E
:104550007720FFF7F7FF012838D804F07F041C4BC1
:104560004FF000729A61DA61FFF756FFFF280146AB
:1045700028D12046FFF744FF280EFFF741FFC5F37F
:104580000740FFF73DFFC5F30720FFF739FFE8B20B
:10459000FFF736FF402C17D0482C14BF012087208E
:1045A000FFF72EFF4C2C02D10846FFF729FF0A2106
:1045B000FF20FFF725FF030608D5013911F0FF01A1
:1045C000F6D138BDFF2038BD9520EEE738BD00BFDD
:1045D00020C00920064A074913784969DBB249011E
:1045E00054BF03F0FD0343F003031370704700BF93
:1045F00046C0072020C009202DE9F743FFF7EAFF56
:10460000564B1A781E4612F0020F01D01878A1E01E
:104610000120FFF7DDFE0A24FF20013CFFF7F0FE3A
:1046200014F0FF04F8D14E4F4FF00073FB612146A8
:104630004020FFF787FF012802D04FF0000875E007
:10464000FFF7BCFE4FF4D57100F57A754820FFF7EF
:1046500079FF012841D10DF10408FF20FFF7D0FEBA
:1046600008F804000134042CF7D19DF80630012B22
:10467000E3D19DF80730AA2BDFD12C460025FFF7A8
:104680009DFEA94208BFA04206D3FFF797FEA942AC
:1046900008BFA042D1D207E04FF08041E920FFF7E8
:1046A00051FF0028EBD1F0E700217A20FFF74AFF05
:1046B0000028C2D10146FF20FFF7A2FE08F8010042
:1046C00001310429F7D19DF8043013F0400F14BFD5
:1046D0004FF00C084FF0040828E02146E920FFF7CE
:1046E00031FF02282C4635BF4FF002084FF0010879
:1046F0004FF0E9094FF041090025FFF75FFEA9429D
:1047000008BFA0420BD3FFF759FEA94208BFA04241
:104710000CD34FF400715020FFF714FF06E0002186
:104720004846FFF70FFF0028E7D1ECE70D4B83F871
:1047300000804FF00073BB61B8F1000F07D03378F1
:10474000182003F0FE033370FFF742FE01E0FFF78D
:104750007BFE3078C0B203B0BDE8F08346C00720CE
:1047600020C0092070C3072008B5FFF733FF014BB5
:10477000187808BD46C0072070B51446064608469E
:10478000FFF728FF002C39D01E4B1B78DB0737D4EE
:104790001D4B4FF00072DA611C4A1D46127812F070
:1047A000080F08BF4002012C01460CD15120FFF731
:1047B000C9FEE0B94FF400713046FFF757FEB0FA7A
:1047C00080F4640913E05220FFF7BCFE78B94FF47F
:1047D00000713046FFF74AFE28B1013C14F0FF0497
:1047E00006F50076F3D100214C20FFF7ABFE4FF029
:1047F0000073201CAB6118BF012070BD042070BD88
:10480000032070BD46C0072020C0092070C30720C8
:10481000F8B5144606460F46FFF7DCFE002C44D0E0
:10482000254B1A78D20742D41B785B0741D4234B1F
:104830004FF00072DA61224A1D46127812F0080F1A
:1048400008BF7F02012C0CD139465820FFF77AFEB1
:1048500018BBFE213046FFF74FFEB0FA80F4640922
:104860001CE012F0060F03D02146D720FFF76AFEA6
:1048700039465920FFF766FE80B9FC213046FFF724
:104880003BFE28B1013C14F0FF0406F50076F4D19C
:10489000FD210020FFF730FE00B901244FF0007326
:1048A000201CAB6118BF0120F8BD0420F8BD032017
:1048B000F8BD0220F8BD00BF46C0072020C0092077
:1048C00070C307207FB50D46FFF784FE05281AD177
:1048D0002B78012B00F0048103D3022B0BD0042092
:1048E00001E1824B586910F0806440F0F980FFF7D5
:1048F000ABFD2046F7E07D4B5B6983F08063C3F33B
:1049000080636B70ECE07A4B1B78DB0700F1EA8088
:104910000E2800F2DF80DFE800F008124F53DDDDE3
:10492000DDDDDDDDAAAFB2BBCB00704B4FF0007216
:10493000DA61FFF771FDFF3818BF0120CBE00021DD
:104940004920FFF7FFFD044608B10120C3E0102114
:104950006846FFF78BFD0028F7D09DF800309DF8E2
:1049600008109B09012B9DF8093006D1013303EB98
:10497000012189B2890229606BE09DF807209DF82A
:104980000500920002EB91119DF806200131920280
:1049900002F4406211449DF80A2000F00F0000EB81
:1049A000D2105A00023002F006028318DBB289B23C
:1049B000093B01FA03F34BE04FF400732B8059E0FD
:1049C0004C4E337803F0040303F0FF01F3B10021F0
:1049D000CD20FFF7B7FD0028B7D1FF20FFF710FD6E
:1049E00010216846FFF742FD0028AED03021FF209D
:1049F000FFF706FD481E10F0FF01F8D19DF80A30C0
:104A000008461A09102393402B6064E04920FFF701
:104A100099FD0446002898D110216846FFF726FD2D
:104A2000002892D036789DF80A2006F0020606F09B
:104A3000FF009DF80B3076B1520002F07E0202EBCF
:104A4000D3135A1C9DF80D309B09013B02FA03F366
:104A50002B6020463FE0D90001F01801C2F3840228
:104A600001EB5311531C01FB03332B6033E0214B4B
:104A70001B782B7000202EE00021492001E000214E
:104A80004A20FFF75FFD00287FF45FAF10211AE096
:104A900000217A20FFF756FD00287FF456AF291D2C
:104AA000FF20FFF7ADFC05F8010B8D42F8D1E1E7DF
:104AB0000021CD20FFF746FD00287FF446AFFF2000
:104AC000FFF79EFC40212846FFF7D0FCB0FA80F0AB
:104AD000400900E00420054B4FF000729A6102E0AB
:104AE000002000E0032004B070BD00BF20C00920FA
:104AF00046C0072070C3072010B50446FCF76CFAC7
:104B000024B1012C06D1FFF777FD01E0FFF7FCFA95
:104B1000044600E00424FCF777FA204610BD28B1D3
:104B2000012801D004207047FFF71EBE7047F8B57A
:104B300007460C4615461E46FCF74EFA3FB1012FBC
:104B40000CD1324629462046FFF716FE04E03246D5
:104B500029462046FFF724FB044600E00424FCF726
:104B600053FA2046F8BDF8B507460C4615461E46D2
:104B7000FCF732FA3FB1012F0CD1324629462046CC
:104B8000FFF746FE04E0324629462046FFF72AFB9F
:104B9000044600E00424FCF737FA2046F8BD70B55F
:104BA00006460C461546FCF717FA36B1012E0AD117
:104BB00029462046FFF786FE03E029462046FFF7F8
:104BC00031FB044600E00424FCF71EFA204670BDC9
:104BD000F0B5ADF50B7D0E46174601461D46012288
:104BE000002301A80093FEF72FFB044670B91DB106
:104BF000294601A8FEF7A3FD6B463A46314601A8B7
:104C0000FEF7BCFB044601A8FEF787FD20460DF524
:104C10000B7DF0BD13460A4601790068FBF78FBC97
:104C20001FB5002204AB047923F8042D0222009260
:104C300000680A462146FBF76DFC9DF80C009DF8C4
:104C40000D3043EA002004B010BD10B5044619220F
:104C50002A21FFF7DFFF0D2221792068FBF75EFC98
:104C6000A0F12A035842584110BDFFFF044A13889F
:104C70001F2B9FBF581C1080024A42F82310704718
:104C800078C307207CC30720154AF0B51388164661
:104C9000012B21D9134A00201546013B984206DA20
:104CA000516814680130091B42F8041BF6E7002123
:104CB0000C466A684FF0010E02EB52008AB2934232
:104CC00008DD55F822700131B8423CBF0EFA02F2FD
:104CD0001443F3E7044B1C6000233380F0BD00BF96
:104CE00078C307207CC3072074C3072008B50121BF
:104CF000022001F09BFE084B01209A6A22F0070275
:104D00009A629A6A42F006029A62044AD36843F0B1
:104D10003003D36008BD00BF0080004000C00240E7
:104D200008B5044B417101F07F015A5C0321FFF784
:104D300071FF08BDB4F3010008B5044B817101F0A7
:104D40007F015A5C0221FFF765FF08BDB4F3010043
:104D500038B5044601790068FBF7FCFB054688B1CD
:104D6000002206212046FFF755FF0022072120469A
:104D7000FFF750FF2E212046FFF7D2FF2E212046BD
:104D8000FFF7DAFF284638BD642370B5B1FBF3F4B2
:104D900004FB1311CCB20A21B4FBF1F501FB154160
:104DA0003031C9B20646FFF7C7FF092C88BF05F1AD
:104DB00030013046BDE8704094BF2021C9B2FFF7F2
:104DC000AFBF01207047FFFF38B50D46044600F025
:104DD00009FB05F00F032370114B15F0010F4FF085
:104DE000010214BFDA619A61227812F0020F4FF0CB
:104DF000020214BFDA619A61227812F0040F4FF0B8
:104E0000100214BFDA619A61227812F0080F4FF491
:104E1000807214BFDA619A61BDE8384000F0F2BADE
:104E200020C0092038B50D46044600F0DBFA691EA3
:104E3000012303FA01F1237820461943C9B22170F6
:104E4000FFF7C2FFBDE8384000F0DCBA38B50D46C8
:104E5000044600F0C7FA691E012303FA01F1237822
:104E6000204623EA01012170FFF7AEFFBDE838407C
:104E700000F0C8BA0AB1FFF7D5BFFFF7E7BF0120BE
:104E800070470220FCF738B801207047044B5B697B
:104E9000180B00F00C00C3F341231843704700BF08
:104EA00020C0092010B5044681220121FFF7B2FE7F
:104EB000012221792068FBF731FB10F0600F14BF4D
:104EC0000120002010BD38B500210446FFF7A8FEE0
:104ED000812205B201212046FFF79CFE102095FBA0
:104EE000F0F003F02DF84FF0765103F07DF8A16853
:104EF00002F072FF38BDFFFF08B5FFF7E4FF054978
:104F000003F072F8044903F023F94FF0844102F0F2
:104F100063FF08BD000010410000A04070B50646C8
:104F200001F092FC841941F1000501F08DFCA942C9
:104F300008BFA042F9D370BD08B500F01BFE831E68
:104F40005842584108BD10B50446FFF7F5FF20B19F
:104F50002046BDE8104000F019BD4FF47A70604360
:104F6000BDE81040FFF7DABFF8B50D4616461F46FC
:104F700008B90120F8BD0029FBD00468002CF8D046
:104F8000069B3A4631462068A84708B16468F5E7B1
:104F9000F8BD13B500230C4602A941F8043D006892
:104FA00001F0B8F8019B1BB1236843F001032360B3
:104FB000012002B010BD30B5044685B001A80D46F1
:104FC000FBF774FC9DF80630227903F01F039A4228
:104FD0001BD19DF80530627903F03F039A4214D14A
:104FE0009DF80430A27903F03F039A420DD104A941
:104FF000002341F8103D2368186801F08BF8009BEE
:105000001BB12B6843F001032B60012005B030BDBC
:1050100030B5244A87B01378234C43F00103137052
:10502000002503A80295FBF741FC2B46009502AA38
:105030001E492068FFF798FF9DF80C3013F03F03DE
:105040001BD1009302AA19496068FFF78DFF9DF8F4
:105050000D3013F03F0310D1009302AA1349A0684A
:10506000FFF782FF9DF80E3013F01F0305D1009368
:1050700002AA0E49E068FFF777FF00230C4800936F
:1050800002AA0C490068FFF76FFF029B3BB10A4B75
:105090004FF080521A60BFF34F8FBFF36F8F07B08E
:1050A00030BD00BF00400240FCC30720934F010009
:1050B0000CC40720B74F010004ED00E010B5044612
:1050C00000F090F9013C14F8010F10B101F094FCCC
:1050D000F9E7BDE8104000F095B90FB470B5C2B063
:1050E00046AC54F8046B4FF480752A46002102A8A0
:1050F00003F0E5FB23463246294602A8019406F058
:10510000EBF9044602A8FFF7D9FF204642B0BDE8FC
:10511000704004B07047FFFFF0B50024ADF50D7D81
:105120000D460746029401F08FFB4FF47A7200237C
:1051300003F0CAF84FF409720646214603A803F0AB
:10514000BEFBDDB112221D4903A8FEF77DF804461F
:1051500080B9069903A8FEF7F2FA044630B902AB0B
:105160002A46394603A8FEF7C1F9044603A8FEF70C
:10517000D4FA04E0124804F02FFD00E02C4601F0C0
:1051800063FB4FF47A72002303F09EF80D4B801BF3
:105190001A889042029A88BF188095420CBF012657
:1051A000002606D0059B2146009307482B4604F0B5
:1051B00013FD30460DF50D7DF0BD00BF34F4010048
:1051C0003EF4010014C4072052F401002F4B2DE9D6
:1051D000F74F1D68DFF8BC902E46DFF8BCA005F540
:1051E000806802AF002347F8043D4EF6602239463E
:1051F000D9F8000000F0C0FF08B1019B2BB9711B6A
:105200002846FFF789FF2E46EBE7D9F8000001F0AA
:105210007FF8BAF80030019C0130984288BFAAF8A4
:105220000000204605F007F80A23235400F1010B83
:10523000019A002106EB0B0402F80B10A04501991E
:1052400016D8C6EB0802304603F013FBC8EB040483
:105250004FF480612846FFF75FFF3CB10199C4EB32
:105260000B0322461944284603F003FB2C4403E0B9
:105270005A46304603F0FDFA054800234FF0FF324E
:105280003946006800F072FE2646AAE718C40720D7
:105290001CC4072010C4072020C407202DE9FF41AB
:1052A0002D4D80462C68002C52D14FF48060039421
:1052B00003F0B2FA294E286040B92868002833D09C
:1052C00003F0B2FA244B00221A602DE0224604219A
:1052D0000A2000F031FE224F2246386004210A20C5
:1052E00000F02AFE3B683060002BE6D00028E4D0B6
:1052F0000A24962003F090FA03900028DDD00023C2
:105300001A4603A9306800F031FE013CF1D1019446
:10531000CDF8008023464FF4C0721249124800F0C5
:105320005BF90028C9D013E033681BB90F4804F0BB
:10533000C5FC0DE00A2400231A4603A9306800F0DA
:105340001BFF10B1039803F06FFA013CF3D1EDE7B6
:1053500004B0BDE8F08100BF18C407201CC40720BA
:1053600010C4072085F40100CD5101008CF4010028
:1053700008B501F069FA024B1B68C01A08BD00BFEE
:1053800028C407204FF0100383F31188BFF36F8FF9
:10539000BFF34F8FFEE7FFFF4FF0807340F8043CF0
:1053A000054B21F0010140F8081C40F80C3C40F886
:1053B000202C4038704700BF85530100FFFFFFFFDE
:1053C000074B19680868B0E8F00F80F30988BFF34D
:1053D0006F8F4FF0000080F311884EF00D0E704774
:1053E0002CC507204FF0100383F31188BFF36F8F94
:1053F000BFF34F8F024A136801331360704700BF39
:1054000030C40720034A1368013B13600BB983F3D0
:105410001188704730C40720FFFFFFFFFFFFFFFF29
:10542000EFF30980BFF36F8F0D4B1A6820E9F00F7F
:1054300010602DE908404FF0100080F3118800F053
:10544000BDFA4FF0000080F31188BDE808401968EC
:105450000868B0E8F00F80F30988BFF36F8F7047DA
:105460002CC5072008B54FF0100383F31188BFF354
:105470006F8FBFF34F8F00F08FF918B1034B4FF0D0
:1054800080521A60002383F3118808BD04ED00E008
:1054900010B5044600F072F9204603F0BDF9044649
:1054A00000F006FA0CB900F02BF8204610BD10B53C
:1054B000044640B100F062F9204603F0B5F9BDE8BA
:1054C000104000F0F5B910BD10B50C460948FFF7C3
:1054D000F5FD2046FFF7F2FD0748FFF7EFFD07480F
:1054E000FFF71CFD4FF08043AA221A7200221A70A7
:1054F00010BD00BFEEF4010017F50100C0C62D007D
:1055000008B50648FFF7DAFD0548FFF707FD4FF03D
:105510008043AA221A7200221A7008BD43F50100C6
:10552000C0C62D00064A13681968064B11B94FF022
:10553000FF3203E01268D268D26852681A6070477E
:105540003CC4072048C50720F8B51C4B1C4D1E68FD
:10555000044628680F46043000F0F8FB2B4640B99B
:105560002A68184DD16A286801228A4020EA02027E
:105570002A60621C07D137B1196813480431BDE8AD
:10558000F84000F0BFBB34441B68A6420C4A5C6084
:1055900007D90E4B18681168BDE8F840043100F0D7
:1055A000BDBB0B4B18681168043100F0B7FB094B09
:1055B0001A68944238BF1C60F8BD00BF44C507207C
:1055C0002CC507207CC5072068C5072058C40720C4
:1055D0003CC4072048C507202DE9F84F95008046B8
:1055E00028460F4699460B9EFFF752FF8246002839
:1055F00000F0A6805820FFF74BFF044688B1C0F8A2
:1056000030A02A465046A52103F059F9A5F1040A15
:10561000256B7B1EAA442AF0070A04F133020737E0
:1056200005E05046FFF743FF8AE09F4206D013F89B
:10563000011F02F8011F19780029F6D10A9D4FF0C9
:10564000000B092D28BF0925271DE5626564384632
:1056500084F83BB0C4F848B000F051FBC5F10A052E
:1056600004F1180000F04BFBC4F850B02461A561B0
:105670006462C4F84CB084F854B04A46414650467F
:10568000FFF78AFE206006B13460FFF7ABFE2E4BB9
:105690002E4E1A68DFF8DC8001321A603568FDB9D9
:1056A00034601B68012B24D108EB0500143500F091
:1056B0001BFBC82DF8D1DFF8C090254D484600F0FF
:1056C00013FB284600F010FB224800F00DFB224897
:1056D00000F00AFB214BC3F80090214B1D6008E04D
:1056E000204B1B682BB93368DA6AE36A9A4298BF89
:1056F00034601D4A1D491368012501331360E26AB5
:105700000B6805FA02F0034314200B6000FB0280D3
:10571000394600F0F7FAFFF775FE124B1B6863B1CC
:105720003368DA6AE36A9A4207D2114B4FF080522B
:105730001A60BFF34F8FBFF36F8F2846BDE8F88F15
:105740004FF0FF30BDE8F88F50C507202CC507206B
:1057500054C5072030C5072068C507203CC4072072
:1057600058C4072040C407204CC507207CC507202B
:1057700004ED00E060C4072044C40720024A136817
:1057800001331360704700BF28C50720014B18681C
:10579000704700BF44C507203A4B2DE9F74F1B68FF
:1057A000002B2FD1384B1C6801341C605CB9374A80
:1057B000374B116818681060364A19601368013356
:1057C0001360FFF7AFFE344D4FF0000B2B680195CF
:1057D0009C42324E324F0BD3DFF8B080DFF8CC90D2
:1057E000D8F800201268A2B9019B4FF0FF321A606E
:1057F0003A68D16A14224A43B258022A28BF4FF0AD
:10580000010B34E0274A4FF0000B1368013313609B
:105810002DE0D8F80020D268D56869688C4202D2A1
:10582000019B1960E4E705F1040A504600F08EFA86
:10583000A96A19B105F1180000F088FAE86AD9F8E8
:105840000010012303FA00FE4EEA01014FF0140E8E
:10585000C9F800100EFB0060514600F053FA38689A
:10586000E96AC26A914228BF4FF0010BB8E70E4ABD
:105870001268002A18BF4FF0010B584603B0BDE86C
:10588000F08F00BF28C5072044C507203CC407206F
:1058900058C4072038C4072048C5072060C4072023
:1058A0002CC507205CC4072080C507207CC50720C5
:1058B0002DE9F843FFF796FD2B4B1A68013A1A6061
:1058C0001C680CB1002449E0284B1B68002BF9D060
:1058D000DFF8B090264FDFF8B080D9F8003003B37E
:1058E000D9F80C300125DC68261D04F1180000F001
:1058F0002DFA304600F02AFAE26A3B6805FA02F116
:1059000014200B4300FB028031463B6000F0FAF9A3
:10591000184BE26A1B68DB6A9A4224BF164B1D6073
:10592000DBE70CB1FFF7FEFD144B1C681D4644B1CC
:10593000114E0127FFF730FF00B13760013CF9D16C
:105940002C600D4B1B68002BBCD00D4B4FF08052D0
:105950001A60BFF34F8FBFF36F8F0124FFF752FD23
:105960002046BDE8F88300BF28C5072050C50720A2
:105970007CC507202CC5072080C507205CC40720F4
:1059800004ED00E030C5072060C4072008B540B929
:10599000094B4FF080521A60BFF34F8FBFF36F8FE8
:1059A00008BDFFF7EBFE0021FFF7CEFDFFF780FFFC
:1059B0000028EDD008BD00BF04ED00E0264B70B517
:1059C0001A68264B12B101221A6070BD1A60FFF7E7
:1059D000CFFC234A234C1568A84204D92168CB6C1C
:1059E0005B1B0344CB64236810601B6B1A68B2F125
:1059F000A53F0BD15A68B2F1A53F07D19A68B2F121
:105A0000A53F03D1DB68B3F1A53F04D0206821682E
:105A10003431FFF759FD144B1B68B3FA83F3DBB243
:105A2000C3F11F03142000FB03F210498D186E68A8
:105A3000083276680A44964200FB031308BF726876
:105A40006E6008BF6A605B68DB68236023685A6B1E
:105A5000074B5A6470BD00BF28C5072080C50720CA
:105A600034C407202CC507207CC5072060C407204C
:105A70000040024010B50C46054B1968183100F083
:105A80004DF92046BDE810400121FFF75DBD00BF84
:105A90002CC50720C36870B5DC6804F118052846DA
:105AA00000F054F9114B1B6883B9261D304600F0F5
:105AB0004DF90F49E56A0A680123AB4013430B60B7
:105AC0000C4B1420314600FB053001E029460A4802
:105AD00000F018F9094BE26A1B68DB6A9A4283BF3F
