:020000021000EC
:10000000E03F082083010100FB000100E100010046
:10001000090101001901010029010100000000008F
:100020000000000000000000000000001FBE0100F2
:100030003901010000000000A1BE0100DDBE010089
:1000400049010100490101009F44010049010100EB
:10005000490101000DA7010049010100BDA70100F0
:100060004DA80100490101004901010049010100B9
:100070006D9D010049010100490101004901010094
:10008000490101009D87010049010100490101006A
:1000900049010100019C01004901010049010100E1
:1000A000490101001D9601004901010049010100BB
:1000B0004901010045C10100490101004901010058
:1000C000490101004901010049010100D80C030068
:1000D00000C007203009000030C9072018040000C4
:1000E00004207146084203D0EFF309800BF0E0BF13
:1000F000EFF308800BF0DCBF704708B5014800F053
:10010000A8F9FEE777FF020008B5024800F0A1F960
:10011000FEE700BF82FF020008B5024800F099F92F
:10012000FEE700BF8DFF020008B5024800F091F91C
:10013000FEE700BF98FF020008B5024800F089F909
:10014000FEE700BFA5FF020008B5024800F081F9F4
:10015000FEE700BFB5FF02000B4610B5401A5C1A5F
:10016000A24203D9C45843F8044BF8E710BD034634
:1001700010B500221C1AA14202D943F8042BF9E75A
:1001800010BD38B5134C144DAC4201D3134D07E0EC
:1001900094E803000C3454F8042CFFF7DDFFF3E778
:1001A000AC4206D254F8080B54F8041CFFF7DFFFEA
:1001B000F6E70FF083F90CF069F901F059F902F054
:1001C0001DFF4FF416400CF063FA054800F041F9AA
:1001D000FEE700BFCC000100D8000100E0000100F4
:1001E0003200030008B5024800F033F9FEE700BF13
:1001F0005B00030008B5024800F02BF9FEE700BFE2
:100200006600030008B5024800F023F9FEE700BFCE
:10021000750003000BF028BE0BF037BE0E4B10B577
:100220001A68014612B94FF080521A6018685C686B
:10023000421894421A6007D2084CA24204D8084AD5
:1002400005481144016010469A681B68934282BFBA
:10025000014B00201A6010BD30C90720FFBF0720E6
:1002600048CD07200FF09ABA0FF098BA0FF09EBA57
:100270000FF09CBA30B505468BB0684610F07EF999
:10028000079A154BB2F5803F2B60089B88BF02F19F
:100290007042124988BFA2F5E822AB6000236A6071
:1002A000EB604A680B680E4C9A4206D3D21AC4F12E
:1002B000005303F5042313440AE08A689A4208D9DC
:1002C000D21AC4F1005303F5F8231344002B00DDC8
:1002D000EB6028460BB030BD480D000030C9072048
:1002E00048CD072000207047FEE700BF024B034ABD
:1002F0005A60034A9A60704730C907200080001096
:100300000040082030B504468DB0A8B368460AF016
:100310002DF89DF80030002503F03F0303939DF86E
:10032000013003A803F03F0304939DF802300B95BE
:1003300003F01F0305939DF8043003F01F03069399
:100340009DF8053003F00F03013B0793BDF806301D
:10035000C3F30B03A3F26C7308939DF8033003F00F
:1003600007030993BDF80830C3F30B03013B0A935D
:100370000FF02EFF84E8210000200DB030BD1FB526
:10038000002842D00FF0D6F8002301930293039384
:1003900002689DF8043062F305038DF8043042686A
:1003A0009DF8053062F305038DF8053082689DF8ED
:1003B000063062F304038DF80630C2689DF80830F9
:1003C00062F304038DF8083002699DF8093062F386
:1003D00003038DF809304369BDF80A2003F26C73FA
:1003E00063F30B02ADF80A209DF80730826962F3CF
:1003F00002038DF80730C269BDF80C3001A862F322
:100400000B03ADF80C3009F0D9FF002005B05DF802
:1004100004FB0FB430B5A3B026AC54F8045B8022C3
:10042000002102A80FF082FD2246294602A801946D
:1004300015F076FD05460DF1070414F8010F10B113
:100440000CF06CF9F9E7284623B0BDE8304004B061
:10045000704710B5441E14F8010F10B10CF05EF98E
:10046000F9E710BD0FB4F7B508AE56F8047B38466F
:1004700010F02CFF20F00F0000F1200420460FF0B8
:100480008DF905460096102695B1009B3A46214607
:100490002846019315F01AFD844209DC90FBF6F41E
:1004A000013424012846214610F02AF90546EBE7DD
:1004B000284603B0BDE8F04004B07047014B186017
:1004C000704700BF3CC90720014B5860704700BF10
:1004D0003CC9072008B5024810F0E0F8FEE700BF6D
:1004E00098DD020008B5024810F0D8F8FEE700BF1A
:1004F000B2DD02000020704701207047F8B5084BBC
:1005000016461A680F461C4642B10D46EB1B9E422A
:1005100004DD236815F8010B9847F7E73046F8BD6E
:100520003CC90720F8B5094B0F46586816461C46CB
:1005300058B10D46EB1B9E4205DD636800209847CD
:1005400005F8010BF6E726EAE670F8BD3CC907207E
:10055000704700207047074B1B689A68824207D09B
:100560005A68824204D0DB681B1A584258417047CF
:100570000120704748C407200020704700207047C2
:1005800030B50C46054687B00A490AF018FAA1882A
:1005900023880491218962880391E1882846029189
:1005A000E17A0191A17A009103490AF008FA07B0B3
:1005B00030BD00BFDCDD020012DE02002DE9F0419B
:1005C000D8B00E4608F04AFC041E04DD0BF0E4FB34
:1005D00020460BF0C1F9204B06AF18681B79386034
:1005E00005AA0A21002508A83B7105950BF0D8F94A
:1005F000059B6422B3FBF2F380460593174A0A2356
:10060000174930460AF0DBF908AC454517D0059B81
:100610001BB1A269B2FBF3F200E01A46237BA16989
:10062000FB5C03910292A28B0E49019262693046F3
:10063000009262680AF0C3F901352034E5E70BF057
:1006400073F80A2804D90A22074930460AF0B7F994
:10065000012058B0BDE8F081CCDD020033DE02009D
:1006600038DE020065DE020082DE020010B50C46B4
:10067000A0B08022002168460FF058FC68460BF0BD
:100680006FFD20464FF0FF3269460AF063F9012002
:1006900020B010BD2DE9F04F4F4C99B0236889462A
:1006A00033B92820FFF7DEFD05460AF025F825605E
:1006B000D4F8008000F0F8FD12AF00240FAA3946EC
:1006C00000F23520129406F0EAFB48B90F9A129C0A
:1006D000D5699378023D5C435D4364086D0800E092
:1006E00025463E4E3368E3B90C20FFF7BBFD3C4B7B
:1006F00083461A689A4642B91C20FFF7B3FD0D9055
:1007000009F02AFB0D9BCAF80030DAF80030C6F871
:1007100000B0CBF8003090238BF804300023CBF8E6
:100720000830306804F039F806460DF06FFD824657
:100730000DF052FB014630460DF098FA29490DF0B4
:100740009FFB0DF063FD83460FA80BF095FE264E30
:100750001822002138460FF0E9FB384609F0C4FEA4
:1007600033681BB90120FFF77DFD3060306803F06E
:10077000C9FFB8F8123022460B93B8F810301B4965
:100780000A939DF83C30029003F03F0309939DF8D3
:100790003D30039703F03F0308939DF83E308DE80A
:1007A000000C03F01F030793BDF842304846C3F323
:1007B0000B0306939DF8403003F01F0305939DF84B
:1007C000413003F00F0304932B460AF0F8F80120A0
:1007D00019B0BDE8F08F00BF54C9072048C90720F1
:1007E00050C90720000020414CC90720ACDE0200A0
:1007F00030B50D4695B03F49044608F03BF9002856
:1008000047D010AB04930FAB03930EAB02930DAB29
:1008100001930CAB00930AAA0BAB3749204608F0B2
:1008200056F8072801D0002062E09DF849300A9A66
:1008300011A862F303038DF849300B9A9DF84830F4
:1008400062F304038DF848300C9ABDF84A3062F325
:100850000B03ADF84A300D9A9DF8463062F304035D
:100860008DF846300E9A9DF8453062F305038DF8F9
:1008700045300F9A9DF8443062F305038DF84430FB
:10088000109A9DF8473062F302038DF8473009F063
:1008900095FD06AC204609F069FD94E8070014AB0D
:1008A00003E907009DF847109DF8483001F0070163
:1008B00004919DF844109DF8492001F03F010391F7
:1008C0009DF8451003F01F0301F03F0102919DF8D0
:1008D000461002F00F0201F01F010191BDF84A100D
:1008E0002846C1F30B01009104490AF068F8012081
:1008F00015B030BD1FEE020022DF02003BDF020018
:1009000030B589B004AB002400930D4603AB02223E
:1009100018490394049407F0E8FF022827D107AB95
:10092000009305AA06AB04990398059406940794CE
:1009300003F061FF024638B1049B0F49009328463B
:10094000039B0AF03CF810E0059A069B002A0799E1
:1009500008BF0122002B08BF0123B1FBF3F3B1FB59
:10096000F2F2284605490AF02AF8012000E0204664
:1009700009B030BDF8FA020062DF020081DF020038
:100980002DE9F0410F46ADF5866D2F49054608F07B
:1009900048F92E498046284608F072F92B49284626
:1009A00008F08EF9284608F057FA0122014601A8FE
:1009B00005F038FE044640B1284608F04DFA2449B7
:1009C0000246384609F0FBFF39E00BAE014640F223
:1009D000014230460FF0AAFA009400F042FD0546AD
:1009E0006B464FF48062314601A805F015FF68B9E7
:1009F000009B5BB11C44F054B8F1000FF0D14FF0F4
:100A0000FF323146384609F092FFE9E701A806F0C7
:100A1000E9F8B8F1000F0CD000F023FD401B14BF23
:100A200003460123B4FBF3F322460A49384609F092
:100A3000C6FF4FF0FF320849384609F08BFF01200E
:100A40000DF5866DBDE8F081AFDF0200F8FA020017
:100A5000B8DF0200CCDF020028E002002DE9F047F9
:100A6000C0B00EAB002400930D460DAB02225D49D1
:100A70000C940D940E9407F038FF022803D10E98C1
:100A80000EF014FD04460D9B0BB9574B0D930D99B9
:100A900017A806F07AF9034628B10D9A534928465B
:100AA00009F08DFF9AE020AE8027002C07DC0D9A1C
:100AB0004F492846002409F082FF27466FE00FA91E
:100AC00017A81596169706F093F9013C0028ECD06C
:100AD000EDE79DF84530002B6AD09DF84410BDF835
:100AE0004200CB065BBF0C9A0F9B44229B185BBF56
:100AF0000C932D220134013711F0010F14BF4FF078
:100B0000520A4FF02D0A11F0020F14BF4FF0480E99
:100B10004FF02D0E11F0040F14BF4FF0530C4FF097
:100B20002D0C0DF1450911F0200FBDF84010CDF846
:100B30002490C0F345194FEAE020069001F01F0011
:100B40000F9B0590C1F343104FEA612114BF4FF092
:100B500041084FF02D0801F2BC71CDF804C0CDF86A
:100B600000E00893049053460391CDF81C9021496E
:100B7000CDF80880284609F022FF4FF0FF321E49C9
:100B8000284609F0D4FE4FF0FF323146284609F0DE
:100B9000CEFE4FF0FF321949284609F0DBFE8023D4
:100BA0000FA917A81596169306F022F9002890D0E1
:100BB0003A46134900940C9B284609F000FF0BAA03
:100BC0000CA90D9806F06BF940B90B9B0D499A786A
:100BD0000C9B28465A43520809F0F1FE012040B010
:100BE000BDE8F087F8FA0200E7DF0200EADF020062
:100BF0000EE0020029E0020056E0020028E00200B8
:100C00005AE0020084E0020070B50C46064608F087
:100C100023F90546304608F01FF906F050FA064A57
:100C2000064B0749002808BF13462A46204609F00C
:100C3000C6FE012070BD00BF3AE2020044E202009D
:100C400098E0020070B50C46064608F005F9054626
:100C5000304608F001F906F0D6F9064A064B074976
:100C6000002808BF13462A46204609F0A8FE0120A6
:100C700070BD00BF3AE2020044E20200B4E00200AC
:100C80007FB503AB002400930E4602AB02220F494E
:100C90000294039407F029FE022814D1029C039DBC
:100CA0002046294606F013FB094B0A492246002834
:100CB0000CBF084618462B4600900749304609F0FD
:100CC0007EFE012000E0204604B070BDF8FA02006C
:100CD00044E202003AE20200C6E0020030B58DB004
:100CE0000C46054608F0B8F80A22014602A805F0AD
:100CF00099FC40B1284608F0AFF81E49024620464C
:100D000009F05DFE32E08DF8030001901A4942F2CD
:100D100010737E22204609F052FE1849204609F041
:100D20004EFE42F210720DF10301204609F0A0FDC3
:100D300018B19DF803307E2B03D102A805F052FFB5
:100D400014E001AB01220DF1030102A805F02AFE17
:100D500010B1019B012B07D14FF0FF329DF803101A
:100D6000204609F0B6FDDCE70549D7E701200DB0C4
:100D700030BD00BFDEE0020005E102003DE10200FF
:100D80005DE102002DE9F04FADF5417D002304AC9B
:100D9000236003930D46009403AB0222414907F000
:100DA000A4FD022806D04FF0FF323F49284609F043
:100DB000D1FD72E0216817A805F0E7FF10B12268A5
:100DC0003A4906E0039917A805F0DFFF28B1039A16
:100DD0003749284609F0F3FD5FE04FF480720DEBD0
:100DE000020105A807F02AFD4FF4807280A90AA825
:100DF00007F024FD20AE80270FA917A81596169797
:100E000005F0F6FF002842D19DF84530002B3ED07A
:100E10009DF8443003F0100303F0FF0A002BEBD1E0
:100E20000DF14503039A234905A808F082F80DF156
:100E3000450322681F490AA808F07BF805A808F0B6
:100E40000BF807460AA808F007F8804605A8DDF861
:100E50003C9008F001F883460AA807F0FDFF5346CE
:100E600052460146CDF800A0584603F0C4FC124A91
:100E7000124BCDF8009000280CBF184610461049C0
:100E8000019043463A46284609F099FDB3E70AA87F
:100E900007F0E9FC05A807F0E6FC01200DF5417D0F
:100EA000BDE8F08FF8FA020084E10200C9E1020017
:100EB000EEE102000EE2020044E202003AE2020029
:100EC00014E20200F8B50D462149064607F081FFFD
:100ED0000446074618B100F00BFA002208E01D494D
:100EE000304607F076FF044660B100F0DDF93A467F
:100EF000114690F8340206F078FA4FF0FF32164BA4
:100F000016491CE01649304607F063FF044640B11D
:100F100000F0EEF900F0B8F94FF0FF32114B124932
:100F20000DE01249304607F054FF044668B100F066
:100F3000BBF900F0A9F90E4B0E494FF0FF32002823
:100F400018BF1946284609F005FD2046F8BD00BF28
:100F50009BE20200A5E202003DE2020033E2020051
:100F6000B2E202005AE202004AE20200BBE20200E0
:100F70007FE2020071E2020010B50C460023194620
:100F800010461A4609F0CCFF20464FF0FF320249C6
:100F900009F0E0FC012010BDC7E202002DE9F0419C
:100FA000002394B04FF47A720D467A4906460693B0
:100FB0000793089209930A930B9307F072FD044676
:100FC000074688B1744908AA304607F080FC0899A2
:100FD0000CA803F02DF918B19DF830206F49D1E02D
:100FE0004FF0FF326E497CE06E49304607F059FD04
:100FF0000446A8B114AA42F8207D6749304607F09C
:1010000066FC0C9EF0B202F0F3F9674A674B684940
:10101000002818BF13463246284609F0D0FCB4E039
:101020006449304607F091FCA8B102F07DFB6249AB
:101030000246284609F0C3FCE0B202F05FFB01342F
:10104000002849D0817843780278009128465B498E
:1010500009F0B5FCF0E75A49304607F076FC044643
:1010600080B102A802F00EFD0298039909AB03C3F8
:101070000498186002F0C8F909A902462846FFF74B
:101080007FFA82E04F49304607F00BFD60B107ABB5
:10109000019306AB0093032200234B49304607F02F
:1010A00024FC012821DC70E04849304607F0F9FCB7
:1010B0000028ECD169E00223FFB20093079A33467F
:1010C0004146384602F09AFA044648BB4FF0FF32D8
:1010D0003F49284609F03EFC012456E03D494FF0C7
:1010E000FF32284609F036FC4FE03649304607F01B
:1010F000D8FC804606980EF0D9F907460798E0B16B
:1011000010F0E4F8C6B200210CA803F091F8002812
:10111000D1D04FF0FF323049284609F01BFCF2E7EE
:10112000B8F1000FD8D008990CA803F089F838B3AB
:101130009DF83020BA4223D101E00646E3E79DF84E
:1011400037300C2B03D10EA92846FFF719FA002ED1
:10115000C4D12249284609F032FC9DF837309E421E
:1011600009DA0CAB33444FF0FF32197A284609F004
:10117000B0FB0136F1E71A49284609F020FC04E0EB
:10118000069A1849284609F01AFC204614B0BDE812
:10119000F08100BFF9ED0200E4E20200EBE20200A0
:1011A00002E3020002E702003AE20200DDE202008E
:1011B00013E302002AE3020031E302004BE30200E2
:1011C0006EE3020075E30200F8FA020074E3020025
:1011D0009BE30200DAE3020079E30200C3E30200CA
:1011E000D7E30200F7E3020073B50C461449054645
:1011F00007F0EFFD50B100F09FF807F06EF84FF0E8
:10120000FF321049204609F0A5FB15E000F094F8E4
:101210000646284607F020FE9B2301460A4A009313
:1012200030460A4B07F0EBF9284607F015FE08494F
:101230000246204609F0C3FB012002B070BD00BF8A
:101240001DE4020023E402003CE40200D1DD0200C0
:1012500062E4020008B54FF0FF320846094909F080
:1012600079FB00F069F807F038F84FF4FA600AF0FB
:1012700073FB4FF08043AA221A7200221A700120D9
:1012800008BD00BF70E4020010B5044690F83402B7
:1012900003F0D8FB30B9214694F83402BDE8104081
:1012A00005F08CB910BDFFFF70B50F4D0F4E2C68C7
:1012B00014F0010415D128460BF048FA88B14FF418
:1012C0000E70FEF7CFFF302380F835323A2380F8D6
:1012D000344280F8363280F83742306028460BF0CE
:1012E00055FA306870BD00BF64C9072068C907207F
:1012F00070B50F4D0F4E2B6813F0010416D1284620
:101300000BF024FA90B14FF40E70FEF7ABFF0123FF
:1013100080F83432312380F835323A2380F836327F
:1013200080F83742306028460BF030FA306870BDE4
:101330005CC9072060C9072038B5064C236833B95B
:101340001420FEF78FFF054606F0D5FF25602068C4
:1013500038BD00BF58C90720F8B51A4CD4E900675A
:101360000AF08AFCD4E90023013243F1000301288A
:10137000C4E9002312D10AF051FFA0B10AF040FFE6
:10138000D4E900010A2200230CF086FF0A25A0FB05
:10139000052305FB0133C4E9002304E002F06BFFE1
:1013A00000200AF058FE0A22B6FBF2F302FB136398
:1013B0003BB903F099FF4FF08043AA221A725522DD
:1013C0001A72F8BD70C9072001480FF067B900BF55
:1013D00081E4020073B5054690F834020E4603F02E
:1013E00031FB044640BB294695F8340205F0E6F887
:1013F000044608BB01906A4601A905F2352005F0B4
:101400004EFD78B9009A019CD16990780239414328
:1014100044434A08B2F57A7F4FEA540304D2314676
:101420000A4805E00A4B08E0CA0A31460948E30ABF
:101430000FF0ECF8012006E0074B22463146074842
:101440000FF0E4F8002002B070BD00BFBFE402005E
:10145000BBE40200EDE40200B8E402001BE5020078
:101460007AE7024BD3E90001704700BF70C907203B
:10147000F0B5ADF5037D00F0D3F90AF063FD4FF44C
:10148000FA6007F0EEFFFFF79FFF0AF09DFF9F4B0A
:101490004FF47A72B0FBF3F103FB11039C48B3FBEA
:1014A000F2F20FF0B3F80AF0E1FF04280AD1FFF7D7
:1014B0008BFF984B9848D96C1A6D5B6D0FF0A6F8AE
:1014C000FFF782FF00F03AFA09F052F8934B944D7F
:1014D000D3F8C420022442F48012C3F8C420D3F805
:1014E000AC2122F44062C3F8AC21D3F8AC2142F421
:1014F0008062C3F8AC2107232B606C600AF064FFA4
:10150000824BB0FBF3F02346B0FBF3F2082A04D978
:10151000B3F5807F01D00233F6E72B6100F03AFA91
:10152000642108F0DFFB10B97E480FF0B7F802F035
:1015300058FE10B97C480FF0B1F801217B480AF041
:1015400023FEFFF7B1FE7A49FFF744FF0446C0B916
:1015500078480FF05BF8FFF7A7FE2146224690F887
:10156000340205F042FF744B744A00280CBF104649
:1015700018460FF093F8FFF797FE6D49FFF72AFF23
:1015800004466F4E6F4F336813F0010516D1304695
:101590000BF0DCF890B14FF40E70FEF763FE012300
:1015A00080F83432312380F835323A2380F83632ED
:1015B00080F83752386030460BF0E8F862493868F6
:1015C000FFF708FF14B308B30024604902A802948F
:1015D000CDF80B400FF01CFE5D4902A80FF0B2FCE5
:1015E0005B495C480FF012F800942346224602A99A
:1015F000574803F000F930B1574A584B04280CBF44
:101600001846104600E056480FF048F8182008F039
:1016100097FFFFF7D9FE0025022400F0BBF9E1B2E5
:1016200008F0AFFD50B1382C08D0402C06D0902CDB
:1016300004D021464B480EF0E9FF01250234B4F5F1
:10164000807FEAD10DB1FFF7BFFE474C23684BB94D
:101650000820FEF707FE054600F09CF938232860B5
:101660002B712560206802F0EFFE044618B93F4850
:101670000FF014F800E0012400F0BCF903F064F866
:10168000054618B93A480FF009F82C4600F092F9CF
:1016900002F0B8FF054618B936480EF0FFFF2C4699
:1016A000354D2B681BB90120FEF7DCFD286028684A
:1016B00002F03EFF314D00F0B1F903F021F800F0E7
:1016C0008BF902F0E6FF2B681BB90120FEF7CAFD7B
:1016D0002860286803F01FF800F07EF9002102F06E
:1016E000DAFF002C4CD1FFF76FFE00F063F92D21DB
:1016F00002F070FF00F05EF92D2102F077FF00F09C
:101700006BF9FF2102F0C7FF47E000BF40420F0026
:1017100070E50200004002408AE5020000C00F4070
:1017200000800840DEE5020010E6020059130100C7
:1017300035E602003DE6020053E502004EE50200F8
:101740005CC9072060C9072069E2020066E6020062
:1017500069E602006DE6020069E502005FE502004D
:1017600059E5020090E6020088C90720B3E60200AE
:10177000CEE60200E8E6020084C9072078C9072007
:1017800000F018F9044600F035F903F006F80CF003
:1017900063FDC1B2204602F05FFF4FF400720021EA
:1017A00002A80EF0C3FB02A80AF0DAFC02A80EF0B1
:1017B00075FFFFF709FE0023072202A914480293D0
:1017C000039303F07DF8A0B902A80DF06FFEC4B238
:1017D000631EDBB2FD2B0E4A04D902A90D480EF0A0
:1017E00015FF06E021460C480EF010FF204601F0E0
:1017F000FFFD00F013F902F085FF0EF057FF0748D8
:101800000EF04CFFFFF7E0FD0DF5037DF0BD00BFCE
:1018100001E7020007E7020032E702005FE702008B
:101820004249434A40238B614FF0007393614FF468
:1018300080338B613F4B186820F0F0001860186807
:1018400040F050001860186820F440501860086894
:1018500040F040000860186820F47C201860186888
:1018600040F428201860186820F470001860186888
:1018700040F420001860186820F040401860186894
:1018800040F000401860586820F03C0058605868EC
:1018900040F028005860586820F00300586008683D
:1018A00040F480300860586820F440505860086860
:1018B00020F480000860D96821F44031D9601168B3
:1018C00041F080711160596821F4402159605968D4
:1018D00041F4802159609868174901409960116866
:1018E00041F4897141F001011160996821F470118E
:1018F0009960996821F070419960116821F446411E
:101900001160D96821F03001D960D96841F0300107
:10191000D960D96821F47011D960136843F000735D
:101920001360136823F080631360704700C00920C0
:1019300020C0092000C00240F0FCFCFF124B10B593
:10194000D3F8C420114C42F48052C3F8C4204FF4A1
:1019500000122260D3F8A82122F04072C3F8A82117
:101960000AF032FD0A4A80080023B0FBF3F19142ED
:1019700004D8226842EA0323236010BD0233B3F582
:10198000807FF2D110BD00BF00C00F400040034077
:10199000FF1AB70038B5064C236833B91C20FEF790
:1019A00061FC054608F0D8F92560206838BD00BF05
:1019B00050C9072038B5074C23684BB90820FEF7FB
:1019C00051FC0546FFF7E6FF402328602B71256098
:1019D000206838BD80C9072038B5054C256825B971
:1019E0000120FEF73FFC05702060206838BD00BF75
:1019F0007CC9072038B5084C23685BB90C20FEF77A
:101A000031FC0546FFF7C6FF90232B7100232860A9
:101A1000AB602560206838BD48C9072010B5044C6C
:101A200023681BB90120FEF71DFC2060206810BD53
:101A30004CC9072001207047642310B503220446D7
:101A400003620021012009F03AFA606620B1002308
:101A50001A46194609F064FA00231A461946606EC0
:101A600009F02FFB626E2046BDE81040014906F0E8
:101A700021BA00BF94E7020037B5044600250B46A3
:101A800000954FF4C0620A4906F0CEF9094B0022D6
:101A900023600023C4E91A23C4E91C2325662822F5
:101AA000294604F138000EF041FA204603B030BD5B
:101AB000D2E702007CE70200704710B53430002303
:101AC00050F8044F8C4202D11360012010BD013345
:101AD0000A2BF5D1002010BDF0B5044697B00025C3
:101AE000402206A901A8009506F0A8FE2B462A462A
:101AF0002946606E09F0E5FAC0B358480EF0CEFDF5
:101B0000FFF758FF2D2102F065FDFFF753FF2D2150
:101B100002F06CFD04F1340600F0B4F802F046FD6A
:101B200018B9642009F018FFF6E700F0ABF802F0EE
:101B300047FD074603462A46494901A807F0F9F937
:101B400001A807F089F90EF0A9FD46F8047FFFF718
:101B500031FFE9B2013502F07FFD0A2DDCD14148A9
:101B60000EF09CFD4FF4FA6009F0F6FED4E91C2358
:101B700013432AD000F086F802F018FD002851D057
:101B800000F080F802F01CFD6A4601462046FFF78F
:101B900094FF002846D0226E009B13442366FFF773
:101BA00009FF00993031C9B202F020FD4FF4FA600C
:101BB00009F0D2FE00F066F802F002FD00220023D8
:101BC000C4E91A23C4E91C2342E000F05BF802F0E8
:101BD000EDFC00283CD000F055F802F0F1FC6A461C
:101BE00001462046FFF769FF002831D042F2107607
:101BF000FFF7E0FE009900273031C9B202F0EAFC9D
:101C0000FFF7D8FE2D2102F0F1FC009A0A2353437E
:101C1000C4E91C672366FFF724FC80197941C4E9F5
:101C20001A0115E0D4E91C23134311D0FFF719FC66
:101C3000D4E91A23994208BF904209D30022002315
:101C4000C4E91A23C4E91C23FFF7B4FE02F0F9FC2F
:101C500001A806F008FE012017B0F0BD9EE70200C3
:101C6000D9E70200EBE7020001207047012070472E
:101C700001207047704710B50446FEF7F7FA20467A
:101C800010BDFFFF10B5044C23681BB90120FEF7FF
:101C9000E9FA2060206810BD84C907200120704740
:101CA000F7B5044600250B4600954FF4A05218499D
:101CB00006F0BAF8174B2587236004236587E56390
:101CC0006564A564E5642846236448210EF018FD88
:101CD000A56CE064AE00112D0CD81420FEF7C2FAFA
:101CE0000746142200210EF021F9E36C01359F51C3
:101CF0000436F0E712236364012384F86430802102
:101D000004F1680007F008F9204603B0F0BD00BFF9
:101D100024E8020008E80200082A70B50D461446BF
:101D20002A4E0FD1084606F0B0FD002813DD3068BA
:101D300082689368013B002B93601ADA91698B42A9
:101D400017DA26E00A2A07D00D2A05D011462846C0
:101D500007F019FA00E00724306882689368013BB5
:101D6000002B936027DA91698B4229DB0A2C22D160
:101D700026E01368591C116008221A7030688268C6
:101D80009368013B002B936007DA91698B4204DA78
:101D90000DE0214614F002F9F0E71368591C1160B8
:101DA00020221A700121284606F0FEFED4E72021E9
:101DB00014F0F4F8F6E71368591C11601C7070BD3C
:101DC0002146BDE8704014F0E9B800BF48C40720C0
:101DD00070B55B498AB0054606F0C6F80646002491
:101DE0004035019400942846564B574A574905F010
:101DF00051FE019400942846554B564A564905F029
:101E000049FE019400942846544B554A554905F023
:101E100041FE019400942846534B544A544905F01E
:101E200039FE019400942846524B534A534905F019
:101E300031FE019400942846514B524A524905F014
:101E400029FE019400942846504B514A514905F00F
:101E500021FE0194009428464F4B504A504905F00A
:101E600019FE0194009428464E4B4F4A4F4905F005
:101E700011FE0194009428464D4B4E4A4E4905F000
:101E800009FE0194009428464C4B4D4A4D4905F0FB
:101E900001FE0194009428464B4B4C4A4C4905F0F6
:101EA000F9FD0194009428464A4B4B4A4B4905F0F2
:101EB000F1FD019400942846494B4A4A4A4905F0ED
:101EC000E9FD019400942846484B494A494905F0E8
:101ED000E1FD0423019300962846474B474A4849B1
:101EE00005F0D8FD01940094464B474A47492846DF
:101EF00005F0D0FD00F038F94FF4007320224FF4C4
:101F00001641064608F0CCFB04464148FEF7DCFAD1
:101F10004048FEF7D3FA082203A905A806F08EFC74
:101F200005A83D4907F0EBF9324605A9284605F01A
:101F30007BFE05A806F097FC20460AB070BD00BFE6
:101F400094E702002DE8020044EF0200BD05010005
:101F500064E8020074E802006D0601007CE80200FB
:101F60008AE802009506010091E80200D2E802002A
:101F7000F1070100D7E8020033E9020081090100FE
:101F800037E90200C5E902000109010079E9020010
:101F9000C4E90200850D0100C8E90200F6E902006B
:101FA0005D0A0100F9E902001EEA0200090C0100C5
:101FB00024EA020051EA0200810C010054EA020006
:101FC00079EA0200DD0C01007CEA020014EE020056
:101FD000450C01009FEA0200E2EA0200C50E010082
:101FE000EAEA0200FDEA02005512010004EB0200D9
:101FF00069E60200E91101003AEB020062EB02001F
:10200000790F010068EB02002CE602009D0F010031
:102010001BA701003BA701008FEC02002DE9F7434D
:1020200081460D4600F0A0F80446074602AE0023A4
:1020300006F8013D64223146204608F019FC30B113
:102040009DF8072029464846FFF766FE0BE04EF64E
:102050006021204608F021FD804620B909F04CFBA4
:10206000474660610DE0284606F00FFC8046284692
:1020700006F00EFC0138804503DA9DF807300A2B84
:10208000D8D1384603B0BDE8F083F7B505462048FF
:1020900005F168040EF0BAFA21462846FFF7BEFFA4
:1020A000064640B91B480EF0F9FA204606F0D4FE69
:1020B0000EF0ACFA28E0204606F0E7FB002823DD0E
:1020C000FFF7CFF90746E0B12B8F05F14000013350
:1020D0002B873246214605F0A7FD0F4B00251868D7
:1020E000019001AB595D4FF0FF323046013508F0E9
:1020F000F0FB042DF5D1FFF7B4F9C11B07480EF032
:1021000085FA204606F0C6FB012003B0F0BD00BFF3
:1021100094EC020028E0020020E802009AEC0200A1
:1021200038B50B4B044640F8683B06F09CFB002595
:10213000636CE06CAB4205D950F82500FEF796F8C9
:102140000135F5E708B1FEF793F8204638BD00BF2A
:1021500008E8020010B50446FFF7E2FF2046FEF74C
:1021600085F8204610BDFFFF38B5064C236833B90B
:102170002820FEF777F8054608F0BEFA25602068AB
:1021800038BD00BF54C9072008B502F074F801201B
:1021900008BD13B50446002300934FF400720B46AC
:1021A000034905F041FE2046024B236002B010BDFA
:1021B0002CE60200B8EC0200704710B50446FEF7AA
:1021C00055F8204610BDFFFF0120704710B50322CF
:1021D00004460021012008F072FEA06320B1002314
:1021E0001A46194608F09CFE03220021012008F03F
:1021F00066FEE06320B100231A46194608F090FEFF
:10220000A06B18B1E06B003018BF012010BD10B5F5
:10221000044600F13801002006F063FA04F13C01A5
:10222000012006F05EFA012010BD30B5134C85B0D8
:10223000236805460133236000234FF0FF3219461F
:10224000806B08F03EFF60B123683C2B09DC01A8DD
:1022500008F08CF89DF80410094801F03F010EF0D9
:10226000D5F900231A461946E86B08F02AFF10B189
:1022700004480EF013FA012005B030BD8CC90720C8
:10228000B4ED0200C0ED020013B5044600F13801C0
:10229000002006F026FA04F13C01012006F021FAA4
:1022A00000231A461946A06B08F00BFF00231A46BC
:1022B0001946E06B08F005FFE36B0222009320460D
:1022C000A36B114605F0DCFDA06B4FF0FF33E3601C
:1022D00018B1E06B003018BF012002B010BD08B586
:1022E000836B013383634EF6602009F035FB0120D8
:1022F00008BD4FF47A7310B500220446036204212E
:10230000012008F0DCFD034902462046BDE81040EC
:1023100005F0D0BDD6ED020037B5002502AC44F87B
:10232000045D084905F020FE2B464FF0FF322146A0
:1023300008F0C7FE18B1019903480EF067F90120B3
:1023400003B030BDD6ED0200DFED02000F4A10B53C
:102350005368044601330A2B536008DD0C4905F02D
:1023600045FF006909F0A2FB206909F09FFB0949BC
:10237000204605F0F9FD00234FF4FA62064908F003
:10238000CFFD003018BF012010BD00BF8CC9072051
:10239000F5ED0200D6ED020090C9072013B5044602
:1023A000002300934FF480520123054905F03CFDC2
:1023B000044B2046236040F6B833236202B010BDC0
:1023C000FCED0200D8EC020013B504460023009394
:1023D0004FF48052044905F027FD2046034B23604B
:1023E0006423236202B010BD06EE0200F8EC020086
:1023F00037B5044600252B4600954FF48052054919
:1024000005F012FD2046044BA5632360E56303B08D
:1024100030BD00BF0EEE020018ED020037B50446D5
:1024200000252B464FF400621149009505F0FCFC95
:10243000104BA5632360E56303222946012008F0C1
:102440003EFDA06320B12B462A46294608F068FDD0
:1024500003220021012008F032FDE06320B10023B7
:102460001A46194608F05CFD204603B030BD00BF97
:1024700017EE020038ED020037B5044600252B4662
:1024800000954FF48062044905F0CEFC2046034BD2
:10249000A563236003B030BD23EE020058ED0200B7
:1024A00013B50446002300934FF48062034905F0FE
:1024B000BBFC2046024B236002B010BD2BEE020095
:1024C00078ED020013B50446002300934FF4006238
:1024D000034905F0A9FC2046024B236002B010BD61
:1024E000F5ED020098ED020013B5044612480EF017
:1024F000D5F8FFF77FFA02F050F90BF087FE01469E
:102500000E480EF083F8204605F0A6FC01460C4864
:102510000EF07CF861690B480EF078F800230A4A47
:102520000193019B934203DC019B01330193F8E784
:10253000012002B010BD00BF32EE020065EE0200C5
:1025400078EE02008BEE0200FEFF0F0070B5444CE7
:102550008AB023681BB90120FDF784FE2060206843
:1025600002F0DBF8431E0546072B50D8DFE803F0E6
:1025700004194F264F4F4F3100F012F901F074FF4C
:10258000044600F00DF901F078FF064600F008F966
:1025900001F07CFF32460346214632480EF036F801
:1025A00055E0314C23681BB90120FDF75BFE20602C
:1025B000206802F0A7F801462C4807E0FFF71AFA56
:1025C00002F0EBF80BF022FE014629480EF01EF84F
:1025D0003DE0284C00210091012304F10802FF2076
:1025E00001F00CF808B924480EE04FF4FA7102A883
:1025F00001F01EFE38B1FFF7DDF9217A4B1C237282
:1026000002F02AF823E01D480EF048F81FE0F0B968
:10261000FFF7E2F902F072F8C8B9002102A801F050
:1026200007FED0B19DF80F30012B16D1002100918B
:10263000134A0323FF2000F0E1FF0E4C9DF81030F9
:102640002372FFF7B7F9217A02F006F805E0FFF7E9
:10265000C3F9294602F01FF8DFE701200AB070BD78
:1026600078C90720A1EE02004CC90720BCEE020089
:10267000C9EE02008CC90720DAEE0200F0EE02007B
:1026800075E3020013B583680446806B984210D14D
:1026900000231A46194608F014FD00283AD0FEF728
:1026A0004BFE1E4B1E4A00931E49EF2305F0B4FF5C
:1026B0001CE0E06B98420FD100231A46194608F03F
:1026C00000FD38B3FEF738FE174B154A0093154945
:1026D000F52305F071FF09E0FEF72EFEF8230093C5
:1026E000104A0F4B114905F029FF13E0104AD36837
:1026F000591C3B2BD16003DC206909F0D7F909E0B4
:10270000FEF71AFE05F0E9FD0A480DF0C7FF0A487A
:102710000DF0C4FF002002B010BD00BF38EF020072
:10272000B0ED020010EF020049EF02005DEF020081
:102730008CC9072074EF0200B1EF020070477047A8
:102740007047704770477047704710B50446FDF7F3
:102750008DFD204610BD10B50446FDF787FD2046CF
:1027600010BD10B50446FDF781FD204610BD10B523
:102770000446FDF77BFD204610BD10B50446FDF76D
:1027800075FD204610BD10B50446FDF76FFD2046CF
:1027900010BD10B50446FDF769FD204610BDFFFFD2
:1027A00038B5074C23684BB90820FDF75BFD05469B
:1027B000FFF7F0F8382328602B712560206838BDBA
:1027C00088C907200120704708B5026C024905F04E
:1027D00071FB012008BD00BF1AF00200F7B50546E5
:1027E00002AC0023124E04F8013D4FF4FA72214668
:1027F000A86B08F03DF8C8B195F84430002BF4D030
:1028000030689DF8071082689368013B002B936045
:1028100004DA9769BB4206DB0A2904D01368581C06
:1028200010601970E1E713F0B9FBDEE703B0F0BD0B
:1028300048C4072038B5154604464FF0FF32806B78
:1028400008F075F82DB14FF0FF322946A06B08F063
:102850006EF8A06B4FF0FF32034908F068F820468D
:10286000BDE83840FFF7BABF0EF4020010B50446C9
:102870004FF0FF320B49806B08F06CF84FF4827018
:1028800009F06AF84FF0FF320749A06B08F04FF8E3
:102890004FF4827009F060F82046BDE81040FFF761
:1028A0009DBF00BF20F0020025F0020070B510F1BE
:1028B0004506044600F15D0500F09280002D00F011
:1028C0008F8090F84530002B00F08A8090F85D30C2
:1028D000002B00F0858045480DF0E0FE30460DF0FD
:1028E000DDFE28460DF0DAFE41480DF0D7FE204609
:1028F000FFF7BCFF3F480DF0D1FE204600223E49C5
:10290000FFF798FF00223D492046FFF793FF3C4820
:102910000DF0C4FE204600223A49FFF78BFF3246F5
:1029200020463949FFF786FF204600223749FFF746
:1029300081FF2A4620463649FFF77CFF20460022C9
:102940003449FFF777FF002233492046FFF772FF33
:1029500032480DF0A3FE204600223149FFF76AFFFE
:10296000204600222F49FFF765FF00222E4920460E
:10297000FFF760FF2D480DF091FE204600222C4904
:10298000FFF758FF204600222A49FFF753FF204651
:1029900000222949FFF74EFF002228492046FFF771
:1029A00049FF27480DF07AFE204600222549FFF70F
:1029B00041FF002224492046FFF73CFF23480DF049
:1029C0006DFE204600222249FFF734FF00222149F4
:1029D0002046FFF72FFF2046FFF700FF012070BDC4
:1029E0001D480DF05BFE002070BD00BF29F0020005
:1029F00028E0020044F002005BF002006EF00200EA
:102A00007EF0020098F00200A6F00200B5F002008D
:102A1000C5F00200D6F00200E9F00200FEF002006C
:102A200016F1020027F1020037F1020049F102001D
:102A30005FF1020070F1020084F1020097F10200E0
:102A4000A8F10200B5F10200C7F10200DDF10200B9
:102A5000E4F10200FDEA0200E9F1020070B504466B
:102A6000A6B0FFF703FF4FF0FF322849A06B07F035
:102A700071FF802206A901A805F0E0FE01A8A56B60
:102A800006F0EAF9064601A805F002FF31460246C3
:102A90004FF47A73284607F06BFF1D4901A806F032
:102AA00000F870B101A8A56B06F0D6F9064601A89A
:102AB00005F0EEFE4FF47A7302463146284607F0E1
:102AC00057FF4FF0FF321349A06B07F043FF20463A
:102AD000FFF784FE022101A806F0E7F90378A3F1CD
:102AE0003004E4B2092C07D9A3F14102052A8EBFB4
:102AF0001C46A3F14B04E4B201A805F0B4FE14F0A7
:102B0000030018BF012026B070BD00BF09F202000B
:102B100019F2020020F0020010B50446FFF75EFE35
:102B20002046FFF7A3FE2046FFF758FEA06B4FF0AC
:102B3000FF320249BDE8104007F00CBF1EF2020050
:102B40002DE9F0470446AAB080220AA9684605F09C
:102B500075FEE16B56480DF059FDE16BA06B07F077
:102B6000A7FF2046FFF7D8FF684605F093FE6846AA
:102B7000A56B06F071F90646684605F089FE3146F8
:102B800002464FF47A73284607F0F2FE4949684638
:102B900005F023FF002851D14749684605F01DFF85
:102BA000074600284AD1454E05AD0FCE0FC5336804
:102BB0000DF114092B603D4659F825603C4831461B
:102BC0000DF024FD2046FFF709FE3146A06B07F00B
:102BD0006FFF2046FFF7A0FF684605F05BFE6846E2
:102BE000D4F8388006F038F98246684605F050FE81
:102BF0004FF47A7302465146404607F0B9FE8046CC
:102C000080B12C49684605F0E8FE10BB2A496846A9
:102C100005F0E3FEE8B9684606F01EF901462848CB
:102C20000DF0F4FC0135052DC6D1E16BA06B07F06A
:102C30003FFFE16B23480DF0E9FC31E0E16B2248F6
:102C40000DF0E4FC002221492046FFF7F3FD0127A7
:102C500026E031461E480DF0D9FCE16B1D480DF011
:102C6000D5FCE26B1C49684606F063F9684606F03D
:102C7000F3F8002201462046FFF7DCFD0022174949
:102C80002046FFF7D7FD002215492046FFF7D2FD69
:102C90004FF4FA6006F0E5FB2046FFF79FFD47463C
:102CA000684605F0E0FD38462AB0BDE8F08700BF71
:102CB00022F202004BF202001EF20200D4EF0200E8
:102CC000FFF2020051F202008BF2020020F002003B
:102CD000AEF20200CDF20200EAF20200E4F10200DC
:102CE000FDEA0200836B002210B583F8242004461D
:102CF000FFF726FFC0B12046FFF7B0FE50B90B48E2
:102D00000DF0CCFC2046FFF7D1FD08B1084802E0E9
:102D1000084800E008480DF0C1FC2046FFF75EFDC2
:102D2000A36B012283F82420012010BD1AF30200B6
:102D300031F302004CF3020066F302002DE9F34187
:102D400004460E460025134600954FF4606217496D
:102D500005F06AF8164B012023604FF46133E363FA
:102D6000A6632A4684F84400042108F0A8F804F178
:102D700045074FF0180820644246294604F15D06D5
:102D800038460DF0D3F84246294630460DF0CEF8CD
:102D90001722084938460EF03FFB172206493046F5
:102DA0000EF03AFB204602B0BDE8F08185F3020048
:102DB000F0EF02008AF302008FF302002DE9F043E6
:102DC0000E46096885B00546002936D07268002A8B
:102DD00035D0F368002B34D0137893B30B7883B3DA
:102DE0003369002B2FDDFFF741FD002258492846AB
:102DF000FFF720FD4FF0FF325649A86B07F097FD13
:102E00004FF0FF323168A86B07F091FD4FF0FF32B1
:102E10005149A86B07F09EFD04AF002307F8023D5F
:102E20009DF80E30402B10D047F230523946A86B37
:102E300007F01EFD0028F3D107E0084685E01046A4
:102E400083E0184681E000207FE02846FFF7C6FCBB
:102E50009DF80E30402B08D0FEF76EFA55230093F4
:102E60003E4A3F4B3F4905F09AFB4FF0FF323E4947
:102E7000A86B07F05CFD4FF0FF327168A86B07F09C
:102E800056FD4FF0FF323949A86B07F063FD42F25F
:102E900010723946A86B07F0EBFC0446002850D1AD
:102EA000FEF74AFA602300932C4A2D4B304905F077
:102EB00076FB0BE04FF4FA723946A86B07F0D8FCAA
:102EC00020B1327A9DF80E309A42F3D1F3689DF822
:102ED0000E204FF000091A70F768336907F10108F6
:102EE0001F44B8450FD04FF4FA720DF10F01A86BD3
:102EF0008DF80F9007F0BCFC20B19DF80F3008F85A
:102F0000013BEEE747464FF0000887F80080F36882
:102F10002846FF1A3761FFF761FC2846FFF7A6FC39
:102F2000424614492846FFF785FC42461249284686
:102F3000FFF780FC284642461049FFF77BFC2046FD
:102F400003E0337A002BBCD1C0E705B0BDE8F083C5
:102F500093F30200A3F30200A9F30200ADF3020011
:102F600008F00200D7F3020007F402000CF402009C
:102F700011F4020042F4020027F1020020F00200E6
:102F800073B5002502A9044641F8045D2B464FF0B5
:102F9000FF32006C08F095F8A0B1A36B019E83F896
:102FA000245031462046FFF709FF019B3075986990
:102FB00020B12B462A46294607F0B2FFA36B012217
:102FC00083F82420012002B070BD00BF704710B507
:102FD0000446FDF74BF9204610BD002370B5037180
:102FE000082203233024312542FA03F60E4214BF8F
:102FF000C554C45413F1FF33F6D270BD08B504486C
:103000000DF04CFB40F2DC5006F02BFAF7E700BF66
:1030100048F4020010B54FF6FF74242303FB0101AE
:10302000884209D043782BB1038C1344A34228BFB4
:10303000234603842430F3E710BD73B50E4C02A879
:10304000002340F8043D042163689847019B6569AB
:1030500006465D1B2A4604F1180004216361FFF750
:10306000D9FF04F1A8002A460221FFF7D3FF301C44
:1030700018BF012002B070BD9CC9072008B50C4BD9
:10308000197803788B420B4B0BBFB3F8F020B3F8E1
:10309000F4200132013214BFA3F8F420A3F8F02089
:1030A0008170DB6820219847003018BF012008BDDF
:1030B00000C007209CC907200C4B02781B789A425D
:1030C0000B4B0BBFB3F8F620B3F8F82001320132F6
:1030D0000CBFA3F8F620A3F8F8200379C3F3C202CB
:1030E000073262F3C5030371C8E700BF00C00720C1
:1030F0009CC9072010B50749002311F823409A0006
:10310000844202D10348104410BD0133042BF4D192
:10311000002010BD98CA072070B1C3780133DBB21C
:10312000FF2BC37008D105480023C118CA780433A7
:103130005208102BCA70F8D1704700BF98CA0720F8
:10314000242202FB01010346024630B5914206D01B
:103150001446243212F8235C002DF7D10FE0044608
:10316000002599420BD01A79C2F3C2001A8C42EAA8
:103170000042AA4284BF1C4615462433F1E720468C
:1031800030BD70B5054601311E4E01EB41014C00CA
:10319000FFF753FF2A783378A4B29A4204D1022170
:1031A0001948FFF7CDFF0CE004211848FFF7C8FFCE
:1031B000EB7833B990F82330032443F0800380F890
:1031C0002330002380F8203080F8213090F823301D
:1031D00080F8224023F07F03C4F306241C430246F8
:1031E0002B4680F8234005F1200153F8044B8B4215
:1031F00042F8044BF9D10379727862F3C503037185
:1032000070BD00BF00C0072044CA0720B4C9072012
:1032100010B5FFF76FFF024618BBFFF76BFF0246C2
:10322000F8B9114B93F8FF2093F8031193F80701B5
:103230008A4296BF114603F5807203F1FC02814277
:1032400098BF084693F80B41084988BF084A844252
:1032500038BF0A460021116093F8FB10013183F852
:10326000FB10104610BD00BF9CC90720A4CA072050
:10327000A0CA07202DE9F04705460C464FF0240967
:1032800009FB0219DFF864A14E1C4FF000084C4501
:1032900000F09A8094F823301A0624D5B5B12A7824
:1032A00061788A4205D16F7816F8010C874200F0E8
:1032B0008D80E87850B16878884207D116F8011CF3
:1032C000914203D1A979A27991427FD094F822202A
:1032D000218C03F07F0342EA0323994271DB2046ED
:1032E000FFF7CCFE72E06278002A6AD06DB32979CC
:1032F00001F0C001C02917D116F8010C6978884285
:1033000002D12878904261D0E778A87887420CD122
:1033100091420AD116F8010C2978884205D1A0798A
:10332000A979884201D151E079B1A878E178884241
:103330000BD16978914208D116F8010C297888429E
:1033400003D1A079A979884246D094F82210208C24
:1033500003F07F0341EA0323984232DB237984F8A8
:103360002080C3F3C201CFB284F821801FB1204670
:10337000FFF7A2FE25E003F0C003C02B19D016F81A
:10338000010C9AF80030984213D1E3789A4210D099
:103390007BB16379022262F307136371E170204607
:1033A000FFF78AFE23799AF8012062F3C50323719F
:1033B00000E001276078FFF79DFE08B1C0F80080AB
:1033C00027B92434243662E7BDE8F087242200219F
:1033D00020460CF0ABFDF4E7237984F820806FF3EE
:1033E000C50384F821802371EBE700BF00C00720EC
:1033F000431EDBB2FD2B9DBF024B18700120002045
:10340000704700BF00C00720014B1878704700BF0D
:1034100000C0072007289CBF014B5870704700BFB1
:1034200000C007202DE9F347044692461E469DF84A
:1034300028500F46002968D0374B93F800909846E3
:10344000494564D00F2E62D8002862D02022002186
:103450000CF06CFDFF2F237914BF0AF00302002249
:1034600062F38713032262F3020398F80120677066
:1034700062F3C503294A237192F80C3184F8009055
:103480000133DBB282F80C31A3710BAB84F80290EC
:103490000193904615B94FF001091BE004F1080AA9
:1034A000019AE0791346526853F8081B00EB0209B1
:1034B0005FFA89F9013DB9F1180F0193EDB207D810
:1034C00050440CF059FC84F80790002DE8D1E2E755
:1034D0004FF000090123384688F80D31FFF70AFE46
:1034E0000546FFF719FE002388F80D31637925B9E9
:1034F00066F307136371E57005E0AA7862F30713BA
:1035000063716B78E370484603E0084601E00020F1
:10351000FFE702B0BDE8F08700C007209CC9072084
:103520000EB477B507AB13F8044B0025019300F1F7
:103530000806182D294612D08CB1019A13465268FC
:1035400053F8080B1544182D019306D810B13144D7
:103550000CF012FC013CE4B2EBE7002000E001209B
:1035600003B0BDE8704003B07047144B012270B542
:1035700083F80D2104461E4608B9002518E0FFF720
:103580007DFD05460028F8D0237903F0C003402BC9
:1035900006D0C02B0AD1E37853B162789A4207D0A3
:1035A000617920460909FFF7ECFD01E0802BF7D097
:1035B000002386F80D31284670BD00BF9CC9072046
:1035C00030B51546B2FA82F21C1C18BF012452090C
:1035D000A2428DB001D100200EE002930A468DE890
:1035E000300001469DF8403004A8FFF71BFF00287B
:1035F000F1D004A8FFF7B9FF0DB030BD10B4182BFF
:103600009DF8044002D8019410BCD9E7002010BCFA
:10361000704782B02DE9F3479246421ED2B2FD2A8E
:1036200006460F460B939DF840905BD8002B59D06F
:10363000DDF83480B8F1000F54D00F9B002B51D02F
:103640000E9B002B4ED00C9B002B4BD0284C4822BD
:10365000002104F1A8000CF069FC9022002104F183
:1036600018000CF063FC1022002104F1FC000CF0A7
:103670005DFC204B84F81A711E7026460BAF0FCFED
:103680000FC600253B681822294604F21B10336040
:10369000C4F80E51C4F81251C4F81651C4F8F050D1
:1036A000C4F8F450C4F8F8500CF040FC514617220E
:1036B00004F21B100DF0B0FE29462846C04788B121
:1036C000B9F1000F04D102B0BDE8F04702B0B4E494
:1036D00001230093084A06232946FF20FFF770FFC5
:1036E0000028F0D1002002B0BDE8F04702B07047DA
:1036F0009CC9072000C0072054F4020000231A468A
:1037000030B5084C14F82350990035B1904202D1DD
:103710000448084430BD0132D2B20133042BF1D148
:10372000002030BD98CA072000231846044A12F82A
:10373000231009B10130C0B20133042BF7D1704717
:1037400098CA07202DE9F041B14D8AB0202200210E
:1037500002A80CF0EBFB95F80D312F4603F0FF04A7
:10376000002B40F051812B69202102A898470028A6
:1037700000F09180B5F8F2300133A5F8F230FFF790
:10378000D3FF9DF80C2085F8FA0002F00703032B05
:1037900004D095F8333143F001030AE09D4B9DF8C6
:1037A0000A101E789C46B14206D195F8333143F099
:1037B000020385F83331F9E0C2F3C2029DF808E054
:1037C0009DF80E00D5B207F5877104EB440313F89A
:1037D0000180F04510D101EB030898F80180804585
:1037E0000AD18B4901240B4493F8101183F810215E
:1037F0004D1B18BF012519E00134042CE5D1DCF87C
:10380000043084499A70844A587002F10900834256
:1038100083F800E040F0D7804A609DF808009DF8EA
:103820000A30834240F0D280002425469DF80A00E9
:10383000FFF7EEFC9DF80A2002709DF80A20427006
:1038400000228270FFF768FC04B125B39DF80830B0
:10385000B34200F0AA809DF80950FF2D1DD13B68AE
:10386000202102A86A4C984728B994F8333143F0D4
:10387000040384F833319DF80D3003F00F02511C1E
:1038800061F303038DF80D30C3F303139A4202DA98
:1038900002A8FFF7F3FB002488E0AE4237D174B9E9
:1038A0009DF80F305BB13B68202102A8584C984727
:1038B00028B994F8333143F0040384F833319DF888
:1038C0000C3003F0C003402B12D19DF80D309DF851
:1038D0000F201B099DF80800009312B918234F4AC6
:1038E00011E00C234E4A0321FFF76AFE034601E074
:1038F0009DF80B30002B58D19DF80D209DF8080045
:10390000120900921A460321FFF778FE4DE097F85E
:103910001A31002BBFD09DF80D4004F00F074FEA7D
:1039200014184745B7DA013767F303042846FFF751
:10393000E1FB8DF80D409DF80B40A64221D19DF88A
:103940000C1001F0C001402906D0A1F180035A42B9
:103950005A41144610B90CE0012260B1C0294378E5
:1039600005D19D4203D0003318BF012304E000239A
:1039700002E0C0290ED10346134303F0010420B92D
:1039800008E094B908B941460CE043788DF80B3053
:10399000857802E000258DF80B5002A8FFF76EFB3A
:1039A0001CB1294602A8FFF7ECFB02ACFFF745FB70
:1039B000204604221B49FFF75DFC02221A492046DB
:1039C000FFF758FC20E003334B6026E786423FF4C4
:1039D0002BAFFFF71DFC0446FFF79EFB23783BB19E
:1039E0009DF80D30A27803F00F0393423FF71CAF10
:1039F0009DF8083023709DF80A3063709DF80D30F3
:103A0000C3F30303A3700FE70AB0BDE8F08100BF62
:103A10009CC9072000C00720AACA0720B7CA0720F0
:103A20008CCA0720B4C9072044CA0720064A0023CD
:103A300012F82310814204D00133042BF8D1002066
:103A400070470120704700BF98CA0720002318461E
:103A50000A4AD118497809B10130C0B22433902BF9
:103A6000F7D1074B93F8A9200AB10130C0B293F8FF
:103A7000CD300BB10130C0B2704700BFB4C90720D0
:103A80009CC90720044A52F8F03F03605368436022
:103A900093688360704700BF9CC90720014B93F86F
:103AA000330170479CC90720024B002283F8332161
:103AB000704700BF9CC9072070B5174C4FF4803584
:103AC000E561164CA0602046C568144CED06FBD499
:103AD000A068C0B213B90B46254611E00B46254637
:103AE0005E1AB24213DD1E78A660EE68F606FCD4BC
:103AF000AE6803F8016BF3E7EE68F606FCD4AE6837
:103B00005E1A964203DA13F8016BA660F4E7024BE3
:103B10004FF480329A6170BD00C0092000800840D7
:103B200007B5002302A901F8013D01231A4600F060
:103B30001F00FFF7C1FF9DF8070003B05DF804FB0D
:103B400013B502AC04F8011D00F01F000023012290
:103B5000214640F02000FFF7AFFF02B010BD002269
:103B600001231146FF20A7E708B50920FFF7D8FF7A
:103B700000F0010008BD08B5FFF7F1FF00F00100FB
:103B800008BD08B51720FFF7CBFFC0F3001008BD34
:103B900070210720D4E70A4600230146A0208BE7C6
:103BA00008B50020FFF7BCFFBDE8084000F0FE01AB
:103BB0000020C5E708B5FFF7F3FF024B4FF0807216
:103BC0009A6108BD20C00920024B4FF08072DA6173
:103BD000704700BF20C0092008B50020FFF7A0FFF4
:103BE00040F00101C9B20020FFF7AAFF024B4FF0DD
:103BF00080729A6108BD00BF20C0092008B5FFF798
:103C0000AEFFC0F3401008BD2021072098E708B59B
:103C1000FFF7A5FFC0F3001008BD102107208FE7B4
:103C200000231A461946E12046E737B504460D46FB
:103C3000FFF7F6FF20462946FFF7ADFF0D4B4FF08B
:103C400080721C469A610022ADF80620BDF806304D
:103C500001339BB2ADF8063033B94FF08073E361A6
:103C6000FFF7DEFF03B030BDFFF78BFF0028EDD07C
:103C7000F3E700BF20C0092038B504460D46FFF722
:103C800080FF0028FBD029462046FFF7CEFF044ADC
:103C900053695B02FCD5BDE83840FFF7B5BF00BFF4
:103CA00000C0092008B51720FFF73AFF00F0010017
:103CB00080F0010008BD4021072041E708B50A4611
:103CC000012301466120FFF7F7FEC0F3420008BD63
:103CD00000231A461946E220EEE670B5064600209B
:103CE0000D461446FFF71CFF16B100F0BF0002E0BE
:103CF00040F04000C0B215B100F0DF0101E040F03B
:103D0000200114B101F0EF0101E041F010010020A9
:103D1000BDE8704014E7072002E710B50446002014
:103D2000FFF7FEFE14B900F0F7010DE0012C04D1FD
:103D300000F0FB0141F0080106E0022C14BF40F046
:103D4000080140F00C01C9B20020BDE81040F7E6C0
:103D500008B50020FFF7E4FEBDE8084040F002018E
:103D6000C9B20020ECE608B50020FFF7D9FEBDE897
:103D7000084000F0FD010020E2E608B5044B4FF0DA
:103D80008072DA61FFF7EFFFBDE80840FFF7E0BFA0
:103D900020C0092040F6DD13984206D840F6621391
:103DA000B0F5166F38BF184600E01846A0F516614A
:103DB000C9B20520C4E608B530B10620FFF7B0FE51
:103DC00060F07F01C9B204E00620FFF7A9FE00F011
:103DD0007F010620BDE80840B2E610B50446062083
:103DE000FFF79EFEFA2C00F0D70102D141F020012E
:103DF00004E0B4F5FA6F08BF41F008010620BDE801
:103E000010409DE610B504460620FFF789FE032CFE
:103E100028BF032420F0060040EA4401C9B206206E
:103E2000BDE810408CE6F9284FF0FA0305D9B0F54B
:103E30007A6F88BF4FF47A6000E01846B0FBF3F069
:103E40000F2900F1FF30C0B228BF0F2141EA001155
:103E5000C9B2042074E638B505460820FFF760FEB5
:103E6000C0F3071435B10520FFF75AFE01460520BF
:103E7000FFF766FE204638BD08B50820FFF750FE64
:103E800000F00F0008BD1130C0B2162803D8202959
:103E900028BF202154E67047032804D0042814BF0B
:103EA0000321022100E00121032049E60A46002304
:103EB0000146302000E60A46002301462A20FBE5A1
:103EC00073B50E4615460446FFF702FFFFF7A8FE3E
:103ED0002B4B4FF08072DA61FFF745FF002211464D
:103EE0000120FFF7FAFEFFF753FE0220FFF715FF50
:103EF0003046FFF74FFF2846FFF76FFF0320FFF71D
:103F000081FF03210220FFF71BFE00210120FFF7A4
:103F100017FE03214FF4FA70FFF785FF21460020BA
:103F2000FFF7B1FF00211220FFF70AFE0021132046
:103F3000FFF706FE00211420FFF702FE00211520E6
:103F4000FFF7FEFD00211620FFF7FAFD0D4B186864
:103F50001B79009005208DF80430FFF79DFF68461F
:103F60000521FFF7A3FF05216846FFF7A4FFFFF730
:103F7000EFFE4FF4FA6005F05DFA02B070BD00BFCD
:103F800020C009205BF402000A46002301462B20D2
:103F900092E501460C20D3E501460D20D0E501460F
:103FA0000E20CDE501460F20CAE530B49DF808503B
:103FB0009DF80C4009B140F002000AB140F0040045
:103FC0000BB140F008000DB140F010000CB140F012
:103FD0002000014630BC0120B2E530B49DF8085005
:103FE0009DF80C4009B140F002000AB140F0040015
:103FF0000BB140F008000DB140F010000CB140F0E2
:104000002000014630BC02209AE500BF0B1F70B5AE
:104010005D420C465D410646FDF723FA042C08BFBD
:104020003060284670BD034800231A4619460068D0
:1040300007F010B8D0CA072038B51B4C626822B907
:104040002021032006F03BFF6060A2682AB92021EE
:10405000012006F034FF144B9860256865B90322EF
:104060002946012006F02BFF0F4A106020B12B4695
:104070002A46294606F054FF4FF4FA6240F6C3116F
:104080002020FFF71DFFFFF7A7FD1620074A01219B
:1040900005F0ECFD6068044B28B1986818B1186809
:1040A000003018BF012038BDD0CA072027400100CA
:1040B00070B500238AB001930379014603F0C00371
:1040C000C02B104B06460CBF9D685D6801AA0023FB
:1040D000284606F0BFFF044658B9024602A9284602
:1040E00007F071F8234601AA3146284606F0B2FFD0
:1040F0000446019B1BB1044B4FF080521A602046CE
:104100000AB070BDD0CA072004ED00E038B50446FF
:104110000D46FFF779F9237883420AD0E37843B953
:104120000CF0CEFABD2300F0030000FB033005F0D5
:1041300081F9FFF749FDFFF733FDA9B22046FFF7EC
:1041400074FDFFF761FDFFF747FD07F095FD0128BE
:1041500006D1044800231A461946006806F07AFF83
:10416000012038BDD0CA072038B504460D46FFF7F8
:1041700099FD48B1A9B22046FFF7A0FDFFF792FDD7
:1041800008B9FFF798FD012038BD2DE9F743064631
:104190000F46144607F070FD012807D12246002380
:1041A0003946304606F08DFFC4B216E0002302AD5A
:1041B00045F8043DFDF755F910EB040841F10009FD
:1041C0002A463946304606F0FEFFC4B22CB9FDF748
:1041D00048F9894508BF8045F2D2204603B0BDE8C2
:1041E000F08300B50C4B8DB009930C4B0C4A0B932C
:1041F0000C4B0A930CAB43F8102D002204920FCB0A
:104200008DE80F00084B094A01216A20FFF701FAE7
:104210000DB05DF804FB00BF3940010069410100A9
:104220000D4001000D410100B14001008AEC020087
:10423000024B0A4601465868A7E700BFD0CA0720CC
:10424000024B0A46014698689FE700BFD0CA072084
:1042500010B5002488B000216846FFF7E9FF014649
:1042600008B10134F7E76846FFF7EAFF0028F8D104
:10427000204608B010BD08B507F0FEFC0F4B012822
:104280005B6913D15A020DD5FFF7E0FB00280C48FB
:104290004FF0000314BF01224FF0FF3219460068AF
:1042A00006F00FFFBDE80840FFF74CBA5B02F9D5F6
:1042B000FFF7CCFB0028F5D108BD00BF00C00920E6
:1042C000D0CA0720F0B5864687B0114F4C1101F0D7
:1042D0001F0501AE457004700FCF0FC670463B68D6
:1042E0000321336006AB03EB840353F8143C6D00E9
:1042F000CEF80430E30003F1804303F530331A684D
:1043000001FA05F522EA05051D6007B0F0BD00BF02
:1043100060F40200416840780A680123834022EA81
:1043200003030B607047416840780A6801238340AB
:1043300013430B607047436841785A6901238B40EF
:10434000134214BF012000207047417842680123C6
:104350008B40936170474178426801238B40D36161
:10436000704709B1FFF7F1BFFFF7F5BF30B54378EC
:104370000578064C5B0054F83520032101FA03F35D
:1043800022EA030344F8353030BD00BF40C002408C
:1043900030B543780578054C5B0054F8352003218F
:1043A00001FA03F3134344F8353030BD40C00240F6
:1043B00030B50C4B0278417853F832404900032560
:1043C00005FA01F124EA010143F83210417853F86B
:1043D00032404900022000FA01F1214343F8321033
:1043E00030BD00BF40C0024010B5094A0478012327
:1043F000407821B152F8241083400B4304E052F876
:104400002410834021EA030342F8243010BD00BF8A
:1044100068C002400B4B1A6822F0E06222F0FF02F3
:104420001A601A6842F004021A601A6842F0807238
:104430001A605A68002AFCDA024B5868C0F30B1065
:10444000704700BF0040034010B5044619222A21DE
:1044500000F0B6F90D222179206805F085FEA0F163
:104460002A035842584110BD08B5012100F0AEF9A9
:10447000102300B290FBF3F008BD08B5032100F053
:10448000A5F9102300B290FBF3F008BD08B5052193
:1044900000F09CF9102300B290FBF3F008BD224B12
:1044A000F0B51A68194612F010020FD09B68C83395
:1044B0008B611E4B1A881F2A05D8501C1880C86AA9
:1044C00003EB8203586010230B60F0BD1B68DB0711
:1044D00028D5164B198801291FD9181D01398A4280
:1044E00006DA446805680132641B40F8044BF6E7BD
:1044F000002005469A68012602EB520482B29142DE
:1045000009DD03EB82077F680130BC423CBF06FA3D
:1045100002F21543F2E7C3F8845000221A80024BDE
:1045200001221A60F0BD00BF00800040DCCA0720F5
:104530001A4B70B5D3F8C420194C42F00202C3F8EC
:10454000C420D3F8A821012522F03002C3F8A82105
:10455000D3F8A821002642F01002C3F8A821656014
:10456000266707F031FF42F21073B0FBF3F0E06012
:10457000A36A0C4A23F00703A362A36A284643F008
:104580000603A362A66163692B436361D36843F0AA
:104590003003D360044B04221A6070BD00C00F408A
:1045A0000080004000C0024000E100E0034BD3F86F
:1045B0008400003018BF0120704700BFDCCA07200C
:1045C000034B0022D3F88400C3F88420704700BF57
:1045D000DCCA072008B5044B417101F07F015A5C29
:1045E000032100F0EDF808BD74F4020008B5044B97
:1045F000817101F07F015A5C022100F0E1F808BDF1
:1046000074F4020038B504460179006805F0B9FD7C
:10461000002814BF0125002511D0002206212046C4
:1046200000F0CEF800220721204600F0C9F82E2124
:104630002046FFF7CFFF2E212046FFF7D7FF284661
:1046400038BD10B504462021FFF7C4FF2046BDE861
:1046500010402021FFF7CABF642370B5B1FBF3F40B
:1046600004FB1311CCB20A21B4FBF1F501FB154197
:104670003031C9B20646FFF7B9FF092C88BF05F1F2
:1046800030013046BDE8704094BF2021C9B2FFF729
:10469000A1BF0120704740F213120D4B01F00F0132
:1046A00001709A610278D10744BF0122DA61027871
:1046B000920744BF0222DA610278510744BF1022F8
:1046C000DA610278120744BF4FF48072DA617047F2
:1046D00020C009200123013903FA01F103781943AD
:1046E000C9B20170FFF7D7BF0123013903FA01F105
:1046F000037823EA01010170FFF7CDBF007870470E
:104700000120704786E608B5FFF784FE642358430E
:10471000C0F30F3008BD01207047044B5B69180BD4
:1047200000F00C00C3F341231843704720C0092058
:104730000139032908B505D8FFF7EFFF084100F05C
:10474000010008BD002008BD10B5044681220121EA
:1047500000F036F801222179206805F005FD10F0FF
:10476000600F14BF0120002010BD38B500210446A1
:1047700000F02CF8812205B20121204600F020F83B
:10478000102095FBF0F009F027FB4FF0765109F06F
:1047900077FBA16809F06CFA38BD08B5FFF7E5FFB3
:1047A000054909F06DFB054909F01EFC4FF08441F5
:1047B00009F05EFA08BD00BF000010410000A040F3
:1047C00013460A460179006805F038BD1FB500227E
:1047D00004AB047923F8042D0222009200680A46F3
:1047E000214605F04BFC9DF80C009DF80D3043EA86
:1047F000002004B010BD2DE9F04FADF5197D04AED9
:104800000C4691460146012230469A4601F00AFFC5
:10481000002851D10A2221460EA801F003FF0546C7
:1048200020B1304602F0DEF9284645E007468046D2
:1048300002AC20600390FCF714FE234683464FF43D
:10484000007218A9304601F0E7FF034688B92268D4
:104850007AB1FCF706FEB0EB0B008044FCF701FEDA
:1048600003AB8346226818A90EA802F09BF8034602
:10487000B0B1B9F1000F01D0C9F80080BAF1000F52
:1048800001D0CAF80070A29A02B1156004A8019381
:1048900002F0A8F90EA802F0A5F9019B18460BE05A
:1048A000039922689142E4D1FCF7DBFD2368B0EB69
:1048B0000B0007441D44BEE70DF5197DBDE8F08FE0
:1048C000F0B58DB00E46174601461D460122002365
:1048D00002A8019301F0A6FE044670B91DB1294655
:1048E00002A802F0ADF901AB3A46314602A801F048
:1048F00093FF044602A802F075F920460DB0F0BD02
:10490000F0B58DB00E46174601461D460A2200231B
:1049100002A8019301F086FE044670B91DB1294634
:1049200002A802F08DF901AB3A46314602A802F026
:1049300039F8044602A802F055F920460DB0F0BD42
:10494000F0B58DB00E46174601461D4612220023D3
:1049500002A8019301F066FE044680B90DB1294614
:1049600000E0059902A802F06BF901AB3A46314626
:1049700002A802F017F8044602A802F033F9204614
:104980000DB0F0BD7F2810B516D931B1FF2812D86F
:104990000A4B803833F8100010BD084A32F8114035
:1049A0008BB2844203D001318029F7D10B4603F149
:1049B0008000C0B210BD002010BD00BFF4F40200A2
:1049C00010B5002307495A0001F5807434F81340EC
:1049D00034B1844201D00133F4E78B18B3F8E0021C
:1049E00010BD00BFF4F4020010B501200C4606F023
:1049F0000BFB2060003018BF012010BD0120704764
:104A000010B5044607F038F901280AD100231946E9
:104A100040F6B832204606F054FB431E5842584137
:104A200010BD012010BD10B5044607F025F901287E
:104A300007D100232046BDE810401A46194606F06B
:104A40006FBA10BD10B5044602F032FF24B1012C3C
:104A500006D100F0B5F901E000F09CFC044600E04E
:104A6000042402F039FF204610BD28B1012801D0EE
:104A70000420704700F05EBA7047F8B507460C4650
:104A800015461E4602F014FF3FB1012F0CD13246ED
:104A90002946204600F054FA04E0324629462046D2
:104AA00000F0AAFC044600E0042402F015FF2046B2
:104AB000F8BDF8B504460D4616461F4602F0F8FE4E
:104AC0003CB1012C10D13A463146284600F080FA1C
:104AD00008E0084B3A461C683146013428461C6001
:104AE00000F0C6FC044600E0042402F0F5FE204677
:104AF000F8BD00BF64CB072070B506460C461546CE
:104B000002F0D6FE36B1012E0AD12946204600F029
:104B1000B7FA03E02946204600F0CFFC044600E047
:104B2000042402F0D9FE204670BD00BF2DE9F041FB
:104B3000FCF797FC104BFF2200F5FA709A60DA68D8
:104B40000D4CD206FBD4A0460646A3680027FF23DF
:104B5000A360D8F80C30DB06FBD4D8F80850EDB2CF
:104B6000FF2D05D0FCF77DFCB94208BFB042EED363
:104B70002846BDE8F08100BF00000340704738B50B
:104B8000064C4FF00075E561FFF7D0FF044AA561C0
:104B9000137843F00103137038BD00BF20C0092013
:104BA00008C007202DE9F84305460C46FCF759FCE0
:104BB000DFF8BC806430C14606460027FF23C8F8F2
:104BC0000830D9F80C2012F01002FAD1D9F80830C8
:104BD000DBB2FF2B08D1FCF744FCB94208BFB0425E
:104BE000ECD30020BDE8F883FE2BFAD1102C05D9B8
:104BF0004FF40071284605F0F1FC25E01C482A1D01
:104C000003460746FF2104348160DE68F606FCD4C3
:104C10009E6802F8046C9960C668F606FCD49E682B
:104C200002F8036C9960FE68F606FCD49E6802F8F0
:104C3000026C9960C668F606FCD49E68043202F8DD
:104C4000056CA61AF542DFD1094BFF229A601A467D
:104C5000D168074BC906FBD49A68FF229A60DA68CC
:104C6000D206FCD4024B01209B68BDE8F88300BF4C
:104C70000000034070B506460D46FFF757FFFF28BA
:104C80002AD1174B9D60DA68154CD006FBD4FD2D58
:104C9000A36823D0FF224FF40071304605F09EFC3C
:104CA000FF23A360E3680E4A13F0100FFAD1936854
:104CB000FF239360D1680A4BC906FBD49A68FF2290
:104CC0009A60DA68D206FCD4054B986800F01F00A1
:104CD000431F5842584170BD002070BD012070BD77
:104CE0000000034038B5030604460D4607D50021F1
:104CF0007720FFF7F7FF01285DD804F07F042E4BE3
:104D00004FF000729A61DA61FFF710FFFF2851D16E
:104D10002A4B1A469C60D168284BC806FBD49A6877
:104D20002A0E9A60DA6812F0100F244AFAD19368BA
:104D3000C5F307439360D168204BC906FBD49A683A
:104D4000C5F307229A60DA6812F0100F1B4AFAD1F5
:104D5000EDB293689560D368DB06FCD4174B402C0A
:104D60009B6804D0482C0CBF8722012200E09522CA
:104D7000124B9A601A46D168104BCD06FBD44C2CCE
:104D80009A6806D1FF229A60DA68D406FCD40B4BED
:104D90009B680A4A0A231146FF259560C868C00629
:104DA000FCD48C68E0B2240605D5013B13F0FF0368
:104DB000F3D138BDFF2038BD20C0092000000340DA
:104DC0002DE9F743574B1A781E4612F0020F01D017
:104DD0001878A2E0012005F0B3FB534A0A241346D9
:104DE000FF219160D868C006FCD4013C14F0FF0498
:104DF0009868F6D14D4D4FF00073EB61214640208D
:104E0000FFF770FF012801D0002475E0FCF729FBB3
:104E10004FF4D57100F57A784820FFF763FF012839
:104E200045D1414AFF20134601AF9060D968C906B9
:104E3000FCD49968E1550134042CF6D19DF8063074
:104E4000012BE1D19DF80730AA2BDDD14FF00009ED
:104E5000FCF707FB494508BF404506D3FCF701FBBB
:104E6000494508BF4045CFD207E04FF08041E920D7
:104E7000FFF738FF0028EBD1F0E700217A20FFF799
:104E800031FF0028C0D1284AFF2413469460D96816
:104E9000C906FCD49968395401300428F6D19DF82C
:104EA000043013F0400F14BF0C24042424E02146E6
:104EB000E920FFF717FF022835BF02240124E92764
:104EC00041274FF00009FCF7CCFA494508BF40459F
:104ED0000BD3FCF7C6FA494508BF40450CD34FF445
:104EE00000715020FFF7FEFE06E000213846FFF774
:104EF000F9FE0028E7D1ECE70D4B1C704FF0007372
:104F0000AB613CB13378182003F0FE03337005F039
:104F100017FB01E0FFF733FE3078C0B203B0BDE805
:104F2000F08300BF08C007200000034020C0092014
:104F300040CD0720014B1878704700BF08C00720FC
:104F400070B506461446002A38D01E4B1B78DB0786
:104F500036D41D4B4FF00072DA611C4A1D461278A0
:104F600012F0080F08BF4902012C0CD15120FFF7A5
:104F7000B9FEE0B94FF400713046FFF713FEB0FA06
:104F800080F4640913E05220FFF7ACFE78B94FF4C7
:104F900000713046FFF706FE28B1013C14F0FF0413
:104FA00006F50076F3D100214C20FFF79BFE4FF071
:104FB0000073201CAB6118BF012070BD042070BDC0
:104FC000032070BD08C0072020C0092040CD072065
:104FD000F8B506460F461446002A44D0254B1A78E9
:104FE000D20742D41B785B0741D4234B4FF00072A9
:104FF000DA61224A1D46127812F0080F08BF4F02EC
:10500000012C0CD139465820FFF76CFE18BBFE214D
:105010003046FFF72FFEB0FA80F464091CE012F06E
:10502000060F03D02146D720FFF75CFE39465920F2
:10503000FFF758FE80B9FC213046FFF71BFE28B170
:10504000013C14F0FF0406F50076F4D1FD210020A8
:10505000FFF710FE00B901244FF00073201CAB6174
:1050600018BF0120F8BD0420F8BD0320F8BD0220C0
:10507000F8BD00BF08C0072020C0092040CD072090
:1050800005287FB50D461AD10B78012B00F01E8143
:1050900003D3022B0BD004201BE18F4B586910F077
:1050A000806440F01381FFF76AFD204611E18A4BCE
:1050B0005B6983F08063C3F380634B7006E1874BC9
:1050C0001B78DC0700F104810E2800F2F980DFE88C
:1050D00010F00F00190058005C00F700F700F7000F
:1050E000F700F700F700B800BD00C000C900E000FD
:1050F000794B4FF00072DA61FFF718FDFF3818BFE7
:105100000120DEE000214920FFF7ECFD044608B154
:105110000120D6E010216846FFF744FD0028F7D0B3
:105120009DF800309DF808109B09012B9DF809306F
:1051300006D1013303EB012189B2890229601EE007
:105140009DF807209DF80500920002EB91119DF853
:1051500006200131920202F4406211449DF80A20B7
:1051600000F00F0000EBD2105A00023002F00602ED
:105170008318DBB289B2093B01FA03F32B602046A6
:105180009FE04FF400730B805EE0554E337803F0E0
:10519000040303F0FF012BB30021CD20FFF7A2FD94
:1051A0000028B5D14F4BFF229A60DA684D4CD006EB
:1051B000FBD410216846A368FFF7F4FC0028A7D0B1
:1051C00023463020FF22A260D968C906FCD40138EA
:1051D00010F0FF009968F6D19DF80A301A091023E3
:1051E00093402CE04920FFF77DFD044600288FD135
:1051F00010216846FFF7D6FC002889D036789DF844
:105200000A2006F0020606F0FF009DF80B3066B19A
:10521000520002F07E0202EBD3135A1C9DF80D30AF
:105220009B09013B02FA03F3A8E7D90001F018013A
:10523000C2F3840201EB5311531C01FB03332B60B7
:105240003FE0274B1B780B7000203AE000214920FB
:1052500001E000214A20FFF745FD00287FF458AF08
:10526000102126E000217A20FFF73CFD00287FF482
:105270004FAF1C496B1E0A460335FF268E60D0686F
:1052800010F01000FBD1946803F8014FAB42F5D148
:1052900017E00021CD20FFF725FD00287FF438AF6F
:1052A000104BFF229A60DA68D206FCD40D4B4021E5
:1052B0009B682846FFF776FCB0FA80F0400900E0D2
:1052C0000420054B4FF000729A6102E0002000E0DC
:1052D000032004B070BD00BF20C0092008C0072013
:1052E00040CD0720000003400B4A0C4910784B6961
:1052F00083F08063C3F380631370137898420AD1FC
:10530000074A13784969DBB2490154BF03F0FD0332
:1053100043F003031370704768CB072020C00920B7
:1053200008C0072008B500F0E1F808BD10B5074C2B
:105330004023E361D720FFF7F5FFFF2000F0D6F808
:105340000306FAD54023A36110BD00BF00C00920A9
:105350002DE9F843994690460F4606460C4C4025E9
:10536000FFF7E4FFE5618220FFF7DCFF4846FFF727
:10537000D9FF4046FFF7D6FF3846FFF7D3FF01229B
:105380004FF48071304605F029F9A561BDE8F88336
:1053900000C0092070B5164C4025FFF7C7FFE56136
:1053A000D720FFF7BFFFFF2000F0A0F80646A56159
:1053B0009F20E561FFF7B6FFFF2000F097F8F307A5
:1053C000A56111D4E5613D20FFF7ACFF2A20FFF76E
:1053D000A9FF8020FFF7A6FFA620FFF7A3FFA56186
:1053E00004480BF05BF9FEE71F3818BF012070BDC1
:1053F00000C00920B4F9020070B54C0205461646FB
:10540000FFF794FF184B4022DA61184BC4F30722D0
:10541000C4F30741D2B2E8209860E4B299609A6080
:10542000FF229C609A609A609A609A60DC680F4ADA
:1054300014F01004FAD193689368936893689368A2
:10544000936893689368B44205EB442006DA00221F
:105450004FF4007105F0C2F80134F4E7024B40222A
:105460009A61002070BD00BF00C009200000034009
:105470002DE9F041054690464C020026464519DAD2
:105480002746C4F30743C4F30722E1B2284604F5D4
:105490008074FFF75DFFC4F30743C4F30722E1B252
:1054A00005F58070FFF754FF05F5007507F50074EA
:1054B0000136E3E70020BDE8F08108B5072805D8EC
:1054C000DFE800F006090C1012121212042008BDC9
:1054D000FFF72CFF08E04FF4006304E04FF4007383
:1054E0000B8001E001230B60002008BD044B986095
:1054F000DA68D206FCD4024B9868C0B2704700BF8D
:10550000000003401FB501A804F030FF9DF80830EB
:105510009DF8092003F01F0302F00F021B0443EA69
:1055200042519DF806309DF8040003F01F0341EA44
:10553000C3229DF80530C0F3440003F03F0342EA64
:105540004313BDF80A201843520602F108421043E3
:1055500005B05DF804FBFFFF30B504460D1F131BBB
:105560000344032B04D955F8043F44F8043BF6E701
:105570009408A3001944A2EB8402013B18440A4496
:10558000914204D011F8013B00F8013FF8E730BD2B
:105590000244904202D000F8011BFAE7704770B550
:1055A00000242346164A52F8045C5DB10668B542F1
:1055B00009D116688568AE4205D19688C588AE4285
:1055C00001D106E001340133032B02F10C02EAD1D0
:1055D0000DE051B90B4A0C2101FB03235B89B3F5A4
:1055E000807F14BF0020102070BD102070BD24B932
:1055F00002290CBF0020122070BD002070BD00BF2A
:1056000070CB07206CCB072000F10B010023DA01DF
:1056100042EA530310F8012B1344884203F0FF03BE
:10562000F5D1184670472DE9F041056B04468D42CF
:105630000F4602D10020BDE8F081037913B9002F95
:10564000F8D01FE000F1340801232A464146407893
:10565000FFF72FFA10B10120BDE8F081626A236ADA
:10566000207113449D42EAD2E678012EE7D9236ADD
:1056700041461D442A4601236078013EFFF719FA8E
:10568000F6B2F2E701233A4604F134016078FFF7FD
:10569000F4F90028DFD12763BDE8F0812DE9F0415E
:1056A00003690D4601F10906002B43D0416905F15C
:1056B00011020C7B01F1FF3E04F00807FFB21EF857
:1056C000013F202B0FD0052B08BFE52337B1A3F1F5
:1056D000410CBCF1190F9CBF2033DBB206F8013B33
:1056E0009642ECD100E032460B7A202B19D02E23C3
:1056F00004F01004561CCF1D02F8043BE4B217F866
:10570000013F202B0CD034B1A3F1410EBEF1190F93
:105710009CBF2033DBB206F8013B9642EFD100E09C
:1057200032461646CB7A2B72CB692B600B8BAB8043
:10573000CB8AEB8000243470AE69FEB1EB69EBB12B
:1057400003690BB9002417E04FF6FF73028C9A42ED
:10575000F8D0D0F81C80771E38F8140060B1002112
:10576000FFF710F90028EDD0EB69013B9C42E9D22C
:10577000013407F8010FEFE700233355BDE8F0814E
:1057800070B500210446FFF74EFF054678BB23782D
:10579000032B24D1637913B304F13406014620634B
:1057A0004FF400723046FFF7F3FE4AF65523A4F893
:1057B00032320F4BA269636303F1FF5303F50053C9
:1057C0002033C4F8183263693146C4F81C322369A7
:1057D0006078C4F820320123FFF76BF9657100226D
:1057E00011466078FFF788F9003018BF012070BDBE
:1057F0005252614110B50A46044600F134010123BA
:105800004078FFF73AF9A0B94AF65523B4F83222A6
:105810009A4210D1D4F86A30084A23F07F43934269
:105820000AD0D4F8860020F07F40801A18BF0120EB
:1058300010BD032010BD022010BD00BF4641540022
:105840002DE9F041036815461E78303E092E08D830
:105850005A783A2A05D10233012E036000F2F38010
:1058600000E00026834F07EB86035C6A0C60002C87
:1058700000F0EC80E068FFF7C3F8002800F0E98052
:1058800023788BB16078FFF7F0F8C1070CD4002DB6
:1058900000F0E28000F0040303F0FF00002B00F0B2
:1058A000E6800A20BDE8F0810023F0B2237060702A
:1058B000FFF7C8F8C20700F1D2800DB14307F0D45A
:1058C00000212046FFF796FF01280CD194F8F6310D
:1058D00013B90D20BDE8F081D4F8FA5120462946CD
:1058E000FFF788FF00E00025032800F0BB800028B8
:1058F000EFD1B4F83F30B3F5007FEAD1B4F84A00F5
:1059000000B9A06D94F844202062531E012BE27070
:10591000DFD894F8413000FB02FCA370002BD8D0F4
:105920005A1E1A42D5D1B4F8458018F00F0FA4F8CA
:105930000880CED1B4F8471001B9616DB4F8426067
:10594000002EC6D006EB181EE6447145C1D3CEEB3F
:105950000101B1FBF3F3002BBBD040F6F57293428B
:1059600003F10201AE4405EB06020FD94FF6F576BE
:10597000B3427AD9E161C4F82CE06262B8F1000F59
:10598000A7D1236E0326A3628B0015E00126E161F7
:10599000C4F82CE06262B8F1000F9AD0022E4FEAF0
:1059A000410318BF5B18624418BF01F00101A262F5
:1059B0001CBF01EB5303012603F2FF13B0EB532F7F
:1059C00087D34FF0FF336361032E4FF00003236151
:1059D00024D1B4F8642063712A44A261012304F144
:1059E00034016078FFF749F8C0B94AF65523B4F896
:1059F00032229A4212D1626B1F4B9A420ED103F1AE
:105A0000FF53D4F8182203F5005320339A4201BF04
:105A1000D4F820322361D4F81C326361BB8D154A5F
:105A200001339BB2BB85E3800023194626702363B4
:105A30002371F858844208BF99500C33242BF8D1B5
:105A40000020BDE8F0810B20BDE8F0810C20BDE80E
:105A5000F0810F20BDE8F0812846BDE8F0810320E9
:105A6000BDE8F0810120BDE8F08102268FE7BDE8A6
:105A7000F08100BF6CCB07205252614110B5044643
:105A800088B103787BB1C3888B420CD1C068FEF724
:105A9000B7FF50B16078FEF7E8FF10F0010F14BFB8
:105AA0000320002010BD092010BD0F2010BD0F29BC
:105AB00005D84FF41A4323FA01F1CB0702D400684A
:105AC000FEF7B1BF7047C3690239023B99423DBF3F
:105AD0008378C06A01FB0300002070470129F8B5F4
