:10100000004008206B11000039110000E1100000C1
:101010002911000019110000091100000000000052
:101020000000000000000000000000004BD10000A4
:10103000FB10000000000000C9D1000005D2000034
:10104000F5110000F5110000CD560000F51100006B
:10105000F511000009BA0000F51100007DBA00008A
:1010600005BB0000F5110000F5110000F5110000AE
:1010700025B00000F5110000F5110000F511000089
:10108000F51100002D9A0000F5110000F511000087
:10109000F5110000C1AE0000F5110000F5110000CF
:1010A000F5110000D5A80000F5110000F5110000B1
:1010B000F51100006DD40000F5110000F5110000DD
:1010C000F5110000F5110000F511000050130200A9
:1010D00000C007202C09000030C90720D40D0000F3
:1010E00004207146084203D0EFF309800CF074B974
:1010F000EFF308800CF070B9704708B5014800F0B4
:101100009EF9FEE7FB05020008B5024800F097F9DA
:10111000FEE700BF0B06020008B5024800F08FF999
:10112000FEE700BF1806020008B5024800F087F984
:10113000FEE700BF2306020008B5024800F07FF971
:10114000FEE700BF2E06020010B5002302E01C5887
:101150005C5004339342FAD310BD00231A4601E0D9
:101160001A5004338B42FBD3704738B5114C124DE3
:1011700004E094E807000C34FFF7E6FFAC42F8D334
:1011800005E094E803000834FFF7E7FF00E00B4DAB
:10119000AC42F6D30FF050FC0CF01EFB01F084F9CA
:1011A00002F0F8FF4FF416400CF058FC044800F031
:1011B00046F9FEE7CC100000D8100000E010000057
:1011C000A006020008B5024800F039F9FEE700BFAA
:1011D000C906020008B5024800F031F9FEE700BF79
:1011E000D406020008B5024800F029F9FEE700BF66
:1011F000E306020008B5024800F021F9FEE700BF4F
:10120000F30602000BF0C6BF0BF0D5BF0D4B024634
:10121000196811B94FF08051196018688118196068
:10122000094BCB1809498B4204D8094B0549D21800
:101230000A601846034B074A1968914284BF1A6036
:101240000020704730C90720FF7FFFEFFE3F0710E7
:1012500004D70720004008200FF036BC0FF034BC44
:101260000FF03ABC0FF038BC30B58BB0044668467E
:1012700010F03EFD079A134D089BB2F5803F2560A4
:10128000A360626002D9104BD31863600023E3604F
:101290000E4B0F4A1B68934205D8EB18C3F18053DD
:1012A00003F580330AE00B4A934208D80A4DC5F192
:1012B000804505F58015EB1A002B00DDE360204624
:1012C0000BB030BD0417000000C0F8EF30C9072094
:1012D00000800010FF3F082004D70720002070473F
:1012E000FEE700BF30B504468DB0002838D009A80D
:1012F0000AF0A4F99DF82430002503F03F03009381
:101300009DF82530684603F03F0301939DF8263091
:10131000089503F01F0302939DF8283003F01F0384
:1013200003939DF8293003F00F03013B0493BDF8AC
:101330002A30C3F30B039BB2A3F5EC630C3B05937C
:101340009DF8273003F007030693BDF82C30C3F354
:101350000B039BB2013B079310F0C0F884E8210017
:1013600000200DB030BD1FB5002845D00FF0A0FB08
:101370000C220446002101A80FF062FF22689DF8AC
:10138000043001A862F305038DF8043062689DF80B
:10139000053062F305038DF80530A2689DF806302C
:1013A00062F304038DF80630E2689DF8083062F3BA
:1013B00004038DF8083022699DF8093062F30303B5
:1013C0008DF809306269BDF80A3002F5EC620C3222
:1013D00062F30B03ADF80A30A2699DF8073062F39F
:1013E00002038DF80730E269BDF80C3062F30B039D
:1013F000ADF80C300AF046F9002004B010BD0FB46F
:1014000030B5A3B026AC54F8045B0021802201A8BB
:101410000FF016FF2946224601A8219415F0C2FBC1
:1014200001AC054601E00CF05FFB14F8010B00284D
:10143000F9D1284623B0BDE8304004B0704710B55C
:10144000044601E00CF050FB14F8010B0028F9D120
:1014500010BD0FB4F7B508AF57F8046B304611F064
:101460000BFB20F00F05203528460FF02DFB0097D1
:101470000446102711E0009B20462946324601937E
:1014800015F064FBA8420ADB90FBF7F501352D014E
:101490002046294610F0DEFC0446002CEBD1204605
:1014A000BDE8FE4004B07047014B1860704700BFB4
:1014B00034C90720014B5860704700BF34C907206A
:1014C00008B5024810F096FCFEE700BF00E40100FA
:1014D00008B5024810F08EFCFEE700BF1AE40100D8
:1014E0000020704701207047F8B5084F0C463B6854
:1014F00016462BB907E0605D3B689847013500E070
:101500000025B542F7DB3046F8BD00BF34C90720DF
:10151000F8B5094F0C467868164630B9F8BD7B68B7
:10152000002098476055013500E00025B542F6DB04
:1015300026EAE670F8BD00BF34C9072070470020D6
:101540007047094B1B689A68824208D05A688242E9
:1015500007D0DB681B1A584240EB0300704701209C
:1015600070470120704700BF48C407200020704723
:101570000020704730B50C4687B00B4905460AF08D
:1015800081FBA17A62880091E17A23880191E18848
:101590002846029121890391A188049103490AF008
:1015A00071FB07B030BD00BF44E401007AE40100E4
:1015B000F0B5D9B00D4608F0E2FD0028044604DD80
:1015C0000BF082FD20460BF055FB052255A8204963
:1015D00005AE0FF059FD00240A2157AA3046579452
:1015E0000BF002FB579A6423B2FBF3F307465793C1
:1015F00028461849184A0A230AF044FB1AE0579B68
:1016000006EB44121BB19169B1FBF3F100E01946FE
:10161000137B58A8C318506913F80C3C0090908BAA
:101620000291019091692846039152680B490AF092
:1016300029FB0134BC42E2D10BF0EAF90A2804D9B3
:10164000284607490A220AF01DFB012059B0F0BDC7
:1016500034E401009BE40100C8E40100CDE4010092
:10166000EAE4010010B5A0B080220C4668460021D3
:101670000FF0E6FD68460BF007FF204669464FF085
:10168000FF320AF0C5FA012020B010BD2DE9F04765
:101690004F4C98B02368884633B92820FFF7DCFD0B
:1016A00005460AF08DF92560266800F005FE002445
:1016B00018A900F50C7041F8044D053016AA06F083
:1016C0000BFD48B9169A179CD5699378023D5C4387
:1016D0005D4364086D0800E025463E4B1B68C3B9B6
:1016E0000C20FFF7B9FD3C4B07461A6899463AB9FA
:1016F0001C20FFF7B1FD824609F08AFCC9F800A062
:10170000D9F800303B6090233B710023BB60314B24
:101710001F60304B186804F078F981460DF0CEFE5A
:1017200007460DF0B1FC014648460DF0F7FB2B498A
:101730000DF0FEFC0DF0C2FE814613A80CF042F83D
:10174000182200210DA80FF07BFD0DA80AF032F839
:10175000234B1A689A4622B90120FFF77DFDCAF88B
:101760000000DAF8000004F0E9F80DAB03939DF8EF
:1017700051308DE8800203F00F0304939DF8503040
:10178000029003F01F030593BDF852304046C3F3A7
:101790000B039BB206939DF84E30124903F01F03D2
:1017A00007939DF84D30224603F03F0308939DF8C0
:1017B0004C3003F03F030993338A0A93738A0B93E7
:1017C0002B460AF05FFA012018B0BDE8F08700BF91
:1017D00040C9072044C9072048C90720000020410C
:1017E0004CC9072014E5010030B50C4695B04049BE
:1017F000054608F094FA002845D00FAB009310ABD3
:10180000019311AB029312AB039313AB04932846DD
:1018100038490DAA0EAB08F0A8F9072864D19DF845
:101820002D300D9A0AA862F303038DF82D300E9A1D
:101830009DF82C3062F304038DF82C300F9ABDF81C
:101840002E3062F30B03ADF82E30109A9DF82A303B
:1018500062F304038DF82A30119A9DF8293062F35F
:1018600005038DF82930129A9DF8283062F305039C
:101870008DF82830139A9DF82B3062F302038DF80F
:101880002B3009F0FFFE06AD284609F0D7FE95E89B
:1018900007000AAB83E80700BDF82E109DF82D2045
:1018A000C1F30B0189B200919DF82A109DF82C30EC
:1018B00001F01F0101919DF8291002F00F0201F0C3
:1018C0003F0102919DF8281003F01F0301F03F0132
:1018D00003919DF82B10204601F007010491064961
:1018E0000AF0D0F9012000E0002015B030BD00BFA3
:1018F000BBF401008AE50100A3E5010030B589B021
:1019000004AB0024009302220D4603AB1849039454
:10191000049408F037F9022827D107AB009305AAF1
:101920000398049906AB05940694079404F09EF876
:10193000024638B1049B284600930E49039B0AF0E7
:10194000A1F910E0059A069B0799002A08BF012219
:10195000002B08BF0123B1FBF2F2B1FBF3F32846E1
:1019600005490AF08FF9012000E0204609B030BD9A
:101970009C010200CAE50100E9E501002DE9F047FC
:101980000C46ADF5866D3549064608F0B1FA344986
:1019900080F00109304608F0D6FA3149304608F0A7
:1019A000F6FA304608F0E9FB0DF5806808F1040806
:1019B00001460122404605F08DFF5FFA89F9054690
:1019C00040B1304608F0D9FB2649024620460AF0CD
:1019D00059F93EE0294640F2014268460DF5866716
:1019E0000FF02EFC47F8045D00F057FD6E4682466E
:1019F00005E0204669464FF0FF320AF0F6F840460F
:101A000069464FF480623B4606F056F840B9DDF86F
:101A10002C342BB1ED18F054B9F1000FEFD0E8E7FA
:101A2000404606F00AFAB9F1000F0CD100F035FD7E
:101A3000B0EB0A0308BF0123B5FBF3F320460A49C4
:101A40002A460AF01FF9204608494FF0FF320AF0F3
:101A5000DFF801200DF5866DBDE8F08717E601007F
:101A60009C01020020E6010034E6010090E601003E
:101A70002DE9F043C1B03FAB0025009302220C4694
:101A80003EAB5C493D953E953F9508F07BF80228BA
:101A900003D13F980EF0C8FF05463E9B0BB9564B4D
:101AA0003E932BAE30463E9906F08EFA034608B9B7
:101AB0000BAF0EE0204651493E9A0AF0E3F895E05C
:101AC0008023304634A93A973B9306F0B0FA013DA3
:101AD00008B9002DF4DC204649493E9A0AF0D2F8B4
:101AE00000252E460BAF0DF1D90880232BA834A971
:101AF0003A973B9306F09BFA00285FD19DF8D930C6
:101B0000002B5BD09DF8D810CB0602D501354422BE
:101B100005E03D9A349B0136D3183D932D2211F0F8
:101B2000010F0CBF2D23522311F0020F0CBF4FF0F9
:101B30002D094FF0480911F0040F0CBF4FF02D0C88
:101B40004FF0530C11F0200FBDF8D4100CBF4FF024
:101B50002D0E4FF0410E8DE800524FEA612E0EF52A
:101B6000F66EBDF8D6000EF10C0ECDF80CE0C1F308
:101B7000431E01F01F010591C11206913499C0F373
:101B800045100790089120461E49CDF810E0CDF889
:101B900024800AF077F820461B494FF0FF320AF004
:101BA00024F8394620464FF0FF320AF01EF820464E
:101BB00016494FF0FF320AF02BF896E7009540AD3A
:101BC00055F80C3D1249324620460AF05BF83E9823
:101BD00029463CAA06F080FA40B93C9B3D9A9B7886
:101BE00020465A430B4952080AF04CF8012041B0F4
:101BF000BDE8F0839C0102004FE6010052E60100BF
:101C000076E6010091E60100BEE6010090E60100E3
:101C1000C2E60100ECE6010070B50E46044608F08D
:101C2000ACFA0546204608F0A8FA06F06FFB064A13
:101C3000064B0749002808BF134630462A460AF0DB
:101C400021F8012070BD00BFA2E80100ACE801004E
:101C500000E7010070B50E46044608F08EFA05460E
:101C6000204608F08AFA06F0EFFA064A064B0749C2
:101C7000002808BF134630462A460AF003F8012020
:101C800070BD00BFA2E80100ACE801001CE7010044
:101C90007FB503AB0024009302220D4602AB0F492F
:101CA0000294039407F06EFF022814D1029E039C55
:101CB0003046214606F033FC094B0A4A0A490028FF
:101CC00014BF10461846009032462846234609F0B5
:101CD000D9FF012000E0204604B070BD9C01020045
:101CE000A2E80100ACE801002EE7010070B58CB05D
:101CF0000C46064608F041FA0A22014668466D463F
:101D000005F0E8FD40B1304608F037FA20490246B8
:101D1000204609F0B7FF2CE08DF82F000A901D49EE
:101D20007E2242F21073204609F0ACFF20461A4989
:101D300009F0A8FF6D4606E00A9B012B1CD0204647
:101D4000164909F09FFF20460DF12F0142F2107253
:101D500009F0EAFEC0B19DF82F307E2B14D0684602
:101D60000DF12F0101220AAB05F05BFF0028E3D142
:101D700002E001200CB070BD9DF82F1020464FF0FE
:101D8000FF3209F004FFDEE7684606F056F8F0E798
:101D900046E701006DE70100A5E70100C5E7010086
:101DA0002DE9F04F0023ADF5417DBE93BF93BFAB4E
:101DB000009302220C46BEAB404907F0E3FE022826
:101DC00006D020463E494FF0FF3209F021FF6AE07D
:101DD000A3A8BF9906F0F8F818B120463949BF9A70
:101DE00007E0A3A8BE9906F0EFF828B13649BE9ADD
:101DF000204609F047FF56E003A94FF48072B4A8CB
:101E000007F066FEB9A843A94FF4807207F060FEA0
:101E1000ACAB0DF5037A03F109058023A3A8ACA9A7
:101E2000CDF8C8A2B39306F002F918B99DF8B932FB
:101E3000002B3DD1B9A807F05FFEB4A807F05CFE07
:101E400031E0BE9A2B46B4A8204908F06DFBBF9A3A
:101E50002B461E49B9A808F067FBB4A808F08DF915
:101E60008046B9A808F089F98146B4A8AC9F08F06B
:101E700084F98346B9A808F080F932460146334612
:101E80005846009603F0F2FD114B124A1249002801
:101E900014BF104618460190424620464B46009714
:101EA00009F0F0FEB9E701200DF5417DBDE8F08FA6
:101EB0009DF8B86216F01006AFD1C2E79C0102008F
:101EC000ECE7010031E8010056E8010076E8010086
:101ED000A2E80100ACE801007CE8010070B50C4606
:101EE0002C49054608F0DDF8064628B100F008FA4E
:101EF000002190F8340209E02846274908F0D1F87B
:101F000070B100F0D9F990F8340231460A4606F073
:101F100093FB224B224A002814BF1146194615E0B4
:101F20002846204908F0BDF8B8B100F0E9F90546A7
:101F300090F8340203F0C6FE28B995F83402294619
:101F400005F090FC08B1184900E0184920464FF010
:101F5000FF3209F05DFE012070BD2846144908F0EB
:101F6000A0F8B0B100F0A8F9054690F8340203F0EB
:101F7000A9FE28B995F83402294605F073FC08B18A
:101F80000C4900E00C4920464FF0FF3209F040FEBA
:101F9000012070BD03E901000DE901009BE801008B
:101FA000A5E801001AE90100C2E80100B2E8010059
:101FB00023E90100E7E80100D9E8010010B50C466B
:101FC00000210B4610460A460AF00DF92046034947
:101FD0004FF0FF3209F01CFE012010BD2FE9010077
:101FE000F0B597B005464FF47A730C220C460FA853
:101FF00000211291139114930FF022F9284672498F
:1020000007F0A6FE0746284687B1704914AA07F0D4
:10201000ACFD07A8149903F037FA20B19DF81C20F5
:1020200020466B49CCE020466A49BCE06A4907F08B
:102030008FFE0646A8B116AA42F8047D63492846D9
:1020400007F093FD159DE8B202F0ECFA634A644B89
:102050006449002818BF134620462A4609F012FE9C
:10206000A8E02846604907F0BFFDC0B102F074FC4B
:102070005E490246204609F005FE304608E08178B8
:102080000278437800912046594909F0FBFD284623
:10209000451CEDB202F048FC0028F0D18AE0284649
:1020A000544907F0A1FD78B102A802F00DFE02A983
:1020B0000C220FA80EF0E8FF02F0C0FA0FA90246AA
:1020C0002046FFF757FA75E028464B4907F040FED7
:1020D00028B92846494907F03BFE00286BD012ABCF
:1020E000009313AB0193032200232846444907F0D1
:1020F00049FD01285CDD4049284607F029FE0746D6
:1021000012980EF091FCC6B2139818B110F0B4FCFE
:10211000C5B207E0054605E020463A494FF0FF32D8
:1021200009F076FD07A8002103F0AEF90028F3D1ED
:102130000223009330463946139A2B4602F05EFB89
:1021400010B9204630492EE0002F33D007A814994B
:1021500003F0A2F9002830D09DF81C30B3422CD1F6
:102160009DF823300C2B04D109A920463246FFF7F5
:1021700001FA2046B5B9254909F084FD0DF1230681
:1021800007E016F8011F20464FF0FF3209F0FFFC70
:1021900001359DF823309D42F3DB20461C4909F0B0
:1021A00071FD07E01B494FF0FF3209F031FD01E0FE
:1021B000002000E0012017B0F0BD1749129A204618
:1021C00009F060FDF6E700BF73F401004CE901007F
:1021D00053E901006AE901006AED0100A2E801008B
:1021E00045E901007BE9010092E9010099E901005C
:1021F000B3E90100D6E90100DDE90100DCE90100F5
:102200009C010200E1E9010003EA01002BEA010060
:102210003FEA010042EA01005FEA010008B54FF021
:10222000FF320846094909F0F3FC00F08FF807F087
:1022300079F94FF4FA600AF01DFD4FF08043AA22AD
:102240001A7200221A70012008BD00BF85EA010041
:1022500073B50D461349044607F023FF50B100F053
:1022600075F807F05FF928460F494FF0FF3209F083
:10227000CFFC15E000F06AF80646204607F07DFF27
:102280009B230146094A00933046094B07F09AFA0E
:10229000204607F072FF07490246284609F0F2FC83
:1022A00001207CBD96EA01009CEA0100B5EA01002C
:1022B00039E40100DBEA010038B50F4C256815F060
:1022C000010516D120460BF069FE90B14FF40E7057
:1022D000FEF7C2FF302380F835323A2380F83632D9
:1022E000064B80F8345280F83752186020460BF0C5
:1022F00075FE024B186838BD50C9072054C9072025
:1023000038B5104C256815F0010517D120460BF0A3
:1023100045FE98B14FF40E70FEF79EFF012380F842
:102320003432312380F835323A2380F83632064B86
:1023300080F83752186020460BF050FE024B1868A8
:1023400038BD00BF5CC9072060C9072038B5064CFE
:10235000236833B91420FEF77FFF054607F0EFF836
:102360002560206838BD00BF58C9072001480FF01C
:1023700041BD00BFE9EA0100F7B5074690F8340215
:102380000E4603F09FFC054628B997F834023946FB
:1023900005F068FA0546D5F1010438BF0024002C89
:1023A00020D002A9002307F50C7741F8043D781DE1
:1023B0006A4605F091FEA8B9009A0199D06995780E
:1023C00002386843694342084B08B2F57A7F01D26C
:1023D0000A4802E0C20A0A48CB0A31460FF0C6FC9E
:1023E0002046FEBD074A084B0848002C18BF13467C
:1023F00031462A460FF0BAFC0024F1E727EB010032
:1024000055EB010020EB010024EB010083EB010000
:1024100038B5204CD4E9002315460AF0BFFD012849
:102420004FF001024FF00003D4E9000118D18018E9
:1024300041EB0301C4E900010BF082F8D0B10BF0CD
:1024400071F8D4E900010A2200230DF07DF80A2377
:102450000A46A0FB030103FB0211C4E9000109E0E5
:10246000801841EB0301C4E9000103F031F80020BA
:102470000AF085FF0A23B5FBF3F203FB12553DB9C1
:1024800004F074F84FF08043AA221A7255221A728F
:1024900038BD00BF68C90720BAE7024BD3E9000185
:1024A000704700BF68C9072070B5ADF5027D00F028
:1024B000D5F90AF0DBFE4FF4FA6008F03BF9FFF7BC
:1024C00055FF0BF013F9A04B4FF47A74B0FBF3F106
:1024D00003FB11029D48B2FBF4F20FF047FC0BF036
:1024E0006BF904280AD1FFF741FF994B9948D96C41
:1024F0001A6D5B6D0FF03AFCFFF738FF00F03CFA05
:1025000009F09CF9944B954CD3F8C420022542F471
:102510008012C3F8C420D3F8AC2122F44062C3F87F
:10252000AC21D3F8AC2142F48062C3F8AC2107237C
:10253000236065600BF0DAF8834BB0FBF3F0B0FB7F
:10254000F5F3082B04D9B5F5807F01D00235F6E705
:10255000256100F03DFA642108F022FD10B98048A1
:102560000FF048FC02F069FF10B97E480FF042FC02
:1025700001217D480AF09CFFFFF79EFE7B49FFF793
:10258000FBFE0446C0B97A480FF0F0FBFFF794FE5B
:102590002146224690F8340206F04EF8754B764AF2
:1025A000002814BF104618460FF024FCFFF784FEE5
:1025B0006E49FFF7E1FE0446704D2E6816F00106E5
:1025C00017D128460BF0EAFC98B14FF40E70FEF7D5
:1025D00043FE012380F83432312380F835323A2328
:1025E00080F83632664B80F83762186028460BF068
:1025F000F5FC634B63491868FFF7BEFE1CB310B3CC
:102600000722002102A80EF01BFE5F4902A810F06D
:10261000D5F95E4902A810F013F85C495C480FF048
:10262000A5FB0022594802A91346009203F01EFAA6
:1026300030B1584B584A042814BF1046184600E0E1
:1026400056480FF0D7FB182009F0E0F8FFF78EFE90
:102650000025022400F0BCF9E1B208F02BFF50B1D4
:10266000382C08D0402C06D0902C04D04C48214661
:102670000FF07CFB01250234B4F5807FEAD10DB167
:10268000FFF774FE474D2B684BB90820FEF7E4FDB9
:10269000044600F09DF93823206023712C60414BE3
:1026A000186802F0E7FF044618B93F480FF0A2FB94
:1026B00000E0012400F0BEF903F07DF9054618B9E9
:1026C0003A480FF097FB2C4600F092F903F0DEF841
:1026D000054618B936480FF08DFB2C46354D2B6852
:1026E0001BB90120FEF7B8FD2860286803F03EF80A
:1026F000314D00F0B5F903F01FF900F08DF903F04A
:10270000E3F82B681BB90120FEF7A6FD28602868B6
:1027100003F036F900F080F9002103F0D7F8002C1F
:102720004CD1FFF723FE00F063F92D2103F070F880
:1027300000F05EF92D2103F077F800F06DF9FF212C
:1027400003F0C4F847E000BF40420F00D8EB01009F
:1027500000400240F2EB010000C00F400080084042
:1027600046EC010078EC0100112400009DEC010012
:10277000A5EC0100B6EB0100BBEB01005CC9072032
:1027800060C90720D1E80100CEEC0100D1EC0100C6
:10279000D5EC0100CEEB0100C7EB0100C1EB01005D
:1027A000F8EC010070C907201BED010036ED0100B7
:1027B00050ED010074C9072078C9072000F018F90E
:1027C000044600F037F903F020F90CF09DFEC1B289
:1027D000204603F035F800214FF4007202A80EF0F5
:1027E0002FFD02A80AF050FE02A80FF003FBFFF72E
:1027F000BDFD0023154802A907220293039303F0AD
:1028000099F9A8B902A80EF00FF9C4B2631EDBB2A1
:10281000FD2B05D902A90D4A0D480FF0A7FA07E0D4
:102820000C482146094A0FF0A1FA204601F0FAFEB1
:1028300000F016F903F082F80FF0E4FA06480FF002
:10284000D9FAFFF793FD0DF5027D70BD69ED01002A
:102850006FED01009AED0100C7ED01004249434AC6
:1028600040238B614FF0007393614FF480338B6191
:102870003F4B186820F0F0001860186840F05000D6
:102880001860186820F440501860086840F0400054
:102890000860186820F47C201860186840F428202C
:1028A0001860186820F470001860186840F4200060
:1028B0001860186820F040401860186840F0004028
:1028C0001860586820F03C005860586840F02800B4
:1028D0005860586820F003005860086840F4803061
:1028E0000860586820F440505860086820F4800060
:1028F0000860D96821F44031D960116841F08071D5
:102900001160596821F440215960596841F48021CF
:1029100059609868174901409960116841F48871BD
:1029200041F003011160996821F470119960996870
:1029300021F070419960116821F446411160D96815
:1029400021F03001D960D96841F03001D960D968EF
:1029500021F47011D960136843F000731360136899
:1029600023F080631360704700C0092020C0092055
:1029700000C00240F0FCFCFF10B5124B124CD3F823
:10298000C42042F48052C3F8C4204FF400122260E5
:10299000D3F8A82122F04072C3F8A8210AF0A6FEBD
:1029A0000A4A80080023B0FBF3F1914204D8226860
:1029B00042EA0323236010BD0233B3F5807FF2D1D6
:1029C00010BD00BF00C00F4000400340FF1AB70019
:1029D00038B5064C236833B91C20FEF73DFC05468C
:1029E00008F016FB2560206838BD00BF48C90720E5
:1029F00038B5084D2B684BB90820FEF72DFC04466E
:102A0000FFF7E6FF4023206023712C60014B18681C
:102A100038BD00BF80C9072038B5054C256825B9E9
:102A20000120FEF719FC05702060206838BD00BF4A
:102A30007CC9072038B5094D2B685BB90C20FEF71F
:102A40000BFC0446FFF7C4FF902323710023206092
:102A5000A3602C60014B186838BD00BF44C9072033
:102A600010B5044C23681BB90120FEF7F5FB20606C
:102A7000206810BD4CC90720012070470120704715
:102A8000642310B50021044603620322012009F0EB
:102A90007AFB606620B100210A460B4609F0A3FBD1
:102AA00000210A460B46606E09F07BFC0349626E0A
:102AB0002046BDE8104006F037BC00BF20EE010004
:102AC00037B50B4600250C494FF4C062044600950B
:102AD00006F078FA094B002223600023C4E91A2388
:102AE000C4E91C23256604F13800294628220EF08B
:102AF000A7FB20463EBD00BF5EEE010008EE0100D0
:102B0000704710B50023846B8C4202D11360012002
:102B100010BD013304300A2BF5D1002010BD2DE982
:102B2000F04196B00DF14008002406466946402267
:102B30004046159406F0CCFF706E2146224623468F
:102B400009F02FFC002838D059480FF053F9FFF74F
:102B50004FFF2D2102F05CFEFFF74AFF2D2102F00E
:102B600063FE354602E064200AF084F800F0CCF8F9
:102B700002F03AFE0028F6D000F0C6F802F03EFE61
:102B8000074622464B493B46404607F0CDFC4046AF
:102B900007F0F3FA0FF02EF9AF63FFF729FFE1B268
:102BA000013402F04DFE04350A2CDFD142480FF00B
:102BB00021F94FF4FA600AF05DF8D6E91C2352EAD5
:102BC00003013DD000F0A0F802F00EFE002869D00D
:102BD00000F09AF802F012FE15AA01463046FFF7FF
:102BE00090FF00285ED0326E159BD3183366FFF736
:102BF000FFFE15993031C9B202F016FE4FF4FA60AB
:102C00000AF038F800F080F802F0F8FD0022002306
:102C1000C6E91A23C6E91C233DE0FFF73EFCD6E9CE
:102C20001A23904271EB030435D300220023C6E936
:102C30001A23C6E91C23FFF7DBFE02F01DFE2AE083
:102C400000F062F802F0D0FD28B300F05DF802F069
:102C5000D5FD15AA01463046FFF753FFD8B1FFF75F
:102C6000C7FE159900253031C9B202F0D1FDFFF73A
:102C7000BFFE2D2102F0D8FD159B0A22534342F2DC
:102C800010743366C6E91C45FFF707FC001941EBD9
:102C90000501C6E91A0110A806F02EFF012016B0A2
:102CA000BDE8F081D6E91C2352EA0301F3D0B4E772
:102CB0002AEE010065EE010077EE0100014B036092
:102CC000704700BFE8ED0100012070470120704708
:102CD00001207047014B0360704700BFE8ED010021
:102CE000034B10B504460360FEF7BAFA204610BD48
:102CF000E8ED0100034B10B504460360FEF7B0FA9F
:102D0000204610BDE8ED010010B5044C23681BB946
:102D10000120FEF7A1FA2060206810BD74C90720C9
:102D200001207047F7B50B46002519494FF4A05212
:102D30000446009506F046F9164B258723600423C8
:102D40006587E5636564A564E564284623644821D6
:102D50000FF080F8A56CE064AE000BE01420FEF7E5
:102D60007BFA0021142207460EF06AFAE36C013563
:102D70009F510436112DF1D912236364012384F885
:102D8000643004F16800802107F012FB2046FEBD8C
:102D9000B8EE010098EE010001207047082A70B5D6
:102DA0000D4614464DD1084606F0B8FE002851DD08
:102DB0003A4B18688268916801390029916011DAEC
:102DC0009669B1420ADB1268147018688268136849
:102DD00019780A2903D0013313600AE0214613F061
:102DE0001FFF06E0126814701B689B681A680132A6
:102DF0001A602A4B1868826891680139002991602D
:102E000012DA9669B1420BDB126820211170186842
:102E10008268136819780A2903D0013313600BE024
:102E2000202113F0FDFE07E01268202111701B68BD
:102E30009B681A6801321A602846012107F017F8CA
:102E400009E00A2A07D00D2A05D00846114607F0E6
:102E500074FA00E00724114B186882689168013900
:102E60000029916012DA9569A9420ADB1268147090
:102E700018688268136819780A2903D0013313602F
:102E800070BD2146BDE8704013F0CABE12681470D0
:102E90001B689B681A6801321A6070BD48C407201D
:102EA0002DE9F74380460E4600F0CAF902AD002333
:102EB0000446074605F8013D20462946642208F0ED
:102EC00033FE30B19DF8072040463146FFF766FFDC
:102ED0000BE020464EF6602108F043FF814620B902
:102EE00009F07EFD4F4660610DE0304606F016FEAB
:102EF0008146304606F015FE0138814503DA9DF81B
:102F000007300A2BD8D13846BDE8FE83F7B5054611
:102F100005F168041F480EF029FF28462146FFF7F7
:102F2000BFFF064640B91C480EF064FF204607F07C
:102F300024F90EF01BFF2AE0204606F0EFFD0028E2
:102F400025DDFFF7AAFA0746F0B12B8F05F1400007
:102F500001332B872146324605F01CFF01A80F499B
:102F600004220EF091F8002501ABE95C30464FF0E9
:102F7000FF32013508F00BFE042DF5D1FFF78DFA75
:102F8000C11B07480EF0F2FE204606F0CCFD0120E2
:102F9000FEBD00BFC1EE010090E60100B0EE0100F1
:102FA000C7EE010070B55B498AB0054606F050F8DF
:102FB00040350024064658492846584A584B009444
:102FC000019405F081FF28465649574A574B009413
:102FD000019405F079FF28465549564A564B00940E
:102FE000019405F071FF28465449554A554B009409
:102FF000019405F069FF28465349544A544B009404
:10300000019405F061FF28465249534A534B0094FE
:10301000019405F059FF28465149524A524B0094F9
:10302000019405F051FF28465049514A514B0094F4
:10303000019405F049FF28464F49504A504B0094EF
:10304000019405F041FF28464E494F4A4F4B0094EA
:10305000019405F039FF28464D494E4A4E4B0094E5
:10306000019405F031FF28464C494D4A4D4B0094E0
:10307000019405F029FF28464B494C4A4C4B0094DB
:10308000019405F021FF28464A494B4A4B4B0094D6
:10309000019405F019FF284649494A4A4A4B0094D1
:1030A000019405F011FF0423019328464749484A3B
:1030B000484B009605F008FF28464749474A484BC9
:1030C0000094019405F000FF00F0BAF84FF400738B
:1030D00020224FF41641044608F04AFC06464148B7
:1030E000FEF7E8F94048FEF7DFF9082208A903A82F
:1030F00006F0EEFC03A83D4907F090FA03A922462A
:10310000284605F047FE03A806F0F6FC30460AB054
:1031100070BD00BF20EE0100B1150000E0F5010018
:10312000DDEE01006516000014EF01001CEF010048
:103130008D1600003AEF01002CEF0100E9170000A6
:1031400082EF010041EF01007D19000087EF0100CF
:103150008BEF0100FD1800002AF00100E7EF0100ED
:10316000A11D000029F001002DF00100711A0000DE
:1031700078F001007BF00100191C0000A9F00100AB
:10318000AFF00100911C0000D4F00100D7F0010065
:10319000ED1C000004F1010007F10100551C0000C6
:1031A000B0F401002CF10100DD1E00004FF1010020
:1031B00057F101001D2200009AF10100A1F1010068
:1031C00051220000D1EC0100B4F10100BD1F00004C
:1031D000EAF10100F0F10100E11F000094EC0100B0
:1031E00018F20100EBB90000D5B900003FF301006F
:1031F00038B50C4B044640F8683B06F07DFC0025D2
:1032000004E050F82500FEF72BF80135636CE06C04
:103210009D42F6D308B1FEF725F8034B2046236004
:1032200038BD00BF98EE0100E8ED010010B504467E
:10323000FFF7DEFF2046FEF713F8204610BD000022
:1032400038B5064C236833B92820FEF705F8054643
:1032500008F0B6FB2560206838BD00BF40C90720D4
:1032600008B502F035F9012008BD13B500220B4660
:10327000009205494FF40072044605F0A3FE034B8B
:10328000204623601CBD00BF94EC010050F30100F8
:10329000014B0360704700BFE8ED0100034B10B520
:1032A00004460360FDF7DCFF204610BDE8ED010099
:1032B0000120704737B5002402AD45F8044D084998
:1032C00005F0C6FE29464FF0FF32234609F069F8A3
:1032D00018B1044801990EF049FD01203EBD00BF20
:1032E00050F4010059F401000F4A10B51368044668
:1032F00001330A2B136008DD0C4905F0C5FE006997
:1033000009F064FD206909F061FD2046084905F0D7
:103310009FFE002304494FF4FA6208F064FF003076
:1033200018BF012010BD00BF84C907206FF4010041
:1033300050F4010010B5002104460322012008F0DA
:1033400022FFA06320B100210A460B4608F04BFF84
:1033500001200021032208F016FFE06320B10021C4
:103360000A460B4608F03FFFA06B18B1E06B003037
:1033700018BF012010BD4FF47A7310B50421044624
:1033800003620022012008F0FEFE034902462046A7
:10339000BDE8104005F0C8BF50F4010008B5836BCC
:1033A000013383634EF6602009F064FC012008BD00
:1033B00010B500F138010446002006F0D9FA0120CA
:1033C00004F13C0106F0D4FA012010BD13B5044607
:1033D00000F13801002006F0CBFA04F13C01012095
:1033E00006F0C6FA00210A460B46A06B08F0D9FF8A
:1033F00000210A460B46E06B08F0D3FFE36B022185
:1034000000932046A36B0A4605F008FEA06B4FF020
:10341000FF33E36018B1E06B003018BF01201CBD22
:1034200030B5144C0021636805460133636085B0F4
:10343000806B4FF0FF320B4608F0B3FF60B163685A
:103440003C2B09DC01A808F0F9F89DF804100A48A3
:1034500001F03F010EF08AFC0021E86B0A460B46A2
:1034600008F09FFF10B105480EF0C4FC012005B024
:1034700030BD00BF84C9072076F4010082F401004A
:1034800013B500230093074901234FF480520446EB
:1034900005F098FD044B2046236040F6B8332362C4
:1034A0001CBD00BF98F4010030F4010013B50023E7
:1034B00006494FF480520446009305F083FD044B07
:1034C00020462360642323621CBD00BFA2F40100D8
:1034D00010F4010037B500252B4606494FF4805201
:1034E0000446009505F06EFD034BA5632360E5637C
:1034F00020463EBDAAF40100F0F3010037B50025D7
:1035000012494FF400622B460446009505F05AFD1F
:103510000F4BA5632360E56301202946032208F0D1
:1035200032FEA06320B129462A462B4608F05BFEF6
:1035300001200021032208F026FEE06320B10021D3
:103540000A460B4608F04FFE20463EBDB3F401008C
:10355000D0F3010037B500252B4606494FF48062B1
:103560000446009505F02EFD034BA563236020461D
:103570003EBD00BFBFF40100B0F3010013B500234E
:1035800005494FF480620446009305F01BFD034B90
:10359000204623601CBD00BFC7F4010090F301006A
:1035A00013B5002305494FF400620446009305F06B
:1035B00009FD034B204623601CBD00BF6FF40100D2
:1035C00070F3010013B5044611480EF013FCFFF729
:1035D00031FA02F01AFA0BF071FF01460D480EF0B5
:1035E000C5FB204605F006FD01460B480EF0BEFB6C
:1035F0000A4861690EF0BAFB00230193084B02E010
:10360000019A01320192019A9A42F9DD01201CBD12
:10361000CEF4010001F5010014F5010027F50100C9
:10362000FEFF0F0070B5434C8AB023681BB9012020
:10363000FDF712FE2060206802F0A4F9431E044644
:10364000072B50D8DFE803F004194F264F4F4F31B6
:1036500000F060F902F01FF8064600F05BF902F096
:1036600023F8054600F056F902F027F831460346E4
:103670002A4631480EF07AFB3BE0304D2B681BB9EF
:103680000120FDF7E9FD2860286802F057F901469E
:103690002B4807E0FFF7CEF902F0B7F90BF00EFF69
:1036A000014628480EF062FB23E0274D0021FF2051
:1036B00005F108020123009101F0A0F808B92348A0
:1036C0000EE002A84FF4FA7101F0DEFE38B1FFF708
:1036D0008FF9297A4B1C2B7202F0B2F809E01C48D2
:1036E0000EF088FB05E020B9FFF796F902F022F909
:1036F00020B1FFF791F9214602F0E8F802A8002175
:1037000001F0C2FE98B19DF80F30012B0FD10021BE
:10371000104A0323FF2000910B4C01F06FF89DF835
:1037200010302372FFF764F9217A02F089F8012042
:103730000AB070BD78C907203DF501004CC90720CB
:1037400058F5010065F5010084C9072076F50100F0
:103750008CF50100DDE9010013B50446A36B806818
:10376000984210D100210A460B4608F01AFE0028A4
:103770003AD0FEF7EBFD1D4B1D4900931D4AEF2388
:1037800006F02EF81CE0E36B98420FD100210A46A8
:103790000B4608F006FE38B3FEF7D8FD164B144969
:1037A0000093144AF52306F04DF809E0FEF7CEFD2C
:1037B000F823009311490E4A0E4B06F066F813E009
:1037C0000F4AD368591C3B2BD16003DC206909F0F8
:1037D000FDFA09E0FEF7BAFD05F0A4FE09480EF077
:1037E00009FB09480EF006FB00201CBDD4F50100C2
:1037F000ACF5010048F40100E5F50100F9F5010020
:1038000084C9072010F601004DF60100014B03604A
:10381000704700BFE8ED0100014B0360704700BF37
:10382000E8ED0100014B0360704700BFE8ED0100C7
:10383000014B0360704700BFE8ED0100014B0360DE
:10384000704700BFE8ED0100014B0360704700BF07
:10385000E8ED0100014B0360704700BFE8ED010097
:10386000034B10B504460360FDF7FAFC204610BD7B
:10387000E8ED0100034B10B504460360FDF7F0FCD2
:10388000204610BDE8ED0100034B10B5044603606F
:10389000FDF7E6FC204610BDE8ED0100034B10B536
:1038A00004460360FDF7DCFC204610BDE8ED010096
:1038B000034B10B504460360FDF7D2FC204610BD53
:1038C000E8ED0100034B10B504460360FDF7C8FCAA
:1038D000204610BDE8ED0100034B10B5044603601F
:1038E000FDF7BEFC204610BDE8ED0100F8B5084D1F
:1038F00004462B680F4633B91C20FDF7ADFC064685
:1039000007F086FB2E602B68277123602046F8BDE8
:1039100048C9072038B5064C23683BB90820FDF795
:103920009BFC38210546FFF7E1FF2560206838BD84
:1039300070C907200120704708B50349026C05F0E3
:10394000F3FC012008BD00BFB8F60100F7B5002365
:1039500002AD064605F8013D174C23E096F84430C9
:1039600003B320689DF8071082689368013B002B21
:10397000936010DA9769BB420ADB136819702068FC
:103980008268136819780A2902D00133136009E0AC
:1039900013F046F906E01368197023689B681A68EB
:1039A00001321A60B06B29464FF4FA7208F0BCF885
:1039B0000028D3D1FEBD00BF48C4072038B5154646
:1039C00004464FF0FF32806B08F00FF92DB1A06B69
:1039D00029464FF0FF3208F008F9A06B04494FF078
:1039E000FF3208F002F92046BDE83840AEE700BFDC
:1039F000ACFA010010B50C4904464FF0FF32806B61
:103A000008F006F94FF4827009F034F907494FF0D5
:103A1000FF32A06B08F0E9F84FF4827009F02AF940
:103A20002046BDE8104091E7BEF60100C3F6010054
:103A300070B510F14506044600F0938010F15D0565
:103A400000F08F8090F84530002B00F08A8090F8CD
:103A50005D30002B00F0858044480EF0CBF93046F5
:103A60000EF0C8F928460EF0C5F941480EF0C2F92B
:103A70002046FFF7BFFF3F480EF0BCF9002220466A
:103A80003D49FFF79BFF00223C492046FFF796FF88
:103A90003B480EF0AFF9002220463A49FFF78EFF6F
:103AA000204639493246FFF789FF00222046374930
:103AB000FFF784FF204636492A46FFF77FFF0022A2
:103AC00020463449FFF77AFF002233492046FFF7AA
:103AD00075FF32480EF08EF9002220463049FFF77C
:103AE0006DFF002220462F49FFF768FF00222E4974
:103AF0002046FFF763FF2D480EF07CF90022204698
:103B00002B49FFF75BFF20462A490022FFF756FFAB
:103B1000002220462849FFF751FF2849002220466D
:103B2000FFF74CFF26480EF065F920462549002294
:103B3000FFF744FF244900222046FFF73FFF2348B8
:103B40000EF058F9204622490022FFF737FF2046A1
:103B500020490022FFF732FF2046FFF7F7FE012041
:103B600070BD1D480EF046F9002070BDC7F601007B
:103B700090E60100E2F60100F9F601000CF7010001
:103B80001CF7010036F7010044F7010053F701006C
:103B900063F7010074F7010087F701009CF701004B
:103BA000B4F70100C5F70100D5F70100E7F7010000
:103BB000FDF701000EF8010022F8010035F80100C0
:103BC00046F8010053F8010065F801007BF8010098
:103BD00082F801009AF1010087F8010070B50446EF
:103BE000A6B0FFF707FFA06B28494FF0FF3208F09F
:103BF0000FF801A9802221A805F06AFF21A8A66B71
:103C000006F0BBFA054621A805F08BFF29460246BF
:103C10004FF47A73304608F009F821A81C4906F0E1
:103C200097F870B121A8A66B06F0A7FA054621A85F
:103C300005F077FF294602464FF47A73304607F0C5
:103C4000F5FFA06B13494FF0FF3207F0E1FF20466C
:103C5000FFF77CFE022121A806F094FA0378A3F175
:103C60003004E4B2092C08D9A3F14102D2B2052AEA
:103C70009ABFA3F14B04E4B21C4621A805F03CFF17
:103C800014F0030018BF012026B070BDA7F8010092
:103C9000B7F80100BEF6010010B50446FFF756FE66
:103CA0002046FFF7A7FE2046FFF750FEA06B034912
:103CB0004FF0FF32BDE8104007F0AABFBCF801008A
:103CC0002DE9F043ABB020AD80220446694628467A
:103CD00005F0FEFEE16B56480EF048F8E16BA06B74
:103CE00008F04AF82046FFF7D7FF284605F01BFFEB
:103CF0002846A76B06F041FA0646284605F011FF54
:103D0000314602464FF47A73384607F08FFF284653
:103D1000484905F0B1FF30B92846474905F0ACFFE6
:103D20008646002874D0E16B44480EF01FF8204608
:103D300043490022FFF742FE55E025ABF7583C48C7
:103D400039460EF013F82046FFF700FE3946A06B07
:103D500008F012F82046FFF79FFF284605F0E3FE23
:103D60002846D4F8389006F008FA8046284605F030
:103D7000D8FE414602464FF47A73484607F056FF94
:103D8000002832D028462B4905F076FF28B928466E
:103D9000294905F071FF002842D0394629480DF025
:103DA000E5FFE16B28480DF0E1FF2849E26B20A810
:103DB00006F0BAFB20A806F0E0F9002201462046F2
:103DC000FFF7FCFD204622490022FFF7F7FD2046C1
:103DD00020490022FFF7F2FD4FF4FA6006F0AAFC3A
:103DE0002046FFF7B3FD01240BE00436142EA4D1C6
:103DF000A06BE16B07F0C0FFE16B17480DF0B6FF59
:103E0000002420A805F078FE20462BB0BDE8F08302
:103E1000124E25AF0FCE0FC7336876463B608CE756
:103E2000284606F0AAF901460D480DF09FFFDCE791
:103E3000C0F80100E9F80100BCF80100EFF801004A
:103E4000BEF6010012F9010031F901004EF901003E
:103E500082F801009AF1010063F9010090F6010077
:103E60009DF90100836B002210B583F824200446DD
:103E7000FFF726FFC0B12046FFF7B0FE50B90B4850
:103E80000DF0B8FF2046FFF7D3FD08B1084802E067
:103E9000084800E008480DF0ADFF2046FFF756FD4A
:103EA000A36B012283F82420012010BDB8F9010082
:103EB000CFF90100EAF9010004FA01002DE9F3410C
:103EC000134600250E464FF46062184904460095DB
:103ED00005F078F8164B012023604FF46133E3635B
:103EE000A66304212A4684F8440008F04CF904F142
:103EF00045074FF0180820642946424604F15D0644
:103F000038460DF09DF92946424630460DF098F9A5
:103F10001722384607490EF061FE3046064917223F
:103F20000EF05CFE2046BDE8FC8100BF23FA0100D4
:103F300078F6010028FA01002DFA01002DE9F0437E
:103F40000A6885B004460D46002A00F0B6804B682A
:103F5000002B00F0B480CE68002E00F0B3801E78F5
:103F6000002E00F0AF801678002E00F0AB800B69B9
:103F7000002B40F3A680FFF73DFD20465849002264
:103F8000FFF71CFD57494FF0FF32A06B07F02DFEE5
:103F900029684FF0FF32A06B07F027FEA06B524953
:103FA0004FF0FF3207F034FE04AE002306F8023D66
:103FB0009DF80E30402B00F08980A06B314647F20F
:103FC000305207F0B1FD0028F2D17FE0FEF7BEF9D4
:103FD000552300934549464A464B05F024FC464983
:103FE0004FF0FF32A06B07F000FE69684FF0FF3220
:103FF000A06B07F0FAFD0DF10E07A06B3F494FF0E3
:10400000FF3207F005FEA06B394642F2107207F04E
:104010008BFD064648B9FEF799F9602300933849AD
:10402000334A344B05F0FFFB0EE02B7A3BB90BE033
:10403000A06B39464FF4FA7207F076FD20B12A7A68
:104040009DF80E309A42F3D1EB689DF80E204FF0A8
:1040500000081A70EB682A695F1C03EB02090DE087
:10406000A06B0DF10F014FF4FA728DF80F8007F07D
:104070005BFD28B19DF80F3007F8013B4F45EFD1AC
:104080004FF0000887F80080EB682046FF1A2F6188
:10409000FFF75CFC2046FFF7ADFC2046424619497D
:1040A000FFF78CFC204642461749FFF787FC204665
:1040B00016494246FFF782FC04E0164602E01E461F
:1040C00000E00026304605B0BDE8F0832046FFF74B
:1040D0003DFC9DF80E30402B7FF478AF7FE700BFAA
:1040E00031FA010041FA010047FA01004BFA0100E0
:1040F0007BFA0100A4F60100A5FA0100AAFA01006A
:10410000AFFA0100E0FA0100C5F70100BEF60100B8
:1041100073B5002502A9044641F8045D006C4FF018
:10412000FF322B4608F03DF9A0B1A36B019E83F846
:10413000245020463146FFF701FF019B30759869F6
:1041400020B129462A462B4608F04DF8A36B0122E0
:1041500083F8242001207CBD014B0360704700BF21
:10416000E8ED0100034B10B504460360FDF778F855
:10417000204610BDE8ED010000230371032308224F
:104180001A410A4214BF31223022C25413F1FF33C4
:10419000F5D270472DE9F743002400948DF80440D0
:1041A0005FFA84F841466846FFF7E6FF1D48694616
:1041B0000DF0DCFD04256E1E08233341234205D09B
:1041C000FEF72AFC294601F0ACFB04E0FEF724FCD4
:1041D000294601F09DFB0EB13546ECE7124D2B68E8
:1041E0009BB90820FDF738F8104F06463B683BB9ED
:1041F0001C20FDF731F8814606F00AFFC7F8009051
:104200003B683360402333712E602868414601F0DB
:1042100017FB013440F2DC5006F08CFA102CA8BFDA
:104220000024BDE7E6FA010080C9072048C907203D
:1042300030B500234FF6FF740AE045782DB1058CA8
:104240005519A54228BF254605840133DBB2243029
:104250008B42F2D130BD73B50E4C02A8002304216D
:1042600040F8043D63689847019B656906465D1BFD
:1042700004F1180004212A466361FFF7D9FF04F115
:10428000A80002212A46FFF7D3FF301C18BF0120E7
:104290007CBD00BF94C9072008B50C4B1A78037881
:1042A00093420B4B05D1B3F8F0100131A3F8F01095
:1042B00004E0B3F8F4100131A3F8F4102021827067
:1042C000DB689847003018BF012008BD00C00720F8
:1042D00094C907200C4B02781B789A420B4B05D1EE
:1042E000B3F8F6200132A3F8F62004E0B3F8F82082
:1042F0000132A3F8F8200379C3F3C202013A62F352
:10430000C5030371C8E700BF00C0072094C9072098
:1043100010B50849002311F82340DAB2844203D1D2
:10432000044B03EB820010BD0133042BF3D10020BA
:1043300010BD00BF90CA07202DE9F0470546914601
:104340000C460027DFF86C814FF0020AADE094F8CC
:10435000233003F08003DBB233B3ADB12B78627846
:10436000934204D168782178884200F09680E978F9
:1043700051B16978914207D122789A4204D1AA7941
:10438000A3799A4200F0898094F8233094F822109F
:10439000228C03F07F0341EA03239A42C0F2828019
:1043A0002046FFF779FF78E06378002B7AD0002D64
:1043B00034D02A7902F0C002C02A15D16A78217857
:1043C000914202D12978994267D0E078A978884251
:1043D0000BD1934209D121782A78914205D1A17954
:1043E000AA79914201D158E0C2B1A978E27891420C
:1043F00014D16A789A4211D121782A7891420DD14C
:10440000A179AA79914209D12279002363F3C502E7
:1044100084F8203084F82130227143E094F823207E
:1044200094F82200218C02F07F0240EA022291429D
:1044300038DB2179002284F8202084F82120C1F380
:10444000C202D6B21EB12046FFF744FF2AE001F0B7
:10445000C001C02917D0207898F80010884212D1E6
:10446000E17899420FD071B16379E2706AF3071372
:1044700063712046FFF72EFF237998F8012062F33D
:10448000C503237100E001266078FFF741FF18B1F2
:10449000002104220CF0D4FE26B120460021242263
:1044A0000CF0CEFE0137FFB224344F457FF44FAFFE
:1044B000BDE8F08700C0072070B1C3780133DBB2DC
:1044C000FF2BC37008D105490023CA18D0780433E4
:1044D0004008102BD070F8D1704700BF90CA072059
:1044E000F0B503460246002409E01046243212F8D3
:1044F000235C15B9E0B91C4605E00134E4B28C42F6
:10450000F3D11C460020024624270EE007FB0235AB
:104510002E79B5F820C0C6F3C2064CEA0646B04272
:104520003CBF30462C460132D2B28A42EED1204600
:10453000F0BD70B50131062605464E43FFF78BFEF0
:10454000194B1A782B789A4205D118480221FFF7A7
:10455000C7FF04460DE016480421FFF7C1FFEB78C2
:10456000044633B990F82330032643F0800380F8E3
:104570002330002384F8203084F8213094F823304D
:1045800084F8226023F07F0343EA1626202284F871
:104590002360204629460CF077FD034A23795278A0
:1045A00062F3C503237170BD00C007203CCA072019
:1045B000ACC9072038B5FFF7ABFE044648BBFFF790
:1045C000A7FE044628BB144A144D92F8FF3092F817
:1045D0000311994238BF0B4692F8071134BF02F518
:1045E000807402F1FC04994238BF0D4C92F80B2103
:1045F00038BF0B469A4238BF2C4620460021042281
:104600000CF01EFE15F80D3C013305F80D3CA5F528
:104610008475204638BD00BF94C907209CCA072076
:1046200098CA0720431EDBB2FD2B03D8024B18703B
:10463000012070470020704700C00720014B187808
:10464000704700BF00C0072007289CBF014B58706F
:10465000704700BF00C007202DE9F74304460D4610
:10466000164699469DF82870002961D0344B93F87E
:10467000008041455ED0B9F10F0F5BD800285BD0B8
:10468000202200210CF0DCFDFF2D237914BF06F061
:104690000306002666F38713032262F30203284A07
:1046A00023715278657062F3C503264A237192F82C
:1046B0000C3184F800800133DBB282F80C31A37135
:1046C0000BAB84F802800193A7B1019BE0791A1D1E
:1046D00001921A4652F8081B013F01925A68FFB234
:1046E0008618F6B2182E07D8083020180CF0CCFC2B
:1046F000E671E9E7012600E00026124F012387F862
:104700000D312846FFF704FE0546FFF7D5FE0023CE
:1047100087F80D31637925B969F307136371E57083
:104720000BE0AA7862F3071363716B78E37004E01F
:104730000E4602E0002600E006463046BDE8FE8355
:1047400000C0072094C907200EB477B507AB13F853
:10475000045B06460193002411E0019B1A1D01929F
:104760001A4652F8080B01925A68A418182C0CD853
:1047700018B1083171180CF087FC013DEDB2182C0E
:10478000214604D0002DE8D101E0002000E0012006
:10479000BDE87E4003B07047174B70B50126054653
:1047A00083F80D6100B3FFF777FD0446E8B12B797C
:1047B00003F0C003402B04D0A3F18002564246EB25
:1047C0000206C02BF6B206D1EB782BB16A78D31A69
:1047D00018BF012300E0002306B933B169792846E8
:1047E0000909FFF7A6FE00E00446034B002283F808
:1047F0000D21204670BD00BF94C9072030B5182B8D
:104800008DB005460C4619D8D2F1010038BF002002
:10481000002B18BF80F0010088B1191C18BF0121BE
:104820008DE80E0004A8294622469DF84030FFF787
:1048300013FF20B104A8FFF7AFFF00E000200DB088
:1048400030BD82B02DE9F3410993431EDBB2FD2B4D
:1048500005460F4616469DF8388057D80998002817
:1048600055D00B98002852D00D9800284FD00C98A6
:1048700000284CD00A98002849D0274C0021482213
:1048800004F1A8000CF0DCFC0021902204F11800D7
:104890000CF0D6FC0021102204F1FC000CF0D0FC3E
:1048A00000210C2204F587700CF0CAFC00210C22B8
:1048B00004F1F0000CF0C4FC184B84F81A711D7060
:1048C00009AF25460FCF0FC53B6800212B6018228A
:1048D00013480CF0B5FC3146114817220EF07EF952
:1048E0000020A3680146984788B1B8F1000F08D0AE
:1048F00001230093FF2000210A4A0623FFF77EFFD1
:1049000028B102B0BDE8F04102B0A4E4002002B03A
:10491000BDE8F04102B0704794C9072000C00720ED
:10492000AFCA0720F6FA010030B50023094C1A4639
:1049300014F82350D9B23DB1904203D1054B03EB9B
:10494000810030BD0132D2B20133042BF0D10020FE
:1049500030BD00BF90CA07200023054A1846995C65
:1049600009B10130C0B20433102BF8D1704700BF39
:1049700090CA07202DE9F047AE4D8AB002A8002169
:1049800020220CF05DFC95F80D41002C40F06A816E
:104990002B6902A820219847002800F03681B5F83D
:1049A000F2300133A5F8F230FFF7D6FF85F8FA00B0
:1049B0009DF80C1001F00703032B04D095F8333158
:1049C00043F0010309E09C4A16789DF80A20B242A0
:1049D00006D195F8333143F0020385F833311BE1FA
:1049E000C1F3C2019DF808709DF80E0005F58772AD
:1049F0005FFA81FC1D4605FB04FE02EB0E0312F874
:104A00000EE0BE450BD193F801E0864507D19D78B5
:104A10009970B5EB0C0518BF012501262AE0013479
:104A2000042CE8D112E1516001E0033353609DF89A
:104A300008009DF80A3083421AD0864218D0FFF74A
:104A4000B9FD0446FFF738FD237833B19DF80D20FA
:104A5000A37802F00F029A420ADC9DF80830237016
:104A60009DF80A3063709DF80D30C3F30303A37003
:104A700000252E469DF80A00FFF79CFD9DF80A30A0
:104A80004FF0000803709DF80A30464514BF2C46CD
:104A90000124437080F80280E4B2FFF70DFD002C82
:104AA00000F0BA80644B1F789DF80830BB4200F0DC
:104AB000B2809DF80950FF2D1DD15E4C02A82368DD
:104AC0002021984728B994F8333143F0040384F83F
:104AD00033319DF80D3003F00F02501C194660F37E
:104AE0000301B2EB131F8DF80D1080F2908002A825
:104AF000FFF7D2FB8BE0AF4237D176B99DF80F308C
:104B00005BB14C4C02A823682021984728B994F83F
:104B1000333143F0040384F833319DF80C3003F053
:104B2000C003402B12D19DF80D309DF80F201B09BA
:104B30009DF808000093032112B9404A182311E0A0
:104B40003F4A0C23FFF75AFE024601E09DF80B2076
:104B5000002A60D19DF80D309DF808001B090093D4
:104B600003211346FFF74AFE55E0324B93F81A41F2
:104B7000002C51D09DF80D6006F00F0A4FEA16196F
:104B8000CA4546DA2846FFF7C3FB9DF80B300AF109
:104B9000010A6AF303069F428DF80D601ED19DF84D
:104BA0000C2002F0C002402A05D0A2F180014B4245
:104BB00043EB010300E00123D9B208B1437800E0E0
:104BC0000346C02A05D19D4203D0003318BF0123FC
:104BD00000E0002343EA010530B90AE0DBB910B96F
:104BE00002A849460EE01D4643788DF80B308478C4
:104BF00002E08DF80B00044602A8FFF74DFB55B10B
:104C000002A82146FFF795FC05E0044604E00024D5
:104C100002E0444600E002ACFFF71DFB2046042200
:104C20000849FFF789FB204607490222FFF784FB6A
:104C300018E000BF94C9072000C00720AFCA0720B2
:104C400084CA0720ACC907203CCA0720074A53681A
:104C500099700749587001F1090083421F707FF471
:104C6000E4AEE0E60AB0BDE8F08700BF00C0072070
:104C7000A2CA0720054A0023995C814204D004336C
:104C8000102BF9D1002070470120704790CA0720EF
:104C900000230B4A1846D118497809B10130C0B237
:104CA0002433902BF7D1074B93F8A9200AB1013098
:104CB000C0B293F8CD300BB10130C0B2704700BF25
:104CC000ACC9072094C9072010B5034904460C223B
:104CD0000CF0DAF9204610BD84CA0720014B93F886
:104CE0003301704794C90720024B002283F8332117
:104CF000704700BF94C9072070B5164C4FF480353B
:104D0000E561154CA0602646F068134C10F01005C4
:104D1000FAD1A068C0B253B9254614E0CE5CA660B3
:104D2000EE68F606FCD4AE68CE54013301E02B46A3
:104D300025469342F2DB08E0CE5CA660EE68F606FC
:104D4000FCD4AE6801339342F6DB024B4FF4803261
:104D50009A6170BD00C009200080084007B500239B
:104D600002A9012201F8013D00F01F001346FFF7E0
:104D7000C3FF9DF807000EBD07B502AB03F8011D88
:104D800000F01F0019460122002340F02000FFF729
:104D9000B3FF0EBD0021FF200A460123ACE708B592
:104DA0000920FFF7DBFF00F0010008BD08B5FFF7A1
:104DB000F1FF00F0010008BD08B51720FFF7CEFF96
:104DC000C0F3001008BD07207021D5E703460A464E
:104DD000A020194600238FE708B50020FFF7BEFF8B
:104DE00000F0FE010020BDE80840C5E708B5FFF768
:104DF000F3FF024B4FF080729A6108BD20C009207A
:104E0000024B4FF08072DA61704700BF20C009206A
:104E100008B50020FFF7A2FF40F00101C9B2002051
:104E2000FFF7AAFF024B4FF080729A6108BD00BFE6
:104E300020C0092008B5FFF7ADFFC0F3401008BD42
:104E40000720202198E708B5FFF7A4FFC0F3001062
:104E500008BD072010218FE70021E1200A460B46FC
:104E60004AE737B505460C46FFF7F6FF28462146C8
:104E7000FFF7ACFF0C4B4FF080729A610023ADF846
:104E80000630BDF8063001339BB2ADF806301BB1D9
:104E9000FFF792FF0028F4D0034B4FF08072DA61E5
:104EA00003B0BDE83040D7E720C0092038B504463C
:104EB0000D46FFF781FF0028FBD020462946FFF76B
:104EC000D0FF034B5A695202FCD5BDE83840B7E722
:104ED00000C0092008B51720FFF740FF10F0010FB0
:104EE00014BF0020012008BD0720402144E708B579
:104EF00003460A46612019460123FFF7FDFEC0F371
:104F0000420008BD0021E2200A460B46F4E670B5D7
:104F1000044600200D461646FFF720FF14B100F0AE
:104F2000BF0102E040F04001C9B215B101F0DF015C
:104F300001E041F0200116B101F0EF0101E041F084
:104F400010010020BDE8704016E7072006E710B505
:104F500004460020FFF702FF40F00801C9B214B96F
:104F600001F0F70108E0012C02D101F0FB0103E0A0
:104F7000022C08BF41F004010020BDE81040FBE610
:104F800008B50020FFF7EAFE40F00201C9B2002098
:104F9000BDE80840F0E608B50020FFF7DFFE00F0AE
:104FA000FD010020BDE80840E6E608B5044B4FF0DF
:104FB0008072DA61FFF7EFFFBDE80840E0E700BF6D
:104FC00020C0092040F6DD13984206D840F662134F
:104FD000B0F5166F38BF184600E01846A0F1600122
:104FE000C9B20520C8E608B530B10620FFF7B6FE05
:104FF00060F07F01C9B204E00620FFF7AFFE00F0C9
:105000007F010620BDE80840B6E610B5044606203C
:10501000FFF7A4FEFA2C00F0D70102D141F02001E5
:1050200004E0B4F5FA6F08BF41F008010620BDE8BE
:105030001040A1E610B504460620FFF78FFE032CB2
:1050400034BF2146032120F0060040EA4101C9B2E5
:105050000620BDE810408FE6F9284FF0FA0305D985
:10506000B0F57A6F28BF4FF47A6000E01846B0FBC5
:10507000F3F3013BDBB20F2928BF0F2141EA0311F3
:10508000C9B2042078E638B505460820FFF766FE69
:10509000C0F3071435B10520FFF760FE0146052077
:1050A000FFF76AFE204638BD08B50820FFF756FE18
:1050B00000F00F0008BD1130C0B2162803D8202917
:1050C00028BF202158E67047032804D004280CBFCD
:1050D0000221032100E0012103204DE603460A4698
:1050E00030201946002307E603460A462A201946BF
:1050F000002301E603460A462B2019460023FBE560
:1051000001460C2038E601460D2035E601460E200A
:1051100032E601460F202FE670B504469DF8106078
:105120009DF8145009B140F002040AB144F004049F
:105130000BB144F008040EB144F010040DB144F07A
:10514000200401202146BDE8704015E670B50446F4
:105150009DF810609DF8145009B140F002040AB1A6
:1051600044F004040BB144F008040EB144F0100400
:105170000DB144F0200402202146BDE87040FBE55B
:105180007FB505460E461446FFF7BCFEFFF764FEEA
:105190002F4B4FF08072DA61FFF7FDFE00210A46C7
:1051A0000120FFF7B4FEFFF70EFE0220FFF7CFFE4F
:1051B0003046FFF707FF2046FFF727FF03200024B4
:1051C000FFF738FF01200146224623460094019450
:1051D000FFF7BCFF23462246204621460094019457
:1051E000FFF79AFF03214FF4FA70FFF735FF2046CF
:1051F0002946FFF760FF01202146FFF75CFF0220F0
:105200002146FFF758FF03202146FFF754FF0420F3
:105210002146FFF750FF052021460524FFF74BFFED
:1052200022460C4902A80BF02FFF2046FFF74CFF47
:1052300002A82146FFF752FF02A82146FFF754FFBC
:10524000FFF79EFE4FF4FA6005F058FA7FBD00BFED
:1052500020C00920FDFA010038B5A1F104035C4229
:1052600044EB03040546FDF718F904B12860204615
:1052700038BD034B002118680A460B4607F055B8A5
:10528000C8CA072070B500238AB009930379054680
:1052900003F0C003C02B104B29460CBF5C689C6810
:1052A00009AA2046002307F040F8064658B93246BE
:1052B00001A9204607F0FFF833462046294609AAEF
:1052C00007F033F80646099B1BB1044B4FF08052A0
:1052D0001A6030460AB070BDC8CA072004ED00E06D
:1052E00038B51B4CA26822B90320202106F04BFFE1
:1052F000A06062682AB90120202106F044FF144B07
:105300005860134D2C685CB901202146032206F039
:105310003AFF286020B121462246234606F063FF6B
:10532000202040F6C3114FF4FA62FFF729FFFFF780
:105330006FFD16200121074A05F0F8FD044B98681F
:1053400028B1586818B11868003018BF012038BD5E
:10535000C8CA0720735200002DE9F74307460E46DE
:10536000154607F01BFE012807D12A46384631466C
:10537000002307F016F8C5B21AE0002302AC44F887
:10538000043DFDF78AF810EB050841F1000907E03C
:10539000FDF783F802460B46904579EB030107D3EE
:1053A00038463146224607F086F8C5B2002DEFD0C8
:1053B0002846BDE8FE8338B504460D46FFF73EF9A2
:1053C000237883420AD0E37843B90CF023FD00F040
:1053D00003000130BD23584305F090F9FFF710FD9D
:1053E000FFF7FAFCA9B22046FFF73BFDFFF728FDC7
:1053F000FFF70EFD07F0D2FD012806D1044B002176
:1054000018680A460B4606F090FF012038BD00BF21
:10541000C8CA072038B504460D46FFF75BFD58B1F2
:10542000A9B22046FFF763FDFFF754FD18B9FFF757
:105430005BFD012038BD012038BD10B50C4B8CB090
:1054400009930C4B0C4A0B930C4B0D4C0A930CAB71
:1054500043F8102D002204920FCB8DE80F00234655
:105460006A200121074A0794FFF7EBF90CB010BD41
:10547000E15200001554000059520000B7530000DB
:10548000855200003AF301000A4602490346886843
:10549000194661E7C8CA07200A4602490346486818
:1054A000194659E7C8CA072010B5002488B000E0A3
:1054B000013400216846FFF7E7FF01460028F7D1D5
:1054C0006846FFF7E9FF0028F2D1204608B010BD7A
:1054D00008B507F063FD0F4B01285B690FD1590236
:1054E00012D5FFF7D5FB0C4B002100280CBF4FF065
:1054F000FF32012218680B4606F053FF04E05A02FF
:1055000002D5FFF7C5FB18B1BDE80840FFF732BA76
:1055100008BD00BF00C00920C8CA0720F0B501F0CF
:105520001F0C4F0987B0104D077080F801C001AC07
:1055300006460FCD0FC42B6806AA236002EB870333
:1055400053F8143C4FEA4C0C7360032303FA0CF33A
:10555000FF0007F1804707F530373A68304622EA06
:1055600003033B6007B0F0BD04FB010042784368D1
:10557000012000FA02F2196821EA02021A6070475B
:1055800042784368012000FA02F219680A431A605F
:1055900070474278012101FA02F243685B691A42BE
:1055A0000CBF0020012070474278012101FA02F26D
:1055B00043689A6170474278012101FA02F2436818
:1055C000DA61704701B1EFE7F5E710B5417802788D
:1055D0004900032000FA01F1034B53F8324024EA5A
:1055E000010143F8321010BD40C0024010B54178AF
:1055F00002784900032000FA01F1034B53F83240CE
:10560000214343F8321010BD40C0024030B541780C
:105610000325490005FA01F10278094B53F832409D
:1056200024EA010143F8321041780220490000FACF
:1056300001F153F83240214343F8321030BD00BF2E
:1056400040C0024010B50A4B02780124407829B1CD
:1056500004FA00F053F82210084305E004FA00F0C1
:1056600053F8221021EA000043F8220010BD00BFC9
:1056700068C0024010B52A210446192200F0D8F96A
:105680000D222179206805F022FFA0F12A0358425B
:1056900040EB030010BD08B5012100F0D3F9102341
:1056A00000B290FBF3F008BD08B5032100F0CAF981
:1056B000102300B290FBF3F008BD08B5052100F0FF
:1056C000C1F9102300B290FBF3F008BD70B5254975
:1056D0000A680B4612F010020FD08A68C8328A613D
:1056E000214A11881F2905D8DC6A02EB81000131AB
:1056F0004460118010221A6070BD0B68D9072FD545
:10570000194B1888012825D904331946013807E0B8
:1057100051F8045F53F8044C01322C1B43F8044C3D
:1057200004338242F4DB104901248B6803EB5305F8
:1057300000231A4609E001EB83067668AE4284BF77
:1057400004FA03F6324301339BB28342F3DB064B88
:10575000C3F88420044B00221A80024B01221A60F5
:1057600070BD00BF00800040D4CA072070B51A4B3E
:105770001A4CD3F8C420012542F00202C3F8C42019
:10578000D3F8A821002622F03002C3F8A821D3F8CC
:10579000A82142F01002C3F8A8216560266707F02F
:1057A000A5FF42F21073B0FBF3F0E060A36A284655
:1057B00023F00703A362A36A43F00603A362A66172
:1057C00063692B436361064BDA6842F03002DA60AA
:1057D000044B04221A6070BD00C00F4000800040DE
:1057E00000C0024000E100E0034BD3F88400003029
:1057F00018BF0120704700BFD4CA0720034B002206
:10580000D3F88400C3F88420704700BFD4CA0720AF
:1058100008B5044B417101F07F015A5C032100F08F
:1058200007F908BD18FB010008B5044B817101F0B0
:105830007F015A5C022100F0FBF808BD18FB010053
:10584000642370B5B1FBF3F503FB15150A21EDB226
:10585000B5FBF1F601FB16513031C9B20446FFF732
:10586000E3FF092D02D82046202102E03036F1B2B4
:105870002046BDE87040CBE710B520210446FFF775
:10588000C7FF20462021BDE81040CDE738B50446CB
:105890000179006805F00EFE051C18BF01258DB1C9
:1058A00020460621002200F0C3F8204607210022EE
:1058B00000F0BEF820462E21FFF7AAFF20462E2139
:1058C000FFF7B2FF284638BD012070470F4B01F0AB
:1058D0000F0140F2131201709A610278D10701D5CD
:1058E0000122DA610278920701D50222DA61037897
:1058F0005B0702D5054B1022DA610378180703D540
:10590000024B4FF48072DA61704700BF20C009205B
:105910000123013903FA01F1037823EA010101703F
:10592000D4E70123013903FA01F103781943C9B21D
:105930000170CBE700787047012070470A4B0B4A93
:1059400019680A401A601A6842F004021A601A685C
:1059500042F080721A605A68002AFCDA024B5868DA
:10596000C0F30B10704700BF0040034000FFFFF87A
:1059700008B5FFF7E3FF64235843C0F30F3008BDB9
:1059800001207047044B5B69C3F38130C3F34123AB
:1059900043EA8000704700BF20C0092010B54C1EAC
:1059A000032C06D8FFF7EEFF40FA04F000F00100E8
:1059B00010BD002010BD10B501210446812200F069
:1059C00037F801222179206805F081FD10F0600F81
:1059D0000CBF0020012010BD38B50021044600F0A6
:1059E00031F80121812285B2204600F021F82DB244
:1059F000102395FBF3F009F047FB4FF0765109F0C7
:105A000097FBA16809F08CFA38BD08B5FFF7E4FFF1
:105A1000054909F08DFB054909F03EFC4FF0844132
:105A200009F07EFA08BD00BF000010410000A04050
:105A300010B50C460179006813462246BDE81040B7
:105A400005F0B6BC1FB50A4604AB0021022423F8BA
:105A5000041D01790094006805F0B5FC9DF80C0068
:105A60009DF80D3043EA002004B010BD2DE9F04F41
:105A7000ADF5177D05460DF500780C4617464046F6
:105A8000294601229A4601F025FF8346002832D19B
:105A90000DF50A79214648460A2201F01BFF83468C
:105AA000044608B1404624E0949095900546064689
:105AB000FCF7F3FC694680464FF4007280A894AB73
:105AC00001F0FAFF834630B9949B23B118E0949B10
:105AD000959A9A4226D007B13E60BAF1000F01D0E4
:105AE000CAF80050A09B03B11C6080A802F0A5F981
:105AF0008AA802F0A2F958460DF5177DBDE8F08F8F
:105B0000FCF7CBFCC8EB0008FCF7C7FC4644694631
:105B10008046949A484695AB02F083F88346002865
:105B2000D9D1D4E7FCF7B9FC949BC8EB00084544F5
:105B3000E418BDE7F0B507468DB00D46144639466A
:105B40001E4601A8002301220B9301F0C3FE074665
:105B500070B91EB101A8314602F09EF901A829468C
:105B600022460BAB01F0A8FF074601A802F065F939
:105B700038460DB0F0BDF0B507468DB00D46144661
:105B800039461E4601A800230A220B9301F0A2FE0B
:105B9000074670B91EB101A8314602F07DF901A88F
:105BA000294622460BAB02F03CF8074601A802F05A
:105BB00044F938460DB0F0BDF0B507468DB00D463E
:105BC000144639461E4601A8002312220B9301F009
:105BD00081FE074680B901A80EB1314600E0049964
:105BE00002F05AF901A8294622460BAB02F019F837
:105BF000074601A802F021F938460DB0F0BD0000BB
:105C00007F2815D931B1FF2811D80A4B803833F8D5
:105C100010007047084B33F8022F824203D0013145
:105C200089B28029F7D101F18000C0B2704700200D
:105C3000704700BF98FB010096FB0100074A002354
:105C400000E0013332F8021F31B18842F9D1044A31
:105C500002EB4303B3F8E002704700BF96FC01007B
:105C600098FB010010B501200C4606F037FB2060C0
:105C7000003018BF012010BD0120704710B5044648
:105C800007F08CF901280CD100210B46204640F684
:105C9000B83206F086FBA0F10103584240EB030046
:105CA00010BD012010BD10B5044607F077F901289A
:105CB00007D1002120460A460B46BDE8104006F0F9
:105CC00092BA10BD10B5044602F0D8FE14B1012CF2
:105CD00007D102E000F0A8FC01E000F0B9F90446A9
:105CE00000E0042402F0DEFE204610BD20B10128B1
:105CF00001D100F065BA04207047F8B504460F469C
:105D000016461D4602F0BAFE14B1012C0DD105E075
:105D1000384631462A4600F0B9FC04E038463146A0
:105D20002A4600F053FA044600E0042402F0BAFECA
:105D30002046F8BDF8B504460F4616461D4602F04B
:105D40009DFE14B1012C11D109E00B4B38461A68A5
:105D5000314601321A602A4600F0D4FC04E038468D
:105D600031462A4600F07AFA044600E0042402F0A4
:105D700099FE2046F8BD00BF5CCB072070B50446F5
:105D80000E46154602F07AFE14B1012C0BD104E048
:105D90003046294600F0DBFC03E03046294600F09F
:105DA000B5FA044600E0042402F07CFE204670BDF3
:105DB0002DE97043FCF771FB114BFF2200F5FA70DF
:105DC0009A60DA680E4DD106FBD4AB68FF26804698
:105DD0004FF000090A4BAE60DA68D206FCD4084BDB
:105DE0009C68E4B2FF2C07D0FCF757FB02460B4639
:105DF000424573EB0901EDD32046BDE8708300BF37
:105E000000000340704738B5064C4FF00075E5615F
:105E1000FFF7CEFF044BA5611A7842F001021A7019
:105E200038BD00BF20C0092008C007202DE9F04D73
:105E300004460D46FCF731FB2E4F64304FF0FF084F
:105E400082464FF0000B2B4BC7F80880DE68294ACA
:105E500016F01006FAD19368DBB2FF2B0AD1FCF7DB
:105E60001CFB02460B46524573EB0B01EBD330464D
:105E7000BDE8F08DFE2B39D1102D06D920464FF408
:105E80000071324605F010FD1DE0FF21134610465B
:105E90009160DE68F606FCD49E6826709960D6682C
:105EA000F606FCD49E6866709960C668F606FCD457
:105EB0009E68A6709960D668F606FCD49E68E67067
:105EC0000434043DE4D10B4BFF229A601A46D1689A
:105ED000084BC906FBD49A68FF229A60DA68D0069C
:105EE000FCD4044B01209B68BDE8F08D3046BDE832
:105EF000F08D00BF0000034070B505460E46FFF769
:105F000057FFFF282FD1194B9E60DA68174CD00637
:105F1000FBD4FD2EA36824D028464FF40071FF2245
:105F200005F0C2FCFF23A360E368104A13F0100FD2
:105F3000FAD19368FF239360D1680C4BC906FBD458
:105F40009A68FF229A60DA68D206FCD4074B9868F8
:105F500000F01F00A0F1050CDCF1000040EB0C008C
:105F600070BD012070BD002070BD00BF0000034067
:105F700038B5030604460D4607D577200021FFF704
:105F8000F7FF01285FD804F07F042F4B4FF0007219
:105F90009A61DA61FFF70CFFFF2853D12B4B9C600D
:105FA0001A46D168294BC806FBD49A682A0E9A6013
:105FB000DA6812F0100F254AFAD19368C5F3074347
:105FC0009360D168214BC906FBD49A68C5F30722B8
:105FD0009A601A46D36813F0100F1C4BFAD1EDB239
:105FE0009A689D60DA68D006FCD4184B402C9B68F8
:105FF00004D0482C0CBF8722012200E09522134BCD
:106000009A601A46D168114BC906FBD44C2C9A6889
:1060100006D1FF229A60DA68D406FCD40B4B9B6849
:106020000A490A23FF240A468C60D068C006FCD4C3
:106030009068C0B210F0800F05D0013BDBB2002B9E
:10604000F2D138BDFF2038BD20C009200000034038
:106050002DE9F743564B1A78920700F1A6800120EC
:1060600005F0D4FB534A0A24FF2113469160D868F7
:10607000C006FCD4013CE4B29868002CF6D14E4B2B
:106080004FF000724020DA612146FFF771FF0128CE
:1060900078D1FCF702FA4FF4D57100F57A764820F2
:1060A000FFF766FF012846D142492346FF200A46F2
:1060B0008860D46814F01004FBD1976801AD5F5577
:1060C0000133042BF4D19DF80630012B5AD19DF8F1
:1060D0000730AA2B56D134460025FCF7DEF9A04242
:1060E00071EB050306D2E9204FF08041FFF740FF36
:1060F0000028F2D1FCF7D1F9A04271EB050340D2A0
:106100007A200021FFF734FF00283AD1294AFF21E5
:1061100013469160DC68E406FCD49D6801AC05552B
:1061200001300428F5D19DF8043013F0400F0CBF66
:1061300004240C2426E0E9202146FFF719FF01285A
:106140008CBF012402248CBF4125E925B0464FF0C5
:106150000009FCF7A2F9404571EB090305D2284676
:106160000021FFF705FF0028F3D1FCF796F9404521
:1061700071EB090306D350204FF40071FFF7F8FECE
:1061800000E000240D4B4FF000721C700A4B9A6126
:1061900044B1074B18201A7802F0FE021A7005F07D
:1061A00035FB01E0FFF72FFE014B1878BDE8FE83B9
:1061B00008C007200000034020C00920FCD60720AB
:1061C000014B1878704700BF08C0072038B5044657
:1061D0001546002A38D01E4B1B78DB0736D41D4BE2
:1061E0004FF00072DA611C4B1B78180758BF490248
:1061F000012D0DD15120FFF7BBFEE8B920464FF429
:106200000071FFF713FED0F1010538BF002513E040
:106210005220FFF7ADFE78B920464FF40071FFF72A
:1062200005FE28B1013DEDB204F50074002DF3D157
:106230004C200021FFF79CFE064B4FF00072281CFB
:106240009A6118BF012038BD042038BD032038BD35
:1062500008C0072020C00920FCD6072070B50546DD
:106260000C461646002A45D0254B1A78D00743D451
:106270001B78590742D4234B4FF00072DA61224B4E
:106280001B781A0758BF6402012E0DD158202146F1
:10629000FFF76EFE30BBFE212846FFF72DFED0F142
:1062A000010638BF00261DE013F0060F03D0D720EB
:1062B0003146FFF75DFE59202146FFF759FE88B9A8
:1062C0002846FC21FFF718FE28B1013EF6B205F57D
:1062D0000075002EF4D10020FD21FFF70DFE0028EF
:1062E00008BF0126074B4FF00072301C9A6118BF9F
:1062F000012070BD042070BD032070BD022070BD60
:1063000008C0072020C00920FCD60720F0B50528CA
:1063100085B00C4619D10B78012B14D003D3022B76
:1063200040F0158107E08D4B5D6915F080650AD15D
:10633000FFF769FD0EE1894B5B6913F0806F14BFB5
:10634000002301234B70002504E1854B1B78DD07FA
:1063500000F1FF800E2800F2F280DFE810F00F005D
:106360001A0056005A00F000F000F000F000F000B3
:10637000F000B700BC00BE00C700DA00774B4FF05A
:106380000072DA61FFF714FDB0F1FF0518BF0125B7
:10639000D8E049200021FFF7EBFD0546002840F03A
:1063A000D08068461021FFF741FD002800F0C98029
:1063B0009DF800309B09012B9DF8083007D19DF80E
:1063C0000920013202EB03239BB29B024DE09DF8B2
:1063D00007209DF80510920002EB93135A1C9DF8BC
:1063E000063001F00F0103F0030302EB83239DF855
:1063F0000A2001EBD2119DF8092002F0030201EB03
:106400004202073A03FA02F32FE04FF400730B80C5
:106410005FE0544D297811F0040128D0CD200021EF
:10642000FFF7A6FD002840F08C804F4BFF229A60BA
:10643000DA684D4FD006FBD468461021BB68FFF7E1
:10644000F5FC00287DD03025FF223B46BA60D96894
:10645000C906FCD4013DEDB29968002DF6D19DF836
:106460000A3010221B0902FA03F323606AE0492074
:10647000FFF77EFD0646002863D168461021FFF72E
:10648000D5FC00285DD02D789DF80A2015F0020576
:106490009DF80B300ED09DF80D1002F03F02DB0985
:1064A00003EB420389090133013903FA01F335464D
:1064B000236047E0C2F38402511C03F003025B092E
:1064C00003EBC20201324A4322603BE0254B1B78BA
:1064D0000B70002536E0492000E04A200021FFF73C
:1064E00047FD00282DD12046102121E07A200021EF
:1064F000FFF73EFD28BB1C4AFF2113469160DD6873
:1065000015F01005FBD19E68265401300428F5D102
:1065100018E0CD200021FFF72BFD90B9124BFF2290
:106520009A60DA68D506FCD40F4B20469B68402160
:10653000FFF77CFCD0F1010538BF002502E00425FF
:1065400000E00125054B4FF000729A6102E004253E
:1065500000E00325284605B0F0BD00BF20C009209B
:1065600008C00720FCD60720000003400B4B0C4955
:106570001A78486910F0806F14BF0020012018704D
:106580001B789A4209D1074A13784969490154BFD7
:1065900003F0FD0343F003031370704760CB072043
:1065A00020C0092008C00720044B9860DA68D20692
:1065B000FCD4024B9868C0B2704700BF0000034093
:1065C00010B5074C4023E361D720FFF7EDFFFF2014
:1065D000FFF7EAFF0106FAD54023A36110BD00BF13
:1065E00000C009202DE9F8430E4D40260F46904685
:1065F00099460446FFF7E4FFEE618220FFF7D4FFDF
:106600004846FFF7D1FF4046FFF7CEFF3846FFF779
:10661000CBFF20464FF48071012205F045F9AE61B1
:10662000BDE8F88300C0092070B5164C4025FFF77F
:10663000C7FFD720E561FFF7B7FFFF20FFF7B4FFE3
:10664000A5610646E5619F20FFF7AEFFFF20FFF73B
:10665000ABFFF307A56111D4E5613D20FFF7A4FF6F
:106660002A20FFF7A1FF8020FFF79EFFA620FFF75B
:106670009BFFA56104480BF0BDFBFEE71F3818BF68
:10668000012070BD00C009205800020070B54C0206
:1066900005461646FFF794FF184B4022DA61184B67
:1066A000C4F30722C4F30741D2B2E8209860E4B2F1
:1066B00099609A60FF229C609A609A609A609A60E2
:1066C000DC680F4A14F01004FAD193689368936859
:1066D0009368936893689368936808E028464FF43A
:1066E0000071002205F0E0F805F500750134B442B0
:1066F000F4DB024B40229A61002070BD00C00920EB
:10670000000003402DE9F041054690464C0200266A
:1067100018E0E1B2C4F30722C4F307432846274632
:1067200004F58074FFF75EFF05F58070E1B2C4F3F5
:106730000722C4F30743FFF755FF05F5007507F57A
:10674000007401364645E4DB0020BDE8F08108B561
:10675000072813D8DFE800F004070A0E1010101005
:10676000FFF72EFF08E04FF4006304E04FF40073DE
:106770000B8001E001230B60002008BD042008BD50
:106780001FB501A804F05AFF9DF809209DF80830B4
:1067900002F00F0203F01F03520542EA03429DF884
:1067A00006309DF8050003F01F0342EAC32300F002
:1067B0003F0043EA40109DF80430C3F344031843FC
:1067C000BDF80A305B0603F10843184305B000BD6D
:1067D00010B5002302E0CC58C4500433D41A032C63
:1067E000F9D802F0030422F00302801800238A186B
:1067F00002E0D15CC1540133A342FAD110BD0023A1
:1068000001E0C15401339342FBD170470022194B80
:1068100070B5144653F8085C65B10668B5420AD1F4
:1068200053F8046C8568AE4205D11E88C588AE4217
:1068300001D105E0013201340C33032CEAD115E01B
:1068400081B904E0022914BF1220002070BD0A4B58
:106850000C2202FB04346089B0F5807F0CBF10204D
:10686000002070BD102070BD002070BD002AE9D04E
:10687000FAE700BF6CCB072064CB07200023024659
:106880001846410841EAC010D15C013340180B2B77
:1068900000F0FF00F5D170472DE9F041056B04468B
:1068A0008D420E462AD00379E3B100F13408414607
:1068B00040782A460123FFF73DFA10BB226A636A3B
:1068C0002071D3189D420DD2E77809E0236A6078E1
:1068D000ED1841462A460123FFF72CFA013FFFB28B
:1068E000012FF3D886B1607804F1340132460123D8
:1068F000FFF703FA58B92663BDE8F0810020BDE830
:10690000F0810120BDE8F0813046BDE8F081012032
:10691000BDE8F08170B500210446FFF7BDFF0546D4
:106920005DBB2378032B20D16379F3B104F13406E6
:10693000304629464FF400722563FFF760FF4AF6A0
:106940005523A4F832320D4B607863630C4B31460B
:10695000C4F818326369A269C4F81C322369C4F808
:1069600020320123FFF7E6F96571002160780A46BD
:10697000FFF704FA003018BF012070BD5252614188
:1069800072724161F8B503690D4601F10901002BEE
:1069900040D043690C461F7B002607F0080C9A5D27
:1069A0002146202A12D0052A08BFE522BCF1000F9B
:1069B00006D0A2F14101C9B2192901D82032D2B2C0
:1069C000013604F8012B082E2146E8D11A7A202A34
:1069D00018D022462E2102F8011B082607F01007C6
:1069E0009C5D1146202C0DD037B1A4F14101C9B2F4
:1069F000192901D82034E4B2013602F8014B0B2EDC
:106A00001146EDD1DA7A2A72DA692A601A8BAA80E5
:106A1000DB8AEB8000240C70AE6906B3EB69F3B13E
:106A20000369ABB1028C4FF6FF739A4215D0C76968
:106A300009E00021FFF7E4F860B1EB69013B9C42FB
:106A40000AD23055013437F8020B0028F1D104E0A6
:106A50001C4602E0044600E0002400233355F8BD44
:106A600010B504460A46407804F134010123FFF7CB
:106A700044F9A0B9B4F832224AF655239A4210D10B
:106A8000D4F86A20084B22F07F429A420AD0D4F808
:106A9000860020F07F40C01A18BF012010BD0320DF
:106AA00010BD022010BD00BF464154002DE9F04149
:106AB000036816461D78303D092D08D85A783A2AC1
:106AC00005D10233012D036000F2F58000E00025BE
:106AD000864B03EB85035C6A0C60002C00F0EE80B3
