:020000021000EC
:10000000E03F08205901010005020100E101010063
:100010001502010025020100350201000000000068
:10002000000000000000000000000000E1130200DA
:100030004502010000000000D11402006502010029
:1000400095250200952502009525020095250200C0
:1000500095250200952502009525020095250200B0
:1000600095250200952502009525020095250200A0
:100070009525020095250200952502009525020090
:100080009525020095250200952502009525020080
:100090009525020095250200952502009525020070
:1000A0009525020095250200952502009525020060
:1000B0009525020095250200952502009525020050
:1000C0009525020095250200952502007033030056
:1000D00000C007200803000008C30720FC0400003C
:1000E00080B489B000AFF860B9607A60BB68FB612A
:1000F000FB68BB6100237B617A697B689A420BD203
:10010000FB691A1DFA61BA69111DB96112681A609A
:100110007B6904337B61EFE700BF2437BD4680BCB9
:10012000704780B485B000AF786039607B68FB6051
:100130000023BB60BA683B689A4208D2FB681A1D6C
:10014000FA6000221A60BB680433BB60F2E700BFAC
:100150001437BD4680BC70471C4B184612F0F6F9A8
:100160001A4B184612F0F7F9194C1A4B9C420ED252
:1001700023461C1D1B68184623461C1D1D6823466C
:100180001C1D1E6832462946FFF7AAFFEDE7124BF9
:100190009C420AD223461C1D1D6823461C1D1E6856
:1001A00031462846FFF7BDFFF1E719F0BFFA11F01D
:1001B00099FF13F05FF912F04FFE4FF4164011F063
:1001C000ABFB064804F013F8FEE700BFE03F082051
:1001D000CC000100D8000100E0000100C40D0300C4
:1001E00080B400AF04207146084203D0EFF30980C9
:1001F00012F0F8B9EFF3088012F0F4B900BFBD4671
:1002000080BC704780B500AF014803F0F0FFFEE707
:10021000280E030080B500AF014803F0E8FFFEE7B9
:10022000340E030080B500AF014803F0E0FFFEE7A5
:10023000400E030080B500AF014803F0D8FFFEE791
:100240004C0E030080B500AF014803F0D0FFFEE77D
:100250005C0E030080B500AF014803F0C8FFFEE765
:100260006C0E030080B500AF10F0CAFA11F054F91B
:1002700010F0E4FA00BF80BD80B582B000AF7860B6
:10028000054A7B681A607B68184602F0C9F87B68EB
:1002900018460837BD4680BDB0FE020080B582B06A
:1002A00000AF78607868FFF7E7FF786805F03AFEFE
:1002B0007B6818460837BD4680BD80B500AF00F0AA
:1002C0001FF80346184601F0EDF900BF80BDFFFF9F
:1002D00080B582B000AF78607B680749184601F0AE
:1002E00097FA786800F022F8044A7B681A607B6805
:1002F00018460837BD4680BD00800940E8FC020072
:1003000098B500AF084B1B68002B09D12C2005F0D5
:10031000F1FD03461C462046FFF7DAFF024B1C6046
:10032000014B1B68184698BD08C3072080B483B0F2
:1003300000AF78607B6818460C37BD4680BC7047BC
:1003400080B582B000AF7860054A7B681A607B6830
:100350001846FFF791FF7B6818460837BD4680BDF9
:10036000E8FC020080B582B000AF78607868FFF7E3
:10037000E7FF786805F0D6FD7B6818460837BD466C
:1003800080BDFFFF80B584B000AF0121092011F0CE
:100390005FFB344B01221A723B1D184600F066F8D1
:1003A0007B89C3F30B039BB21A462F4B1B889A42DF
:1003B0002DDB7B89C3F30B039BB21A462A4B5B8868
:1003C0009A4224DC7B79C3F30503DBB23B2B1EDCB2
:1003D0003B79C3F30503DBB23B2B18DCBB79C3F3DA
:1003E0000403DBB2172B12DCBB89C3F30B039BB2F4
:1003F000B3F5B77F0BDA7B7AC3F30303DBB20C2BC5
:1004000005DC3B7AC3F30403DBB21F2B26DD3B7A0A
:10041000012262F304033B727B7A012262F303033D
:100420007B72114B1B88C3F30B039AB27B8962F377
:100430000B037B81FB796FF30203FB71BB796FF3D5
:100440000403BB717B796FF305037B713B796FF319
:1004500005033B713B1D184600F042F800BF103702
:10046000BD4680BD0040024048FD020090B589B005
:1004700000AF7860194A07F1140310685168926858
:1004800007C3164A07F1080310685168926807C34A
:100490000DE0124A07F1140310685168926807C30F
:1004A0000E4A07F1080310685168926807C307F104
:1004B000080107F114030C22184619F0F7FA034655
:1004C000002BE6D17B681C4607F1140307CB2060A4
:1004D0006160A26078682437BD4690BD1440024038
:1004E00080B483B000AF7860274B00221A72264A8E
:1004F0007B681B78C3F30503DBB282F82030224A05
:100500007B685B78C3F30503DBB282F824301E4AB4
:100510007B689B78C3F30403DBB282F828301A4A65
:100520007B68DB78C3F30203DBB282F83030164A13
:100530007B681B79C3F30403DBB282F82C30124AC8
:100540007B685B79C3F30303DBB282F838300E4972
:100550007B689A79DB7903F00F031B0213439BB28C
:100560008B8709497B681A7A5B7A03F00F031B02B9
:1005700013439BB28B86044B01221A7200BF0C37C7
:10058000BD4680BC704700BF0040024080B582B0CD
:1005900000AF3B1D18461BF0C7FF3B1D184618F067
:1005A000DBFC034618460837BD4680BD80B500AF6A
:1005B0000C4B1B68002B05D1012010F011FA0246EC
:1005C000084B1A600FF01CFF0346022B07D1054BA6
:1005D000186800234FF0FF32002110F0BDFB00BF70
:1005E00080BD00BF0CC3072080B500AF0FF008FF2F
:1005F0000346022B06D1044B186800230022002179
:1006000010F01CFA00BF80BD0CC3072080B582B07B
:1006100000AF01237B60084B1B6898470749074BD5
:100620001B7ADAB27B68DBB21343DBB20B7200BF1A
:100630000837BD4680BD00BF10C3072000000B4037
:1006400080B500AF01211D2011F002FA054B0122F7
:100650001A6300BF034B1B6B03F00103002BF9D09F
:1006600000BF80BD0040005080B48BB000AFF86088
:10067000B9601346FB71002387F827304FF0FF3332
:100680007B614D4B3B624D4BFB61BB68B3F5805FBB
:1006900007D397F8273043F0010387F82730012369
:1006A00084E03B6A1B6903F00103002B05D1FB6961
:1006B0001B6903F00103002B10D097F8273043F09B
:1006C000020387F82730022370E097F8273043F0C1
:1006D000030387F827303A4B9B68FB76384BDB687F
:1006E00003F00403002BF0D1364B03229A60354B04
:1006F00003221A613B6A344A1A60FB79002B09D045
:1007000007F114023B6A5A60BB6843F000423B6A3F
:10071000DA6007E0FA683B6A5A60BB6843F0084257
:100720003B6ADA603B6A00229A603B6A41F2060249
:100730001A61FB79002B08D0FA68FB691A60BB6864
:1007400043F08062FB69DA6006E007F11402FB699E
:100750001A60FB69BA68DA60FB691B4A5A60FB6978
:1007600000229A60FB694FF408621A613B6A1B69B8
:1007700043F001023B6A1A61FB691B6943F0010205
:10078000FB691A610E4A0E4B5B6A43F00303536226
:1007900000BF3B6ADB68C3F30B03002BF9D1084AA7
:1007A000074B5B6A23F003035362002318462C3780
:1007B000BD4680BC704700BF204100500041005042
:1007C00000000340004000500800034090B486B091
:1007D00000AF786039607B681B687B617B69DB698F
:1007E0003B610023FB600023BB603B6903F0040313
:1007F000002B19D07B693033FB602123BB60FB6881
:100800003A68146850689168D2681C6058609960B2
:10081000DA607B685B8A01339AB27B685A827B69B3
:10082000BA685A60012300E0002318461837BD4615
:1008300090BC704780B58CB000AF0346FB71FB796C
:100840005B01404A1344FB62FB6A1B68BB620123E5
:100850007B62BB6ADB683B623B6A03F00102BB6AF6
:1008600099687B6A0B401343002B2CD0FB6A5B68B2
:10087000184610F0AFFBF861FB6ADB891A46FB698A
:10088000934203D9FB699AB2FB6ADA81BB6A2033CF
:10089000BB61FB6A586800230022B96910F08CF92B
:1008A0000346002B06D0FB6A9B8A01339AB2FB6A8F
:1008B0009A8205E0FB6A9B8901339AB2FB6A9A81AE
:1008C000BB6A04225A603A6A40F202631340002B6A
:1008D00020D0FB6A9B68184610F07CFBF861FB6A2D
:1008E0001B8A1A46FB69934203D9FB699AB2FB6AD9
:1008F0001A82FB6A9B6807F108010022184610F073
:1009000003FB0346002B05D007F108031946F86ADC
:10091000FFF75CFF20231A463B6A1340002B03D0ED
:10092000FB6A9B69386A98473B6A03F00803002B0F
:1009300003D0FB6ADB69386A984700BF3037BD4691
:1009400080BD00BF00C0072080B582B000AF0C4B57
:10095000D3F8C4307B607B6803F40053002B02D0D3
:100960000020FFF767FF7B6803F48043002B02D071
:100970000120FFF75FFF00BF0837BD4680BD00BF05
:1009800000C00F4080B483B000AF0346FB7108493C
:1009900097F907305B09FA7902F01F02012000FA8B
:1009A00002F241F8232000BF0C37BD4680BC7047DF
:1009B00000E100E080B584B000AF40F6FF73FB813A
:1009C0000023BB600F4B5B681B099AB2FB89134085
:1009D0009BB2FB800C4B186807F10802B91D00237D
:1009E00010F0EAF8BB68002B07D0084B4FF080529C
:1009F0001A60BFF34F8FBFF36F8F00BF1037BD4634
:100A000080BD00BF0040034014C3072004ED00E098
:100A100080B584B000AF0023FB60214BBB6010F0B9
:100A2000C5FE0346DB087B604FF400133B600121E9
:100A30000C2011F00DF803210C2011F037F8194AA1
:100A40003B6813600223FB6011E07A68FB68B2FB2D
:100A5000F3F2BB689A4207D21249124B1A68FB683C
:100A60001B0213430B6005E0FB680233FB60FB686D
:100A7000FE2BEAD901200FF0B3FF02460A4B1A60A1
:100A80000022022101200FF043FF0246074B1A60AB
:100A90001620FFF777FF00BF1037BD4680BD00BFAF
:100AA000405DC6000040034018C3072014C3072060
:100AB00080B487B000AF0346FB714FF080737B6159
:100AC000FF233B614FF0E063FB600D480C4B1A685D
:100AD0003969FB680B43DB43134003600849084B4B
:100AE0001A68FB79012000FA03F318467B69034377
:100AF00013430B6000BF1C37BD4680BC704700BF6E
:100B00000040034080B584B000AF0346FB71002372
:100B1000BB810823FB73FA79FB7B9A4202D3002343
:100B2000BB8131E00FF06CFC0346022B1CD1194B4A
:100B3000186800234FF0FF32002110F00DF9FB7907
:100B40001846FFF7B5FF144B186807F10C01002396
:100B50004FF0FF3210F000F90E4B1868002300220E
:100B600000210FF06BFF0FE0FB791846FFF7A0FFA5
:100B700000BF094B186807F10C010023002210F098
:100B8000EBF80346002BF4D0BB8918461037BD465E
:100B900080BD00BF18C3072014C3072080B500AF75
:100BA00000F048F80346184600F07CFD00BF80BD09
:100BB00080B588B002AFF860B9607A603B60104AD7
:100BC0000F4B1B6823F0F00313600D4A0C4B1B689E
:100BD00043F0500313600121032010F067FF10F071
:100BE000E5FD7861F8683B6800937B68BA687969CD
:100BF00000F036FE034618461837BD4680BD00BFDC
:100C000000C0024080B582B000AF78607B680749C1
:100C1000184600F0FDFD786800F022F8044A7B6871
:100C20001A607B6818460837BD4680BD00C000408A
:100C300054FD020098B500AF084B1B68002B09D18A
:100C40002C2005F057F903461C462046FFF7DAFF33
:100C5000024B1C60014B1B68184698BD1CC3072043
:100C600080B483B000AF78607B6818460C37BD460F
:100C700080BC704780B582B000AF7860054A7B6861
:100C80001A607B681846FFF7F7FA7B681846083742
:100C9000BD4680BD54FD020080B582B000AF7860D3
:100CA0007868FFF7E7FF786805F03CF97B6818463D
:100CB0000837BD4680BD80B500AF00F01FF8034681
:100CC000184600F0EFFC00BF80BDFFFF80B582B08A
:100CD00000AF78607B680749184600F099FD786896
:100CE00000F022F8044A7B681A607B6818460837CF
:100CF000BD4680BD00C00940BCFD020098B500AFF4
:100D0000084B1B68002B09D12C2005F0F3F8034693
:100D10001C462046FFF7DAFF024B1C60014B1B68A4
:100D2000184698BD20C3072080B483B000AF786018
:100D30007B6818460C37BD4680BC704780B582B0D2
:100D400000AF7860054A7B681A607B681846FFF739
:100D500093FA7B6818460837BD4680BDBCFD02008B
:100D600080B582B000AF78607868FFF7E7FF7868F9
:100D700005F0D8F87B6818460837BD4680BD80B4BA
:100D800083B000AF78600B46FB707B681B7923F063
:100D90003F03DBB2C02B06D17B681B78FA789A42FE
:100DA00001D1012300E0002318460C37BD4680BC6A
:100DB000704780B584B002AF3A601A460346FB71B3
:100DC0000B46BB7113467B717A79B979F8793B7C14
:100DD000009313463A6807F073FB0346184608373A
:100DE000BD4680BD80B582B000AF78607B68184694
:100DF00001F0F8FA786800F0F4F8104A7B681A609D
:100E00007B68002283F853207B68032283F85420F8
:100E10007B68113321220021184618F07BFE7B6885
:100E2000323321220021184618F074FE072007F003
:100E300055FA7B6818460837BD4680BD24FE02007F
:100E400080B586B000AFF860B9607A60FB6893F84F
:100E500031301A46FB681B7E9A42B4BF012300233F
:100E6000FB75FB7D83F00103DBB2002B1CD0FB681C
:100E700011337968184607F013FE0346002B14BFA0
:100E800001230023DBB2002B0ED0FB68002283F885
:100E90003120FB6893F831301A46FB681B7E9A427A
:100EA000B4BF01230023FB75FB7D002B0DD0FB6835
:100EB00093F831305A1CD1B2FA6882F831101A46D0
:100EC000FB6813445A7EBB681A70FB7D18461837BE
:100ED000BD4680BD80B586B000AFF8600B467A6035
:100EE000FB720123FB75FB6893F852305A1CD1B298
:100EF000FA6882F852101A46FB681344FA7A83F8AB
:100F00003A20FB6893F85230172B07D9FB681B680F
:100F100008331B68F86898470346FB750123FB7587
:100F2000FB7D18461837BD4680BD80B590B002AF36
:100F30007860002387F837307B6893F85330002BB4
:100F400002D17B685B7C02E07B6893F8533087F8C2
:100F5000363097F83630184607F0B0FC38637B68B7
:100F60003A33FB627B6893F8523087F82B307B680A
:100F7000002283F852207B6893F8543097F82B2096
:100F800097F8360000931346FA6A0121FFF711FF24
:100F9000034687F8373097F83730002B1BD007F11E
:100FA0000803396B184607F08FFD0346002B14BF6A
:100FB0000123002387F8373097F83730002B0AD009
:100FC00097F8362007F1080311461846FFF7D7FEB9
:100FD000034687F8373097F8373018463837BD461C
:100FE00080BD80B483B000AF78607B6818460C3752
:100FF000BD4680BC7047FFFF80B582B000AF78600F
:10100000054A7B681A607B68184601F009FA7B681C
:1010100018460837BD4680BD24FE020080B582B068
:1010200000AF78607868FFF7E7FF786804F07AFF30
:101030007B6818460837BD4680BDFFFF90B486B078
:1010400000AF0346FB71094B07F108040FCB84E89E
:101050000F00FB799B0007F11802134453F8103C72
:1010600018461837BD4690BC704700BF94FE02007A
:1010700080B586B000AF03463960FB71FB79184636
:10108000FFF7DCFF7861194B1B683B61174B1B684E
:10109000FB60FB7907F11802134413F8083C0121A7
:1010A000184610F0D5FCFB7907F11802134413F829
:1010B0000C3C0121184610F0F9FC7B6900229A6073
:1010C0007B6901225A607B6900221A6710F06EFB6F
:1010D0000246074BA3FB02239B0C3A6802FB03F278
:1010E0007B69DA6000BF1837BD4680BDA4FE0200F0
:1010F00083DE1B4380B483B000AF0346FB71084915
:1011000097F907305B09FA7902F01F02012000FA13
:1011100002F241F8232000BF0C37BD4680BC704767
:1011200000E100E080B586B000AFF860B9607A6099
:101130007B687B6118E07B691A68FB681B68134059
:10114000002B0ED07B695B689847FB681A687B6947
:101150001B68DB431A40FB681A607B691A68BB682E
:101160001A607B699B687B617B69002B03D0FB68FD
:101170001B68002BDFD100BF1837BD4680BDFFFFC5
:1011800080B584B000AF214B5B68FB601F4B9B6850
:10119000BB601E4B5B6A7B601C4B9B6A3B601C4BBD
:1011A0001A6807F10C031B491846FFF7BBFF1A4BDF
:1011B0001A6807F1080317491846FFF7B3FF174BE2
:1011C0001A683B1D16491846FFF7ACFF154B1A6805
:1011D0003B4613491846FFF7A5FFFB68002B02D1D9
:1011E000BB68002B03D0094B4FF0FF32DA607B68FD
:1011F000002B02D13B68002B03D0044B4FF0FF3291
:10120000DA6200BF1037BD4680BD00BF808002405B
:1012100024C307208C80024028C307202CC307204A
:10122000AC80024030C3072080B586B000AFBA6002
:101230007B600346FB730B46BB73FB7B012202FA08
:1012400003F37B6100233B617B69002B21D0BB68EA
:10125000002B1ED00C2018F0F9FB03463B613B69C4
:10126000002B16D03B69BA685A603B697A691A60EC
:101270007B681A683B699A607B683A691A603B6AC6
:101280001A683B691B681A433B6A1A601520FFF70E
:1012900031FF00BF1837BD4680BDFFFF80B584B069
:1012A00002AF03463A60FB710B46BB71BB79002B62
:1012B00001D10A4A00E00A4ABB79002B01D1094B4F
:1012C00000E0094BB979F879009313463A68FFF7C3
:1012D000ABFF00BF0837BD4680BD00BF24C3072059
:1012E00028C30720908002409480024080B483B0DD
:1012F00000AF78607B6801225A7100BF0C37BD4691
:1013000080BC704780B500AF00F06CF8034618460B
:1013100000F054FB00BF80BD80B586B000AF7860A0
:1013200039604FF440637B61224B5B6903F4406397
:10133000B3F5406F0CBF01230023FB741E4A1E4B04
:101340001B6C23F4700313641B4A1B4B1B6C43F48C
:1013500020031364184A184B9B6E43F44063936652
:10136000154A154B1B6823F470031360124A124B85
:101370001B6843F42003136003211A2010F096FB2E
:1013800010F014FA0346DB08FB60FB7C002B07D04F
:101390007B683A68F968184600F09EFC034604E052
:1013A0007B681846FFF7A2FF002318461837BD4692
:1013B00080BD00BF00C0092000C0024080B582B0DF
:1013C00000AF78607B680649184600F03FFC7868FB
:1013D00000F01EF87B6818460837BD4680BD00BF88
:1013E00000000A4098B500AF084B1B68002B09D1DC
:1013F0001C2004F07FFD03461C462046FFF7DEFF5D
:10140000024B1C60014B1B68184698BD34C3072073
:1014100080B483B000AF78607B6818460C37BD4657
:1014200080BC704780B483B000AF0346FB710849AD
:1014300097F907305B09FA7902F01F02012000FAE0
:1014400002F241F8232000BF0C37BD4680BC704734
:1014500000E100E080B582B000AF78607B68DB69B6
:1014600018460FF0A7FD034618460837BD4680BD55
:1014700098B500AF10F05AFF4FF47A724FF00003A6
:1014800017F0CEFB03460C461846214698BD90B592
:1014900087B000AFF860B9607A60BB68002B03D0FA
:1014A000FB689B69002B01D1002341E00EF0A8FFEF
:1014B0000346022B0CBF01230023DBB2002B0DD00F
:1014C000FB68986900237A68B9680FF045FC034609
:1014D000002B14BF01230023DBB229E0FFF7C8FF74
:1014E00003460C461A467B6813447B61FB68986987
:1014F00000230022B9680FF02FFC0346002B0CBF1D
:1015000001230023DBB2002B11D0FFF7B1FF0A4605
:1015100001467B694FF00004944208BF8B4234BF00
:1015200001230023DBB2002BE0D0002300E00123E5
:1015300018461C37BD4690BD80B586B000AFF86038
:101540000B467A60FB720EF05BFF0346022B14BF62
:1015500001230023DBB2002B13D0FB685B69FA7A0E
:101560001A70FB685B691B7DDBB203F04003002B44
:101570000CBF01230023DBB2002B00D0F1E70123D5
:1015800035E0FB68D86907F10B0100237A680FF09A
:1015900055FA0346002B0CBF01230023DBB2002BBE
:1015A00001D0002323E040237B61FB685B691B7D46
:1015B000DBB203F04003002B14BF01230023DBB296
:1015C000002B13D0FB68D86907F10B010023002220
:1015D0000FF0C2FB0346002B14BF01230023DBB234
:1015E000002B03D0FB685B69FA7A1A700123184656
:1015F0001837BD4680BD80B582B000AF78600EF070
:10160000FFFE0346022B0CBF01230023DBB2002B9D
:101610000ED07868FFF71EFF0346002B14BF01238E
:101620000023DBB2002B03D001200DF0EDFFF0E72B
:10163000012318460837BD4680BDFFFF90B585B031
:1016400000AF786039607B685B6980221A737B68C1
:101650001A6A3B681B01B2FBF3F3184616F0A6FCAE
:101660004FF000020E4B16F065FB03460C46184681
:10167000214616F0C1FF0346FB817B685B69FA894E
:101680001212D2B21A717B685B69FA89D2B21A70EF
:101690007B685B6903221A7300BF1437BD4690BD97
:1016A0000000E03F80B58AB000AF78600223FB8382
:1016B0000423BB830C237B8300233B6100237B62D9
:1016C0000023FB7300233B627B685B699B689BB2D2
:1016D00003F00E033B833B8B042B40D00C2B3ED0FE
:1016E000022B7BD17B68DB6918460FF073FC024646
:1016F0007B68DB8C9A428CBF01230023DBB2002B7A
:1017000008D07B68DB6918460FF064FC03469AB288
:101710007B68DA841023FB7500233B623B6A0F2B46
:101720000DD87B68DB6907F1100207F10F0118463D
:101730000FF0EAFB0346002B01D0012300E0002359
:10174000002B51D07B685B69FA7B1A703B69002BD8
:1017500001D001237B623B6A01333B62DEE70EF07E
:1017600045FA02467B689A627B685B691B7DDBB247
:1017700003F00103002B14BF01230023DBB2002B75
:1017800013D07B685B691B78DBB2FB737B6898695D
:1017900007F1100207F10F0100230FF00DFA3B696A
:1017A000002BE1D001237B62DEE77B689B69184652
:1017B0000FF010FC02467B689B8C9A428CBF012381
:1017C0000023DBB2002B11D07B689B6918460FF019
:1017D00001FC03469AB27B689A8407E07B685B69E8
:1017E0001B7DDBB23B8302E000BF00E000BF7B6AF1
:1017F000002B07D0054B4FF080521A60BFF34F8F7C
:10180000BFF36F8F00BF2837BD4680BD04ED00E0F9
:1018100080B582B000AF786039607B68184600F010
:10182000E1FD0E4A7B681A607B683A685A617B6802
:1018300000229A617B680022DA617B6800221A62CA
:101840007B6800229A847B680022DA847B6800220D
:101850009A627B6818460837BD4680BDB0FE02001C
:1018600080B584B000AFF860B9607A603B60FB6817
:10187000BA681A62FB685B691A46394B9A4207D10B
:101880000121032010F0E4F80520FFF7CBFD1DE057
:10189000FB685B691A46334B9A4207D10121182035
:1018A00010F0D6F80720FFF7BDFD0FE0FB685B697D
:1018B0001A462D4B9A4207D10121192010F0C8F881
:1018C0000820FFF7AFFD01E0002345E0FB685B69FE
:1018D00041221A72FB685B69FA685269127AD2B2C5
:1018E00042F00602D2B21A727968F868FFF7A6FED3
:1018F0003B68082B01DC08233B60BB69082B01DC3B
:101900000823BB61FB689B69002B08D13B68002260
:10191000012118460EF0FCFF0246FB689A61FB6845
:10192000DB69002B08D1BB690022012118460EF0AB
:10193000EFFF0246FB68DA61FB685B6907225A60C9
:10194000FB689B69002B05D0FB68DB69002B01D08D
:10195000012300E0002300BF18461037BD4680BDBC
:1019600000C000400080094000C0094080B483B03E
:1019700000AF0346FB71084997F907305B09FA7914
:1019800002F01F02012000FA02F241F8232000BFFA
:101990000C37BD4680BC704700E100E098B500AF51
:1019A00010F0C4FC4FF47A724FF0000317F038F9CE
:1019B00003460C461846214698BDFFFF80B584B00B
:1019C00000AF7860786800F021FA0346002B14BF5E
:1019D00001230023DBB2002B14D00023FB607B68C3
:1019E000DB6807F10C02114618460FF050F9FB684E
:1019F000002B07D0054B4FF080521A60BFF34F8F7A
:101A0000BFF36F8F00BF1037BD4680BD04ED00E00F
:101A100080B586B002AF78600B46FB701346BB7092
:101A20000023FB7307F10F00BA78F97801230093C4
:101A30000346786800F005F8FB7B18461037BD4672
:101A400080BD80B586B002AFF8607B600B46FB724C
:101A50001346BB72FB7A43F00103FB72BA7AF97A40
:101A6000BB6900937B68F86800F03AF803461846B3
:101A70001037BD4680BD80B584B002AF786008469F
:101A800011461A460346FB700B46BB7013467B702B
:101A9000781CBA78F978012300930346786800F03F
:101AA00005F8034618460837BD4680BD80B586B0A8
:101AB00002AFF8607B600B46FB721346BB72FB7A89
:101AC00023F00103FB72BA7AF97ABB6900937B6851
:101AD000F86800F005F8034618461037BD4680BD8B
:101AE00090B58BB002AFF8607B600B46FB7213467B
:101AF000BB720023FB77FB685B79002B02D17B680C
:101B0000002B01D1FB7F81E00EF07AFC0346022B13
:101B100014BF01230023DBB2002B39D0BA7AF97A43
:101B20003B6B00937B68F86800F04EF9FFF736FFD7
:101B300003460C4613F57A7344F10004C7E90434F4
:101B4000FB68D8680023002200210FF005F9034646
:101B5000002B0CBF01230023DBB2002B10D0FFF7BA
:101B60001DFF0A460146D7E90434944208BF8B4260
:101B700034BF01230023DBB2002B00D1E0E700BF1C
:101B8000FB689B7D002B0CBF01230023FB773CE00F
:101B9000FB68986800234FF47A7200210FF0DCF89C
:101BA0000346002B14BF01230023DBB2002B2CD0F3
:101BB000FB68D8680023002200210FF0CDF8BA7A24
:101BC000F97A3B6B00937B68F86800F0FDF8FB68DE
:101BD000D86800234FF47A7200210FF0BDF8034655
:101BE000002B14BF01230023DBB2002B06D0FB68BF
:101BF0009B7D002B0CBF01230023FB77FB689868BB
:101C00000023002200210EF019FFFB7F1846243725
:101C1000BD4690BD80B588B002AF78600B46FB70C2
:101C20000023FB750023FB7300233B6107F10F00CA
:101C3000FA7DF9783B69009303467868FFF701FF66
:101C4000034618461837BD4680BDFFFF80B582B0F9
:101C500000AF786039607B683A681A607B68002260
:101C60005A7101200EF0BCFE02467B689A60032286
:101C7000002101200EF04CFE02467B68DA607B6892
:101C80001B681A46114B9A4203D17B680A221A71CB
:101C900016E07B681B681A460D4B9A4203D17B689D
:101CA0000B221A710CE07B681B681A46094B9A429A
:101CB00003D17B680C221A7102E07B6863221A71DF
:101CC0007B6818460837BD4680BD00BF00C0014094
:101CD00000C0054000000A4080B588B000AFF86041
:101CE000B9607A60FB6893F904300B2B08D00C2B99
:101CF0000BD00A2B0ED1012107200FF0A9FE0BE01B
:101D0000012113200FF0A4FE06E001211A200FF09C
:101D10009FFE01E000234EE0FB681B686C229A6185
:101D20002823FB613C23BB617B68B3F57A7F05D830
:101D30007B684FF47A7202FB03F300E0204B7B6177
:101D4000BA687B69B2FBF3F35B083B61FB68196817
:101D50003A6913469B001344DB001A46194BA3FB58
:101D600002235B090B61FB6819683A6913461B0182
:101D70009B1A9B001A46134BA3FB02235B094B6182
:101D8000FB681B680022DA60FB681B6800221A628D
:101D9000FB681B6800225A62FB681B6800229A627B
:101DA000FB681B6840221A60FB6893F904301846F0
:101DB000FFF7DCFD012318462037BD4680BD00BF7C
:101DC000A08601001F85EB5180B485B000AFF8609C
:101DD0007B600B46FB721346BB72FB6800229A7550
:101DE000FB68FA7A1A75FB68BA7A5A75FB68BA69A1
:101DF0001A61FB687A689A61FB681B6820221A6086
:101E000000BF1437BD4680BC7047FFFF80B485B06B
:101E100000AF78600023FB737B681B685B68083B3E
:101E2000502B00F2B88101A252F823F0711F01007B
:101E300097210100972101009721010097210100BE
:101E4000972101009721010097210100891F0100BE
:101E5000972101009721010097210100972101009E
:101E6000972101009721010097210100A31F010084
:101E7000972101009721010097210100972101007E
:101E8000972101009721010097210100972101006E
:101E9000972101009721010097210100972101005E
:101EA00097210100972101009721010011200100D5
:101EB000972101009721010097210100972101003E
:101EC000972101009721010097210100972101002E
:101ED000972101009721010097210100972101001E
:101EE0009721010097210100972101007521010030
:101EF00097210100972101009721010097210100FE
:101F0000972101009721010097210100AB200100DA
:101F100097210100972101009721010097210100DD
:101F200097210100972101009721010097210100CD
:101F300097210100972101009721010097210100BD
:101F4000972101009721010097210100D72001006E
:101F5000972101009721010097210100972101009D
:101F60009721010097210100972101001D21010007
:101F70007B681B687A68127D02F0FE029A607B68BB
:101F80001B6808229A6131E17B681B687A68127DC0
:101F900042F00102D2B29A607B681B6808229A6103
:101FA00024E17B681B6820229A617B681B69002BF7
:101FB00024D17B681B6820229A617B681B681022F1
:101FC0001A607B681B6808229A617B681B681B6823
:101FD00003F01003002B14BF01230023DBB2002BFE
:101FE00000D0F2E77B681B7D03F00103002B02D0D9
:101FF0000123FB73FAE00223FB73F7E07B681B68A5
:102000007A68527D9A607B681B6808229A61EDE0CD
:102010007B681B7D03F00103002B08D07B681B68E5
:1020200020221A607B681B6808229A61DEE07B68C8
:102030001B69002B24D17B681B6820229A617B6876
:102040001B6810221A607B681B6808229A617B68F3
:102050001B681B6803F01003002B14BF012300232F
:10206000DBB2002B00D0F2E77B681B7D03F001039D
:10207000002B02D00123FB73B8E00223FB73B5E011
:102080007B681B687A68926912789A607B689B69A2
:102090005A1C7B689A617B681B695A1E7B681A61AF
:1020A0007B681B6808229A61A0E07B681B6820227D
:1020B0009A617B681B69012B04D97B681B68042229
:1020C0001A6003E07B681B6804229A617B681B68C6
:1020D00008229A618AE07B689B697A681268926834
:1020E000D2B21A707B689B695A1C7B689A617B68C4
:1020F0001B695A1E7B681A617B681B69012B04D11E
:102100007B681B6804229A6103E07B681B680422D9
:102110001A607B681B6808229A6167E07B689B698C
:102120007A6812689268D2B21A707B681B682022A3
:102130009A617B681B6810221A607B681B68082202
:102140009A617B681B681B6803F01003002B14BFA7
:1021500001230023DBB2002B00D0F2E77B681B7D5C
:1021600003F00103002B02D00123FB733EE00223A6
:10217000FB733BE07B681B7D03F00103002B01D068
:10218000012300E00223FB737B681B685B68DAB203
:102190007B689A752AE07B681B685B68DAB27B68AB
:1021A0009A757B681B6820229A617B681B681022E5
:1021B0001A607B681B6808229A617B681B681B6831
:1021C00003F01003002B14BF01230023DBB2002B0C
:1021D00000D0F2E77B681B7D03F00103002B02D0E7
:1021E0000123FB7301E00223FB7300BFFB7B184656
:1021F0001437BD4680BC704780B483B000AF7860B0
:10220000012318460C37BD4680BC704790B585B099
:1022100000AFF860B9607A60BB68002B01D1002381
:1022200018E0BB681B78002B13D0FB681B680433D5
:102230001C68BB685A1CBA601B787A681946F86833
:10224000A047034683F00103DBB2002BE9D0002353
:1022500000E0012318461437BD4690BD80B584B018
:1022600000AFF860B9607A607A68B968F868FFF71B
:10227000CDFF7A680349F868FFF7C8FF00BF103741
:10228000BD4680BDDCFE020080B586B000AFF860C0
:10229000B9607A603B600023BB7400237B6100233C
:1022A000FB74FB681B681B6807F112013A68F86849
:1022B00098470346002B1DD0BB7C0D2B07D0BB7C61
:1022C0000A2B04D0BB685A1CBA60BA7C1A707B69AE
:1022D00001337B617A697B689A42ACBF012300239A
:1022E000DBB2002B05D1BB7C0A2BDAD10123FB74B6
:1022F00000E000BF7B69002B02DDBB6800221A7082
:10230000FB7C18461837BD4680BD0EB480B587B03B
:1023100000AF78600EF074F80346022B0CBF012367
:102320000023DBB2002B07D07B68D86800234FF076
:10233000FF3200210EF010FD00237B6107F128031E
:10234000FB60FB68BB607B6858687B681B8919462B
:10235000BB687A6A1AF074FB78617B681B891A463D
:102360007B699A421CDC10233B617B69002B00DAFD
:102370000F331B1101339BB21B019AB27B681A8188
:102380007B685A687B681B891946104618F04CFE1A
:1023900002467B685A607B685B68002B01D0D0E7FF
:1023A00000BF7B685B684FF0FF3219467868FFF723
:1023B0002DFF0EF025F80346022B0CBF012300234E
:1023C000DBB2002B06D07B68D868002300220021F6
:1023D0000EF034FB7B6918461C37BD46BDE88040D3
:1023E00003B0704780B582B000AF78600B4A7B685D
:1023F0001A607B6800225A607B6800221A817B6821
:1024000000221A7401200EF0EBFA02467B68DA60B3
:102410007B6818460837BD4680BD00BFE8FE020055
:1024200080B582B000AF7860084A7B681A607B682C
:102430005B68002B04D07B685B68184617F00EFBC6
:102440007B6818460837BD4680BD00BFE8FE020025
:1024500080B584B000AF78607B681B78BB737B6805
:1024600001331B787B730023FB7317F07DFA024660
:10247000BB7B013313441B7803F00403002B06D00D
:10248000BA7BFB7B1344DBB2303BFB7315E0BB7BB9
:102490003B7317F069FA02463B7B013313441B7808
:1024A00003F00303012B02D13B7B203300E03B7B95
:1024B000573BDAB2FB7B1344FB73FB7B1B01FB73C3
:1024C00017F052FA02467B7B013313441B7803F06A
:1024D0000403002B06D07A7BFB7B1344DBB2303B3A
:1024E000FB7315E07B7BFB7217F03EFA0246FB7A2A
:1024F000013313441B7803F00303012B02D1FB7A51
:10250000203300E0FB7A573BDAB2FB7B1344FB73CA
:10251000FB7B18461037BD4680BD80B582B000AF4A
:1025200078603960786819F07BF802463B680121D1
:10253000786817F0EDF800BF0837BD4680BDFFFF93
:1025400090B5CBB000AF07F10C04206007F1080094
:102550000160391D0A603A46136007F10C031B68DD
:10256000C7F81C3107F108031B68C7F818313B1D79
:102570001B68C7F81431D7F81C315B68C7F82431E1
:102580000023C7F82031D7F81831002B03D0D7F833
:102590001C31002B01D100239DE0D7F81C311A68B3
:1025A000D7F81831D7F8141110469847D7F81831D2
:1025B000D7F814114A489847D7F81C319A6807F1A0
:1025C00014034849184618F04BFF07F11402D7F8D6
:1025D0001831D7F8141110469847D7F81C31DA682B
:1025E00007F114033F49184618F03AFF07F11402A7
:1025F000D7F81831D7F8141110469847D7F81C317E
:102600001B7C1A4607F114033749184618F028FFB7
:1026100007F11402D7F81831D7F81411104698476B
:102620003B461B68002B11D007F114034FF4807256
:102630001946D7F81C0100F0C7FD07F11402D7F8BE
:102640001831D7F81411104698473DE0D7F82431D7
:102650005A1CC7F824211B781A4607F11403234992
:10266000184618F0FDFE07F11402D7F81831D7F814
:10267000141110469847D7F81C319B68D7F81C21D5
:10268000D26802FB03F3C7F8203119E0D7F82431F0
:102690005A1CC7F824211B781A4607F11403144961
:1026A000184618F0DDFE07F11402D7F81831D7F8F4
:1026B000141110469847D7F82031013BC7F8203154
:1026C000D7F82031012BE1D8D7F81831D7F81411F9
:1026D000084898470123184607F59677BD4690BDF0
:1026E00010FF020014FF02001CFF020020FF020086
:1026F00028FF020030FF020090B5B3B000AF786051
:1027000039600023C7F8C43007F118038022002184
:10271000184617F0FFF90023C7F8C0300023C7F8A8
:10272000BC300423C7F8B03028E0786816F06CFDA0
:10273000C7F8AC00D7F8AC30B3F1FF3F00F0BA8077
:10274000D7F8AC303A2B0AD1D7F8BC300133C7F8F0
:10275000BC30D7F8BC20D7F8B0309A4213DAD7F89B
:10276000AC30D9B207F11802D7F8C03013440A468A
:102770001A70D7F8C0300133C7F8C030D7F8C0306E
:102780007E2BD2D900E000BF00237B6107F1140249
:1027900007F118034C49184619F01BFEC7F8A800AA
:1027A00007F114031A464849002019F012FEC7F831
:1027B000A40007F114031A464349002019F009FE4A
:1027C000C7F8A000D7F8A830002B78D0D7F8A430ED
:1027D000002B74D0D7F8A030002B70D0D7F8A4000D
:1027E00016F0ADFB0446D7F8A00016F0A8FB034690
:1027F00003FB04F3C7F8C430D7F8A810386800F01A
:10280000F3FAC7F89C00D7F89C30002B50D0D7F8CB
:102810009C309B68D7F89C20D26802FB03F2D7F863
:10282000C4309A4244D1D7F89C305B68C7F8B830BE
:102830004FF0FF33C7F8B43032E0786816F0E4FCAC
:10284000034687F89B30786816F0DEFC034687F86D
:102850009A30786816F0D8FCC7F8B400D7F8B430CE
:10286000B3F1FF3F28D097F89B303B7497F89A302C
:102870007B740023BB7407F110031846FFF7E8FDD3
:102880000346FB73FA7BD7F8B8301A70D7F8B83024
:102890000133C7F8B830D7F8C430013BC7F8C430AB
:1028A000D7F8C430002BC8D1D7F8B4300A2B05D1E3
:1028B000012305E000BF02E000BF00E000BF0023ED
:1028C0001846CC37BD4690BD10FF020080B58AB0D7
:1028D00002AFF860B9607A603B60FB68002B41D0C2
:1028E000BB68002B3ED007F1100300221A605A602B
:1028F0009A60DA60FB685B68184603F0BAF8024633
:1029000007F110031949184618F0AAFDBB68396889
:1029100017489847FB681A68BB683968104698479B
:10292000BB6839681348984707F11002BB683968DB
:1029300010469847FB6858687B6800933B68BA6804
:102940000D4903F061F9BB6839680C489847FB688A
:102950001A68BB68396810469847BB6839680848E8
:10296000984700E000BF2037BD4680BD34FF02001D
:1029700038FF020010FF02004125010040FF020065
:1029800030FF020080B588B000AFF860B9607A60AF
:10299000BB68FB61FB691B68BB61FB695B687B61B2
:1029A000FB699B683B617B693A69B969F868FFF725
:1029B0008DFF00BF2037BD4680BDFFFF80B588B0CA
:1029C00000AFF860B9601346FB71FB79002B01D0B2
:1029D000012300E00023FB61FB683B61BB687B6176
:1029E000FB69BB6107F1100300221946034800F0A0
:1029F0003FF900BF2037BD4680BD00BF85290100DB
:102A000080B584B000AF786039600023FB603B681C
:102A1000002B05D03B68FA6803497868FFF756FF3A
:102A200000BF1037BD4680BD1B25010080B5A8B092
:102A300000AF78600023C7F89C300023C7F89830B7
:102A4000002387F8973007F10C03802200211846F5
:102A500017F060F853E007F10C033149184618F0FD
:102A600048FE024607F10C039A4244D107F10C03D9
:102A70003A21184618F0B4FD03460133C7F89030E8
:102A80003A21D7F8900018F0ABFDC7F88C00D7F8C2
:102A90008C30002B2FD0D7F88C305A1CC7F88C20E4
:102AA00000221A70D7F8900000F0C6F8C7F8980016
:102AB000D7F89830002B1ED0D7F88C0016F03FFACC
:102AC0000346C7F89C30012387F8973013E0D7F806
:102AD00098107868FFF710FE0346002B05D0D7F852
:102AE0009C30013BC7F89C3005E0002387F8973005
:102AF00097F897300FE0D7F89C30002BE7D107F11B
:102B00000C037A687F21184616F0E8FB0346002B79
:102B1000A1D197F897301846A037BD4680BD00BFB9
:102B200038FF020080B586B000AFF860B9607A6007
:102B30003B60FB687B61BB683B617B691B683969F3
:102B4000184618F05BFD0346002B14BF0123002339
:102B5000DBB218461837BD4680BD80B586B000AFE1
:102B6000F860B9607A603B60BB687B617B693A68FA
:102B70007968F8689847012318461837BD4680BD24
:102B800080B584B000AF78607B68002B03D07B6891
:102B90001B78002B01D1002347E0264B1B68002B3C
:102BA00004D102F051FF0246224B1A60786800F00F
:102BB00043F80346002B01D0002336E0082016F02E
:102BC00045FF0346FB60FB68002B01D100232CE08E
:102BD00008220021F86816F09DFFFB687A681A60E9
:102BE00002F032FF0246FB685A60FB685B68002B0C
:102BF00004D1F86816F032FF002316E00D4B1B6875
:102C0000F968184602F047FF034683F00103DBB280
:102C1000002B09D0FB685B68184616F01FFFF868A8
:102C200016F01CFF002300E0FB6818461037BD4675
:102C300080BD00BF38C3072080B586B002AF786082
:102C40000023FB607B68002B09D0074B186800232A
:102C5000009300237A68054902F0A6FFF860FB683C
:102C600018461037BD4680BD38C30720252B01000C
:102C700080B586B002AFF860B9607A60FB68002B5F
:102C800008D0064B18687B680093BB68FA68044953
:102C900002F0BAFF00BF1037BD4680BD38C3072021
:102CA0005B2B010080B586B000AFF860B9607A6038
:102CB0003B60FB687B61BB683B617B695A683B6931
:102CC0005B689A420CD07B691A683B691B6819469D
:102CD000104618F093FC0346002B01D0012300E0BE
:102CE000002303F00103DBB218461837BD4680BD50
:102CF00080B586B000AFF860B9607A603B60FB6871
:102D00007B61BB683B617B691B681946386918F0B9
:102D100075FC0346002B14BF01230023DBB21846C9
:102D20001837BD4680BDFFFF80B588B002AFF860A0
:102D3000B9607A607B80FB68002B08D0BB68002BF1
:102D400005D07B68002B02D07B88002B01D10023AB
:102D500044E0142016F07AFE03467B617B69002B69
:102D600001D100233AE07B69BA681A607B697A680E
:102D70005A607A887B699A603B8C002B01D03B8C2F
:102D800000E001237A69D3607B6997F824201A74E4
:102D9000FB6858680023009300237A69114902F008
:102DA00033FF034683F00103DBB2002B04D07869C4
:102DB00016F054FE002311E0FB685B687969184641
:102DC00002F069FE034683F00103DBB2002B04D05E
:102DD000786916F043FE002300E0012318461837F7
:102DE000BD4680BDA52C010080B586B002AF7860DD
:102DF00039600023FB607B68002B10D03B68002B00
:102E00000DD03B681B78002B09D07B6858680023E5
:102E1000009300233A68044902F0C6FEF860FB689C
:102E200018461037BD4680BDF12C010080B586B034
:102E300002AF786039600023FB607868FFF7FCFE22
:102E4000B860BB68002B10D03B68002B0DD03B68EE
:102E50001B78002B09D0BB6858680023009300231F
:102E60003A68044902F0A0FEF860FB681846103783
:102E7000BD4680BDF12C010090B58DB000AFF8606B
:102E8000B9607A60B968F868FFF7D0FF78627B6A4A
:102E9000002B01D100236AE10023FB627B6A5A68A0
:102EA0007B6ADB68796A896801FB03F313443B6240
:102EB000002387F82B307B6A1B7C013B072B00F239
:102EC000498101A252F823F0E92E0100572F010099
:102ED000C52F0100E73001005531010033300100FA
:102EE000DF300100793001000023FB617B6A5B6801
:102EF000FB621FE07B6A9A6807F11C031946F86AB7
:102F000016F0E3FD012387F82B300AE07B681B787D
:102F10002C2B03D17B6801337B6006E07B68013397
:102F20007B607B681B78002BF0D17B6A9B68FA6A18
:102F30001344FB62FA6A3B6A9A4280F00F8107F100
:102F40001C031A468C49786818F0AEFA0346012B28
:102F5000D0D000BF02E10023BB617B6A5B68FB62EB
:102F60001FE07B6A9A6807F118031946F86A16F0A1
:102F7000ACFD012387F82B300AE07B681B782C2BF3
:102F800003D17B6801337B6006E07B6801337B60A3
:102F90007B681B78002BF0D17B6A9B68FA6A13442C
:102FA000FB62FA6A3B6A9A4280F0DA8007F1180302
:102FB0001A467249786818F077FA0346012BD0D088
:102FC00000BFCDE00023FB757B6A5B68FB621FE0FE
:102FD0007B6A9A6807F117031946F86A16F075FDBF
:102FE000012387F82B300AE07B681B782C2B03D158
:102FF0007B6801337B6006E07B6801337B607B6824
:103000001B78002BF0D17B6A9B68FA6A1344FB6241
:10301000FA6A3B6A9A4280F0A58007F117031A46C4
:103020005749786818F040FA0346012BD0D000BF0A
:1030300098E07B6A58687B6A9B681A46002116F004
:1030400069FD7B6A5C68786818F0EAFA02467B6A78
:103050009B689A4204D2786818F0E2FA034602E0CC
:103060007B6A9B68013B1A467968204616F02DFD65
:10307000012387F82B3078E07B6A5B68FB6229E0EC
:10308000012387F82B307B6A5C6879683D4818F02B
:1030900030FB02467B689A420CBF01230023DBB25F
:1030A00001221946204616F035FD0AE07B681B78A0
:1030B0002C2B03D17B6801337B6006E07B680133F6
:1030C0007B607B681B78002BF0D17B6A9B68FA6A77
:1030D0001344FB62FA6A3B6A9A42D1D345E000236B
:1030E00087F82B3041E04FF000033B617B6A5B685F
:1030F000FB621FE07B6A9A6807F110031946F86AC1
:1031000016F0E3FC012387F82B300AE07B681B787C
:103110002C2B03D17B6801337B6006E07B68013395
:103120007B607B681B78002BF0D17B6A9B68FA6A16
:103130001344FB62FA6A3B6A9A4215D207F1100304
:103140001A461149786818F0AFF90346012BD1D01F
:1031500000BF09E0002387F82B3006E000BF04E041
:1031600000BF02E000BF00E000BF97F82B30184618
:103170003437BD4690BD00BF48FF02004CFF02003F
:1031800050FF020054FF02005CFF020080B586B0D1
:1031900000AFF860B9607A603B60B968F868FFF723
:1031A00045FE38610023FB753B69002B06D03A6869
:1031B0007968386900F008F80346FB75FB7D18460E
:1031C0001837BD4680BDFFFFF0B5A3B002AFF86071
:1031D000B9607A600023A7F87E30002387F87D303D
:1031E000FB681B7C013B072B00F2F78201A252F81F
:1031F00023F000BF15320100B33301007535010023
:10320000B93601003937010031360100D3350100EC
:1032100047360100012387F87D30FB689B68012B4E
:103220002DD1FB685B68BB677968BB6F93F9003091
:103230009A4AB86818F0E0F80123A7F87E3017E042
:10324000BB6F0133BB67B86818F0EAF97864BA68F5
:103250007B6CD0187A687B6CD11ABB6F93F9003005
:103260008F4A18F0C9F8B7F87E300133A7F87E30DE
:10327000B7F87E20FB68DB689A42E1D3B1E2FB68D5
:103280009B68022B2DD1FB685B687B6779687B6F3D
:10329000B3F90030834AB86818F0AEF80123A7F8F4
:1032A0007E3017E07B6F02337B67B86818F0B8F99F
:1032B0003864BA683B6CD0187A683B6CD11A7B6F63
:1032C000B3F90030764A18F097F8B7F87E3001333A
:1032D000A7F87E30B7F87E20FB68DB689A42E1D31E
:1032E0007FE2FB689B68042B2BD1FB685B683B6724
:1032F00079683B6F1B686C4AB86818F07DF8012349
:10330000A7F87E3016E03B6F04333B67B86818F0CF
:1033100087F9F863BA68FB6BD0187A68FB6BD11A2F
:103320003B6F1B68614A18F067F8B7F87E300133CD
:10333000A7F87E30B7F87E20FB68DB689A42E2D3BC
:103340004FE2FB689B68082B2FD1FB685B68FB662C
:103350007968FB6E18CBCDE90034554AB86818F08F
:103360004BF80123A7F87E3018E0FB6E0833FB66AC
:10337000B86818F055F9B863BA68BB6BD0187A68AA
:10338000BB6BD11AFB6E18CBCDE90034494A18F05B
:1033900033F8B7F87E300133A7F87E30B7F87E20D7
:1033A000FB68DB689A42E0D31BE2002387F87D309C
:1033B00017E2012387F87D30FB689B68012B2BD136
:1033C000FB685B68BB667968BB6E1B783A4AB86875
:1033D00018F012F80123A7F87E3016E0BB6E013317
:1033E000BB66B86818F01CF97863BA687B6BD018B4
:1033F0007A687B6BD11ABB6E1B78304A17F0FCFFE2
:10340000B7F87E300133A7F87E30B7F87E20FB682E
:10341000DB689A42E2D3E4E1FB689B68022B2BD184
:10342000FB685B687B6679687B6E1B88244AB8689A
:1034300017F0E2FF0123A7F87E3016E07B6E02331F
:103440007B66B86818F0ECF83863BA683B6BD01844
:103450007A683B6BD11A7B6E1B88184A17F0CCFF39
:10346000B7F87E300133A7F87E30B7F87E20FB68CE
:10347000DB689A42E2D3B4E1FB689B68042B41D13C
:10348000FB685B683B6679683B6E1B680D4AB868F1
:1034900017F0B2FF0123A7F87E302CE060FF020096
:1034A00068FF02006CFF020078FF020084FF020048
:1034B0008CFF020098FF0200A0FF0200ACFF020098
:1034C000B0FF0200BCFF02003B6E04333B66B868ED
:1034D00018F0A6F8F862BA68FB6AD0187A68FB6A36
:1034E000D11A3B6E1B689C4A17F086FFB7F87E30F6
:1034F0000133A7F87E30B7F87E20FB68DB689A427C
:10350000E2D36EE1FB689B68082B2FD1FB685B68F8
:10351000FB657968FB6D18CBCDE900348F4AB8683C
:1035200017F06AFF0123A7F87E3018E0FB6D08331F
:10353000FB65B86818F074F8B862BA68BB6AD0184E
:103540007A68BB6AD11AFB6D18CBCDE90034844A86
:1035500017F052FFB7F87E300133A7F87E30B7F886
:103560007E20FB68DB689A42E0D33AE1002387F8CB
:103570007D3036E1FB685B68BB657968BB6D1B78A5
:10358000784AB86817F038FF0123A7F87E3016E0B4
:10359000BB6D0133BB65B86818F042F87862BA6851
:1035A0007B6AD0187A687B6AD11ABB6D1B786E4A29
:1035B00017F022FFB7F87E300133A7F87E30B7F856
:1035C0007E20FB68DB689A42E2D3012387F87D30D6
:1035D00007E1FB685B687B6579687B6D1B78634AF4
:1035E000B86817F009FF0123A7F87E3016E07B6D5D
:1035F00001337B65B86818F013F83862BA683B6A23
:10360000D0187A683B6AD11A7B6D1B78584A17F03C
:10361000F3FEB7F87E300133A7F87E30B7F87E208E
:10362000FB68DB689A42E2D3012387F87D30D8E05B
:103630007968FB685B684F4AB86817F0DDFE0123C4
:1036400087F87D30CDE0FB685B683B6579683B6D52
:103650001B78002B01D0484B00E0484B484AB86823
:1036600017F0CAFE0123A7F87E301BE03B6D013343
:103670003B65B86817F0D4FFF861BA68FB69D018E9
:103680007A68FB69D11A3B6D1B78002B01D03A4B4D
:1036900000E03A4B3B4A17F0AFFEB7F87E300133FB
:1036A000A7F87E30B7F87E20FB68DB689A42DDD34E
:1036B000012387F87D3094E0FB685B68FB647D68DC
:1036C000FB6C1B68184614F093FC03460C46CDE9CE
:1036D00000342D4A2946B86817F08EFE0123A7F85A
:1036E0007E301FE0FB6C0433FB64B86817F098FF72
:1036F000B861BA68BB69D5187A68BB69D61AFB6C21
:103700001B68184614F074FC03460C46CDE90034DF
:103710001E4A3146284617F06FFEB7F87E30013357
:10372000A7F87E30B7F87E20FB68DB689A42D9D3D1
:10373000012387F87D3054E0FB685B68BB647968DF
:10374000BB6C18CBCDE90034114AB86817F054FEB1
:103750000123A7F87E3036E0C8FF0200D0FF020048
:10376000DCFF0200E4FF0200ECFF0200F0FF0200B9
:1037700050FF0200FCFF020054FF0200080003009B
:1037800010000300180003001C00030028000300C1
:103790002C000300BB6C0833BB64B86817F040FF13
:1037A0007861BA687B69D0187A687B69D11ABB6C7A
:1037B00018CBCDE900340E4A17F01EFEB7F87E3064
:1037C0000133A7F87E30B7F87E20FB68DB689A42A9
:1037D000E0D3012387F87D3003E0002387F87D30B4
:1037E00000BF97F87D3018468437BD46F0BD00BF56
:1037F0002800030080B58AB000AFF860B9607A6035
:1038000000237B6100233B62BB68FB6100237B627A
:103810000023BB61FB69002B37D0FB68002B34D041
:1038200000237B6228E0FB685B6807F11402796A79
:10383000184602F06CF938623B6A002B19D03B6ADB
:10384000DB683A6A926802FB03F3BB617B68002B7A
:1038500009D0FB691B687A68D0183B6A5B68BA6953
:10386000194616F032F9FB691A68BB691A44FB69FC
:103870001A607B6A01337B62FB685B68184602F062
:10388000F8F802467B6A9A42CDD800BF2837BD4679
:1038900080BD80B584B000AF78600023FB6007F185
:1038A0000C03002219467868FFF7A4FFFB6818464E
:1038B0001037BD4680BD80B584B000AF78603960F8
:1038C0000023FB6007F10C033A6819467868FFF79C
:1038D00091FFFB6818461037BD4680BD80B58AB0A1
:1038E00000AFF860B9607A6000237B6100233B621F
:1038F0000023FB6100237B627B68BB61FB68002BBC
:1039000039D000237B622DE0FB685B6807F114026D
:10391000796A184602F0FBF838623B6A002B1ED029
:103920003B6ADB683A6A926802FB03F3FB61BB699E
:103930001B68BA68D0183B6A5B68FA69194616F0CA
:10394000B5F80346002B04D0BB6900221A6000BF03
:1039500011E0BB691A68FB691A44BB691A607B6A8B
:1039600001337B62FB685B68184602F082F802460E
:103970007B6A9A42C8D800BF2837BD4680BD80B553
:1039800084B000AF786039600023FB6007F10C035E
:103990001A4639687868FFF7A1FFFB68002B14BF4F
:1039A00001230023DBB218461037BD4680BD80B529
:1039B00084B000AFF860B9607A607B689B685A1E7B
:1039C0007B689A607B689B68002B09DA7B689A6841
:1039D0007B689B699A4205DBBB68DBB20A2B01D08E
:1039E000012300E00023002B09D07B681B68591CD1
:1039F0007A681160BA68D2B21A701B7805E07A68EA
:103A0000B968F86819F058F8034618461037BD46EB
:103A100080BD80B483B000AF78607B685B6A184675
:103A20000C37BD4680BC704780B483B000AF78606F
:103A30007B681B6918460C37BD4680BC704780B454
:103A400083B000AF7860012318460C37BD4680BCB8
:103A5000704780B483B000AF7860012318460C37FC
:103A6000BD4680BC704780B483B000AF786001234E
:103A700018460C37BD4680BC7047FFFF80B582B04A
:103A800000AF78603960104B1B78002B17D07B6833
:103A90001B78002B0DD00D4B18687B685A1C7A6080
:103AA0001B781946094B1B689B681A46FFF77FFF76
:103AB000EDE73B68002B02D0386817F04BFA00BFE7
:103AC0000837BD4680BD00BF50C30720ECC00720AB
:103AD00080B582B000AF786039607B681B78002BBE
:103AE0000DD0114B18687B685A1C7A601B781946F8
:103AF0000D4B1B689B681A46FFF759FFEDE73B68C3
:103B0000002B03D0386817F025FA08E0064B186838
:103B1000054B1B689B681A460A21FFF748FF00BF48
:103B20000837BD4680BD00BFECC0072080B58AB015
:103B300000AF78607B683B613869FFF775FF02462C
:103B4000634B1B689A420CBF01230023DBB2002B9E
:103B500053D0002387F8273000233B6200215D48C3
:103B6000FFF78CFF3B695B6A5B491846FFF786FFEE
:103B700000215A48FFF782FF594B1B68FB61FB6924
:103B8000002B1ED0FB691B68FB60FB695B68FB6157
:103B90003B6A01333B62FB681B6810331B68F868A3
:103BA0009847034683F00103DBB2002BE7D0FB68A4
:103BB0005B6A4C491846FFF78BFF012387F82730D3
:103BC000DDE797F82730002B06D000214648FFF7A5
:103BD0007FFF0BF049FF10E00023BB61BA693B6A2D
:103BE0009A420AD2414B18680023002200210CF0AF
:103BF00025FFBB690133BB61F0E73C4B186800232C
:103C00004FF0FF3200210DF0A7F80BF0E1FF034663
:103C1000BB600BF0DDFF78613B695B68002B0AD06D
:103C20003B695A683B69DB68194610460DF0FDFA9E
:103C300002463B699A603B691B6814331B683A690A
:103C4000926A114638699847034683F00103DBB254
:103C5000002B08D03B695B6A25491846FFF738FFFF
:103C600000200BF0D5FD3B699B695A1C3B699A61AA
:103C70003B691B6A002B07D00BF0AAFF02467B6949
:103C80009A4201D9012300E00023002B13D00BF04E
:103C90009FFF02463B691B6A13447B613B691B69BA
:103CA00018460CF06DFB02463B695A613B695B6943
:103CB0009A003B695A613B69DB69002BACD03B69D8
:103CC000DA6907F10803114618460BF04DFCA3E72B
:103CD0003CC30720380003003C0003006C000300D5
:103CE00044C307209C000300B800030040C3072022
:103CF000E000030080B592B002AF0346FB710023E1
:103D000087F83F300023BB63874B1B68002B09D12A
:103D100000218648FFF7DCFE012387F83F3097F843
:103D20003F30FDE000218248FFF7A8FE7E4B1B6874
:103D30007B637B6B002B2DD0BB6B0133BB637B6B39
:103D40001B683B627B6B5B687B633B6A93F830303C
:103D5000FB613B6A596A3B6ADB6A9B089AB23B6A21
:103D600010330193FB6900933B6A72480BF0D7FA5A
:103D70000346002B0CBF01230023DBB2002BD8D05D
:103D80003B6A5B6A6C491846FFF7A2FE012387F87D
:103D90003F30CEE70021B86B0CF03AFE0246674B8D
:103DA0001A60664B1B68002B06D100216448FFF7A0
:103DB0008FFE012387F83F3000216248FFF75EFE47
:103DC000594B1B683B633B6B002B1DD03B6B1B6847
:103DD000BB613B6B5B683B63BB691B6808331B685B
:103DE000B8699847034683F00103DBB2002BEAD0A1
:103DF000B869FFF70EFE034653491846FFF768FE01
:103E0000012387F83F30DEE700215048FFF736FEF8
:103E1000454B1B68FB62FB6A002B52D0FB6A1B6898
:103E20007B61FB6A5B68FB627B691B680C331B6808
:103E300078699847034683F00103DBB2002B02D078
:103E4000012387F83F30FB79002B2FD07B695B6A19
:103E50001846FEF795FE38617B6903F114020223D0
:103E6000019301230093042339493869FEF75CFF6D
:103E7000034683F00103DBB2002B02D0012387F855
:103E80003F307B6903F11802022301930123009361
:103E9000042330493869FEF747FF034683F00103E6
:103EA000DBB2002B02D0012387F83F3097F83F3078
:103EB000002BB0D07B695B6A27491846FFF708FEE4
:103EC000A9E700212548FFF7D9FD2549254815F028
:103ED000FDFAF860FB68002B05D0F868FEF7A6FD38
:103EE000F86815F099F80023BB620F4B1B687B62E2
:103EF0007B6A002B12D07B6A1B68BB607B6A5B68A5
:103F00007B62BB68DA6ABB6A9A42F1D9BB68DB6A3A
:103F1000BB62BB681B69144A1360E9E797F83F303E
:103F200018464037BD4680BD44C30720100103003A
:103F3000400103002D3B01005801030040C307204E
:103F40007401030098010300B4010300C8010300D9
:103F5000F0010300FC010300080203002C0203002F
:103F60004C020300500203003CC3072080B584B01C
:103F700000AF78607B68002B11D0082001F0BAFFF9
:103F80000346FB60FB68002B09D0074B1A68FB68EF
:103F90005A60FB687A681A60034AFB68136000BFC6
:103FA0001037BD4680BD00BF44C3072080B582B036
:103FB00000AF03460A46FB711346BB710F4AFB79FB
:103FC0001370BB791846FFF795FE034683F0010393
:103FD000DBB2002B0AD000210948FFF74FFD0BF0A0
:103FE0000BFD00210748FFF773FD03E000210648A1
:103FF000FFF76EFD00BF0837BD4680BD50C30720E8
:1040000058020300740203009802030080B485B0D4
:1040100000AFF860B9607A60FB70184AFB681A60FC
:10402000FB6800225A60FB6800229A60FB684FF42C
:104030007A72DA60FB6800221A61FB6800225A611A
:10404000FB6800229A61FB680022DA61FB684EF689
:1040500060221A62FB68BA685A62FB68BA699A629F
:10406000FB687A68DA62FB68FA7883F83020FB68CC
:1040700018461437BD4680BC704700BFD802030005
:1040800080B584B000AF7860114B1B68FB60FB68A3
:10409000002B17D0FB681B68BB60FB685B68FB608C
:1040A000B868FFF7B6FC03461946786817F0A6FA19
:1040B0000346002B0CBF01230023DBB2002BE6D00C
:1040C000BB6800E0002318461037BD4680BD00BF26
:1040D00044C3072080B483B000AF0346FB71FA7974
:1040E000084B1B689A4206D2064B5A68FB799B0024
:1040F00013441B6800E0002318460C37BD4680BC03
:10410000704700BF48C3072090B587B000AF786004
:104110000EF00CF9C7E904017B6819464FF0000264
:10412000D7E904345B1844EB0204C7E9023400BF4A
:104130000EF0FCF80A460146D7E90234A24208BF55
:104140009942F5D300BF1C37BD4690BD80B582B003
:1041500000AF786000F013F80346002B03D07868B6
:104160000BF052FA07E07B684FF47A7202FB03F31C
:104170001846FFF7C9FF00BF0837BD4680BD80B5B0
:1041800000AF0CF03DF90346022B0CBF01230023C6
:10419000DBB2184680BD0FB480B5C2B000AF0023BB
:1041A000C7F804313B1D18464FF480731A460021AE
:1041B00015F0B0FC07F58A723B461A603B46381D85
:1041C0001B68D7F810214FF4807118F039FCC7F83C
:1041D00004013B1D184600F00AF8D7F804311846D0
:1041E00007F58477BD46BDE8804004B0704780B5D0
:1041F00084B000AF78607B68FB600DF039F907E0B0
:10420000FB681B7818460DF0EFFBFB680133FB6081
:10421000FB681B78002BF3D10DF042F900BF10377B
:10422000BD4680BD80B588B000AFF860B9607A60E7
:104230003B607B683B613B687B61BB68BB61BB6A81
:10424000FB617B69002B01D1094B7B613B69002B32
:1042500009D0BB69002B06D0FB6807F1100211469C
:10426000184600F017FA00BF2037BD4680BD00BFDA
:104270009C03030090B599B000AFF860B9607A6014
:10428000002387F85F307E49B86801F09AFA20224F
:104290007C49B86801F03AF90346002B0DD0794A01
:1042A000B968F86800F0C0F97A68B968F86800F091
:1042B00061F9012387F85F30DBE00023BB65002351
:1042C000BB65FB68184600F0F2F90246BB6D9A42E6
:1042D0008CBF01230023DBB2002B39D0FB68B96D02
:1042E000184600F0EFF978657B6D1B6820221946AF
:1042F000B86801F00BF90346002B25D07B6D1B68D5
:104300001A46B968F86800F08FF97B6D9B687A6D82
:10431000D2687968B8689847034683F00103DBB236
:10432000002B0DD04FF0FF3257497868FDF796FF0C
:104330007B6D5B684FF0FF3219467868FDF78EFFA2
:10434000012387F85F3003E0BB6D0133BB65B8E73D
:1043500097F85F3083F00103DBB2002B7CD00023A1
:10436000BB65FB68184600F0A2F90246BB6D9A4295
:104370008CBF01230023DBB2002B6DD0FB68B96D2D
:10438000184600F09FF9386507F1140107F13C0366
:104390002022184600F059FE3B6D1A6807F13C03D5
:1043A0001146184601F04FFA07F1340300221A6053
:1043B0005A6007F134031A463449B86800F00DFF1B
:1043C00007F13403184617F02BF90346012B0CD9DB
:1043D00007F1340207F13C031146184601F074F866
:1043E0000346002B01D0012300E00023002B26D040
:1043F0003B6D1B681A46B968F86800F015F93B6D0B
:104400009B683A6DD2687968B8689847034683F02C
:104410000103DBB2002B0DD04FF0FF321A49786850
:10442000FDF71CFF3B6D5B684FF0FF321946786863
:10443000FDF714FF012387F85F30002400E001241A
:1044400007F13C03184600F02BFE012C04D100BFFD
:10445000BB6D0133BB6584E797F85F3083F00103E0
:10446000DBB2002B05D04FF0FF3209497868FDF729
:10447000F5FE97F85F3018466437BD4690BD00BF23
:10448000A00303000C03030074030300A403030050
:104490003803030080B596B000AF786039604FF004
:1044A000FF322F493868FDF7B1FE00233B6500233A
:1044B0007B657B68184600F0FAF802467B6D9A42ED
:1044C0008CBF01230023DBB2002B3ED07B68796DCB
:1044D000184600F0F7F8F864FB6C5B68184617F0B4
:1044E0009FF80346202B24D9FB6C1A68FB6C5B6891
:1044F00007F10C001B4916F0B3FF07F10C030A216A
:10450000184617F0E3F8386507F10C033A6D9A4244
:104510008CBF01230023DBB2002B03D03B6D124A7A
:104520001068186007F10C0319463868FDF7EDFEB6
:1045300007E0FB6C1A68FB6C5B680C493868FDF798
:10454000E4FE7B6D01337B65B3E74FF0FF32084932
:104550003868FDF783FE00BF5837BD4680BD00BFF9
:1045600060030300AC030300C0030300C4030300A3
:10457000D003030080B588B000AFF860B9607A60FE
:10458000B86800F0B4FD0346002BCCBF0123002324
:10459000DBB2002B3DD00023FB61FB68184600F026
:1045A00086F80246FB699A428CBF01230023DBB2E6
:1045B000002B27D0FB68F969184600F083F8B86132
:1045C000BB691B681946B86800F09EFE0346002BC5
:1045D00014D0BB695B68002B07D0BB695B681B7894
:1045E000002B02D0BB695B6800E00D4B7B614FF094
:1045F000FF3279697868FDF731FE0EE0FB6901331F
:10460000FB61CAE74FF0FF3206497868FDF726FEE6
:1046100003E07968F868FFF73DFF2037BD4680BDAD
:10462000140303003803030080B586B000AFF860C0
:10463000B9607A6000237B6100237B61B86800F079
:1046400056FD02467B699A42CCBF01230023DBB2B0
:10465000002B11D07969B86801F03DF903461B7849
:10466000202B0CBF01230023DBB2002B03D17B697D
:1046700001337B61E2E700BF7969B86800F09AFF17
:104680000349B86801F054F800BF1837BD4680BD33
:10469000FC03030080B582B000AF786039603968F0
:1046A000786800F060F800BF0837BD4680BD80B470
:1046B00083B000AF78607B689B6818460C37BD46B6
:1046C00080BC704780B483B000AF786039607B688D
:1046D0009A683B689A4206D97B68DA683B689B0017
:1046E00013441B6801E07B68103318460C37BD4645
:1046F00080BC704780B584B000AF786039607B685B
:104700005A683B689A422AD87B68DA683B689B0003
:104710001946104616F088FC02467B68DA607B6812
:104720009B68FB60FA683B689A4214D2102001F043
:10473000E1FB034619460A46002313605360936069
:10474000D3607B68DA68FB689B0013441960FB68E0
:104750000133FB60E6E77B683A685A6000E000BF1F
:104760001037BD4680BD90B583B000AF786039602A
:104770007B689A687B685B689A4208D37B685A6852
:104780007B681B68134419467868FFF7B3FF7B68A2
:10479000DA687B689B68581C796888609B001344C2
:1047A0001A683B6814460FCB84E80F0000BF0C3733
:1047B000BD4690BD98B500AF0DF0B8FD4FF47A72CC
:1047C0004FF0000314F02CFA03460C46184621461D
:1047D00098BDFFFF90B5ADF5137D02AF3B1D18608E
:1047E0003B461960002387F83E32002387F83F32AA
:1047F0000023C7F82C323B461B68C7F83832FFF756
:10480000D9FF03460C46C7F8343207F108031846AF
:104810004FF409731A46002115F07CF9D7F83832A5
:10482000002B03D1012387F83E3233E007F1080360
:1048300012223649184608F07FFD034687F83F32BA
:1048400097F83F32002B22D107F10803DA6807F10D
:1048500008031146184609F0B2FA034687F83F32BA
:1048600097F83F32002B0CD107F50B73391D07F178
:104870000800D7F83822096809F048F8034687F895
:104880003F3207F10803184609F076FA02E02048A3
:1048900016F0ECFAFFF78EFF03460C461A46D7F8DF
:1048A0003432D31AC7F830321A4B1B881A46D7F85D
:1048B00030329A4204D2D7F830329AB2154B1A806D
:1048C000D7F82C32D7F838229A420CBF01230023A4
:1048D00087F83E3297F83E3283F00103DBB2002BBB
:1048E0000DD097F83F12D7F82C0207F108039A6809
:1048F0003B4600921B680246074816F0B7FA97F845
:104900003E32184607F51177BD4690BD00040300FE
:104910000C04030056C307202004030080B584B0B4
:1049200000AF0346FB710023FB60FB7983F00103BA
:10493000DBB2002B08D0144B186807F10C010023E0
:1049400000220CF009FA19E00F4B186807F10C016E
:1049500000230A220CF000FA0346002B0ED10B4B69
:104960001B8801339AB2094B1A80074B186807F16C
:104970000C0100234FF0FF320CF0EEF9FB681846F3
:104980001037BD4680BD00BF60C3072052C307205B
:1049900080B584B000AF78600B46FB70FB78002BCD
:1049A00008D0154B1868391D00234FF0FF320CF06A
:1049B00045F81DE07B68184616F032FEF8607A680C
:1049C000FB6813440A221A707A68FB680133FB60A3
:1049D000FB68134400221A707B68F9681846FFF7D9
:1049E000F9FE064B1868391D002300220CF026F84A
:1049F00000BF1037BD4680BD5CC3072060C30720E1
:104A000080B588B000AF7860474B1B68BB61BB695D
:104A100003F580637B610023BB60BB69FB610023FE
:104A20003B610023FB600023BB60404B186807F12B
:104A3000080100234EF660220CF08EF90346002B8D
:104A400002D0BB68002B09D1FA69BB69D31A194699
:104A5000B869FFF7BFFEBB69FB6164E0334B1B68BD
:104A600018460CF0A7FA034601333B61304B1B8814
:104A70001A463B69934203D93B699AB22C4B1A8080
:104A8000BB68184616F0CCFD3861BA683B69134420
:104A90000A221A70BA683B6901333B613B691344CF
:104AA00000221A70FA693B691A447B699A4227D33B
:104AB000FA693B6913441A467B69D31AFB60B968EB
:104AC0007A69FB69D31A1A46F86914F0FEFF7A690D
:104AD000BB69D31A1946B869FFF77CFEFB68002B47
:104AE00009D0BA683969FB68CB1A1344FA681946C9
:104AF000B86914F0EAFFBA69FB681344FB6109E086
:104B0000BB683A691946F86914F0DFFFFA693B6936
:104B10001344FB61074B186807F1080100234FF0AD
:104B2000FF320BF08BFF7EE758C307205CC30720E2
:104B300054C3072060C3072080B400AF054B1B6837
:104B4000002B14BF01230023DBB21846BD4680BCF6
:104B5000704700BF58C3072080B588B002AF7860A7
:104B600000237B610023FB600123FB744FF4806012
:104B700014F06CFF03461A46414B1A60404B1B6809
:104B8000002B40D0002204210A200BF0C1FE024677
:104B90003C4B1A60002204210A200BF0B9FE0246A9
:104BA000394B1A60374B1B68002B31D0364B1B68D2
:104BB000002B2DD000237B6112E0962014F046FFDD
:104BC0000346FB60FB68002B1FD02F4B186807F1D2
:104BD0000C01002300220BF031FF7B6901337B6164
:104BE0007B69092BE9D9002301937B68009300239B
:104BF0004FF4C072254926480AF091FB0346002B6A
:104C000005D0FB7C38E000BF02E000BF00E000BF41
:104C10001B4B1B68002B07D0194B1B68184614F060
:104C20001DFF174B00221A60174B1B68002B17D073
:104C300000237B6111E0144B186807F10C0100237D
:104C400000220CF089F80346002B03D0FB681846BD
:104C500014F004FF7B6901337B617B69092BEAD97E
:104C6000FB7C002B14BF01230023DBB283F0010384
:104C7000DBB203F00103DBB218461837BD4680BD36
:104C800058C307205CC3072060C3072054040300F7
:104C9000014A010080B582B000AF0BF0B1FB0346C2
:104CA000022B0ED1FFF748FF0346002B09D000234B
:104CB0007B60064B1868391D00234FF0FF320BF064
:104CC000BDFE00BF0837BD4680BD00BF5CC30720E6
:104CD00080B483B000AF0346FB71FB79032B04D88B
:104CE000FB79054A52F8233000E0002318460C37C0
:104CF000BD4680BC704700BF64C3072080B400AFCE
:104D0000024B1B881846BD4680BC704752C3072023
:104D100080B400AF024B1B881846BD4680BC70476C
:104D200056C3072080B400AF024B1B881846BD460F
:104D300080BC704754C3072080B582B000AF0346E3
:104D4000FB71FFF7F9FE034683F00103DBB2002B92
:104D50000CD0FB791846FFF7FFFE034683F00103F2
:104D6000DBB2002B02D0034816F0F4F800BF08377E
:104D7000BD4680BD5C04030080B485B000AF03462F
:104D80000A46FB711346BB71FB79012202FA03F359
:104D9000FB73BB79002B07D00C4B1A78FB7B1343BA
:104DA000DAB20A4B1A700BE097F90F30DB435AB2B4
:104DB000064B1B785BB213405BB2DAB2034B1A703E
:104DC00000BF1437BD4680BC704700BF40C00720FD
:104DD00090B5A5B00AAFB9607A603B600346FB733B
:104DE000FFF7AAFE034683F00103DBB2002B40F07D
:104DF000B68000233B660023FB6500237B6607F13A
:104E000028031846FBF732FBFFF7D4FC03460C4699
:104E1000BB650BF0F5FA0346022B0CBF0123002300
:104E200087F85730504B07F118040FCB84E80F0078
:104E3000BB68002B13D02F21B86816F047FC7866AA
:104E40007B6E002B04D15C21B86816F03FFC7866BD
:104E50007B6E002B05D07B6E0133BB6001E0434BC2
:104E6000BB607B68002B01D1404B7B6097F85730CB
:104E70001846FFF753FDF86597F82D30C3F3030389
:104E8000DBB23B6597F82C30C3F30403DBB2FB6461
:104E900097F82A30C3F30403DBB2BB6497F82930D8
:104EA000C3F30503DBB27B6497F82830C3F3050333
:104EB000DBB23B64BB6DFB63FB7B9B0007F16802CD
:104EC000134453F8503CBB637B681B78002B01D024
:104ED000274B00E0254B7B633B6808937B6B079374
:104EE0007B680693BB680593BB6B0493FB6B0393D2
:104EF0003B6C02937B6C0193BB6C0093FB6C3A6D33
:104F00001C49F86D16F0ACFA03463B6607F17C03CA
:104F10007B61FA6D3B6ED0183B6EC3F195017B69E6
:104F2000BA6F17F08DFDFB7B134A52F82320013234
:104F3000114941F8232097F857301946F86DFFF7CB
:104F400027FD0E4B1B781A46FB7B42FA03F303F056
:104F50000103002B04D0F86D15F0FCFF00E000BF4A
:104F60006C37BD4690BD00BFD40403008404030029
:104F7000880403008C04030064C3072040C007209A
:104F80000FB480B584B000AFFFF7D6FD034683F0C1
:104F90000103DBB2002B1BD10BF032FA0346022BCC
:104FA0000CBF01230023FB73FB7B1846FFF7B6FC05
:104FB000B86007F11C037B607B68BA699521B8680B
:104FC00017F03EFDFB7B1946B868FFF7E1FC00E0F7
:104FD00000BF1037BD46BDE8804004B0704780B5C3
:104FE00082B000AF786039607B6800221A707B68FD
:104FF00000225A607B6800229A607B680022DA6097
:105000007B6800221A613968786800F09CFC00BF58
:105010000837BD4680BD80B582B000AF7860786843
:1050200013F08DFF034618460837BD4680BD80B596
:1050300082B000AF7860396039687868FFF7CFFFD9
:105040007B6818460837BD4680BD80B584B000AF88
:10505000F860B9607A60FB6801221A70FB68002270
:105060005A60FB68BA689A60FB680022DA60FB68E5
:1050700000221A617B68002B02DD7B68013B00E0A7
:105080000023FA685360FB689868FB685B681A46FF
:10509000002114F03FFDFB6818461037BD4680BD67
:1050A00090B583B000AF78607B689B68002B0BD015
:1050B0007B681B7883F00103DBB2002B04D07B6894
:1050C0009B68184614F0CAFC7B68DB68002B09D08B
:1050D0007B68DC68002C05D02046FFF7E1FF204606
:1050E00000F020FF7B6818460C37BD4690BD80B5A8
:1050F00082B000AF78607B689B68184616F090FA23
:10510000034618460837BD4680BD80B483B000AF63
:1051100078607B685B6818460C37BD4680BC70477A
:1051200080B582B000AF786039607B685A683B68B0
:105130009A4205DA3968786800F005FC034600E019
:10514000012318460837BD4680BD80B483B000AF48
:1051500078607B689B6800221A7000BF0C37BD46E0
:1051600080BC70470EB480B589B000AF7860002372
:10517000FB6107F130033B617B689B68002B24D007
:105180003B69FB607868FFF7C0FF034601337B6132
:105190007B6898687969FB68FA6A17F051FCF861D6
:1051A0000123FB76FA697B699A4209DBFB690133CB
:1051B00019467868FFF7B4FF034683F00103FB76D6
:1051C000FB7E002B00D1D7E700BFFB6918462437D0
:1051D000BD46BDE8804003B070470EB480B585B0D1
:1051E00000AF786007F12003BB607B689B68BA68FA
:1051F000F969184617F056FCF860FB681846143732
:10520000BD46BDE8804003B070470CB480B588B09F
:1052100000AF7860396007F12C033B610023FB612C
:105220000023FB607B689B6807F10C023968184615
:1052300017F0CFF8B861BB69002B1CD0BB6A002BFC
:1052400019DD3B691A1D3A611B687B617B69002B84
:1052500002D07B69BA691A6007F10C031A463968F3
:10526000002017F0B6F8B861BB6A013BBB62FB696E
:105270000133FB61DFE7FB6918462037BD46BDE817
:10528000804002B0704780B584B000AF786039606C
:105290000023FB73386816F0C3F903461946786893
:1052A00000F030FB0346002B07D07B689B68396811
:1052B000184616F086F90123FB73FB7B184610375E
:1052C000BD4680BD80B582B000AF78603960396876
:1052D0007868FFF7D8FF00BF0837BD4680BD80B5AE
:1052E00082B000AF786039607B689B681946386887
:1052F00016F084F90346002B0CBF01230023DBB218
:1053000018460837BD4680BD80B582B000AF7860D2
:1053100039607B689B683968184616F034F9034693
:10532000002B0CBF01230023DBB218460837BD4613
:1053300080BD90B589B000AF786039604FF0FF3321
:10534000FB613B681B78002B69D07B689B681B78EE
:10535000002B64D07B689B687B617B691B78002B8A
:105360005DD03B681B78184617F0F2F803461946E3
:10537000786916F035F9B861BB69002B0CBF0123C1
:105380000023DBB2002B16D03B681B78184617F0C1
:10539000ECF803461946786916F022F9B861BB6942
:1053A000002B0CBF01230023DBB2002B03D04FF0F6
:1053B000FF33FB6133E03B6801333B61BA697B69D2
:1053C000D31AFB61BB690133FB60FB681B78002BC0
:1053D0001CD03B691B78002B18D0FB681B78184643
:1053E00017F0B6F804463B691B78184617F0B0F87A
:1053F00003469C4203D04FF0FF33FB6106E0FB689D
:105400000133FB603B6901333B61DEE73B691B789D
:10541000002B03D0BB6901337B619EE700BFFB69B2
:1054200018462437BD4690BD80B582B000AF786085
:10543000396039687868FFF77CFF0346B3F1FF3FB6
:1054400014BF01230023DBB218460837BD4680BDD8
:1054500080B584B000AF786039607B689B6839683C
:10546000184616F046F9F860FB68002B04D0FB687C
:105470007A6892689B1A01E04FF0FF3318461037A4
:10548000BD4680BD80B584B000AF786039603868B3
:1054900016F0C6F80346FB607868FFF728FE024660
:1054A000FB689A420BDB7B689B68FA683968184690
:1054B00016F0E5F80346002B01D1012300E000239C
:1054C00018461037BD4680BD80B584B000AF786007
:1054D0003960386816F0A4F80346FB607868FFF777
:1054E00006FE0246FB689A420BDB7B689B68FA6803
:1054F0001946386816F09CF80346002B01D10123A9
:1055000000E0002318461037BD4680BD80B586B048
:1055100000AFF860B9601346FB71B86816F080F808
:1055200003467B61F868FFF7E2FD02467B699A4219
:10553000B4BF01230023DBB2002B01D0002317E00E
:10554000FB689A687B6913441B78FB74B968F86838
:10555000FFF7BAFF0346002B08D0FA79FB7C9A428A
:1055600002D0FB7C002B01D1012300E0002300BF0F
:1055700018461837BD4680BD80B584B000AF78604E
:10558000396039687868FFF763FFF860FB68B3F14A
:10559000FF3F0AD0386816F043F803461A46F96808
:1055A000786800F04BF8034600E0002318461037F7
:1055B000BD4680BD80B584B000AF78603960786842
:1055C000FFF795FDB8600023FB733B68002B12DDED
:1055D0003A68BB689A420EDC7B6898687B689A6878
:1055E0003B68D118BA683B68D31A01331A4614F0E5
:1055F00077FA0123FB73FB7B18461037BD4680BD4D
:1056000080B584B000AF786039607868FFF76FFDCF
:10561000B8600023FB733A68BB689A4209DC7B6878
:105620009B68B9683A688A1A134400221A700123E9
:10563000FB73FB7B18461037BD4680BD80B586B036
:1056400000AFF860B9607A60F868FFF750FD386124
:105650000023FB75BB68002B25DBBA683B699A42C7
:1056600021DA7B68002B1EDD3A69BB68D21A7B68A1
:105670009A4203DA3A69BB68D31A7B60FB689A687E
:10568000BB68D018FB689A68B9687B680B44D1186E
:105690003A69BB68D21A7B68D31A01331A4614F0F0
:1056A0001FFA0123FB75FB7D18461837BD4680BDE8
:1056B00080B586B000AFF860B9601346FB71002377
:1056C0007B6100233B6100237B61FB689A687B69F7
:1056D00013441B78002B12D03A69BB689A420ED053
:1056E000FB689A687B6913441B78FA799A4202D165
:1056F0003B6901333B617B6901337B61E5E73A69D3
:10570000BB689A420AD1FB689A687B6913441B788C
:10571000002B03D07969F868FFF74CFF3B69002B39
:1057200014BF01230023DBB218461837BD4680BDE5
:1057300080B588B000AF786039600023FB6178687D
:10574000FFF7D5FCF8600023BB61BA69FB689A4299
:105750002CDA386815F064FF0346BB600023FB7544
:1057600000233B613A69BB689A4214DA3B693A68A4
:1057700013441A787B689968BB690B441B789A427A
:1057800005D10123FB75FB690133FB6103E03B6934
:1057900001333B61E6E7FB7D83F00103DBB2002BC5
:1057A00003D1BB690133BB61CFE700BFFB69002BAD
:1057B00003DDF9697868FFF7FDFE00BF2037BD46BD
:1057C00080BD80B586B000AF78603960386815F06C
:1057D00027FF0346BB607868FFF789FC0346013B5F
:1057E0007B617B69002B2ADB0023FB740023FB60B9
:1057F000FA68BB689A4217DAFB683A6813441A7869
:105800007B6899687B690B441B789A4208D1012315
:10581000FB747B689A687B69134400221A7003E06A
:10582000FB680133FB60E3E7FB7C83F00103DBB241
:10583000002B03D17B69013B7B61D2E700BF00BF36
:105840001837BD4680BD80B582B000AF7860396042
:105850003968786800F0C6F800BF0837BD4680BDDB
:1058600080B584B000AF78600B46FB700023BB812D
:10587000FB783B7307F10C0319467868FFF722FDAC
:1058800000BF1037BD4680BD80B582B000AF7860E4
:10589000396039687868FFF722FD034618460837F3
:1058A000BD4680BD80B483B000AF78607B689B68E4
:1058B00018460C37BD4680BC704780B582B000AF3B
:1058C00078607B689B681846FFF7A5FB034618467F
:1058D0000837BD4680BD80B582B000AF78603960C2
:1058E0007868FFF704FC02463B689A4204DD7B6857
:1058F0009A683B68134401E07B689B681846083748
:10590000BD4680BD80B586B000AF786039603B6829
:105910007B617868FFF7EBFB38617A693B69134478
:10592000FB607B685A68FB689A4207DAFB682033A1
:105930001946786800F007F8034600E0012318468E
:105940001837BD4680BD80B582B000AF7860396041
:105950007B681B78002B01D000233FE03B68002BC5
:1059600002D03B68013300E004237A6853607B680F
:105970005B68002B00DA0F331B1101331A017B68BF
:105980005A607B689B68002B15D17B685B68184662
:1059900014F05CF803461A467B689A607B689B6843
:1059A000002B14D07B6898687B685B681A460021DE
:1059B00014F0B0F80BE07B689A687B685B68013391
:1059C0001946104615F030FB02467B689A607B68EA
:1059D0009B68002B14BF01230023DBB21846083755
:1059E000BD4680BD80B584B000AF7860396038684E
:1059F00015F016FE0346FB607B685A68FB689A4206
:105A000019DAF9687868FFF79EFF034683F001030F
:105A1000DBB2002B0FD07B6898687B685B681A4606
:105A2000396815F03EFE7B689B687A6852681344BB
:105A300000221A7005E07B689B683968184615F0EB
:105A4000E7FD1037BD4680BD80B582B000AF0C20A9
:105A500013F0FCFF03467B607B68002B04D00C2214
:105A60000021786814F056F87B6818460837BD4660
:105A700080BD80B485B000AF78607B68FB60FB6858
:105A8000002B02D0FB689B6800E000231846143707
:105A9000BD4680BC704780B584B000AF7860396087
:105AA0007B68FB60FB68002B01D100232BE0082002
:105AB00013F0CCFF0346BB60BB68002B01D1002371
:105AC00021E0BB6800225A60BB683A681A60FB6834
:105AD0001B68002B06D1FB68BA681A60FB68BA68BD
